:02000004080FE3
:10000000E8ED012085020F085D521A00C1020F08B9
:1000100091020F0893020F0895020F0800000000DC
:1000200000000000000000000000000097020F0820
:1000300099020F08000000009B020F089D020F08A4
:100040009F020F089F020F089F020F089F020F08D0
:100050009F020F089F020F089F020F089F020F08C0
:100060009F020F089F020F089F020F089F020F08B0
:100070009F020F089F020F089F020F089F020F08A0
:100080009F020F089F020F089F020F089F020F0890
:100090009F020F089F020F089F020F089F020F0880
:1000A0009F020F089F020F089F020F089F020F0870
:1000B0009F020F089F020F089F020F089F020F0860
:1000C0009F020F089F020F089F020F089F020F0850
:1000D0009F020F089F020F089F020F089F020F0840
:1000E0009F020F089F020F089F020F089F020F0830
:1000F0009F020F089F020F089F020F089F020F0820
:100100009F020F089F020F089F020F089F020F080F
:100110009F020F089F020F089F020F089F020F08FF
:100120009F020F089F020F089F020F089F020F08EF
:100130009F020F089F020F089F020F089F020F08DF
:100140009F020F089F020F089F020F089F020F08CF
:100150009F020F089F020F089F020F089F020F08BF
:100160009F020F089F020F089F020F089F020F08AF
:100170009F020F089F020F089F020F089F020F089F
:100180009F020F089F020F0800F002F800F06AF8C3
:100190000AA090E8000C82448344AAF10107DA45E2
:1001A00001D100F05FF8AFF2090EBAE80F0013F0CA
:1001B000010F18BFFB1A43F001031847F8C10000F4
:1001C00018C20000103A24BF78C878C1FAD8520784
:1001D00024BF30C830C144BF04680C6070470000C1
:1001E0000023002400250026103A28BF78C1FBD840
:1001F000520728BF30C148BF0B607047692900F023
:100200000181642900F0FE80752900F0FB806F29D0
:1002100000F09281782900F0B9810368DB0928BFDA
:1002200041F08001632900F0E683E32900F0F983BF
:10023000002070471FB508F01DF99DE8030000F08D
:1002400051FC00F005FD04000020002107F0A2FC95
:10025000401C606000F0D4FA1FBD10B5002006F00D
:10026000A7FD10BD00F0CEFC1146FFF7E3FF07F03D
:100270007FFC00F00FFD03B4FFF7EFFF03BC00F0BD
:10028000BBFC00000948804709480047FEE7FEE73D
:10029000FEE7FEE7FEE7FEE7FEE7FEE7FEE7FEE736
:1002A00004480549054A044B7047000035260F08ED
:1002B00089010F0810E70120E8ED0120E8ED012099
:1002C00000B5FFB441464A4653465C4665463EB4D7
:1002D0000D496A460A600D4908600D4988473EBCD1
:1002E000884691469A46A346AC46FFBC00BD0648E8
:1002F00001688D463EBC884691469A46A346AC4668
:10030000FFBC044800BD0000F0FF0120F4FF012005
:1003100091010F0864BC0F080FB41CB5074B06AA67
:100320007B4469460090059800F043FB0020694635
:1003300000F052FB1CBC5DF814FB0000B506000089
:1003400070B5044685690068C10601D5302600E015
:100350002026C00707D070BDD4E901213046904760
:10036000206A401C20626D1EF6D570BD70B5044633
:1003700085690078C00707D170BDD4E9012120202C
:100380009047206A401C20626D1EF6D570BD09683A
:100390004A0501D540B27047C905FCD500B2704787
:1003A00009684A0501D5C0B27047C905FCD580B2BD
:1003B000704770B50C460546012A05D0287880069E
:1003C00000D5EA69002302E0012305E05B1C9342AB
:1003D00002D2E05C0028F9D1A869E618C01AA86129
:1003E000286A184428622846FFF7AAFF04E0D5E9E6
:1003F000012114F8010B9047B442F8D32846FFF7C7
:10040000B5FF70BD2DE9F04106460024106875293E
:10041000314616A510D0FFF7BAFF002802DA404295
:1004200013A507E031688A0701D512A502E0490744
:1004300004D511A5012401E0FFF7B2FF00210A2233
:1004400006F1240709E0B0FBF2FCB0FBF2F302FB7B
:100450001C00303078541846491C0028F3D123463C
:100460002A463046BDE8F04100F045BA00000000E1
:100470002D0000002B000000200000002DE9FF5F90
:1004800015468A460446DFF8AC80F8440027D8E9D0
:1004900000103E46CDE9001010E03AF816106A460A
:1004A00002A800F0CAFA411C07D02178890603D5BA
:1004B000E269391891420DD80744761C20788006ED
:1004C00002D5E069B84205DDAE42E6DB3AF8160037
:1004D0000028E2D1A069C01BA0612046FFF730FFD1
:1004E000D8E90010CDE90010002017E03AF8181004
:1004F0006A4602A800F0A1FAB0F1FF3F81460BD096
:1005000000250DF1080B05E0D4E901211BF80500D9
:1005100090476D1C4D45F7D308F10100B04280466D
:10052000E4DB206A384420622046FFF71FFFBDE865
:10053000FF9F0000E6B7000070B504462146106832
:10054000FFF72EFF002104F1240505E000F007026B
:100550003032C0086A54491C0028F7D120680023B3
:1005600008A2050708D500F02000084304D0E06980
:10057000012305A2401EE0612046BDE8704000F066
:10058000BAB90000000000003000000070B5044659
:100590000D4621461068FFF703FF2188090502D5A3
:1005A0000F4A7A4402E00E4A7A440E32002104F1E6
:1005B000240305E000F00F060009965D5E54491C17
:1005C0000028F7D120780023000704D5702D02D031
:1005D00009B1022311322046BDE8704000F08BB90A
:1005E000D6B600002DE9F05F894604464FF0000AB8
:1005F000DFF874B1FB44C0F820A02046E1688847CA
:10060000002874D0252806D0D4E901219047206A1B
:10061000401C2062F1E700265F462046E1688847DB
:100620002028054607DB312D05D2781910F8200C5B
:1006300008B10643F1E7B00701D526F00406C4F877
:100640001CA00027C4F818A02A2D09D0284607F0BE
:100650006DFA38B304EB8708303DC8F8185019E03C
:1006600059F8041B204604EB87029161E168884732
:10067000012F054618D1E069002820DA26F020066F
:100680001DE0D8F8180000EB800005EB4000303882
:10069000C8F818002046E1688847054607F046FA82
:1006A0000028EED1012F0AD02E2D08D12046E16876
:1006B00088477F1C0546022F46F02006C4DBA06950
:1006C000002803DA404246F00106A061F00701D09D
:1006D00026F010066C2D0BD0682D09D04C2D39D08A
:1006E0006A2D35D0742D35D07A2D33D016E038E010
:1006F000E1682F4620468847B842054609D16C2F4D
:1007000026D04FF48060E1680643204688470546BE
:1007100004E06C2F1AD04FF4807006430DB3A5F19E
:100720004100192802D8203546F400664A46294679
:10073000204626604E46FFF761FD80B101280BD0B0
:10074000F61D26F0070000F1080956E74020E4E70F
:100750008020D8E70020D6E706F104094DE72846B7
:1007600052E7206ABDE8F09FACB6000010B5431C0C
:1007700002E010F8011B71B18107FAD14FF001328C
:1007800002C88C1A8C4314EAC211F9D0C01A0A06A6
:1007900003D0C01E10BDC01A10BD0A0401D0801EB7
:1007A00010BD0902FCD0401E10BD4FF0000200B584
:1007B000134694469646203922BFA0E80C50A0E884
:1007C0000C50B1F12001BFF4F7AF090728BFA0E832
:1007D0000C5048BF0CC05DF804EB890028BF40F8FE
:1007E000042B08BF704748BF20F8022B11F0804F40
:1007F00018BF00F8012B7047704770477047000022
:1008000070B5064C7C44064D7D4403E020682044CE
:100810008047241DAC42F9D170BD0000DCBC000053
:10082000DCBC000000487047E0E60120004870474B
:10083000E4E6012070B5064600F034F9056806F1DB
:100840000B0020F00704B4429CBF002070BD2B4673
:100850006A68BAB11068A04210D304F10801884256
:100860003CBF5068586007D3516810194160116847
:10087000091B016058601460101D70BD134652685A
:10088000002AE7D12146284600F018F90028DED1D9
:1008900070BD70B50446051F00F004F90068002C17
:1008A00014BF446870BD002C18BFAC423CBF20464A
:1008B0006468F8D301680A18AA4218BF456003D1DA
:1008C0002A6805461144016028684119A1421CBFED
:1008D0006C6070BD6168696021680844286070BD03
:1008E00010B500F0E3F8006810BD10B5044600F044
:1008F000DDF8046010BD2DE9F0470D46994692469B
:10090000044600F124080168880604D5E06921F056
:100910001001216000E00120A84201DD471B00E03A
:100920000027A1697A1902EB0900081AA061207852
:10093000C00602D42046FFF703FD002608E0D4E9F4
:1009400001211AF806009047206A401C761C20629C
:100950004E45F4DB2078C0060AD52046FFF7F0FCB0
:1009600006E0D4E9012130209047206A401C206233
:10097000381EA7F10107F4DC07E0D4E9012118F8DB
:1009800005009047206A401C2062281EA5F1010541
:10099000F3DC2046FFF7EAFC2078000602D50220AF
:1009A000BDE8F0870120FBE701694A1C0261087875
:1009B000704700B58FB0CDE901310021059105499F
:1009C0007944CDE9031011466846FFF70BFE0FB0DE
:1009D00000BD0000E5FFFFFF0A6802F8010B0A6096
:1009E000704710B5436913B1AFF3008001E0FFF722
:1009F000E0FC012010BD127800F124010A700022F1
:100A00004A700122EDE711684FF0FF32E9E710B5B7
:100A1000436913B1AFF3008001E0FFF72FFD012020
:100A200010BD128800F1240182840022C2840122B8
:100A3000EDE711684FF0FF32E9E770B516460C4656
:100A4000054600F027F8036893F80101012806D055
:100A5000FF2C0FD8185D68B101202C7070BDD3F841
:100A600007013246214603F2071303442846BDE836
:100A7000704018474FF0FF3070BD10B500F06EF8B1
:100A8000BDE8104000F064B800F080B8004870473E
:100A9000ACE6012010B500F0DBF8001D10BD00BF72
:100AA000F570000000487047B4E601200048704728
:100AB000ACE60120704770477047704738B5044670
:100AC0000A4600206946AFF30080002808BF38BD01
:100AD00002460099204600F0C3F8012038BD0120ED
:100AE00000F0FFB8F8B5AFF30080054600200C46D3
:100AF000102000BF0646A819A0420DD9324669460B
:100B00000020AFF30080070008BF00F0EAF800986B
:100B1000A04218BF0546C419FFF7C4FF0560074689
:100B2000F01D20F007004619284600F00AF8B442EC
:100B300008BFF8BDA21B31463868BDE8F84000F098
:100B40008FB800210160C0E9011070471020704784
:100B5000002801D000F050B87047000010B5002107
:100B600002A000F0A5F8012010BD00005349475035
:100B700056464E3A205075726520766972747561DA
:100B80006C20666E2063616C6C65640010B500F0CB
:100B90000EF8016919B100220261884701E08068FE
:100BA000804700F07DF8000010B500F079F870B5CE
:100BB00000F052F804680546A4B92020FFF73AFE79
:100BC000040011D0094900202C60C4E90001084943
:100BD000A1602073206160610649A06109B100F045
:100BE00087F8E061204670BD00F05AF80000000070
:100BF000A90B0F080000000001491820ABBEFEE75A
:100C0000260002007546FFF741FFAE460500694623
:100C1000534620F00700854618B020B5FFF740FB8B
:100C2000BDE820404FF000064FF000074FF00008ED
:100C30004FF0000B21F00701AC46ACE8C009ACE86E
:100C4000C009ACE8C009ACE8C0098D467047000097
:100C500000487047CCE6012000487047E8E60120D4
:100C6000034640688C46002818BF88423CBF0346B4
:100C70004068F8D318681844884207D00CF1030084
:100C800020F00700001D411A521A0146081D0A6093
:100C9000FFF7FFBD0446AFF300802046FFF7EBFAF5
:100CA000002000F04BF8FFF7D8FA0120FFF7A4FF6F
:100CB00070B505460C460A2000E06D1C00F036F8C1
:100CC00035B128780028F8D102E0641C00F02EF835
:100CD00014B120780028F8D1BDE870400A2000F057
:100CE00025B810B500F032F8BDE81040FFF730BF6E
:100CF00010B58820FFF79EFD002801D0002101706B
:100D000010BD802902D808B1017809B100207047D0
:100D1000012100F8081B704718B100F10802914248
:100D200001D00020704700210170704708B5694666
:100D30008DF800000320ABBE08BD704710B500F071
:100D40006DF8BDE81040FFF703BF000010B50128A3
:100D500005D0002103A0FFF7ABFF012010BD09A1C2
:100D6000F8E7000053494752544D454D3A204F751E
:100D700074206F662068656170206D656D6F727993
:100D8000000000003A2048656170206D656D6F724B
:100D90007920636F72727570746564004FF0013C66
:100DA00050F8042B51F8043B9A4221D1A2EB0C03DA
:100DB000934313EACC1317D150F8042B51F8043B9A
:100DC0009A4215D1A2EB0C03934313EACC130BD137
:100DD00050F8042B51F8043B9A4209D1A2EB0C03C2
:100DE000934313EACC13DBD04FF00000704700BFF1
:100DF000D01A01BAB1FA81F101F0180122FA01F01A
:100E0000CB40C1F12001DBB2C0B2C01A2CFA01F311
:100E1000D11A914311EAC311E6D1704710B50021F0
:100E200002A0FFF745FF012010BD000053494741D4
:100E30004252543A2041626E6F726D616C2074654B
:100E4000726D696E6174696F6E00000030B51A4989
:100E50008379026853B30B6893430B600A1D1368D0
:100E60000468A343136002790A44136804682343A7
:100E70001360114A083213680468A3431360131DFA
:100E80001C680568AC431C604479102C05D02144D3
:100E90000A68006802430A6030BD11680468214393
:100EA0001160196800680143196030BD0079084479
:100EB00001689143016030BD003C0140F0B5002362
:100EC000012403270D6804FA03F21540954242D12C
:100ED000D0F800C05E0007FA06F52CEA050CC0F851
:100EE00000C091F804C0D0F800E00CFA06FC4CEA0F
:100EF0000E0CC0F800C091F804C0BCF1010F02D084
:100F0000BCF1020F1FD1D0F808C02CEA050CC0F8C4
:100F100008C091F805C0D0F808E00CFA06FC4CEACD
:100F20000E0CC0F808C0D0F804C02CEA020CC0F8BF
:100F300004C0426891F806C00CFA03FC1FFA8CFC4E
:100F400042EA0C024260C268AA43C260CA79C5681C
:100F5000B2402A43C2605B1C102BB3D3F0BD4B07D9
:100F6000DB0E9A40C90810B500EB8100016A0F241E
:100F70009C40A1430162016A1143016210BD024617
:100F8000002012690A4200D0012070470AB1018393
:100F900070474183704700002DE9F05F5B4CDFF83C
:100FA00070A18346C4E91601DAF8000016465746D8
:100FB00001695846884705463146564804F0ECFF1B
:100FC000304603F0DBFF8119524805F02CF85249F6
:100FD000504805F095F850494E48A83105F090F872
:100FE0004E494C4805F08CF84C494A48A83105F068
:100FF00087F84B49474805F083F849494548A831E7
:1010000005F07EF8A4F18000002606703868032100
:101010000268A06D9047C0B2424F4FF0010901280D
:1010200024D087F8009000213C4804F03DFC7E70FD
:1010300087F80290E06DB04638B3DAF800105646F3
:10104000A1460A681C219047C4B230681D2102687D
:10105000D9F85C009047C6B2D9F8580003F04CF9B3
:10106000314A0146002052F821100BE03E70012168
:10107000DAE7A24200D178700A5CB24200D1B870BF
:10108000401CC0B20A5CFF2AF3D187F8038087F8BE
:10109000048087F8058087F8068087F8078087F83E
:1010A000088087F8098087F80A8087F80B805846FF
:1010B00000F060F817491D48C1F80C0100211548DF
:1010C00004F08CFF0920B0EB157F1AD0C5F3036044
:1010D000092816D00021124804F0E6FB0A20B0EBE4
:1010E000157F10D0C5F303600A280CD000210C48EE
:1010F000A83004F0D9FBBDE8F05F0021022001F028
:10110000D5B90121E7E70121F1E7000084E00120E2
:10111000F4FF012060E1012070E20120C0E3012022
:1011200010E50120A0E60120DC9D0F088D440F088A
:1011300010B50E4C204604F095FF04F5827005F0C2
:1011400065FD022001F0A6F9094C6188084305D02D
:10115000002902D06088401E608010BD0021084632
:1011600003F0ECF904206080F4E7000060E1012066
:1011700004E00120002103F0ADB900002DE9F14F9A
:10118000C54D0527C54EDFF81893DFF818830024F6
:1011900005F1850A3068295D02681AF80110009887
:1011A000904798F8003009EB83122B5D641CE4B281
:1011B00022F81300BC42EDD3B74D01270024DFF81D
:1011C000E4A2ED1E05F1010B0AF1E00A3068295D89
:1011D00002681BF801100098904798F800200AEB6D
:1011E000C2012A5D641CE4B241F82200BC42EDD386
:1011F000454698F80000DFF8A88200EB400108F1AE
:1012000040084FF0000A18F821000124E8BB3068BC
:10121000082102680098904729784F4609EB811110
:10122000888230680C210268009890472A7800B2C2
:1012300007EB821102EB420308EB83020883D278AA
:10124000012A35D1B1F9142002B9E8B312FB02F139
:1012500010FB001000EE100AB8EEC00A05F047FDC2
:10126000BDEEC00A287810EE101A07EB80108187B7
:10127000B0F91810B0F9140000EE101AF8EEC00A18
:1012800000EE100AB8EEC00A00E019E005F031FDEA
:10129000DFED850A20EE200ADFED840A297880EE52
:1012A000201A07EB8111BDEEC10A10EE100AC887A3
:1012B000686E08B180F82040286F08B180F820409F
:1012C00030680121026800E027E00098904786B26C
:1012D000070C56EA070008D07548B0F8000101284D
:1012E00003D00121724804F079FE686B58B306B14F
:1012F000BFB1704804F05EFB696B884202D16D4853
:1013000004F0BDFB686B4CF21861428B8A421AD024
:101310004183002104F097FA12E0A1F83CA05A2082
:10132000C5E700214183012104F08DFA614804F0F2
:1013300041FB696B884203D000215E4804F046FB04
:10134000686B80F820402878514600EB400208EB9B
:101350008200730680F805A04FF0020200D54271AA
:101360007B0600D544718171F30600D58271FB06BE
:1013700000D58471C171B30600D5C271BB0600D51A
:10138000C4710172F30700D00272FB0700D004722F
:10139000330600D502723B0600D504724172730712
:1013A00000D542727B0700D544728172B30700D525
:1013B0008272BB0700D58472C172310700D5C27238
:1013C000390700D5C472696BF1B33349AA6943790F
:1013D000491D568B31F813309E4202D0538382F858
:1013E0002040EA698379568B31F813309E4202D04F
:1013F000538382F820402A6AC379568B31F8133020
:101400009E4202D0538382F820406A6A037A568B48
:1014100031F813309E4202D0538382F82040AA6AEA
:10142000437A568B31F813309E4202D0538382F8B0
:101430002040EA6A837A568B31F813309E4202D0FC
:10144000538382F8204000E009E02A6BC07A538B76
:1014500031F81000834202D0508382F8204028697E
:1014600008B180F82040686908B180F820400D4834
:101470008030C06C08B180F82040686D08B180F8F9
:101480002040A86E08B180F82040686F002801D085
:1014900080F82040BDE8F88F839D0F08F4FF0120FD
:1014A00060E6012004E0012000003443C3F5484019
:1014B00060E1012018E3012070B506460E480024C3
:1014C0004068472815D040F23F11002000F0D2F9C3
:1014D00000F044FE4FF49635304600F00DFE641CDB
:1014E000AC42F9D3BDE8704001220421034800F06A
:1014F0003FB80021E9E7000034E101200004024088
:101500007CB50121022000F0DBFE042000900220C7
:101510008DF8050001208DF8040000208DF80600EC
:10152000114C8DF8070069462046FFF7C7FC0122E1
:101530000421204600F01CF880200C4D00906946E4
:101540002846FFF7BBFCE414694628460094FFF7E1
:10155000B5FC01222146284600F00AF8012280212C
:10156000284600F005F87CBD00040240000C024053
:10157000FFF70CBD064B30B49B68203AD2B21C6812
:10158000DB88534304EB430230BC00F003B8000097
:1015900034E101202DE9F74F9046002706460199D6
:1015A00000F068F91C4C31E000F0D8FD00254FF048
:1015B0000C094FF0800A4FF0010B17E0B0FBF9F176
:1015C000CA000AFA02F138F817202941114201D164
:1015D0000C2805D90BFA05F10A4203D10C2801D9D0
:1015E000608800E0208800F087FD6D1CA06880887E
:1015F000A842E3D8012204210848FFF7B9FF761C6E
:10160000B6B23046019900F035F97F1CA068C08859
:10161000B842C9D8BDE8FE8F34E101200004024081
:10162000704700002DE9F047194D804699466868DB
:1016300017460E460024472803D1A1F23F167042F8
:1016400086B23146404600F015F9B9F1000F1AD1C3
:1016500000F084FD03E0288800F04EFD641CBC42CD
:10166000F9D3BDE8F047012204210A48FFF780BF03
:10167000288800F063FD08F1010080B28046314601
:1016800000F0F8F8641CBC42F2D3BDE8F08700001B
:1016900034E1012000040240024A1388038050888C
:1016A0000880704734E101200148806870470000DD
:1016B00034E1012003484068472801D001207047E9
:1016C0000020704734E101207047000070B52D4CB8
:1016D0000025218821F038012180218841F008016E
:1016E000218000F073FD732000F09CFDFF21204657
:1016F00000F077FE8021204600F06AFE0028F9D134
:101700000121204600F064FE0028F9D0204600F0B8
:1017100066FE6D1CEDB2052DE8D3FF21204600F0DA
:1017200060FE8021204600F053FE0028F9D10220FF
:1017300006F023FA0121204600F04AFE0028F9D0E5
:10174000FF21204600F04DFE8021204600F040FEA3
:101750000028F9D1022006F010FA0121204600F0FD
:1017600037FE0028F9D0204600F039FE0546012258
:1017700004210548FFF7FCFE208820F03800208077
:10178000284670BD003C00400004024070B588B09F
:101790000121042000F094FD0121C80300F09CFD0C
:1017A00002258DF819504FF480608DF818500024F0
:1017B000244E05908DF81A408DF81B4005A930463F
:1017C000FFF77CFBE802059005A93046FFF776FBA2
:1017D000A802059005A93046FFF770FB06220A21F2
:1017E0003046FFF7BCFB06220C213046FFF7B7FB63
:1017F00006220B213046FFF7B2FB134E304600F0B5
:10180000A5FDADF800404FF48270ADF80200012054
:10181000ADF808004002ADF80A000720ADF804401A
:10182000ADF80C40ADF81000ADF80650ADF80E4024
:101830006946304600F0D7FD0121304600F07CFDBE
:1018400008B070BD00080240003C004001B5BDF882
:1018500000000149488008BD34E1012003B5BDF80E
:10186000001003480180BDF8041041800CBD000049
:1018700034E1012070B505460E480C464068472803
:1018800009D02946202000F073FC21462120BDE824
:10189000704000F06DBC210A022000F069FCE1B24A
:1018A000032000F065FC0021062000F061FC2946C1
:1018B0000720ECE734E1012001498860704700000F
:1018C00034E1012001B5BDF800000149088008BDE0
:1018D00034E101202DE9F05FFFF712FEFFF756FF1C
:1018E000FE48416847297CD041684FF48079A1F5D2
:1018F00013424FF4E06B41F2300A40F23F1741F2DD
:101900001808203A6ED0416840F20514A1F5A842AB
:1019100040F2062540F60806083A7DD04068A0F55A
:101920001341253979D10121002000F021FC4946DD
:10193000012000F01DFC5946022000F019FC414630
:10194000032000F015FC0021042000F011FC291FE9
:10195000082000F00DFC0021092000F009FC002106
:101960000A2000F005FC00210C2000F001FC002101
:101970000D2000F0FDFB00210F2000F0F9FB0021FD
:10198000102000F0F5FB0021112000F0F1FB0021F8
:10199000122000F0EDFB0021132000F0E9FB1420E1
:1019A00006F0CCF841F2B071102000F0E1FB40F2FB
:1019B0003711112000F0DCFB052006F0BFF8B91F3D
:1019C000122000F0D5FB052006F0B8F84FF4E851DE
:1019D000132000F0CDFB1321292000F0C9FB0520C6
:1019E00001E088E18FE006F0A9F80021202000F056
:1019F000BFFB0021212000F0BBFB0721302000F0BD
:101A0000B7FB40F20231312000F0B2FB2146322018
:101A100000F0AEFB294601E077E26AE3352000F0F2
:101A2000A7FB3146362000F0A3FB2946372000F003
:101A30009FFB40F20451382000F09AFB0721392027
:101A400000F096FB21463C2000F092FB31463D2001
:101A500000F08EFB0021502000F08AFBEF21512086
:101A600000F086FB0021522000F082FB3946532013
:101A700000F07EFB4FF42741602000F079FB01214C
:101A8000612000F075FB00216A2000F071FB00214D
:101A9000802000F06DFB0021812000F069FB002117
:101AA000822000F065FB0021832000F061FB002113
:101AB000842000F05DFB0021852000F059FB1021FF
:101AC000902000F055FB0021922000F051FB0321F3
:101AD000932000F04DFB4FF48871952000F048FBF7
:101AE0000021972000F044FB0021982000F040FBEB
:101AF0004146032000F03CFB40F233110720BDE8D3
:101B0000F05F00F035BB052006F018F84FF40041F7
:101B1000E52000F02DFB0121002000F029FB4946C3
:101B2000012000F025FB5946022000F021FB514620
:101B3000032000F01DFB0021042000F019FB40F2FF
:101B40000221082000F014FB0021092000F010FB06
:101B500000210A2000F00CFB00210C2000F008FB03
:101B600000210D2000F004FB00210F2000F000FBFD
:101B70000021102000F0FCFA0021112000F0F8FAFA
:101B80000021122000F0F4FA0021132000F0F0FAF6
:101B9000142005F0D3FF41F2B071102000F0E8FAF4
:101BA00040F23711112000F0E3FA052005F0C6FFDE
:101BB00040F23911122000F0DBFA052005F0BEFFDB
:101BC0004FF4E851132000F0D3FA1321292000F03C
:101BD000CFFA052005F0B2FF0021202000F0C8FA5E
:101BE0000021212000F0C4FA0621302000F0C0FAC4
:101BF00040F20111312000F0BBFA0321322000F045
:101C0000B7FA4FF48371352000F0B2FA40F6023192
:101C1000362000F0ADFA40F20231372000F0A8FA89
:101C200040F20771382000F0A3FA0721392000F0B4
:101C30009FFA4FF4C0613C2000F09AFA40F20B2169
:101C40003D2000F095FA0021502000F091FAEF219C
:101C5000512000F08DFA0021522000F089FA394617
:101C6000532000F085FA4FF41C51602000F080FAF8
:101C70000121612000F07CFA00216A2000F078FA4E
:101C80000021802000F074FA0021812000F070FA19
:101C90000021822000F06CFA0021832000F068FA15
:101CA0000021842000F064FA0021852000F060FA11
:101CB0001021902000F05CFA0021922000F058FAE8
:101CC0000321932000F054FA4FF48871952000F01E
:101CD0004FFA0021972000F04BFA01E034E1012097
:101CE0000021982000F044FA4146032000F040FA19
:101CF00040F2731102E70021EA2000F039FA2021B6
:101D0000EB2000F035FA0C21EC2000F031FAC42170
:101D1000ED2000F02DFA4021E82000F029FA3821CA
:101D2000E92000F025FA0121F12000F021FA10212C
:101D3000F22000F01DFAA321272000F019FA01215A
:101D4000402000F015FA0021412000F011FA002196
:101D5000422000F00DFA1021432000F009FA0E2174
:101D6000442000F005FA2421452000F001FA042166
:101D7000462000F0FDF95021472000F0F9F902213A
:101D8000482000F0F5F91321492000F0F1F919215C
:101D90004A2000F0EDF919214B2000F0E9F9162155
:101DA0004C2000F0E5F91B21502000F0E1F9312131
:101DB000512000F0DDF92F21522000F0D9F93F2108
:101DC000532000F0D5F93F21542000F0D1F93E21F5
:101DD000552000F0CDF92F21562000F0C9F97B21C4
:101DE000572000F0C5F90921582000F0C1F906215B
:101DF000592000F0BDF906215A2000F0B9F90C2154
:101E00005B2000F0B5F91D215C2000F0B1F9CC2178
:101E10005D2000F0ADF91B21084600F0A9F9012171
:101E20001A2000F0A5F92F21242000F0A1F9572154
:101E3000252000F09DF98621232000F099F9362114
:101E4000182000F095F90121192000F091F90021E6
:101E5000012000F08DF988211F2000F089F902206F
:101E600005F06CFE80211F2000F082F9022005F0B1
:101E700065FE90211F2000F07BF9022005F05EFE38
:101E8000D0211F2000F074F9022005F057FE052133
:101E9000172000F06DF90021012000F069F9002100
:101EA000022000F065F90021032000F061F9012112
:101EB000042000F05DF93F21052000F059F90021D0
:101EC000062000F055F90021072000F051F900210B
:101ED000082000F04DF9EF21092000F049F92821F0
:101EE000162000F045F90021362000F041F90421C8
:101EF000362000F03DF93821282000F039F906207D
:101F000005F01CFE3C212820F9E543F20801E320FE
:101F100000F02EF91221E72000F02AF941F23121D8
:101F2000EF2000F025F94946012000F021F959463B
:101F3000022000F01DF95146032000F019F900219C
:101F4000042000F015F940F20221082000F010F9F9
:101F50000021092000F00CF900210A2000F008F906
:101F600000210C2000F004F900210D2000F000F900
:101F700000210F2000F0FCF80021102000F0F8F8FC
:101F80000021112000F0F4F80021122000F0F0F8F8
:101F90000021132000F0ECF8142005F0CFFD0721FC
:101FA000112000F0E5F8052005F0C8FD41F2B02150
:101FB000102000F0DDF8052005F0C0FD40F2BD1155
:101FC000122000F0D5F8052005F0B8FD4FF4A0511F
:101FD000132000F0CDF80E21292000F0C9F80520CB
:101FE00005F0ACFD0021202000F0C2F83946212088
:101FF00000F0BEF80721302000F0BAF840F20231BC
:10200000312000F0B5F82146322000F0B1F8294621
:10201000352000F0ADF83146362000F0A9F8294609
:10202000372000F0A5F840F20451382000F0A0F865
:102030000721392000F09CF821463C2000F098F858
:1020400031463D2000F094F80021502000F090F837
:10205000EF21512000F08CF80021522000F088F888
:102060003946532000F084F84FF42741602000F0F7
:102070007FF80121612000F07BF800216A2000F048
:1020800077F80021802000F073F80021812000F013
:102090006FF80021822000F06BF80021832000F00F
:1020A00067F80021842000F063F80021852000F00B
:1020B0005FF81021902000F05BF80021922000F0E2
:1020C00057F80321932000F053F84FF488719520BE
:1020D00000F04EF80021972000F04AF800219820E7
:1020E00000F046F84146032000F042F84FF48971B1
:1020F00004E5BDE8F09F000070B50F4D0446010AED
:10210000284600F06EF98021284600F061F9002889
:10211000F9D1022005F031FDE1B2284600F061F965
:102120008021284600F054F90028F9D1BDE870401C
:10213000022005F022BD0000003C004010B504461E
:1021400000F00CF82046FFF7D7FF0122BDE8104051
:1021500004210148FFF70CBA0004024010B5222008
:1021600000F034F8BDE81040722000F05BB80000C9
:1021700070B50C4600F02AF8722000F053F8114DAB
:10218000210A284600F02DF98021284600F020F988
:102190000028F9D1022005F0F0FCE1B2284600F059
:1021A00020F98021284600F013F90028F9D10220F7
:1021B00005F0E3FCBDE87040012204210248FFF76E
:1021C000D7B90000003C00400004024070B505464D
:1021D000702000F027F8114C0021204600F001F992
:1021E0008021204600F0F4F80028F9D1022005F003
:1021F000C4FC2946204600F0F4F88021204600F077
:10220000E7F80028F9D1022005F0B7FCBDE87040DE
:10221000012204210248FFF7ABB90000003C004056
:102220000004024010B50446002204210948FFF7CB
:102230009FF92146084C204600F0D3F88021204623
:1022400000F0C6F80028F9D1BDE81040022005F0E2
:1022500094BC000000040240003C004030B50F2256
:10226000C47801780123FCB1144C246801F1E02109
:1022700004F4E064C4F5E064C4F30724C4F1040585
:10228000E2404478AC408578154025432A0181F826
:102290000024007800F01F018B404009800000F10D
:1022A000E020C0F8003130BD01F01F008340480934
:1022B000800000F1E020C0F8803130BD0CED00E07E
:1022C000044A0029116801D0014300E081431160F4
:1022D0007047000030380240044A0029116801D0DC
:1022E000014300E081431160704700004038024024
:1022F000044A0029116801D0014300E081431160C4
:102300007047000020380240044A0029116801D0BB
:10231000014300E0814311607047000044380240EF
:10232000044A0029116801D0014300E08143116093
:1023300070470000243802400029018802D041F093
:10234000400101E021F04001018070471A4910B5B9
:10235000884202D10121841424E01849884202D124
:102360000121041404E0164988420AD10121C41352
:102370002046FFF7BDFF2046BDE810400021FFF7D3
:10238000B7BF1049884202D1012144140AE00E4926
:10239000884202D101210C0504E00C4988420AD18F
:1023A00001214C052046FFF7BBFF2046BDE8104049
:1023B0000021FFF7B5BF10BD0030014000380040DC
:1023C000003C0040003401400050014000540140F6
:1023D0000246002012890A4200D0012070478089FD
:1023E00070478181704730B502884C8802F44153B0
:1023F0000A88CD8822438C882C4322430C892243AF
:102400004C8922438C892243CC8922431A4302807F
:10241000828B22F400628283098A018230BD00002F
:1024200038B500200090FFF755FA0020FFF74EF96D
:102430000146009045F20840094C814206D049F21D
:102440002530814202D0401F814203D16060FFF7F6
:1024500041FA01E04720606001480C30A06038BDBF
:1024600034E1012010B50021072000F01FF8002101
:10247000052000F01BF80021062000F017F80021CD
:10248000032000F013F80021BDE81040042000F004
:102490000DB800000349044A31F8101052F820002A
:1024A000FEF76DBD0CA10F0814E1012070B50446C4
:1024B00025480E4686B050F824000121FFF700FFA2
:1024C00001218803FFF720FF1F4800258DF81050D9
:1024D00010388DF8135030F8140003901B4803A9EE
:1024E00050F82400FEF7EAFC012E2BD116484030AC
:1024F00010F81410103810F8140000F029F81248E1
:10250000203030F8140000908DF804500CB10C20ED
:1025100000E008208DF8050001258DF8065068467A
:10252000FEF794FC0848503010F814008DF80800AD
:102530000F208DF809008DF80A008DF80B5002A8C5
:10254000FFF78CFE06B070BD1CA10F0814E101203E
:1025500010B58A0721F003040849130F21440F2204
:10256000D1F808489A409443C1F80848D1F808289F
:1025700098400243C1F8082810BD00000030014017
:102580000CB500202749019000900A6842F480327F
:102590000A604FF4A0430A6802F400320092019AE4
:1025A000521C0192009A12B9019A9A42F3D10A6818
:1025B000920334D5012000901A484030026842F05E
:1025C000805202601848026842F440420260154896
:1025D000083002680260026842F400420260026849
:1025E00042F4A0520260031F104A1A600A6842F0C7
:1025F00080720A600A689201FCD50D4A40F20571AA
:102600001160016821F003010160016841F00201DD
:1026100001600168C1F381010229FAD10CBD00906B
:102620000CBD000000380240007000400854400714
:10263000003C0240124810B5016841F4700101608D
:102640001048016841F0010101600E4A0021083282
:10265000116002680C4B1A400260031D0B4A1A609D
:10266000026822F48022026006480C300160FFF705
:1026700087FF03494FF000608039086010BD0000FB
:1026800088ED00E000380240FFFFF6FE1030002425
:102690002DE9FE4F282004F033FB03210091052390
:1026A0003B4A3CA104F0F0FA8246282004F028FBC3
:1026B0001E2100910523364A39A104F0E5FA81462E
:1026C000282004F01DFB3C2100910523304A3EA147
:1026D00004F0DAFA8046282004F012FB4B21009126
:1026E00005232B4A41A104F0CFFA0746282004F025
:1026F00007FB5A2100910523254A45A104F0C4FA9D
:102700000646282004F0FCFAB42100910523204A53
:1027100048A104F0B9FA0546282004F0F1FA732123
:10272000009105231A4A4B4904F0AEFA044651467B
:10273000174803F010F94946154803F00CF94146D3
:10274000134803F008F93946114803F004F93146FB
:102750000F4803F000F929460D4803F0FCF8214624
:102760000B4803F0F8F8282004F0CAFA0849962329
:10277000F7228DE80E0038492C234822096802F020
:1027800025FC03B00146BDE8F04F014803F0E3B873
:1027900070E2012048656C702050616765000000A0
:1027A00055736520746865206A6F79737469636B0B
:1027B00020746F20776F726B2077697468204C43A8
:1027C00044204755490000002D55502F444F574E87
:1027D00020746F206D6F7665206265747765656E15
:1027E00020636F6E74726F6C730000002D4C454651
:1027F000542F524947544820746F206D6F766520DE
:102800006265747765656E207061676573000000AE
:102810002D53454C20746F20696E7465726163742A
:1028200020776974682074686520636F6E74726FB6
:102830006C000000436F70797269676874205354AC
:102840004D6963726F656C656374726F6E696373F3
:10285000000000008E9D0F0800E001202DE9F04FE0
:1028600087B00021FE4803F01FF8282004F048FA42
:102870000021FB4A0B460091A832FAA104F004FAA9
:102880000746282004F03CFAF54A4FF0140B0A23BF
:10289000A832FAA1CDF800B004F0F6F905463820C8
:1028A00004F02EFA2121EE4A00910A23A832F649BB
:1028B00004F0FCF8F54C6060282004F021FADFF801
:1028C000A083352308F1A8080A21CDF80080CDE9BE
:1028D00001133C239B22EEA104F034F90646282084
:1028E00004F00EFA112100910F233246EDA104F0FD
:1028F000CBF90490282004F003FA252100910F233E
:102900003246EBA104F0C0F90590382004F0F8F944
:102910006E22CDE900624FF00F09CDF808902278C1
:1029200008F5527A0AEB82110323E4A202F06EFE4C
:102930002061382004F0E4F923216E220096CDE9CD
:102940000121227803230AEB8211DCA2891C02F008
:102950005DFE6061282004F0D3F9CD23CDE900832A
:10296000CDF808B0AA236422D5A104F0EBF80390B7
:10297000282004F0C5F90523CDF80090D2A1039AD0
:1029800004F082F9A061282004F0BAF92121009115
:102990000523D0A1039A04F077F9E061282004F020
:1029A000AFF9332100910523CDA1039A04F06CF90E
:1029B0002062282004F0A4F9452100910523CBA131
:1029C000039A04F061F96062282004F099F9572114
:1029D00000910523C8A1039A04F056F9A0622820AB
:1029E00004F08EF9692100910523C6A1039A04F031
:1029F0004BF9E062282004F083F97B210091052344
:102A0000C3A1039A04F040F92063302004F078F960
:102A10008D2100910A23C1A1039A02F0EDFBC24966
:102A2000606341624CF218614183002102F00BFFA8
:102A30004046616B02F08FFF3946404602F08BFF43
:102A40002946404602F087FF4046616802F083FF56
:102A5000207808F5627700EB400017F820106068D6
:102A600003F0E9FEB14804F1800500680169A86D32
:102A70008847C0067BD5282004F042F973230A2139
:102A8000CDF80080CDE901133C23BE22A8A104F0BB
:102A900059F88046282004F033F9112100910523CC
:102AA0004246A7A104F0F0F88246282004F028F955
:102AB0002521009105234246A2A104F0E5F88146B4
:102AC000382004F01DF90446A86D01F015FCDFF86C
:102AD000B8B121230BF10C0B42465BF820100F20FC
:102AE0000090204603F0E2FF684CA060382004F01C
:102AF00007F90190A86D01F0FFFB5BF8201023207F
:102B0000009021234246019803F0D0FFE060414647
:102B1000A7F5627002F01FFF5146A7F5627002F040
:102B20001AFF4946A7F5627002F015FFA7F562701B
:102B3000A16802F010FFA7F56270E16802F00BFFD8
:102B4000207800EB400007EB80004178A06803F09C
:102B500072FE207800EB400007EB80008178E0688F
:102B600003F069FEA16878484862E16848623C4821
:102B70003146A83002F0EFFE39480499A83002F03F
:102B8000EAFE37480599A83002F0E5FE3F4C34488C
:102B9000A830216902F0DFFE31486169A83002F0F7
:102BA000DAFE0021206902F04EFE0021606902F089
:102BB0004AFE5E4800680169A86D88470221B1EBB2
:102BC000107F03D0C0F30360022813D1302004F03B
:102BD00097F8B221224A00910A23A8325BA102F0A1
:102BE0000BFB014628641E48A83002F0B4FE296C95
:102BF0005B4848621A480399A83002F0ACFE1848B6
:102C0000A169A83002F0A7FE1548E169A83002F0DA
:102C1000A2FE1348216AA83002F09DFE1048616AA6
:102C2000A83002F098FE0E48A16AA83002F093FE88
:102C30000B48E16AA83002F08EFE0948216BA830EB
:102C400002F089FE2078A26900EB400007EB8001CA
:102C50000D484B79283830F8133053838B7981E055
:102C600070E20120436F6E66696775726174696F07
:102C70006E20616E64206465627567004374726CD7
:102C8000206D6F6465000000B09D0F0804E0012016
:102C9000506F77657220626F617264207374617423
:102CA0007573000044432042757320766F6C740086
:102CB0004865617473696E6B20542E00253364007F
:102CC0004661756C747300004F766572637572723D
:102CD000656E74005265767570206661696C0000DF
:102CE0005370656564206664626B0000535720650D
:102CF00072726F7200000000556E64657220766F0C
:102D00006C7400004F76657220766F6C7400000062
:102D10004F7665722074656D700000004661756CB9
:102D2000742061636B00000075440F08F4FF0120FC
:102D30004441432053657474696E6773000000005A
:102D4000436831004368320091480F08456E636F55
:102D500064657220616C69676E6D656E7400000059
:102D600001490F08E26930F813305383CB79226AA6
:102D700030F8133053830B7A626A30F81330538380
:102D80004B7AA26A30F8133053838B7AE26A30F8B8
:102D900013305383C97A226B30F811005083616875
:102DA0000348486207B00348BDE8F04F02F067BE31
:102DB000B94C0F0818E301202DE9F04F89B0282005
:102DC00003F09EFF00210B460091FE4AFEA103F096
:102DD0005BFF0390282003F093FFFA494FF0140A99
:102DE0000A238DE80A045A239122FCA103F0AAFECB
:102DF0000746282003F084FF1E2100913C233A4619
:102E0000F9A103F041FF0490282003F079FF41214C
:102E100000913C233A46F5A103F036FF05902820A7
:102E200003F06EFF0F21009105233A46F0A103F055
:102E30002BFF8346402003F063FF1E2105220097ED
:102E4000CDE90121EE490623A1F1E004227801EB4E
:102E5000C201ECA203F07EF8DFF8AC830646A06363
:102E6000D8F8000004F1800540210268A86D904761
:102E70008146D8F800003F210268A86D9047C6E956
:102E80000E90282003F03CFF3221009105233A46A2
:102E9000DEA103F0F9FE0690382003F031FF412156
:102EA00005220097CDE90121DFF8709322780623EF
:102EB00009EB8211D3A2091D02F0A8FB47F6FF72AD
:102EC0000021E06302F072FB302003F019FF412182
:102ED00000915A233A46D2A102F08EF9D2492064D9
:102EE000416201F0A1F9282003F00AFFB5497323DC
:102EF0000A228DE80E004B236822CCA103F022FEAB
:102F00000646282003F0FCFE0A233246CAA1CDF86B
:102F100000A003F0B9FE0790282003F0F1FE232162
:102F200000910A233246C5A103F0AEFE0890382076
:102F300003F0E6FE51464FF0280A0096CDE901A1C4
:102F40002278062309EB8211AEA2891D02F05EFBF6
:102F50006064382003F0D4FE23210096CDE901A15E
:102F60002278062309EB8211A6A2083102F04EFB5B
:102F7000A0649448039902F0EEFC9248049902F090
:102F8000EAFC9048059902F0E6FC39468D4802F0CB
:102F9000E2FC59468B4802F0DEFC8A48A16B02F045
:102FA000DAFC8848069902F0D6FC8648E16B02F00C
:102FB000D2FC8448216C02F0CEFC8248696C02F09D
:102FC000CAFC8048A96C02F0C6FC7E48E96C02F09D
:102FD000C2FC7C48696D02F0BEFC0021E86C02F086
:102FE00032FC7848296D02F0B6FC3146754802F093
:102FF000B2FC7448079902F0AEFC7248089902F0DE
:10300000AAFC7048616C02F0A6FC6E48A16C02F04C
:10301000A2FCD8F800000169A86D884780072AD56E
:10302000282003F06DFE32270A23324684A1009740
:1030300003F02AFE0546382003F062FECDE9006A5F
:1030400002972278062309EB82116EA20A3102F060
:10305000DDFAE06429465B4802F07DFC5948E16CEA
:1030600002F079FC47F6FF720021E06C02F09EFA54
:10307000616C7448486247F6FF752A460021606C0F
:1030800002F094FA2A460021A06C02F08FFAD8F8D8
:10309000000001695A486038806D8847C0077DD0BC
:1030A000282003F02DFE474973237D228DE80E0072
:1030B0004B23B42264A103F045FD0546282003F00C
:1030C0001FFE0E260A232A4663A1009603F0DCFDAC
:1030D0008346282003F014FE50232A465EA1009662
:1030E00003F0D2FD8246382003F00AFE0A22CDE921
:1030F00000521927029721784E4609EB81110423CB
:1031000057A20C3102F082FA2065382003F0F8FD56
:103110005022CDE9005202972178042306EB811159
:103120004FA20E3102F072FA6065282003F0E8FD2C
:103130002C270A232A4640A1009703F0A5FD8046CC
:10314000282003F0DDFD50232A463CA1009703F020
:103150009BFD0746382003F0D3FD0A22CDE900523B
:103160004FF03709CDF808902178062306EB81113E
:1031700024A2103102F04AFAA065382003F0C0FD05
:103180005022CDE90052CDF808902178062306EBB5
:1031900081111CA2123102F039FA00E092E0E065E0
:1031A0002946084802F0D7FB5946064802F0D3FBEF
:1031B0005146044802F0CFFB0248216D02F0CBFBE0
:1031C00000484FE0C0E30120537065656420636FE1
:1031D0006E74726F6C6C6572000000005365742031
:1031E000706F696E7400000072706D006D73000086
:1031F0005461726765742073706565640000000037
:10320000E4E0012025366400F4FF012052616D7076
:10321000206475726174696F6E00000060E60120C1
:103220004578656300000000514D0F085049442067
:103230004761696E730000004B5000004B4900006D
:103240004B44000065460F08466C757820776C2E5D
:103250002074756E696E670042555380000000004F
:1032600025346400616D02F076FB0021606D02F090
:10327000EAFA4146194802F06EFB3946174802F057
:103280006AFB1648A16D02F066FB1448E16D02F07E
:1032900062FB4FF47A720021206D02F087F947F645
:1032A000FF752A460021A06D02F080F92A46002110
:1032B000E06D02F07BF9216D09484862A16D48621A
:1032C000E16D4862616C06484862A16C486209B0D1
:1032D0000248BDE8F04F02F0D2BB0000C0E301207D
:1032E00065460F082DE9F04F8BB0282003F008FD4C
:1032F00000210B460091FE4AFEA103F0C5FC03909D
:10330000282003F0FDFC87210091E623F84AFEA166
:1033100003F0BAFC0490282003F0F2FC4FF00A09F5
:10332000F34DCDE900594FF014085A239122F8A12A
:10333000CDF8088003F006FC0646282003F0E0FCE8
:103340000F21009105233246F4A103F09DFCF54CBA
:103350002066382003F0D4FC1E2105220096CDE91A
:103360000121227805F5FC7101EB82110623EEA202
:10337000143102F04BF96066282003F0C1FC0F21E4
:10338000009150233246E9A103F07EFC05903820DD
:1033900003F0B6FC1E2150270096CDE9017122787A
:1033A00005F5FC7101EB82110623DFA2163102F054
:1033B0002DF9A066282003F0A3FC4FF0320B052363
:1033C0003246DBA1CDF800B003F05EFCE0663820A9
:1033D00003F096FC412105220096CDE901212278D7
:1033E00005F5FC7101EB82110623CFA2183102F022
:1033F0000DF92067282003F083FC3221009150232F
:103400003246CDA103F040FC0690382003F078FC52
:1034100041210096CDE90171227805F5FC7101EB9F
:1034200082110623C0A21A3102F0F0F8606728204A
:1034300003F066FC73220095CDE901924B236822CC
:10344000BEA103F07FFB0746282003F059FC0A23A6
:103450003A46BEA1CDF8008003F016FC0790382054
:1034600003F04EFC4FF02809CDE90079CDF8088033
:10347000227805F5FC7101EB82110623AAA21C310A
:1034800002F0C4F8A067282003F03AFC4FF0230AAA
:103490000A233A46AEA1CDF800A003F0F5FB089050
:1034A000382003F02DFC8DE88006227805F5FC71AC
:1034B00001EB821106239CA21E3102F0A7F8E067FF
:1034C000282003F01DFC732178220095CDE901210D
:1034D0004B2368229FA103F035FB0546282003F00B
:1034E0000FFC0A232A4699A1CDF8008003F0CCFBFB
:1034F0000990382003F004FCCDE90059CDF808808C
:1035000098492278062301EB821187A2223102F02A
:103510007DF804F18008C8F80800282003F0F0FBCB
:103520000A232A468AA1CDF800A003F0ADFB0A9039
:10353000382003F0E5FB8DE820068A49227806232F
:1035400001EB821178A2243102F060F84146C86094
:10355000302003F0D5FB73210091E623644A82A159
:1035600002F01EFC41468861382003F0C9FB962119
:103570000091E6235E4A7E4903F098FA4146C8610D
:1035800000F052FE5A48039902F0E5F958480499B0
:1035900002F0E1F93146564802F0DDF95448216E57
:1035A00002F0D9F95248616E02F0D5F950480599F8
:1035B00002F0D1F94E48A16E02F0CDF90021A06EC3
:1035C00002F041F94A48E16E02F0C5F94848216F1E
:1035D00002F0C1F94648069902F0BDF94448616F0E
:1035E00002F0B9F90021606F02F02DF94046416CFC
:1035F0003F4802F0B0F94046816C3D4802F0ABF91B
:103600004046C16C3A4802F0A6F94046416D384840
:1036100002F0A1F940460021C06C02F014F94046C6
:10362000016D334802F097F9207800EB40014D48D6
:10363000403000EB8100394606792D4802F08BF9C5
:103640002B48079902F087F92948A16F02F083F906
:103650002748089902F07FF92548E16F02F07BF9CD
:10366000A16F44484862E16F43484862434800689C
:1036700001694046806D8847400747F6FF7A2CD5A0
:10368000282003F03DFB0A233A463DA1CDF800B0C7
:1036900003F0FAFAC8F800004446382003F030FB83
:1036A000204A8DE8800A2F491278062301EB821107
:1036B0001DA2203101F0AAFF60600D48216802F0D0
:1036C0004AF90B48616802F046F9524600216068E9
:1036D00001F06CFF61682B484862124F5446524615
:1036E0000021B86F01F062FF22460021F86F4BE025
:1036F00068E4012043757272656E7420636F6E74A6
:10370000726F6C6C65727300496E707574000000A6
:1037100053657420706F696E747300004971207274
:1037200065662E0004E00120253664004971000022
:103730004964207265662E0049640000497120507A
:103740004944204761696E73000000004B5000003F
:103750004B490000496420504944204761696E7319
:103760000000000060E601204C696E6B0000000064
:10377000FC9D0F08E5470F08A1470F08F4FF012043
:103780004B44000059470F0801F010FF29465D48DF
:1037900002F0E1F85B48099902F0DDF84446594827
:1037A000D8F8081002F0D7F856480A9902F0D3F872
:1037B0005448E16802F0CFF8534800680169A06DF1
:1037C0008847DFF84881000731D5282003F098FAB0
:1037D0000A232A46AFF25801CDF800B003F054FA9C
:1037E0002061382003F08CFA8DE8200A48493A78A5
:1037F000062301EB8211AFF2D002263101F006FF61
:1038000060614048216902F0A6F83E48616902F013
:10381000A2F852460021606901F0C8FE002E56D081
:103820000021606902F00FF86169C1F824805546F3
:1038300052460021A06801F0B9FE2A460021E06846
:1038400001F0B4FE2F48A16902F085F82D48E16926
:1038500002F081F83878DFF8B89000EB400109F108
:10386000400909EB8100C178E06902F0E4FF01F052
:1038700087FAA5696A6A2AB195F8210010B1314624
:103880002846904785F82C601EB30021A06801F0FF
:10389000DAFF06B30021E06801F0D5FFE1691D48B9
:1038A0004862A1691C484862786E1C4941623A6FBF
:1038B0001B495162A268C2F82480E268C2F82480E1
:1038C000397801EB410219F8221031B113E00121DE
:1038D000A7E70121DAE70121DDE7002101F0B3FFCD
:1038E000094800680169A06D8847800603D400215B
:1038F000386F01F0A8FF0BB00248BDE8F04F02F0AE
:10390000BEB8000068E40120F4FF012065460F08FE
:1039100060E60120054F0F08A9460F08554A0F0819
:1039200019490F082DE9F04FFF4887B000270068BC
:10393000FE4C0169A06D8847064609200025B0EBC2
:10394000167F09D1282003F0DBF90023F84AF9A1FA
:10395000009503F099F90746C6F30360092809D1D9
:10396000282003F0CDF90023F14AF9A1009503F0D6
:103970008BF907467006DFF8B8B34FF028000BD577
:1039800003F0BEF914210A22CDF800B0CDE90121DF
:103990005A239122F7A10AE003F0B2F914210A2276
:1039A000CDF800B0CDE901215A239122F4A103F012
:1039B000C9F80546282003F0A3F94FF00F0A0523A4
:1039C0002A46F0A1CDF800A003F05EF9039038205C
:1039D00003F096F91E210522DFF850930095CDE9FA
:1039E0000121A9F18009DFF8A08399F800200623BE
:1039F00008EB8211E5A2283101F008FE20622820A0
:103A000003F07EF950232A46E1A1CDF800A003F08F
:103A10003BF90490382003F073F91E214FF0500A4F
:103A20000095CDE901A199F80020062308EB821149
:103A3000D6A22A3101F0EAFD606200F0F5FB3946BA
:103A4000BB4801F088FF2946B94801F084FFB84817
:103A5000039901F080FFB648216A01F07CFFB44869
:103A6000049901F078FFB248616A01F074FF7006B2
:103A700058D5282003F044F93221009105232A4625
:103A8000C4A103F001F90390382003F039F9412172
:103A900005220095CDE9012199F80010474608EB71
:103AA00081110623B9A2303101F0B0FD47F6FF7253
:103AB0000021A06201F07AFD282003F021F93221D3
:103AC000009150232A46B5A103F0DEF80490382077
:103AD00003F016F941210095CDE901A199F80010F4
:103AE000062307EB8111A9A2323101F08FFD47F6C1
:103AF000FF720021E06201F059FD8D48039901F049
:103B00002AFF8B48A16A01F026FF8948049901F039
:103B100022FF8748E16A01F01EFFA16AA1484862BE
:103B2000E16A48628248616C01F015FF8048A16C2F
:103B300001F011FF7E48E16C01F00DFF7C48616DE2
:103B400001F009FF0021E06C01F07DFE7848216D55
:103B500001F001FF0920B0EB167F7DD1282003F092
:103B6000CFF873230A21CDF800B0CDE901134B2320
:103B700040F227128CA102F0E5FF0546282003F051
:103B8000BFF814260A232A468BA1009603F07CF87E
:103B90000390382003F0B4F8CDE9005A0296474666
:103BA00099F80010C84607EB8111062377A234313B
:103BB00001F02CFD47F6FF720021206301F0F6FCB6
:103BC000282003F09DF84FF023090A232A467DA1FF
:103BD000CDF8009003F058F88346382003F090F8B1
:103BE000CDE9005ACDF8089098F80010062307EBAD
:103BF000811166A2363101F009FD6063282003F0CF
:103C00007FF8322100910A232A4670A103F03CF884
:103C10000490382003F074F832210095CDE901A119
:103C200098F80010062307EB811158A2383101F0F3
:103C3000EDFCA063282003F063F8B4232A4665A1B5
:103C4000009603F021F80590382003F059F8E6219A
:103C5000CDE90051029600E0D4E098F8001003236B
:103C600007EB81115DA23A3101F0D0FCE0632E48F0
:103C7000222100680268A06D9047421E0021E06B7F
:103C800001F094FC282003F03BF88C232A4654A131
:103C9000009602F0F9FF8246282003F031F88C23C9
:103CA0002A4650A1CDF8009002F0EEFF98F80010DF
:103CB000064607EB811090F83A20A06D00F0B4FDA5
:103CC000E16B49484862216B48484862616B48484B
:103CD0004862A16B474848625146154801F03BFED7
:103CE0003146134801F037FE2946114801F033FEF2
:103CF0000F48039901F02FFE0D48216B01F02BFEB8
:103D000059460B4801F027FE0948616B01F023FE7C
:103D10000748049901F01FFE0548A16B01F01BFE46
:103D20000348059968E00000F4FF012084E00120C9
:103D300010E5012053656E736F726C6573732074A8
:103D4000756E696E672053544F202620504C4C00EE
:103D500053656E736F726C6573732074756E696EE4
:103D6000672053544F202620504C4C202841757812
:103D70002900000053544F202620504C4C000000D6
:103D800053544F004731000060E60120253664009F
:103D900047320000504C4C204B500000504C4C20FF
:103DA0004B49000065460F085265762075702074F7
:103DB000756E696E670000004475726174696F6E9C
:103DC00000000000456E642073706400456E64203E
:103DD0004971000053746167650000002533640079
:103DE0006D73000072706D00A54E0F08E14E0F0854
:103DF000354F0F08594F0F0801F0ADFD0748E16B33
:103E000001F0A9FD216A06484862616A486207B06C
:103E10000248BDE8F04F01F032BE000010E501207D
:103E200065460F082DE9F04FD148DFF8488387B089
:103E3000006800250169D8F85800884707460A2419
:103E40000026B4EB177F09D1282002F059FF002388
:103E5000C94ACAA1009602F017FF0546C7F30360DE
:103E60000A2809D1282002F04BFF0023C24ACBA127
:103E7000009602F009FF0546282002F041FFBE4BE4
:103E8000CDE9003414210291A3465A239122CDA1F9
:103E900002F058FE0646282002F032FF0F21009162
:103EA00005233246C8A102F0EFFE8146382002F019
:103EB00027FF1E2105220096CDE90121AD49DFF83B
:103EC000B8A280390AF1A80A097806230AEB811101
:103ED000BEA22C3101F09AFBC8F8200044462820ED
:103EE00002F00EFF0F21009150233246B8A102F0DC
:103EF000CBFE8046382002F003FF1E2150220096A0
:103F0000CDE901219B4906238039B0A209780AEB4B
:103F100081112E3101F07AFB606200F085F92946AB
:103F2000954801F018FD3146934801F014FD4946CB
:103F3000914801F010FD9048216A01F00CFD4146C6
:103F40008D4801F008FD8C48616A01F004FD8A4843
:103F5000616C01F000FD8848A16C01F0FCFC864812
:103F6000E16C01F0F8FC8448616D01F0F4FC002183
:103F7000E06C01F068FC8048216D01F0ECFCBBEBCB
:103F8000177F7DD1282002F0BBFE7B4A009273236D
:103F9000CDE901B34B2340F227128EA102F0D2FDEE
:103FA0000546282002F0ACFE4FF014080A232A46EA
:103FB0008CA1CDF8008002F067FE0390382002F05B
:103FC0009FFE4FF050096B4FCDE90059803FCDF86F
:103FD0000880397856460AEB811106237BA23431DA
:103FE00001F014FB47F6FF720021206301F0DEFAB6
:103FF000282002F085FE4FF0230A0A232A467CA1DE
:10400000CDF800A002F040FE8346382002F078FE92
:104010008DE820063978062306EB81116BA2363134
:1040200001F0F4FA6063282002F06AFE3221009168
:104030000A232A4670A102F027FE0490382002F0DD
:104040005FFE32210095CDE901913978062306EB18
:1040500081115EA2383101F0D9FAA063282002F064
:104060004FFEB4232A4666A1CDF8008002F00CFE74
:104070000590382002F044FEE622CDF8088000E0EA
:104080006BE0CDE900523978032306EB81115EA283
:104090003A3101F0BBFAE06335482221006802683A
:1040A000A06D9047421E0021E06B01F07FFA2820AE
:1040B00002F026FE8C232A4654A1CDF8008002F09F
:1040C000E3FD8146282002F01BFE8C232A4650A1E6
:1040D000CDF800A002F0D8FD3978804606EB8110BB
:1040E00090F83A20A06D00F09FFBE16B49484862D0
:1040F000216B49484862616B48484862A16B484857
:10410000486249461C4801F026FC41461A4801F025
:1041100022FC2946184801F01EFC1748039901F0BB
:104120001AFC1548216B01F016FC5946124801F0A3
:1041300012FC1148616B01F00EFC0F48049901F06C
:104140000AFC0D48A16B01F006FC0B48059901F033
:1041500002FC0948E16B01F0FEFB216A314848622C
:10416000616A486207B00448BDE8F04F01F087BCBF
:10417000F4FF012084E00120B8E5012053656E734F
:104180006F726C6573732074756E696E672053541B
:104190004F202620434F52444943000053656E731D
:1041A0006F726C6573732074756E696E67205354FB
:1041B0004F202620434F52444943202841757829F7
:1041C0000000000053544F004731000025366400C2
:1041D000473200005265762075702074756E696EE6
:1041E000670000004475726174696F6E0000000022
:1041F000456E642073706400456E64204971000050
:104200005374616765000000253364006D7300001E
:1042100072706D00A54E0F08E14E0F08354F0F0864
:10422000594F0F0865460F083EB5282002F068FD7B
:10423000A0232349CDE90013142202925A2391228C
:1042400020A102F07FFC214C6064282002F058FD80
:104250000F21009105231EA1626C02F015FDA064E0
:10426000402002F04DFD0521626CCDE9002104F1F2
:1042700060011E25A1F1E00202951278062301EBF0
:10428000C20117A2091D01F065FEE064302002F0B2
:1042900037FD41210091052312A1626C00F0ACFFB3
:1042A0002065282002F02CFD00953C2310A1626CB3
:1042B00002F0EAFC6065216D0E4848623EBD0000D8
:1042C00084E101204D6F6E69746F720084E00120FB
:1042D0004D65617375726564207370656564000077
:1042E0002536640053746172742F53746F7000002C
:1042F00072706D003D450F0870B5314900240968A2
:1043000009698847010E0E074FF009014FF00A02B4
:104310004FF002034FF001050ED0B1EB107F03D137
:10432000C0F303660A2E17D0B2EB107F15D1C0F38D
:104330000366092E10D010E0B1EB107F00D10124EC
:10434000B2EB107F00D10224B5EB107F02D0B3EBAB
:10435000107F33D1032431E00624B1EB107F05D167
:10436000C0F3036102290BD0012909D0C0F3036116
:10437000092906D1B3EB107F02D0B5EB107F00D135
:104380000424B2EB107F05D1C0F3036102290BD0E6
:10439000012909D0C0F303610A2906D1B3EB107FCC
:1043A00002D0B5EB107F00D105240B21B1EB107FBB
:1043B00004D1C0F30360092800D10724204670BD52
:1043C000F4FF012010B5274801F027FB2548A8304D
:1043D00001F023FB244801F020FB2348A83001F022
:1043E0001CFB224801F019FB2048A83001F015FB06
:1043F0001F49002048608860C86008614861886182
:10440000C861086248628862C8620863486388635A
:10441000C863086448648864C8640865486588653A
:10442000C865086648668866C8660867486788671A
:10443000C8678031086048608860C860086148616A
:104440008861C861086248628862C862086348631C
:104450008863C863086448648864C86408654865FC
:1044600010BD000070E20120C0E3012010E5012032
:1044700004E00120034807210068C2680248806DFB
:1044800010470000F4FF012084E0012010B50C4625
:10449000FFF798FF062C1CD2DFE804F003070B0F90
:1044A0001317BDE81040FEF7F3B8BDE81040FEF763
:1044B000D5B9BDE81040FEF77FBCBDE81040FEF75F
:1044C00011BFBDE81040FFF72DBABDE81040FFF75F
:1044D000A9BC10BD2DE9F047814616480E46134F82
:1044E000DFF84C80002400EB8615395D662908D082
:1044F000D8F80000026848469047411C01D025F8D2
:104500001400641CE4B2202CEFD3D8F8000004217E
:10451000026848469047084941F8360095F83A2025
:1045200031464846BDE8F04700F07EB9089E0F08C6
:10453000F4FF012060E60120E4E001202DE9F047CE
:10454000414A424F424DA7F1400C2DED068B02F13E
:10455000800411782B6801EB41060CEB811017F8F1
:104560002680B8F1000F06D007EB8601C97859B153
:10457000012960D10EE0828833485B68E03050F852
:104580003110A06D984756E0B0F91820B0F914101A
:104590001B6A4EE0E1469046B0F93E0003F04BFD49
:1045A0009FED2C8B53EC182B03F070FD9FED2B9B94
:1045B00053EC192B03F0B8FB41EC100B02F044FD57
:1045C00098F80010B0EE40AA09EB8116F0EE60AA50
:1045D000B6F93C0003F02FFD53EC1A2B03F056FD07
:1045E00003F0FAFC07B2B6F93E0003F024FD53ECE9
:1045F000182B03F04BFD53EC192B03F095FB41EC0A
:10460000100B02F085FD98F80010B0EE408A09EB1F
:104610008110F0EE608AB0F93C0003F00CFD53EC21
:10462000182B03F033FD03F0D7FC01B228683A469B
:10463000036AA06D984728680621C268A06DBDEC8A
:10464000068BBDE8F047104704E00120A0E60120FA
:10465000F4FF01201F85EB51B81E09400000000047
:10466000008066400D4B0C4A806A1B7802EB831277
:10467000801A0B4A400852FA80F31B78662B0AD046
:10468000C0B2105C074A126893680A4601460348A4
:104690008030806D1847704760E6012004E00120FB
:1046A000089E0F08F4FF01202DE9F041284E11F07B
:1046B000FF052849307800EB400001EB80000571D0
:1046C00040D00021224C8034A06801F0BCF8C5B372
:1046D0000021E06801F0B7F8FDB11E4F3078403F8F
:1046E00007EB8010B0F91C104184C28B8284028CCD
:1046F000C284A06800F03EFE307807EB8010B0F96D
:104700002410E06800F036FE606930B1317807EBC4
:104710008111B1F9261000F02DFEA068012680F865
:104720002060E06880F820606069002807D06DB1E3
:104730005FF0000101F087F8606980F82060BDE853
:10474000F08101E00121BDE70121C2E70121F1E78C
:1047500004E00120A0E6012070B50D46FFF782FFBE
:104760000D480E4A017801EB410002EB8000007910
:1047700000280FD0084C8034606900280AD0403AE5
:1047800002EB8111CD84294600F01AFE60690121F7
:1047900080F8201070BD000004E00120A0E6012098
:1047A00010B50C46FFF75EFF0C480D4A007800EB91
:1047B000400102EB8101097900290ED0A2F14001EC
:1047C00001EB801021468484044C8034E06800F0C2
:1047D000F7FDE068012180F8201010BD04E0012001
:1047E000A0E6012010B50C46FFF73CFF0C480D4A2F
:1047F000007800EB400102EB8101097900290ED01D
:10480000A2F1400101EB801021464484044C803425
:10481000A06800F0D5FDA068012180F8201010BD2F
:1048200004E00120A0E60120F8B51546094A02EB94
:104830008114094904F1380200920968931E121F7D
:104840008E692946B047E08E00EB40004000E086CC
:10485000F8BD000060E60120F4FF012038B51546E0
:10486000094A062302EB8112B2F9361091FBF3F1EB
:104870000BB2B2F9381000910449928E09684C6964
:104880002946A04738BD000060E60120F4FF012062
:104890002DE9F041164A054610461649007802F106
:1048A000800400EB400001EB80019368124E134F2F
:1048B000A06D9D420BD193F830504D70FFF71CFD59
:1048C00056F820000021425D3868C3690BE0D268C9
:1048D00092F830508D70FFF70FFD56F8200001213F
:1048E000425D3868C369E06DBDE8F04118470000DB
:1048F00004E00120A0E60120DC9D0F08F4FF012068
:10490000034808210068C2680248806D1047000013
:10491000F4FF012084E001202DE9F047464D47498E
:10492000DFF81C91A1F140062DED068B05F1800406
:10493000287800EB400201EB820306EB8010DB7865
:10494000002B4FD0012B72D1B046B0F93E0003F0DE
:1049500072FB9FED3C8B53EC182B03F097FB9FED04
:104960003B9B53EC192B03F0DFF941EC100B02F0E9
:104970006BFB2978B0EE40AA08EB8117F0EE60AA35
:10498000B7F93C0003F057FB53EC1A2B03F07EFB06
:1049900003F022FB06B2B7F93E0003F04CFB53ECE8
:1049A000182B03F073FB53EC192B03F0BDF941EC0A
:1049B000100B02F0ADFB2978B0EE408A08EB8110B5
:1049C000F0EE608AB0F93C0003F035FB53EC182B95
:1049D00003F05CFB03F000FB01B2D9F800003246A3
:1049E000036A09E011F82210154A136851B1B0F9B1
:1049F0001820B0F914101B6AA06DBDEC068BBDE841
:104A0000F047184719694F46A06D884780060ED5B4
:104A10002878412106EB8010B0F9182038688368A7
:104A2000A06DBDEC068BBDE8F0471847FFE7BDEC75
:104A3000068BBDE8F087000004E00120A0E601201D
:104A4000F4FF01201F85EB51B81E09400000000053
:104A5000008066402DE9F0473A4D3B4ADFF8EC8094
:104A6000A2F140042DED068B05F18009287800EBBA
:104A7000400102EB810104EB8010C978002954D079
:104A800001295AD1B0F93E0003F0D5FA9FED309BD1
:104A900053EC192B03F0FAFA9FED2F8B53EC182BE4
:104AA00003F042F941EC100B02F0CEFA2878B0EE98
:104AB00040AA04EB8017F0EE60AAB7F93C0003F0BF
:104AC000BAFA53EC1A2B03F0E1FA03F085FA06B2B6
:104AD000B7F93E0003F0AFFA53EC192B03F0D6FA06
:104AE00053EC182B03F020F941EC100B02F010FBF3
:104AF0002878B0EE408A04EB8010F0EE608AB0F9BE
:104B00003C0003F098FA53EC182B03F0BFFA03F0C3
:104B100063FA01B2D8F800003246036AD9F85800A7
:104B2000BDEC068BBDE8F0471847B0F91820B0F986
:104B30001410D8F80000036AF0E7BDEC068BBDE85E
:104B4000F087000004E00120A0E60120F4FF01202E
:104B50001F85EB51B81E0940000000000080664030
:104B600070B54D4C4D4A2DED068BA2F140052078D5
:104B700000EB400102EB810105EB8010C97831B1F7
:104B800001294CD1B0F9141000294BD04CE0B0F9F8
:104B90003E0003F050FA9FED429B53EC192B03F0BB
:104BA00075FA9FED418B53EC182B03F0BDF841ECE7
:104BB000100B02F0ADFA2078B0EE40AA05EB80169B
:104BC000F0EE60AAB6F93C0003F035FA53EC1A2B6C
:104BD00003F05CFA03F000FAB082B6F93E0003F08D
:104BE0002AFA53EC192B03F051FA53EC182B03F06B
:104BF0009BF841EC100B02F027FA2078B0EE408AC7
:104C000005EB8014F0EE608AB4F93C0003F013FA6F
:104C100053EC182B03F03AFA03F0DEF92083BDECD5
:104C2000068B70BD028B8AB311FB01F1008B10FB68
:104C3000001000EE100AB8EEC00A02F058F8BDEEFF
:104C4000C00A207810EE101A05EB80108187B0F9A9
:104C50001810B0F9140000EE101AF8EEC00A00EEB9
:104C6000100AB8EEC00A02F044F8DFED110A21780C
:104C700020EE200ADFED0F0A05EB811180EE201AED
:104C8000BDEEC10A10EE100AC887C8E7FFE7002191
:104C900081875A21C187C2E704E00120A0E60120F4
:104CA0001F85EB51B81E09400000000000806640DF
:104CB00000003443C3F548402DE9F041204D224E19
:104CC00005F180042978686801EB41021D4990F8DC
:104CD000300001F82200012807D001211B4800F014
:104CE000E3FD30680122836825E030680221026814
:104CF000A06D9047C0B930680921C268A06D904787
:104D0000306829210268A06D90470E4F2978403FF6
:104D100007EB8111888230682A210268A06D9047D4
:104D2000297807EB811108830021084800F0BCFDB9
:104D3000306800228368A06DBDE8F0410321184768
:104D400004E00120A0E60120F4FF0120C0E30120DF
:104D500009480849007801EB80118A880649E0314A
:104D600051F8301005480068436803488030806D72
:104D70001847000060E6012004E00120F4FF012054
:104D80002DE9F0413B4C3C4F04252078A7F140062B
:104D900000EB400007EB800047F6FF78C07810B1C9
:104DA000012836D13EE035A1206E01F068FF35A123
:104DB000E06E01F064FF2178606E06EB811202F173
:104DC000140180F833508162216F18322F4E81F820
:104DD00033508A6245464246314600F0E7FB2A4698
:104DE0003146206F00F0E2FB207800EB400017F81E
:104DF000200050B92648006801691E488030806D47
:104E00008847800601D4002100E00121206F00F0D6
:104E10001AFD616E012081F82000216F81F82000C9
:104E2000BDE8F0811BA1206E01F029FF1BA1E06EFF
:104E300001F025FF2178606E06EB811202F13C0142
:104E400080F833508162236F891C424683F83350C7
:104E50009962002100F0AAFB40F267120021206F46
:104E600000F0A4FB207800EB400017F82000002899
:104E7000CBD1C8E704E00120A0E6012049712072EF
:104E800065662E004964207265662E000180FFFF72
:104E9000F4FF0120416D702E202020004570732EFC
:104EA0004465670008460D4910B50B4A09780B4C5C
:104EB00002EB811280345087C2B2A06DFFF7B4FCC0
:104EC000216B012081F82000616B81F82000A16B2B
:104ED00081F8200010BD000060E6012004E0012000
:104EE0000748064A007802EB801291860146044882
:104EF00092F83A208030806DFFF7B0BC60E6012068
:104F000004E00120094910B508488039084A0978A9
:104F1000C06901EB410102EB810190F83000C870DB
:104F2000FFF71EFEBDE81040FFF72ABF84E0012016
:104F3000A0E601200748064A007802EB8012D186DD
:104F40000146044892F83A208030806DFFF786BC15
:104F500060E6012004E001200748064A007802EBE1
:104F6000801211870146044892F83A208030806D03
:104F7000FFF774BC60E6012004E001200146002038
:104F80000A5C401CC0B2002AFAD17047F8B504464A
:104F9000406A0028204615D001F050FA0646204607
:104FA00001F02AFA0546204601F0C5F907462046D9
:104FB00001F0C1F981B200963A0C2B46606A00F00C
:104FC00053FBF8BDBDE8F84001F01DBA2DE9F041F2
:104FD00006AD1E4617460C4695E80E0000F03AFC5A
:104FE00005460748286032463946284601F0FDF953
:104FF0006C6214B1012085F820002846BDE8F081DC
:10500000E0BD0F0801F077BE10B5002400F0E9F80C
:1050100000B10124204610BD70B5426A0D46044619
:105020004AB194F82C0030B12DB994F8210010B198
:1050300000212046904784F82C5070BD70B50024A4
:105040000546052906D10021FFF7E6FF284601F0B5
:1050500091F90124284600F0C4F800B1012420464B
:1050600070BD2DE9FC5F0646C069C1888588891D31
:105070008CB2B06AFBF77AFB4543ED1DA9B222461C
:10508000304601F0B2F9304601F055F985B23046AC
:1050900001F051F9040C304601F0D0F9801E87B2BE
:1050A000304601F0A9F9801E1FFA80F8B6F81A9070
:1050B000304601F0C3F90190304601F09DF9834676
:1050C000304601F038F98246304601F034F94FEAB3
:1050D0001A4180B2CDF800905A46019B00F062FB65
:1050E000304600F07EF840B3304601F024F9801CD1
:1050F00085B2304601F01FF90014801C84B2B6F866
:105100001A90304601F09AF9401E82B2CDF8009014
:10511000A4F10109681E1FFA89F180B2012300F091
:105120001FFBB6F81AA0304601F066F9801E82B265
:105130001FFA89F1CDF800A011E0708B0090601C7F
:1051400081B205EB080080B201233A4600F008FB6B
:10515000708B009008F1020082B2E01981B2002346
:10516000284600F0FDFA708B00903B4642462146EF
:10517000284600F017FB308B0090F81E82B2A01C6E
:10518000814681B2A81C80B2012300F0E9FA96F8AA
:10519000210008B11F2000E0308B0090A8F1020030
:1051A00082B2BF1E641C681CBBB2A1B280B200F008
:1051B000F9FAB26AED1C02B01FFA89F1A8B2BDE893
:1051C000F05F00F02DBB10B504460020052907D183
:1051D00001212046FFF720FF204601F0CBF80120F7
:1051E00010BD90F82C1021B190F8210008B10120D9
:1051F000704700207047000070B51C4616460D46EB
:1052000022463146049B00F025FB0849016000213D
:10521000416280F82C100446012100F014FB0121AA
:10522000A562204684F8201070BD000004BE0F085F
:1052300001F061BD10B5C36A0C4603B911A390F823
:105240003310062919D2DFE801F0180303070B0F0A
:1052500000F063F802460AE000F05FF882B206E070
:1052600000F05BF802B202E000F057F8C2B220464C
:10527000BDE810401946FBF74FB800F04EF842B2B7
:10528000F5E700002564000070B50E4604460025D1
:1052900000F0A4FD28B3A06A10B3012E02D0022EA4
:1052A0001ED10DE094F83200218EFF2801442186A2
:1052B00002D0401C84F83200204600F05DF90CE07A
:1052C00094F83200218EFF280144218602D0401C30
:1052D00084F83200204600F006F8204601F04AF833
:1052E0000125284670BD10B5034600F016F80146AA
:1052F000B3F93000B3F93420091A8A4206DD801070
:10530000188693F83200800883F8320093F833004F
:10531000BDE81040184600F02DB890F83310806AB0
:1053200006290DD2DFE801F00C030305070A006827
:10533000704700887047B0F90000704700787047E8
:1053400090F90000704770B50E460446002500F045
:1053500045FD00B10125052E08D194F8230038B190
:10536000002084F82300204601F004F8284670BD90
:105370000120F6E710B50346806A00281FD0B3F974
:1053800034208A421BDCB3F936208A4217DB93F8BB
:105390003320022A04D0042A04D049B2017002E06A
:1053A000016000E00180586A002808D01846FFF725
:1053B000B4FF5A6A0146BDE810401846104710BDB8
:1053C00010B50346806A002814D09A8E8A4211D8FC
:1053D000DA8E8A420ED393F833200170586A00287F
:1053E00008D01846FFF799FF5A6A0146BDE81040F9
:1053F0001846104710BD2DE9F0418AB0044620211F
:1054000001A8FBF7D2F9658B204601F017F880461A
:10541000204600F0F1FF0646204600F08CFF0746CC
:10542000204600F088FF390C80B243463246009592
:1054300000F0B8F9258B204601F000F8C01E87B2B5
:10544000204600F078FF0646204600F074FF311435
:10545000891C801C89B280B201233A46009500F075
:105460007FF994F82100A0B1204600F0E7FF801EEC
:1054700087B2204600F0C0FF801E86B2204600F0B2
:105480005AFF0546204600F056FF1F2100912914BF
:1054900014E0258B204600F0D1FF801E87B2204605
:1054A00000F0AAFF801E86B2204600F044FF80462E
:1054B000204600F040FF4FEA28410095491C401C5F
:1054C00089B280B23B46324600F06CF9204600F0CB
:1054D00085FC50B194F8210038B14FF6E070ADF87A
:1054E0000000BDF80000FCF7B1F994F8220038B9CB
:1054F00047F6FF70ADF80000BDF80000FCF7A6F914
:10550000A06A002812D001A92046FFF793FE20468A
:1055100000F011FF0546204600F00DFF2914891CFC
:10552000C01C89B280B201AA00F07AF90AB0BDE8C5
:10553000F08170B50E460446002500F04FFCC8B15E
:10554000A06AB0B100200121012E02D0022E10D19C
:1055500006E0218684F83200204600F00DF805E0D0
:10556000218684F832002046FFF7BDFE204600F079
:1055700001FF0125284670BD10B50346FFF7CDFE9B
:105580000146B3F93000B3F9362001448A4206DA05
:105590008010188693F83200800883F8320093F860
:1055A0003300BDE810401846FFF7E4BE8186C2868E
:1055B000704700002DE9F04106AC1D4617460E4627
:1055C00094E80E0000F014FC0F490160022104462B
:1055D00080F833100121C4E90A670186C069C188D7
:1055E0008088091D68438AB2401D81B2204600F0C0
:1055F000FCFE48F20101A186891EE18600212046B9
:105600006162BDE8F08100002CBE0F082DE9F04179
:1056100006AC1D4617460E4694E80E0000F0E8FB67
:105620000F4901600421044680F833100121C4E9C8
:105630000A670186C069C1888088091D68438AB2EB
:10564000401D81B2204600F0D0FE48F20101A18643
:10565000891EE186002120466162BDE8F0810000DC
:105660002CBE0F0801F047BB38B5049C0094FCF732
:105670002BF838BD2DE9FC410F461249DDF820809A
:105680001C4609881600A1EB0000A0F1010085B2BC
:1056900016D001A96846FBF7FFFF4046FCF712F958
:1056A00007E03846791C8FB2002332462946FBF7C3
:1056B000B9FF641EA4B2F4D2BDF80000FCF702F9F1
:1056C000BDE8FC814AE1012010B5FCF7A9FE4FF6C8
:1056D000FF742046FBF7F0FE2046FCF7B7F8BDE864
:1056E00010400020FCF7EEB82DE9F04190460E4640
:1056F00004460546FBF7DEFF184F012803D1388822
:10570000001B401E85B2FBF7CFFF808839882044FC
:10571000884221D8FBF7C8FF8088062804D1FBF710
:10572000C3FFC088082806D0424629463046BDE857
:10573000F041FBF71FBFFBF7B7FF0468FBF7B4FFAF
:105740008188A8F12000414304EB4102F0B22946D0
:10575000BDE8F041FBF764BFBDE8F0814AE10120FC
:105760002DE9FC410E460E49984614460988089FCB
:10577000081A401E85B201A96846FBF78DFF38461E
:10578000FCF7A0F834B1641EA2B243462946304665
:10579000FBF748FFBDF80000FCF794F8BDE8FC817A
:1057A0004AE101202DE9FC4188461C49089F1C461E
:1057B00009881500A1EB0000A0F1010086B22BD0F2
:1057C000002C29D001A96846FBF766FF3846FCF794
:1057D00079F86F1EBAB2002331464046FBF722FF2C
:1057E00008EB0400401EBAB280B200233146FBF73A
:1057F00019FF601E82B2012331464046FBF712FFBB
:10580000701B401C81B2012322464046FBF70AFF71
:10581000BDF80000FCF756F8BDE8FC814AE1012024
:1058200070B514460E46054609E031462846FFF796
:105830005BFFFBF739FF8088641C284485B222781F
:10584000002AF2D170BD80F82210002901D180F821
:10585000211070472DE9FF411F46944600240D4654
:10586000064623463A46614601A8009400F04AFDE8
:1058700002462946304600F01DFE0449016080F8CA
:10588000224080F8214004B0BDE8F08150BE0F08EE
:1058900001F031BA00224274002904D090F821208E
:1058A000002A00D04174704780F82110002900D1EF
:1058B0004174704700F0A7BD70B50C4600F0D2FDF2
:1058C00005460948286054B1204600F0B7FD02465D
:1058D000A0892189401A81B2284600F086FD012066
:1058E00085F82100284670BD74BE0F082DE9F041EF
:1058F00086B00F46DDE90C4580461E46114602A8DB
:1059000000F0F6FC0246334639464046CDE90045F4
:1059100000F0FCFD03490160012180F8211006B070
:10592000BDE8F08174BE0F0810B500F015FE034904
:105930000160012180F8211010BD000074BE0F0825
:1059400070B50D46044600F025FE95F8210084F858
:105950002100204670BD002909D0B0F8A620202AD9
:1059600005D200EB8203521CA0F8A62059627047B2
:1059700070B50C46054600F01DF801684A692146DD
:105980009047002807D1012C06D0022C03D12846CD
:1059900000F075F8012070BD284600F08BF8F9E79B
:1059A00010B50B4600F006F801688A69BDE81040A2
:1059B00019461047B0F8A620B0F8A4108A4203D9BF
:1059C00000EB8100406A70470020704770B50446C4
:1059D000B0F8A6000E46B0421ED92046FFF7EAFFF7
:1059E000002580F821502046FFF7E4FF00F0C2FCBC
:1059F000A4F8A4602046FFF7DDFF80F8215090F85E
:105A0000222001210AB180F821102046FFF7D2FFA1
:105A1000BDE8704000F0AEBC70BD70B50546002416
:105A200008E005EB8400406A10B1016849688847C6
:105A3000641CE4B2B5F8A600A042F2D8002025F814
:105A4000A40F688070BD70B5054690F8200010B1B5
:105A5000284600F08FFCB5F8A60000280ED00024E0
:105A600008E005EB8400406A90F8201009B100F0CE
:105A700081FC641CB5F8A600A042F2DC70BD30B415
:105A8000B0F8A630002B13D0B0F8A4100A46491C79
:105A90008B4200D800218A4206D000EB8104646A60
:105AA00094F82240002CF2D030BC89B2FFF78EBFB0
:105AB00030BC704730B4B0F8A620002A12D0B0F83D
:105AC000A4100B4601B91146491E8B4206D000EBCB
:105AD0008104646A94F82240002CF3D030BC89B26F
