:02000004080FE3
:1000000048EF012085020F085D521A00C1020F0857
:1000100091020F0893020F0895020F0800000000DC
:1000200000000000000000000000000097020F0820
:1000300099020F08000000009B020F089D020F08A4
:100040009F020F089F020F089F020F089F020F08D0
:100050009F020F089F020F089F020F089F020F08C0
:100060009F020F089F020F089F020F089F020F08B0
:100070009F020F089F020F089F020F089F020F08A0
:100080009F020F089F020F089F020F089F020F0890
:100090009F020F089F020F089F020F089F020F0880
:1000A0009F020F089F020F089F020F089F020F0870
:1000B0009F020F089F020F089F020F089F020F0860
:1000C0009F020F089F020F089F020F089F020F0850
:1000D0009F020F089F020F089F020F089F020F0840
:1000E0009F020F089F020F089F020F089F020F0830
:1000F0009F020F089F020F089F020F089F020F0820
:100100009F020F089F020F089F020F089F020F080F
:100110009F020F089F020F089F020F089F020F08FF
:100120009F020F089F020F089F020F089F020F08EF
:100130009F020F089F020F089F020F089F020F08DF
:100140009F020F089F020F089F020F089F020F08CF
:100150009F020F089F020F089F020F089F020F08BF
:100160009F020F089F020F089F020F089F020F08AF
:100170009F020F089F020F089F020F089F020F089F
:100180009F020F089F020F0800F002F800F06AF8C3
:100190000AA090E8000C82448344AAF10107DA45E2
:1001A00001D100F05FF8AFF2090EBAE80F0013F0CA
:1001B000010F18BFFB1A43F00103184700D80000D5
:1001C00020D80000103A24BF78C878C1FAD8520766
:1001D00024BF30C830C144BF04680C6070470000C1
:1001E0000023002400250026103A28BF78C1FBD840
:1001F000520728BF30C148BF0B607047692900F023
:100200000181642900F0FE80752900F0FB806F29D0
:1002100000F09281782900F0B9810368DB0928BFDA
:1002200041F08001632900F0E683E32900F0F983BF
:10023000002070471FB509F017FC9DE8030000F08F
:1002400051FC00F005FD04000020002108F09CFF97
:10025000401C606000F0D4FA1FBD10B5002008F00B
:1002600097F810BD00F0CEFC1146FFF7E3FF08F051
:1002700079FF00F00FFD03B4FFF7EFFF03BC00F0C0
:10028000BBFC00000948804709480047FEE7FEE73D
:10029000FEE7FEE7FEE7FEE7FEE7FEE7FEE7FEE736
:1002A00004480549054A044B70470000692A0F08B5
:1002B00089010F0870E8012048EF012048EF012074
:1002C00000B5FFB441464A4653465C4665463EB4D7
:1002D0000D496A460A600D4908600D4988473EBCD1
:1002E000884691469A46A346AC46FFBC00BD0648E8
:1002F00001688D463EBC884691469A46A346AC4668
:10030000FFBC044800BD0000F0FF0120F4FF012005
:1003100091010F0864D20F080FB41CB5074B06AA51
:100320007B4469460090059800F043FB0020694635
:1003300000F052FB1CBC5DF814FB0000B506000089
:1003400070B5044685690068C10601D5302600E015
:100350002026C00707D070BDD4E901213046904760
:10036000206A401C20626D1EF6D570BD70B5044633
:1003700085690078C00707D170BDD4E9012120202C
:100380009047206A401C20626D1EF6D570BD09683A
:100390004A0501D540B27047C905FCD500B2704787
:1003A00009684A0501D5C0B27047C905FCD580B2BD
:1003B000704770B50C460546012A05D0287880069E
:1003C00000D5EA69002302E0012305E05B1C9342AB
:1003D00002D2E05C0028F9D1A869E618C01AA86129
:1003E000286A184428622846FFF7AAFF04E0D5E9E6
:1003F000012114F8010B9047B442F8D32846FFF7C7
:10040000B5FF70BD2DE9F04106460024106875293E
:10041000314616A510D0FFF7BAFF002802DA404295
:1004200013A507E031688A0701D512A502E0490744
:1004300004D511A5012401E0FFF7B2FF00210A2233
:1004400006F1240709E0B0FBF2FCB0FBF2F302FB7B
:100450001C00303078541846491C0028F3D123463C
:100460002A463046BDE8F04100F045BA00000000E1
:100470002D0000002B000000200000002DE9FF5F90
:1004800015468A460446DFF8AC80F8440027D8E9D0
:1004900000103E46CDE9001010E03AF816106A460A
:1004A00002A800F0CAFA411C07D02178890603D5BA
:1004B000E269391891420DD80744761C20788006ED
:1004C00002D5E069B84205DDAE42E6DB3AF8160037
:1004D0000028E2D1A069C01BA0612046FFF730FFD1
:1004E000D8E90010CDE90010002017E03AF8181004
:1004F0006A4602A800F0A1FAB0F1FF3F81460BD096
:1005000000250DF1080B05E0D4E901211BF80500D9
:1005100090476D1C4D45F7D308F10100B04280466D
:10052000E4DB206A384420622046FFF71FFFBDE865
:10053000FF9F0000E6CD000070B50446214610681C
:10054000FFF72EFF002104F1240505E000F007026B
:100550003032C0086A54491C0028F7D120680023B3
:1005600008A2050708D500F02000084304D0E06980
:10057000012305A2401EE0612046BDE8704000F066
:10058000BAB90000000000003000000070B5044659
:100590000D4621461068FFF703FF2188090502D5A3
:1005A0000F4A7A4402E00E4A7A440E32002104F1E6
:1005B000240305E000F00F060009965D5E54491C17
:1005C0000028F7D120780023000704D5702D02D031
:1005D00009B1022311322046BDE8704000F08BB90A
:1005E000D6CC00002DE9F05F894604464FF0000AA2
:1005F000DFF874B1FB44C0F820A02046E1688847CA
:10060000002874D0252806D0D4E901219047206A1B
:10061000401C2062F1E700265F462046E1688847DB
:100620002028054607DB312D05D2781910F8200C5B
:1006300008B10643F1E7B00701D526F00406C4F877
:100640001CA00027C4F818A02A2D09D0284608F0BD
:1006500067FD38B304EB8708303DC8F8185019E03F
:1006600059F8041B204604EB87029161E168884732
:10067000012F054618D1E069002820DA26F020066F
:100680001DE0D8F8180000EB800005EB4000303882
:10069000C8F818002046E1688847054608F040FD84
:1006A0000028EED1012F0AD02E2D08D12046E16876
:1006B00088477F1C0546022F46F02006C4DBA06950
:1006C000002803DA404246F00106A061F00701D09D
:1006D00026F010066C2D0BD0682D09D04C2D39D08A
:1006E0006A2D35D0742D35D07A2D33D016E038E010
:1006F000E1682F4620468847B842054609D16C2F4D
:1007000026D04FF48060E1680643204688470546BE
:1007100004E06C2F1AD04FF4807006430DB3A5F19E
:100720004100192802D8203546F400664A46294679
:10073000204626604E46FFF761FD80B101280BD0B0
:10074000F61D26F0070000F1080956E74020E4E70F
:100750008020D8E70020D6E706F104094DE72846B7
:1007600052E7206ABDE8F09FACCC000010B5431CF6
:1007700002E010F8011B71B18107FAD14FF001328C
:1007800002C88C1A8C4314EAC211F9D0C01A0A06A6
:1007900003D0C01E10BDC01A10BD0A0401D0801EB7
:1007A00010BD0902FCD0401E10BD4FF0000200B584
:1007B000134694469646203922BFA0E80C50A0E884
:1007C0000C50B1F12001BFF4F7AF090728BFA0E832
:1007D0000C5048BF0CC05DF804EB890028BF40F8FE
:1007E000042B08BF704748BF20F8022B11F0804F40
:1007F00018BF00F8012B7047704770477047000022
:1008000070B5064C7C44064D7D4403E020682044CE
:100810008047241DAC42F9D170BD0000E4D2000035
:10082000E4D200000048704744E8012000487047C7
:1008300048E8012070B5064600F034F9056806F175
:100840000B0020F00704B4429CBF002070BD2B4673
:100850006A68BAB11068A04210D304F10801884256
:100860003CBF5068586007D3516810194160116847
:10087000091B016058601460101D70BD134652685A
:10088000002AE7D12146284600F018F90028DED1D9
:1008900070BD70B50446051F00F004F90068002C17
:1008A00014BF446870BD002C18BFAC423CBF20464A
:1008B0006468F8D301680A18AA4218BF456003D1DA
:1008C0002A6805461144016028684119A1421CBFED
:1008D0006C6070BD6168696021680844286070BD03
:1008E00010B500F0E3F8006810BD10B5044600F044
:1008F000DDF8046010BD2DE9F0470D46994692469B
:10090000044600F124080168880604D5E06921F056
:100910001001216000E00120A84201DD471B00E03A
:100920000027A1697A1902EB0900081AA061207852
:10093000C00602D42046FFF703FD002608E0D4E9F4
:1009400001211AF806009047206A401C761C20629C
:100950004E45F4DB2078C0060AD52046FFF7F0FCB0
:1009600006E0D4E9012130209047206A401C206233
:10097000381EA7F10107F4DC07E0D4E9012118F8DB
:1009800005009047206A401C2062281EA5F1010541
:10099000F3DC2046FFF7EAFC2078000602D50220AF
:1009A000BDE8F0870120FBE701694A1C0261087875
:1009B000704700B58FB0CDE901310021059105499F
:1009C0007944CDE9031011466846FFF70BFE0FB0DE
:1009D00000BD0000E5FFFFFF0A6802F8010B0A6096
:1009E000704710B5436913B1AFF3008001E0FFF722
:1009F000E0FC012010BD127800F124010A700022F1
:100A00004A700122EDE711684FF0FF32E9E710B5B7
:100A1000436913B1AFF3008001E0FFF72FFD012020
:100A200010BD128800F1240182840022C2840122B8
:100A3000EDE711684FF0FF32E9E770B516460C4656
:100A4000054600F027F8036893F80101012806D055
:100A5000FF2C0FD8185D68B101202C7070BDD3F841
:100A600007013246214603F2071303442846BDE836
:100A7000704018474FF0FF3070BD10B500F06EF8B1
:100A8000BDE8104000F064B800F080B8004870473E
:100A900010E8012010B500F0DBF8001D10BD00BF0C
:100AA000E98600000048704718E8012000487047B8
:100AB00010E80120704770477047704738B504460A
:100AC0000A4600206946AFF30080002808BF38BD01
:100AD00002460099204600F0C3F8012038BD0120ED
:100AE00000F0FFB8F8B5AFF30080054600200C46D3
:100AF000102000BF0646A819A0420DD9324669460B
:100B00000020AFF30080070008BF00F0EAF800986B
:100B1000A04218BF0546C419FFF7C4FF0560074689
:100B2000F01D20F007004619284600F00AF8B442EC
:100B300008BFF8BDA21B31463868BDE8F84000F098
:100B40008FB800210160C0E9011070471020704784
:100B5000002801D000F050B87047000010B5002107
:100B600002A000F0A5F8012010BD00005349475035
:100B700056464E3A205075726520766972747561DA
:100B80006C20666E2063616C6C65640010B500F0CB
:100B90000EF8016919B100220261884701E08068FE
:100BA000804700F07DF8000010B500F079F870B5CE
:100BB00000F052F804680546A4B92020FFF73AFE79
:100BC000040011D0094900202C60C4E90001084943
:100BD000A1602073206160610649A06109B100F045
:100BE00087F8E061204670BD00F05AF80000000070
:100BF000A90B0F080000000001491820ABBEFEE75A
:100C0000260002007546FFF741FFAE460500694623
:100C1000534620F00700854618B020B5FFF740FB8B
:100C2000BDE820404FF000064FF000074FF00008ED
:100C30004FF0000B21F00701AC46ACE8C009ACE86E
:100C4000C009ACE8C009ACE8C0098D467047000097
:100C50000048704730E80120004870474CE8012008
:100C6000034640688C46002818BF88423CBF0346B4
:100C70004068F8D318681844884207D00CF1030084
:100C800020F00700001D411A521A0146081D0A6093
:100C9000FFF7FFBD0446AFF300802046FFF7EBFAF5
:100CA000002000F04BF8FFF7D8FA0120FFF7A4FF6F
:100CB00070B505460C460A2000E06D1C00F036F8C1
:100CC00035B128780028F8D102E0641C00F02EF835
:100CD00014B120780028F8D1BDE870400A2000F057
:100CE00025B810B500F032F8BDE81040FFF730BF6E
:100CF00010B58820FFF79EFD002801D0002101706B
:100D000010BD802902D808B1017809B100207047D0
:100D1000012100F8081B704718B100F10802914248
:100D200001D00020704700210170704708B5694666
:100D30008DF800000320ABBE08BD704710B500F071
:100D40006DF8BDE81040FFF703BF000010B50128A3
:100D500005D0002103A0FFF7ABFF012010BD09A1C2
:100D6000F8E7000053494752544D454D3A204F751E
:100D700074206F662068656170206D656D6F727993
:100D8000000000003A2048656170206D656D6F724B
:100D90007920636F72727570746564004FF0013C66
:100DA00050F8042B51F8043B9A4221D1A2EB0C03DA
:100DB000934313EACC1317D150F8042B51F8043B9A
:100DC0009A4215D1A2EB0C03934313EACC130BD137
:100DD00050F8042B51F8043B9A4209D1A2EB0C03C2
:100DE000934313EACC13DBD04FF00000704700BFF1
:100DF000D01A01BAB1FA81F101F0180122FA01F01A
:100E0000CB40C1F12001DBB2C0B2C01A2CFA01F311
:100E1000D11A914311EAC311E6D1704710B50021F0
:100E200002A0FFF745FF012010BD000053494741D4
:100E30004252543A2041626E6F726D616C2074654B
:100E4000726D696E6174696F6E00000030B51A4989
:100E50008379026853B30B6893430B600A1D1368D0
:100E60000468A343136002790A44136804682343A7
:100E70001360114A083213680468A3431360131DFA
:100E80001C680568AC431C604479102C05D02144D3
:100E90000A68006802430A6030BD11680468214393
:100EA0001160196800680143196030BD0079084479
:100EB00001689143016030BD003C0140F0B5002362
:100EC000012403270D6804FA03F21540954242D12C
:100ED000D0F800C05E0007FA06F52CEA050CC0F851
:100EE00000C091F804C0D0F800E00CFA06FC4CEA0F
:100EF0000E0CC0F800C091F804C0BCF1010F02D084
:100F0000BCF1020F1FD1D0F808C02CEA050CC0F8C4
:100F100008C091F805C0D0F808E00CFA06FC4CEACD
:100F20000E0CC0F808C0D0F804C02CEA020CC0F8BF
:100F300004C0426891F806C00CFA03FC1FFA8CFC4E
:100F400042EA0C024260C268AA43C260CA79C5681C
:100F5000B2402A43C2605B1C102BB3D3F0BD4B07D9
:100F6000DB0E9A40C90810B500EB8100016A0F241E
:100F70009C40A1430162016A1143016210BD024617
:100F8000002012690A4200D0012070470AB1018393
:100F900070474183704700002DE9F74FDFF8DCA16F
:100FA00082B05446DFF8D8810298C4E90B01D8F822
:100FB00000001546474601690298884706462946BB
:100FC000704806F0D9FAAAF580796F496D48C9F8DA
:100FD000085006F085FB6C496A48A83106F080FB92
:100FE0006A49684806F07CFB68496648A83106F003
:100FF00077FB6749634806F073FB65496148A83190
:1010000006F06EFB63495F4806F06AFB002589F82D
:101010000050386829460268E06A9047C0B20090E4
:101020003868002211468368E06A984738680321CF
:101030000268E06A9047C0B20127574C012824D0CB
:10104000277000215148A83005F01EFF6570A77079
:10105000AB46DAF83000B946554628B3D8F8001048
:1010600047460A681C21904700F0FF0A38681D2196
:101070000268286B9047C7B2E86A03F029FF474A25
:101080000146002052F821100BE025700121D9E71C
:10109000524500D160700A5CBA4200D1A070401C79
:1010A000C0B20A5CFF2AF3D184F803B084F804B01C
:1010B00084F805B084F806B084F807B084F808B066
:1010C00084F809B084F80AB084F80BB0D8F80000AE
:1010D00001225F4683680021E86A9847D8F800003B
:1010E00003210268E86A9047C0B2012840D084F822
:1010F0000C9000BFD8F800000021009A8368E86ACD
:101100009847677384F80E90E77327746774A77421
:10111000E77427756775A775E775029800F08AF878
:1011200018491F48C1F80C010021164806F046FA7C
:101130000920B0EB167F1DD0C6F30360092819D033
:1011400000211348A83005F09FFE0A20B0EB167F5F
:1011500012D0C6F303600A280ED000210D4805F016
:1011600093FE05B00021BDE8F04F022001F0B8BBAE
:101170002773BFE70121E4E70121EFE704E1012044
:10118000F4FF0120C0E10120D0E2012020E4012091
:1011900070E50120C0E60120F8E70120DCB30F086C
:1011A000D1500F082DE9F0411E4C204606F04AFAB6
:1011B00004F5827007F01AF8022001F085FB1A4E40
:1011C000B188084306D0002902D0B088401EB08004
:1011D000BDE8F081154C164D002120680268E86AD0
:1011E0009047C7B22068002211468368E86A984792
:1011F00020680221C268E86A904720680122002125
:101200008368E86A984720680221C268E86A9047C4
:1012100020683A4600218368E86A98470420B08035
:10122000D3E70000C0E1012004E00120F4FF012029
:1012300004E1012070B5134C0646002120680268C5
:1012400030469047C5B22068002211468368304678
:1012500098470021304603F06DFF206801220021ED
:1012600083683046984700280BD00121304603F0B0
:1012700061FF20682A46002183683046BDE870403F
:10128000184770BDF4FF01202DE9F14FFF4D0527F0
:10129000DFF8FC83FF4EDFF8009484B0002405F1F2
:1012A000910A3068295D02681AF801100498904785
:1012B00099F8003008EB83122B5D641CE4B222F82D
:1012C0001300BC42EDD3F14D01270024ED1E05F1C2
:1012D000010A3068295D02681AF8011004989047E5
:1012E000EB4999F80020103901EBC2012A5D641C1A
:1012F000E4B241F82200BC42EBD399F800004D461D
:1013000000EB4001E2488030012410F82100E8BBE6
:10131000306808210268049890472978474608EB0E
:101320008111888230680C210268049890472A78DD
:1013300000B207EB821102EB4203D54A08838032E8
:1013400002EB8302D278012A35D1B1F9142002B917
:10135000F0B312FB02F110FB001000EE100AB8EE21
:10136000C00A06F0B4FFBDEEC00A287810EE101ACD
:1013700007EB80108187B0F91810B0F9140000EE67
:10138000101AF8EEC00A00EE100A00E01DE0B8EEF8
:10139000C00A06F09EFFDFEDC10A20EE200ADFED55
:1013A000C00A297880EE201A07EB8111BDEEC10A30
:1013B00010EE100AC887B8488030816B09B181F8F7
:1013C0002040406C08B180F82040B046306800E012
:1013D0001EE0026801210498904787B2060C286C31
:1013E0004CF2186B50B307B1B6B1AE4805F0D2FD60
:1013F000296C884202D1AB4805F031FE286C428B43
:101400005A451BD0A0F81AB0002105F00CFD12E0DF
:10141000002088875A20CDE700214183012105F073
:1014200002FDA04805F0B6FD296C884203D00021DA
:101430009C4805F0BBFD286C80F82040D8F80000DF
:10144000DFF8649200210268D9F82C009047C0B2FE
:101450000290D8F80000002211468368D9F82C00C9
:101460009847D8F800000121026804989047824606
:10147000D8F800000221026804989047C0B2019099
:101480001FFA8AF9A86F4FEA1A4AE0B1B9F1000FC2
:1014900002D0BAF1000F30D08248A83005F07AFDB2
:1014A000A96F884203D17F48A83005F0D8FDA86F06
:1014B000428B5A4507D0A0F81AB0002105F0B3FCC2
:1014C000A86F80F820407448406F28B359EA0A0199
:1014D00017D07448A83005F05DFD6F4D696F8842E4
:1014E00003D17048A83005F0BAFD686F428B5A45A9
:1014F00012D0A0F81AB0002109E000214183012197
:10150000DCE7654D418B39B100214183012105F0B4
:101510008AFC686F80F820405E4D01220021286817
:1015200083686148C06A9847286801210268049866
:101530009047804628680221026804989047C0B20C
:10154000009055481FFA88F580304FEA1848006827
:1015500008B315B1B8F1000F38D05248A83005F0E3
:1015600019FD4D4980310968884203D14D48A830A2
:1015700005F075FD484A80321068438B5B450AD000
:10158000A0F81AB05FF0000105F04DFC4248803031
:10159000006880F820404048C06F30B355EA080129
:1015A00018D04048A83005F0F5FC3B49C96F884287
:1015B00003D13C48A83005F052FD374AD06F438B29
:1015C0005B4512D0A0F81AB0002108E00021418349
:1015D0000121D9E7428B42B100214183012105F06D
:1015E00022FC2D48C06F80F820402A480021029A32
:1015F000006883682C48C06A984749EA0A0A4AEAA0
:10160000050050EA08003BD02849B1F80001012844
:101610000AD08946022833D00121244805F0CEFFA4
:10162000B9F8000101282BD1DFF86C9099F800007F
:1016300018B14D46012809D019E055EA080516D021
:10164000B9F802004D46A8B9012105E0BAF1000F32
:101650000DD0688870B90021E86806F0DCFB002135
:10166000084604F01DFCE868002180F82310B9F852
:10167000021029B3B9F80210B1F10101A9F8021062
:10168000054D80356868A0B312E0000077B30F08FD
:1016900078E70120F4FF012004E00120000034433A
:1016A000C3F5484078E3012004E10120C0E10120B6
:1016B000DDE9002111437DD00199062902D003E024
:1016C0001E21DBE7062A75D0824805F063FC6968B5
:1016D000884202D17F4805F0C2FC6868428B5A45B7
:1016E00007D0A0F81AB0002105F09DFB686880F8CB
:1016F0002040DFF8E48100217B0698F8000000EB31
:101700004002764800EB82004FF00202417100D5A2
:101710004271730600D544718171FB0600D5827158
:10172000F30600D58471C171BB0600D5C271B30642
:1017300000D5C4710172FB0700D00272F30700D01C
:1017400004723B0600D50272330600D50472417262
:101750007B0700D54272730700D544728172BB07C4
:1017600000D58272B30700D58472C172390700D5E3
:10177000C272310700D5C472D8F84010F1B3D8F85E
:10178000242043795649568B31F813309E4202D0BB
:10179000538382F82040D8F828208379568B31F87B
:1017A00013309E4202D0538382F82040D8F82C2078
:1017B000568B00E086E0C37931F813309E4202D0A8
:1017C000538382F82040D8F83020037A568B31F8C2
:1017D00013309E4202D0538382F82040D8F8342040
:1017E000437A568B31F813309E4202D0538382F8ED
:1017F0002040D8F83820837A568B00E011E031F889
:1018000013309E4202D0538382F82040D8F83C2007
:10181000C07A538B31F81000834202D0508382F893
:101820002040D8F81C0008B180F82040D8F82000EB
:1018300008B180F820402B48006A08B180F82040A9
:10184000A86A08B180F82040E86B08B180F8204011
:10185000A86C08B180F82040234D00212868026858
:1018600004989047C7B228680022114683680498FC
:10187000984728681E21026804989047174E012255
:10188000903E00217060286883680498984758B19A
:1018900028681E21026804989047F06028683A463C
:1018A0000021836804989847D8F84C0008B180F864
:1018B0002040D8F86400002801D080F8204005B00E
:1018C000BDE8F08F418B00293FF413AF0021418325
:1018D000012109E720E4012004E00120F8E70120CC
:1018E0007CB30F0804E10120F4FF012070B5064627
:1018F0000E4800244068472815D040F23F110020D0
:1019000000F0D2F900F044FE4FF49635304600F076
:101910000DFE641CAC42F9D3BDE8704001220421E5
:10192000034800F03FB80021E9E7000080E1012012
:10193000000402407CB50121022000F0DBFE0420FF
:10194000009002208DF8050001208DF80400002091
:101950008DF80600114C8DF8070069462046FFF708
:10196000ADFA01220421204600F01CF880200C4D25
:10197000009069462846FFF7A1FAE4146946284614
:101980000094FFF79BFA01222146284600F00AF84E
:1019900001228021284600F005F87CBD00040240A9
:1019A000000C0240FFF7F2BA064B30B49B68203AB5
:1019B000D2B21C68DB88534304EB430230BC00F016
:1019C00003B8000080E101202DE9F74F9046002781
:1019D0000646019900F068F91C4C31E000F0D8FD92
:1019E00000254FF00C094FF0800A4FF0010B17E073
:1019F000B0FBF9F1CA000AFA02F138F817202941C0
:101A0000114201D10C2805D90BFA05F10A4203D184
:101A10000C2801D9608800E0208800F087FD6D1C4B
:101A2000A0688088A842E3D8012204210848FFF773
:101A3000B9FF761CB6B23046019900F035F97F1C2B
:101A4000A068C088B842C9D8BDE8FE8F80E10120F7
:101A500000040240704700002DE9F047194D804610
:101A60009946686817460E460024472803D1A1F21C
:101A70003F16704286B23146404600F015F9B9F182
:101A8000000F1AD100F084FD03E0288800F04EFD1D
:101A9000641CBC42F9D3BDE8F047012204210A4886
:101AA000FFF780BF288800F063FD08F1010080B2D5
:101AB0008046314600F0F8F8641CBC42F2D3BDE821
:101AC000F087000080E1012000040240024A1388F0
:101AD000038050880880704780E1012001488068B9
:101AE0007047000080E1012003484068472801D08A
:101AF000012070470020704780E1012070470000FE
:101B000070B52D4C0025218821F0380121802188D5
:101B100041F00801218000F073FD732000F09CFD6E
:101B2000FF21204600F077FE8021204600F06AFE6B
:101B30000028F9D10121204600F064FE0028F9D0E8
:101B4000204600F066FE6D1CEDB2052DE8D3FF21A6
:101B5000204600F060FE8021204600F053FE002861
:101B6000F9D1022007F003FB0121204600F04AFED4
:101B70000028F9D0FF21204600F04DFE80212046AC
:101B800000F040FE0028F9D1022007F0F0FA012110
:101B9000204600F037FE0028F9D0204600F039FE3C
:101BA0000546012204210548FFF7FCFE208820F0AD
:101BB00038002080284670BD003C004000040240F0
:101BC00070B588B00121042000F094FD0121C80304
:101BD00000F09CFD02258DF819504FF480608DF8BF
:101BE00018500024244E05908DF81A408DF81B40A3
:101BF00005A93046FFF762F9E802059005A93046CD
:101C0000FFF75CF9A802059005A93046FFF756F9E1
:101C100006220A213046FFF7A2F906220C2130469F
:101C2000FFF79DF906220B213046FFF798F9134E76
:101C3000304600F0A5FDADF800404FF48270ADF8DD
:101C400002000120ADF808004002ADF80A000720AC
:101C5000ADF80440ADF80C40ADF81000ADF80650FA
:101C6000ADF80E406946304600F0D7FD0121304600
:101C700000F07CFD08B070BD00080240003C004050
:101C800001B5BDF800000149488008BD80E1012090
:101C900003B5BDF8001003480180BDF80410418071
:101CA0000CBD000080E1012070B505460E480C46D1
:101CB0004068472809D02946202000F073FC2146BF
:101CC0002120BDE8704000F06DBC210A022000F028
:101CD00069FCE1B2032000F065FC0021062000F061
:101CE00061FC29460720ECE780E10120014988607A
:101CF0007047000080E1012001B5BDF800000149F6
:101D0000088008BD80E101202DE9F05FFFF712FE99
:101D1000FFF756FFFE48416847297CD041684FF4E1
:101D20008079A1F513424FF4E06B41F2300A40F2A2
:101D30003F1741F21808203A6ED0416840F205146E
:101D4000A1F5A84240F2062540F60806083A7DD0E3
:101D50004068A0F51341253979D10121002000F018
:101D600021FC4946012000F01DFC5946022000F0EC
:101D700019FC4146032000F015FC0021042000F06E
:101D800011FC291F082000F00DFC0021092000F0A3
:101D900009FC00210A2000F005FC00210C2000F0C5
:101DA00001FC00210D2000F0FDFB00210F2000F0C0
:101DB000F9FB0021102000F0F5FB0021112000F0BC
:101DC000F1FB0021122000F0EDFB0021132000F0B8
:101DD000E9FB142007F0ACF941F2B071102000F0DB
:101DE000E1FB40F23711112000F0DCFB052007F089
:101DF0009FF9B91F122000F0D5FB052007F098F9D4
:101E00004FF4E851132000F0CDFB1321292000F0FE
:101E1000C9FB052001E088E18FE007F089F9002186
:101E2000202000F0BFFB0021212000F0BBFB072198
:101E3000302000F0B7FB40F20231312000F0B2FB5D
:101E40002146322000F0AEFB294601E077E26AE34A
:101E5000352000F0A7FB3146362000F0A3FB2946D1
:101E6000372000F09FFB40F20451382000F09AFB2D
:101E70000721392000F096FB21463C2000F092FB20
:101E800031463D2000F08EFB0021502000F08AFBFF
:101E9000EF21512000F086FB0021522000F082FB50
:101EA0003946532000F07EFB4FF42741602000F0BC
:101EB00079FB0121612000F075FB00216A2000F010
:101EC00071FB0021802000F06DFB0021812000F0DB
:101ED00069FB0021822000F065FB0021832000F0D7
:101EE00061FB0021842000F05DFB0021852000F0D3
:101EF00059FB1021902000F055FB0021922000F0AA
:101F000051FB0321932000F04DFB4FF48871952085
:101F100000F048FB0021972000F044FB00219820AE
:101F200000F040FB4146032000F03CFB40F233113F
:101F30000720BDE8F05F00F035BB052007F0F8F89A
:101F40004FF40041E52000F02DFB0121002000F0BE
:101F500029FB4946012000F025FB5946022000F0EC
:101F600021FB5146032000F01DFB0021042000F05E
:101F700019FB40F20221082000F014FB0021092087
:101F800000F010FB00210A2000F00CFB00210C20C7
:101F900000F008FB00210D2000F004FB00210F20C1
:101FA00000F000FB0021102000F0FCFA00211120BD
:101FB00000F0F8FA0021122000F0F4FA00211320BA
:101FC00000F0F0FA142007F0B3F841F2B0711020DD
:101FD00000F0E8FA40F23711112000F0E3FA052092
:101FE00007F0A6F840F23911122000F0DBFA0520C4
:101FF00007F09EF84FF4E851132000F0D3FA1321B4
:10200000292000F0CFFA052007F092F800212020C7
:1020100000F0C8FA0021212000F0C4FA0621302087
:1020200000F0C0FA40F20111312000F0BBFA0321A8
:10203000322000F0B7FA4FF48371352000F0B2FA85
:1020400040F60231362000F0ADFA40F2023137207E
:1020500000F0A8FA40F20771382000F0A3FA072137
:10206000392000F09FFA4FF4C0613C2000F09AFA4A
:1020700040F20B213D2000F095FA0021502000F0A5
:1020800091FAEF21512000F08DFA0021522000F04A
:1020900089FA3946532000F085FA4FF41C5160202C
:1020A00000F080FA0121612000F07CFA00216A2012
:1020B00000F078FA0021802000F074FA00218120DD
:1020C00000F070FA0021822000F06CFA00218320D9
:1020D00000F068FA0021842000F064FA00218520D5
:1020E00000F060FA1021902000F05CFA00219220AC
:1020F00000F058FA0321932000F054FA4FF488714D
:10210000952000F04FFA0021972000F04BFA01E0F3
:1021100080E101200021982000F044FA414603208C
:1021200000F040FA40F2731102E70021EA2000F0CB
:1021300039FA2021EB2000F035FA0C21EC2000F0D8
:1021400031FAC421ED2000F02DFA4021E82000F002
:1021500029FA3821E92000F025FA0121F12000F0C8
:1021600021FA1021F22000F01DFAA321272000F00F
:1021700019FA0121402000F015FA0021412000F059
:1021800011FA0021422000F00DFA1021432000F046
:1021900009FA0E21442000F005FA2421452000F020
:1021A00001FA0421462000F0FDF95021472000F0FB
:1021B000F9F90221482000F0F5F91321492000F037
:1021C000F1F919214A2000F0EDF919214B2000F016
:1021D000E9F916214C2000F0E5F91B21502000F010
:1021E000E1F93121512000F0DDF92F21522000F0DA
:1021F000D9F93F21532000F0D5F93F21542000F0B8
:10220000D1F93E21552000F0CDF92F21562000F0C4
:10221000C9F97B21572000F0C5F90921582000F0A9
:10222000C1F90621592000F0BDF906215A2000F01D
:10223000B9F90C215B2000F0B5F91D215C2000F0FC
:10224000B1F9CC215D2000F0ADF91B21084600F06A
:10225000A9F901211A2000F0A5F92F21242000F06E
:10226000A1F95721252000F09DF98621232000F0B7
:1022700099F93621182000F095F90121192000F074
:1022800091F90021012000F08DF988211F2000F034
:1022900089F9022006F04CFF80211F2000F082F90E
:1022A000022006F045FF90211F2000F07BF902205C
:1022B00006F03EFFD0211F2000F074F9022006F046
:1022C00037FF0521172000F06DF90021012000F0F3
:1022D00069F90021022000F065F90021032000F0D7
:1022E00061F90121042000F05DF93F21052000F093
:1022F00059F90021062000F055F90021072000F0CF
:1023000051F90021082000F04DF9EF21092000F0DB
:1023100049F92821162000F045F90021362000F067
:1023200041F90421362000F03DF93821282000F041
:1023300039F9062006F0FCFE3C212820F9E543F29D
:102340000801E32000F02EF91221E72000F02AF91D
:1023500041F23121EF2000F025F94946012000F03B
:1023600021F95946022000F01DF95146032000F0E2
:1023700019F90021042000F015F940F2022108208B
:1023800000F010F90021092000F00CF900210A20CA
:1023900000F008F900210C2000F004F900210D20C4
:1023A00000F000F900210F2000F0FCF800211020BF
:1023B00000F0F8F80021112000F0F4F800211220BC
:1023C00000F0F0F80021132000F0ECF8142006F0E3
:1023D000AFFE0721112000F0E5F8052006F0A8FE69
:1023E00041F2B021102000F0DDF8052006F0A0FE3B
:1023F00040F2BD11122000F0D5F8052006F098FE3D
:102400004FF4A051132000F0CDF80E21292000F048
:10241000C9F8052006F08CFE0021202000F0C2F84B
:102420003946212000F0BEF80721302000F0BAF82C
:1024300040F20231312000F0B5F82146322000F0A0
:10244000B1F82946352000F0ADF83146362000F0CD
:10245000A9F82946372000F0A5F840F204513820A9
:1024600000F0A0F80721392000F09CF821463C201C
:1024700000F098F831463D2000F094F800215020FB
:1024800000F090F8EF21512000F08CF8002152204C
:1024900000F088F83946532000F084F84FF42741C3
:1024A000602000F07FF80121612000F07BF800211E
:1024B0006A2000F077F80021802000F073F80021F6
:1024C000812000F06FF80021822000F06BF80021DD
:1024D000832000F067F80021842000F063F80021D9
:1024E000852000F05FF81021902000F05BF80021BB
:1024F000922000F057F80321932000F053F84FF496
:102500008871952000F04EF80021972000F04AF8DD
:102510000021982000F046F84146032000F042F8E0
:102520004FF4897104E5BDE8F09F000070B50F4DD0
:102530000446010A284600F06EF98021284600F082
:1025400061F90028F9D1022006F011FEE1B2284617
:1025500000F061F98021284600F054F90028F9D1F3
:10256000BDE87040022006F002BE0000003C0040C2
:1025700010B5044600F00CF82046FFF7D7FF012203
:10258000BDE8104004210148FFF70CBA00040240E6
:1025900010B5222000F034F8BDE81040722000F0A1
:1025A0005BB8000070B50C4600F02AF8722000F00D
:1025B00053F8114D210A284600F02DF980212846B4
:1025C00000F020F90028F9D1022006F0D0FDE1B298
:1025D000284600F020F98021284600F013F9002851
:1025E000F9D1022006F0C3FDBDE8704001220421AC
:1025F0000248FFF7D7B90000003C00400004024049
:1026000070B50546702000F027F8114C00212046D7
:1026100000F001F98021204600F0F4F80028F9D1FB
:10262000022006F0A4FD2946204600F0F4F880219F
:10263000204600F0E7F80028F9D1022006F097FDC7
:10264000BDE87040012204210248FFF7ABB9000049
:10265000003C00400004024010B504460022042162
:102660000948FFF79FF92146084C204600F0D3F8AF
:102670008021204600F0C6F80028F9D1BDE81040BE
:10268000022006F074BD000000040240003C00403F
:1026900030B50F22C47801780123FCB1144C2468B2
:1026A00001F1E02104F4E064C4F5E064C4F307241C
:1026B000C4F10405E2404478AC40857815402543D8
:1026C0002A0181F80024007800F01F018B404009A6
:1026D000800000F1E020C0F8003130BD01F01F00A3
:1026E00083404809800000F1E020C0F8803130BD0F
:1026F0000CED00E0044A0029116801D0014300E01C
:10270000814311607047000030380240044A0029BC
:10271000116801D0014300E081431160704700005F
:1027200040380240044A0029116801D0014300E00A
:10273000814311607047000020380240044A00299C
:10274000116801D0014300E081431160704700002F
:1027500044380240044A0029116801D0014300E0D6
:10276000814311607047000024380240002901882D
:1027700002D041F0400101E021F0400101807047AA
:102780001A4910B5884202D10121841424E0184965
:10279000884202D10121041404E0164988420AD17A
:1027A0000121C4132046FFF7BDFF2046BDE81040BD
:1027B0000021FFF7B7BF1049884202D1012144141C
:1027C0000AE00E49884202D101210C0504E00C49BF
:1027D00088420AD101214C052046FFF7BBFF204665
:1027E000BDE810400021FFF7B5BF10BD003001402B
:1027F00000380040003C00400034014000500140DF
:10280000005401400246002012890A4200D00120F3
:102810007047808970478181704730B502884C8845
:1028200002F441530A88CD8822438C882C432243EA
:102830000C8922434C8922438C892243CC89224330
:102840001A430280828B22F400628283098A018209
:1028500030BD000038B500200090FFF755FA002089
:10286000FFF74EF90146009045F20840094C8142BD
:1028700006D049F22530814202D0401F814203D167
:102880006060FFF741FA01E04720606001480C30CA
:10289000A06038BD80E1012010B50021072000F0C4
:1028A0001FF80021052000F01BF80021062000F091
:1028B00017F80021032000F013F80021BDE81040B4
:1028C000042000F00DB800000349044A31F810104C
:1028D00052F82000FEF753BB0CB70F0860E101204F
:1028E00070B5044625480E4686B050F824000121F4
:1028F000FFF700FF01218803FFF720FF1F48002595
:102900008DF8105010388DF8135030F814000390E3
:102910001B4803A950F82400FEF7D0FA012E2BD152
:102920001648403010F81410103810F8140000F059
:1029300029F81248203030F8140000908DF8045027
:102940000CB10C2000E008208DF8050001258DF861
:1029500006506846FEF77AFA0848503010F814001E
:102960008DF808000F208DF809008DF80A008DF809
:102970000B5002A8FFF78CFE06B070BD1CB70F0805
:1029800060E1012010B58A0721F003040849130F04
:1029900021440F22D1F808489A409443C1F80848CE
:1029A000D1F8082898400243C1F8082810BD00005B
:1029B000003001400CB500202749019000900A68C2
:1029C00042F480320A604FF4A0430A6802F40032F5
:1029D0000092019A521C0192009A12B9019A9A42ED
:1029E000F3D10A68920334D5012000901A48403090
:1029F000026842F0805202601848026842F4404285
:102A000002601548083002680260026842F4004221
:102A10000260026842F4A0520260031F104A1A606A
:102A20000A6842F080720A600A689201FCD50D4A79
:102A300040F205711160016821F003010160016835
:102A400041F0020101600168C1F381010229FAD15C
:102A50000CBD00900CBD000000380240007000402A
:102A600008544007003C0240124810B5016841F488
:102A7000700101601048016841F0010101600E4AD7
:102A800000210832116002680C4B1A400260031DDD
:102A90000B4A1A60026822F48022026006480C3059
:102AA0000160FFF787FF03494FF00060803908603D
:102AB00010BD000088ED00E000380240FFFFF6FE88
:102AC000103000242DE9FE4F282005F009FC0321D9
:102AD000009105233B4A3CA105F0C6FB8246282015
:102AE00005F0FEFB1E2100910523364A39A105F0B1
:102AF000BBFB8146282005F0F3FB3C210091052318
:102B0000304A3EA105F0B0FB8046282005F0E8FBE6
:102B10004B21009105232B4A41A105F0A5FB074657
:102B2000282005F0DDFB5A2100910523254A45A107
:102B300005F09AFB0646282005F0D2FBB42100914F
:102B40000523204A48A105F08FFB0546282005F003
:102B5000C7FB7321009105231A4A4B4905F084FBFA
:102B600004465146174804F0E6F94946154804F072
:102B7000E2F94146134804F0DEF93946114804F001
:102B8000DAF931460F4804F0D6F929460D4804F029
:102B9000D2F921460B4804F0CEF9282005F0A0FB1D
:102BA00008499623F7228DE80E0038492C23482245
:102BB000096803F0FBFC03B00146BDE8F04F014893
:102BC00004F0B9B9D0E2012048656C70205061670B
:102BD0006500000055736520746865206A6F79731D
:102BE0007469636B20746F20776F726B20776974E0
:102BF00068204C4344204755490000002D55502F74
:102C0000444F574E20746F206D6F76652062657457
:102C10007765656E20636F6E74726F6C7300000071
:102C20002D4C4546542F524947544820746F206D0F
:102C30006F7665206265747765656E207061676583
:102C4000730000002D53454C20746F20696E74652D
:102C50007261637420776974682074686520636F9B
:102C60006E74726F6C000000436F707972696768F0
:102C7000742053544D6963726F656C656374726F31
:102C80006E6963730000000082B30F0800E001204A
:102C90002DE9F04F87B00021FE4804F0F5F8282018
:102CA00005F01EFB0021FB4A0B460091A832FAA159
:102CB00005F0DAFA8046282005F012FB1421F54AC7
:102CC00000910A23A832FAA105F0CEFA074638206F
:102CD00005F006FB2121EF4A00910A23A832F649AC
:102CE00005F0D4F9F54CE060282005F0F9FA14213C
:102CF000E84A00916423A832F1A105F0B5FA06462E
:102D0000382005F0EDFA21210091E24AEA496423D6
:102D1000A8320C3105F0BAF92061282005F0E0FA5C
:102D2000DFF87093352309F1A8090A21CDF8009046
:102D3000CDE901133C239B22E4A105F0F3F90546FC
:102D4000282005F0CDFA112100910F232A46E4A195
:102D500005F08AFA0490282005F0C2FA2521009196
:102D60000F232A46E1A105F07FFA0590382005F0EF
:102D7000B7FA6E22CDE900524FF00F0ACDF808A045
:102D8000227809F5806B0BEB82110323DAA203F0A2
:102D90002DFFE061382005F0A3FA23216E22009573
:102DA000CDE90121227803230BEB8211D2A2891CE9
:102DB00003F01CFF2062282005F092FA1422CD2394
:102DC000CDF80090CDE90132AA236422CBA105F011
:102DD000A9F90390282005F083FA0523CDF800A077
:102DE000C8A1039A05F040FA6062282005F078FA3D
:102DF000212100910523C6A1039A05F035FAA062AE
:102E0000282005F06DFA332100910523C3A1039A10
:102E100005F02AFAE062282005F062FA45210091C7
:102E20000523C1A1039A05F01FFA2063282005F0AD
:102E300057FA572100910523BEA1039A05F014FA11
:102E40006063282005F04CFA692100910523BCA19C
:102E5000039A05F009FAA063282005F041FA7B21C6
:102E600000910523B9A1039A05F0FEF9E063302033
:102E700005F036FA8D2100910A23B7A1039A03F0D9
:102E8000ABFCB849206441624CF2186141830021D7
:102E900003F0C9FF4846216C04F04DF8414648460E
:102EA00004F049F83146484604F045F839464846AA
:102EB00004F041F84846E16804F03DF82178E06804
:102EC00004F0A9FFE168A84848624846216904F077
:102ED00032F8207809F5906600EB400016F82010D3
:102EE000206904F098FFA14804F580770068016923
:102EF000F86A8847C0067AD5282005F0F1F97323CF
:102F00000A21CDF80090CDE901133C23BE2298A1FF
:102F100005F008F98046282005F0E2F9112100911A
:102F20000523424696A105F09FF98246282005F028
:102F3000D7F9252100910523424692A105F094F985
:102F40008146382005F0CCF90190F86A01F0C0FF05
:102F5000DFF864B121230BF1180B42465BF8201017
:102F60000F200090019805F091F86061382005F07D
:102F7000B7F90190F86A01F0ABFF5BF8201023204D
:102F8000009021234246019805F080F8A061414657
:102F9000A6F5906003F0CFFF5146A6F5906003F0D0
:102FA000CAFF4946A6F5906003F0C5FFA6F59060FC
:102FB000616903F0C0FFA6F59060A16903F0BBFF53
:102FC000207800EB400006EB80004178606904F057
:102FD00022FF207800EB400006EB80008178A0699A
:102FE00004F019FF616968484862A169486229488C
:102FF0002946A83003F09FFF26480499A83003F023
:103000009AFF24480599A83003F095FF2148E1690B
:10301000A83003F090FF1F48216AA83003F08BFF0F
:103020000021E06903F0FFFE0021206A03F0FBFEAF
:103030004E4800680169F86A88470221B1EB107FA9
:1030400003D0C0F30360022813D1302005F048F903
:10305000B221104A00910A23A8324CA103F0BCFB14
:10306000014678610B48A83003F065FF79694C4848
:10307000486208480399A83003F05DFF0548616A7B
:10308000A83003F058FF0348A16AA83003F053FFAB
:10309000004887E0D0E20120436F6E666967757271
:1030A0006174696F6E20616E64206465627567008B
:1030B0004D6F746F72000000A4B30F0804E001208C
:1030C0004374726C206D6F6465000000506F77650B
:1030D0007220626F61726420737461747573000092
:1030E00044432042757320766F6C740048656174A8
:1030F00073696E6B20542E00253364004661756C35
:10310000747300004F76657263757272656E740039
:103110005265767570206661696C00005370656554
:1031200064206664626B00005357206572726F7290
:1031300000000000556E64657220766F6C740000AC
:103140004F76657220766F6C740000004F76657262
:103150002074656D700000004661756C74206163B9
:103160006B000000B9500F08A15E0F08F4FF0120AA
:103170004441432053657474696E67730000000016
:103180004368310043683200CD550F08456E636FC8
:1031900064657220616C69676E6D656E7400000015
:1031A0003D560F08A830E16A03F0C5FE2048216BA8
:1031B00003F0C1FE1E48616B03F0BDFE1C48A16B0D
:1031C00003F0B9FE1A48E16B03F0B5FE2078626A9D
:1031D00000EB400006EB800116484B7930F81330C5
:1031E00053838B79A26A30F813305383CB79E26A28
:1031F00030F8133053830B7A226B30F8133053833B
:103200004B7A626B30F8133053838B7AA26B30F8B1
:1032100013305383C97AE26B30F81100508321696F
:103220000548486207B00248BDE8F04F03F017BFF9
:1032300078E301207CB30F08D95D0F082DE9F04F2A
:103240008BB0282005F04CF800210B460091FB4A7A
:10325000FBA105F009F80790282005F041F8F7498F
:1032600014230A228DE80E005A239122F9A104F0BA
:1032700059FF0646F948FA4C4FF0050B00784FF01D
:103280001E0900284FF0410A4FF028007BD005F0BE
:1032900027F80F21009105233246F2A104F0E4FF44
:1032A0000746382005F01CF80096EC49CDE901B935
:1032B0004D460623EFA26C3903F098FCEE49A0645A
:1032C0004162402005F00CF83C210096CDE9011543
:1032D000E2490623E7A28C3904F02CF9E0642820A7
:1032E00004F0FEFF75233246E4A1009504F0BCFF14
:1032F0008046282004F0F4FF322100910523324655
:10330000DFA104F0B1FF0546382004F0E9FFD349FE
:10331000CDE9006B0623D7A26839CDF808A003F0E9
:1033200065FCD949606541623946C44803F003FE33
:10333000C248A16C03F0FFFDC048E16C03F0FBFD47
:103340004146BE4803F0F7FD2946BC4803F0F3FDB3
:10335000BA48616D03F0EFFD0021E06C03F063FDFE
:10336000302004F0BDFF782100912823B34AC7A183
:1033700003F032FA6067302004F0B2FF8C2128237A
:10338000AE4A009100E0DCE0C3A103F025FAC54994
:10339000A06741624CF218614183002103F043FDB4
:1033A000A648616F03F0C7FDA448A16F03F0C3FDF9
:1033B000282004F095FFA1491423A0228DE80E00D7
:1033C0005A239122B8A104F0ADFE0546A348017B23
:1033D0008438039000294FF028007CD004F080FF4F
:1033E0000F21009105232A469EA104F03DFF08907D
:1033F000382004F075FF9949CDE9005B4F4606235C
:103400009CA22C39CDF8089003F0F0FBA849206667
:103410004162402004F064FF3C21CDE900510623C5
:1034200094A20297039904F085F86066282004F0BE
:1034300057FF75232A4691A1009704F015FF804697
:10344000282004F04DFF3221009105232A468CA14B
:1034500004F00AFF0746382004F042FF7F49CDE917
:10346000005B062383A22839CDF808A003F0BEFB39
:103470009049E06641627148089903F05CFD6F482D
:10348000216E03F058FD6D48616E03F054FD414616
:103490006A4803F050FD3946684803F04CFD674820
:1034A000E16E03F048FD0021606E03F0BCFC3020AB
:1034B00004F016FF78210091BE23604A73A103F047
:1034C0008BF9E067302004F00BFF8C210091BE23C4
:1034D0005A4A71A100E040E103F07EF9604F76495D
:1034E0008037386041624CF218614183002103F05B
:1034F0009AFC302004F0F4FEA021009144234F4AAE
:103500006EA103F069F978604C48079903F013FD48
:1035100031464A4803F00FFD2946484803F00BFDA9
:103520004648E16F03F007FD4448396803F003FDA6
:103530004248796803F0FFFC4848017800297CD0B4
:10354000D0E104F0CDFE0F2100910523324661A1A8
:1035500004F08AFE0490402004F0C2FE3F49CDE909
:10356000006B062343A29039CDF8089003F0E2FFE8
:103570005C4D60645C4F286800210268F86A9047DF
:10358000C0B203902868002211468368F86A984701
:103590002868D4F8448040210268F86A9047029075
:1035A00028683F210268F86A90470299C8E90E101E
:1035B00028680021039A8368F86A9847402004F03D
:1035C0008FFE3C21CDE900612449062329A2CDF8D4
:1035D00008908C3903F0AEFFE064282004F080FEF0
:1035E0007523324625A1CDF8009004F03DFE074634
:1035F000282004F075FE32210091052332463BA1BC
:1036000004F032FE0546382004F06AFE1349CDE985
:10361000006B062317A27C39CDF808A003F0E6FA68
:1036200047F6FF720021206503F0B0FA302004F065
:1036300057FE3C23324632A166E03FE120E4012000
:103640004475616C20636F6E74726F6C2070616E74
:10365000656C00004D6F746F72203100F8E7012037
:1036600004E001204971207265662E2F5370656554
:10367000640000002536640081620F0872706D00DE
:103680004964207265662E00D5600F08537461721C
:10369000742F53746F7000004661756C7420616301
:1036A0006B0000004D550F084D6F746F7220320093
:1036B00031630F08A9610F088D550F0853746172AB
:1036C000742F53746F7020626F7468206D6F746F05
:1036D00072730000546172676574204D6561737583
:1036E00072656400F4FF012004E1012052616D70F5
:1036F000206475726174696F6E206D730000000044
:103700004578656300000000CDF800A003F064F880
:10371000A0657C48049903F00EFC7A48616C03F0C4
:103720000AFC7848E16C03F006FC3946754803F062
:1037300002FC2946734803F0FEFB7248216D03F03A
:10374000FAFB7048A16D03F0F6FB0021E06C03F07A
:103750006AFBA16D6C48486202E604F0C1FD0F21CE
:1037600005232A460091AFF2940104F07DFD0890F4
:10377000402004F0B5FD1E2105220095CDE9012170
:103780000623AFF21012614903F0D4FE604FE065EA
:10379000DFF88081386800210268D8F82C00904753
:1037A00000F0FF0B3868012200218368D8F82C0054
:1037B00098473868D4F85C9040210268D8F82C000B
:1037C0009047049038683F210268D8F82C00904751
:1037D0000499C9E90E1038685A4600218368D8F860
:1037E0002C009847402004F07BFD1E223C210095D0
:1037F000CDE901120623AFF28412039903F09AFE79
:103800006066282004F06CFD1E2175232A46009175
:10381000AFF2981104F028FD8046282004F060FDE6
:10382000322105232A460091AFF2401104F01CFD1D
:103830000746382004F054FD0522CDE90052062346
:10384000CDF808A0AFF2D41230494C3103F0CEF9D4
:1038500047F6FF720021A06603F098F9302004F0CB
:103860003FFD3C232A46AFF26811CDF800A002F0DC
:10387000B3FF20672348089903F05DFB2148E16D01
:1038800003F059FB1F48616E03F055FB41461D488C
:1038900003F051FB39461B4803F04DFB1948A16E5C
:1038A00003F049FB1748216F03F045FB0021606ED0
:1038B00003F0B9FA216F18484862F8E5007B88B92F
:1038C000302004F00DFDB421009140230D4A13A1D6
:1038D00002F082FF0146B8600A4803F02CFBB96889
:1038E00014484862796814484862616F1348486216
:1038F000E16F134848620BB00248BDE8F04F03F097
:10390000AEBB000020E401201D640F0870E7012019
:10391000F4FF012004E1012069640F084578656324
:103920002073696D756C74616E656F75732052617B
:103930006D70730055560F089D510F08355A0F08CA
:10394000595B0F082DE9F04F8BB0282004F0C8FC1C
:1039500000210B460091FE4AFEA104F085FC039075
:10396000282004F0BDFC0A22F94BCDE900324FF0CB
:10397000140ACDF808A05A239122FBA104F0D2FB2F
:103980000746282004F0ACFC1E2100913C233A4657
:10399000F8A104F069FC0490282004F0A1FC412166
:1039A00000913C233A46F4A104F05EFC05902820E7
:1039B00004F096FC0F21009105233A46EFA104F094
:1039C00053FC0690402004F08BFC1E21052200973A
:1039D000CDE90121DFF8B8B3EC4A06239BF80010CB
:1039E00002EBC101EBA203F0A5FD0BF18004DFF8AF
:1039F000A8830646E060D8F8000004F18005402165
:103A00000268E86A90478146D8F800003F210268C2
:103A1000E86A9047C6E90E90282004F061FC322144
:103A2000009105233A46DDA104F01EFC07903820E2
:103A300004F056FC412105220097CDE901215A46A8
:103A4000DFF84893127809F1100909EB8211062377
:103A5000D0A2091D03F0CAF847F6FF7200212061C9
:103A600003F094F8302004F03BFC412100915A23EC
:103A70003A46CEA102F0B0FECE496061416201F04B
:103A8000BFF9282004F02CFCB14973230A228DE8E9
:103A90000E004B236822C8A104F044FB06462820F0
:103AA00004F01EFC0A233246C6A1CDF800A004F0A3
:103AB000DBFB0890282004F013FC232100910A234B
:103AC0003246C1A104F0D0FB0990382004F008FC74
:103AD00051464FF0280A0096CDE901A15A46062327
:103AE000127809EB8211ABA2891D03F07FF8A06167
:103AF000382004F0F5FB23210096CDE901A15A46B8
:103B00000623127809EB8211A2A2083103F06EF8A5
:103B1000E0618F48039903F00EFA8D48049903F091
:103B20000AFA8B48059903F006FA3946884803F0EB
:103B300002FA8748069903F0FEF98548E16803F028
:103B4000FAF98348079903F0F6F98148216903F0EF
:103B5000F2F97F48616903F0EEF97D48A96903F045
:103B6000EAF97B48E96903F0E6F97948296A03F044
:103B7000E2F97748A96A03F0DEF90021286A03F028
:103B800052F97348696A03F0D6F93146704803F078
:103B9000D2F96F48089903F0CEF96D48099903F0FE
:103BA000CAF96B48A16903F0C6F96948E16903F0F5
:103BB000C2F9D8F800000169E86A884780072BD568
:103BC000282004F08DFB32270A2332467FA100977C
:103BD00004F04AFB0546382004F082FBCDE9006A78
:103BE00002979BF80020062309EB821169A20A3193
:103BF00002F0FCFF20622946554803F09CF9544826
:103C0000216A03F098F947F6FF720021206A02F05A
:103C1000BDFFA1696E48486247F6FF752A4600213C
:103C2000A06902F0B3FF2A460021E06902F0AEFF6E
:103C3000D8F8000001696748C06A8847C0077DD08E
:103C4000282004F04DFB424973237D228DE80E00AD
:103C50004B23B42260A104F065FA0546282004F045
:103C60003FFB0E260A232A465FA1009604F0FCFAC9
:103C70000390282004F034FB50232A465AA10096D2
:103C800004F0F2FA8246382004F02AFB0A22CDE939
:103C900000524FF01908CDF808809BF800104E46EE
:103CA00009EB81115F46042351A20C3102F09EFF03
:103CB0006062382004F014FB5022CDE90052CDF8A8
:103CC00008803978042306EB811149A20E3102F0F5
:103CD0008DFFA062282004F003FB4FF02C080A237C
:103CE0002A4638A1CDF8008004F0BEFA814628208B
:103CF00004F0F6FA50232A4633A1CDF8008004F0F0
:103D0000B3FA8046382004F0EBFA0A22CDE90052DB
:103D10004FF0370BCDF808B03978062306EB811148
:103D20001CA2103102F062FFE062382004F0D8FAE1
:103D30005022CDE90052CDF808B000E09CE039787F
:103D4000062306EB811113A2123102F04FFF51E05E
:103D5000C8E40120537065656420636F6E74726FF0
:103D60006C6C65720000000053657420706F696EA2
:103D70007400000072706D006D7300005461726712
:103D800065742073706565640000000068E70120B9
:103D900004E0012025366400F4FF012052616D70BB
:103DA000206475726174696F6E0000004578656308
:103DB00000000000715E0F08504944204761696EA1
:103DC000730000004B5000004B4900004B440000C2
:103DD0001D530F0804E10120466C757820776C2E86
:103DE0002074756E696E67004255538000000000B4
:103DF0002534640020632946254803F09CF82448B4
:103E0000039903F098F85146214803F094F82048AC
:103E1000616A03F090F81E48A16A03F08CF8002153
:103E2000A06A03F000F84946194803F084F84146B7
:103E3000174803F080F81648E16A03F07CF814484C
:103E4000216B03F078F84FF47A720021606A02F077
:103E50009DFE47F6FF752A460021E06A02F096FEB5
:103E60002A460021206B02F091FE616A09484862EF
:103E7000E16A4862216B4862A16906484862E169CB
:103E800048620BB00248BDE8F04F03F0E8B800000C
:103E9000C8E401201D530F082DE9F04F8BB02820F6
:103EA00004F01EFA00210B460091FE4AFEA104F028
:103EB000DBF90390282004F013FA87210091E62310
:103EC000F84AFEA104F0D0F90490282004F008FA82
:103ED0000A23DFF8D083CDE900834FF0140ACDF830
:103EE00008A05A239122F7A104F01CF907462820C4
:103EF00004F0F6F90F21009105233A46F4A104F0ED
:103F0000B3F9F54C6063382004F0EAF91E2105226C
:103F10000097CDE90121A4F1800508F50276297802
:103F2000062306EB8111EDA2143102F05FFEA063BF
:103F3000282004F0D5F90F21009150233A46E8A13A
:103F400004F092F90590382004F0CAF91E2150229D
:103F50000097CDE901212978062306EB8111DFA224
:103F6000163102F043FEE063282004F0B9F9322153
:103F7000009105233A46DBA104F076F9206438204D
:103F800004F0AEF9412105220097CDE901212978FD
:103F9000062306EB8111D1A2183102F027FE6064DE
:103FA000282004F09DF93221009150233A46CFA1F8
:103FB00004F05AF90690382004F092F94121502279
:103FC0000097CDE901212978062306EB8111C3A2D0
:103FD0001A3102F00BFEA064282004F081F9844617
:103FE00073200A22CDF80080CDE901204B236822FE
:103FF000BFA1604604F096F88146282004F070F9CD
:104000000A234A46BEA1CDF800A004F02DF907907E
:10401000382004F065F94FF0280BCDE9009B844669
:10402000CDF808A02878062306EB8011ABA26046E5
:104030001C3102F0DBFDE064282004F051F923215B
:1040400000910A234A46AFA104F00EF908903820E7
:1040500004F046F92321CDF80090CDE901B1844662
:104060002878062306EB80119CA260461E3102F0E0
:10407000BDFD2065282004F033F9844673207822A2
:10408000CDF80080CDE901204B2368229EA1604637
:1040900004F048F88046282004F022F90A2342461A
:1040A00097A1CDF800A004F0DFF80990382004F0C3
:1040B00017F9CDE9008B8446CDF808A028780623AF
:1040C00006EB801185A26046223102F08FFDE0658B
:1040D000282004F005F9232100910A23424689A1F2
:1040E00004F0C2F80A90382004F0FAF82321CDF841
:1040F0000080CDE901B184462878062306EB8011C3
:1041000076A26046243102F071FD2066302004F072
:10411000E7F873210091E623624A7FA103F030F9AA
:10412000E066382004F0DCF896210091E6235D4A31
:104130007B4903F0ABFF206700F062FE594803990A
:1041400002F0F9FE5748049902F0F5FE3946554849
:1041500002F0F1FE5348616B02F0EDFE5148A16B95
:1041600002F0E9FE4F48059902F0E5FE4D48E16B8B
:1041700002F0E1FE0021E06B02F055FE4948216C9F
:1041800002F0D9FE4748616C02F0D5FE4548069919
:1041900002F0D1FE4348A16C02F0CDFE0021A06CDC
:1041A00002F041FE04F1800081693E4802F0C3FE46
:1041B00004F18000C1693B4802F0BDFE04F18000BB
:1041C000016A384802F0B7FE04F18000816A354880
:1041D00002F0B1FE04F180000021006A02F023FE2B
:1041E00004F18000416A2F4802F0A5FE287800EB18
:1041F000400106F1800000EB81004946077929481B
:1042000002F099FE2748079902F095FE2548E16CD7
:1042100002F091FE2348089902F08DFE2148216D9D
:1042200002F089FEE16C3F484862216D3E484862D9
:104230003E480068016904F18000C06A8847400771
:104240002DD5282004F04CF84FF0320A0A234A46B4
:1042500037A1CDF800A004F007F86065382004F01D
:104260003FF8CDE9009BCDF808A02978062306EB9E
:1042700081111AA2203102F0B9FCA0650948616DD4
:1042800002F059FE0748A16D02F055FE47F6FF7295
:104290000021A06D02F07AFCA16D2648486247F625
:1042A000FF7A49E070E5012043757272656E7420F3
:1042B000636F6E74726F6C6C65727300496E7075AB
:1042C0007400000053657420706F696E7473000091
:1042D0004971207265662E0084E001202536640055
:1042E000497100004964207265662E00496400002F
:1042F000497120504944204761696E7300000000F5
:104300004B5000004B49000049642050494420476D
:1043100061696E73000000004C696E6B0000000064
:10432000FCB30F08A1540F085D540F08F4FF0120DF
:104330004B44000015540F0852460021E06C02F077
:1043400025FC52460021206D02F020FC41465D48CC
:1043500002F0F1FD5B48099902F0EDFD5948E16D6D
:1043600002F0E9FD57480A9902F0E5FD5548216E33
:1043700002F0E1FD5448006801695448C06A88476A
:10438000DFF84C91000733D5282003F0A9FF322134
:104390000A2342460091AFF2680103F065FF6066B0
:1043A000382003F09DFF3221CDF80080CDE901B126
:1043B0002978062306EB8111AFF2E002263102F0E4
:1043C00015FCA0663F48616E02F0B5FD3D48A16E48
:1043D00002F0B1FD52460021A06E02F0D7FB002F83
:1043E00055D00021A06E02F01EFDA16EC1F82490F0
:1043F000564652460021E06D02F0C8FB32460021CD
:10440000206E02F0C3FB2F48E16E02F094FD2D48B0
:10441000216F02F090FDA84628782E4D00EB400059
:1044200005EB8000C178206F03F0F5FC01F0BAFDC8
:10443000E66E726A2AB196F8210010B1394630460C
:10444000904786F82C7027B30021E06D02F0EBFC5A
:104450000FB30021206E02F0E6FC216F1E48486277
:10446000E16E1E484862A06B1D494162626C1D49A5
:104470005162E26DC2F82490226EC2F8249098F83E
:10448000001001EB410115F8211031B114E00121B8
:10449000A8E70121D9E70121DCE7002102F0C3FCF4
:1044A0000948006801690948C06A8847800603D442
:1044B0000021606C02F0B7FC0BB00248BDE8F04F81
:1044C00002F0CDBD70E50120F4FF012004E10120E0
:1044D0001D530F08F8E70120DD640F0865530F082E
:1044E00091580F08C1560F082DE9F04FFF48DFF82B
:1044F000008487B0006800250169D8F82C0088473F
:10450000064609200024B0EB167F09D1282003F0CD
:10451000E7FE0023F74AF8A1009403F0A5FE054644
:10452000C6F30360092809D1282003F0D9FE00232F
:10453000F04AF8A1009403F097FE054670064FF08C
:1045400028000AD503F0CCFEEA4914230A228DE89C
:104550000E005A239122F8A109E003F0C1FEE549BB
:1045600014230A228DE80E005A239122F5A103F0AC
:10457000D9FD0446282003F0B3FE0F210091052346
:104580002246F1A103F070FE0390382003F0A8FE4C
:104590001E2105220094DFF8B8B3CDE90121DFF830
:1045A000AC939BF80020062309EB8211E9A2283185
:1045B00002F01CFB0BF1800A5746CAF87400282051
:1045C00003F08EFE0F21009150232246E2A103F05A
:1045D0004BFE0490382003F083FE1E2250210094ED
:1045E000CDE901129BF80020062309EB8211D9A224
:1045F0002A3102F0FBFAB86700F002FC2946BD48F8
:1046000002F099FC2146BB4802F095FCB948039999
:1046100002F091FCB748796F02F08DFCB54804991F
:1046200002F089FCB348B96F02F085FC70065BD5D7
:10463000282003F055FE3221009105232246C7A110
:1046400003F012FE0390382003F04AFE0521CDE965
:104650000041412702979BF80020062309EB8211B5
:10466000BCA2303102F0C2FA554647F6FF72002173
:10467000CAF87C0002F08AFA282003F031FE3221C9
:10468000009150232246B7A103F0EEFD049038209C
:1046900003F026FE5021CDE9004102979BF800204F
:1046A000062309EB8211ABA2323102F09FFA444695
:1046B00047F6FF720021C8F8000002F067FA8D4843
:1046C000039902F038FC8B48E96F02F034FC89480A
:1046D000049902F030FC8748216802F02CFCE96F55
:1046E000A24848622168486244468248D8F81810B7
:1046F00002F021FC7F48E16902F01DFC7D48216A3F
:1047000002F019FC7B48A16A02F015FC0021206A26
:1047100002F089FB7748616A02F00DFC0920B0EBDA
:10472000167F7DD1282003F0DBFD724973230A2216
:104730008DE80E004B2340F227128DA103F0F2FC0E
:104740000546282003F0CCFD4FF014080A232A4622
:104750008BA1CDF8008003F087FD0390382003F093
:10476000BFFD5022CDE90052CDF808809BF8001023
:104770004E4609EB81115F46062376A2343102F0E2
:1047800035FA47F6FF720021606002F0FFF9282039
:1047900003F0A6FD4FF023090A232A467BA1CDF89A
:1047A000009003F061FD8346382003F099FD50220C
:1047B000CDE90052CDF808903978062306EB811137
:1047C00064A2363102F012FAA060282003F088FDBE
:1047D000322100910A232A466EA103F045FD049080
:1047E000382003F07DFD322150220095CDE90121D2
:1047F0003978062306EB811156A2383102F0F6F91A
:10480000E060282003F06CFDB4232A4663A1CDF8B4
:10481000008003F029FD0590382003F061FD00E0E1
:10482000D9E0E622CDE90052CDF80880397803239B
:1048300006EB81115BA23A3102F0D8F920612B48D6
:10484000222100680268E06A9047421E0021206928
:1048500002F09CF9282003F043FD8C232A4652A144
:10486000CDF8008003F000FD0190282003F038FD12
:104870008C232A464DA1CDF8009003F0F5FC397841
:10488000804606EB811090F83A20E06A00F02AFE9C
:10489000216947484862616846484862A1684648BD
:1048A0004862E168454848621248019902F043FBBA
:1048B0004146104802F03FFB29460E4802F03BFB00
:1048C0000C48039902F037FB0A48616802F033FB99
:1048D0005946084802F02FFB0648A16802F02BFB5E
:1048E0000448049902F027FB024869E0F4FF012024
:1048F00004E1012018E6012053656E736F726C6548
:1049000073732074756E696E672053544F20262090
:10491000504C4C0053656E736F726C6573732074EA
:10492000756E696E672053544F202620504C4C20E2
:10493000284175782900000053544F202620504C00
:104940004C00000053544F004731000078E701202D
:1049500004E001202536640047320000504C4C2012
:104960004B500000504C4C204B4900001D530F0889
:104970005265762075702074756E696E6700000050
:104980004475726174696F6E00000000456E6420AA
:1049900073706400456E6420497100005374616750
:1049A00065000000253364006D73000072706D00B7
:1049B000E1630F08B5640F080D650F0835650F0832
:1049C000E16802F0B8FA0A48059902F0B4FA08481A
:1049D000216902F0B0FADAF8742006485062DAF879
:1049E0007810486207B00248BDE8F04F02F037BBCC
:1049F00018E601201D530F082DE9F04FD14887B06C
:104A0000002400680169D048C06A884706460A2524
:104A10000027B5EB167F09D1282003F061FC0023A5
:104A2000CA4ACBA1009703F01FFC0446C6F30360FB
:104A30000A2809D1282003F053FC0023C34ACCA143
:104A4000009703F011FC0446282003F049FCBF4BFB
:104A5000CDE9003514210291AA465A239122CEA114
:104A600003F060FB0546282003F03AFC4FF00F08E6
:104A700005232A46C9A1CDF8008003F0F5FB814645
:104A8000382003F02DFC1E2105220095CDE90121DF
:104A9000C349DFF8B8B2062309780BF1B80B0BEB6A
:104AA0008111C0A22C3102F0A1F8A74F803F786796
:104AB000282003F015FC50232A46BBA1CDF8008026
:104AC00003F0D2FB8046382003F00AFC1E2150225E
:104AD0000095CDE90121B2490623B2A209780BEB7A
:104AE00081112E3102F082F8B86700F089F9214671
:104AF000964802F020FA2946944802F01CFA4946EA
:104B0000924802F018FA9148796F02F014FA41467F
:104B10008E4802F010FA8D48B96F02F00CFA8A4CF8
:104B20008A48A16902F007FA8848E16902F003FAAD
:104B30008648216A02F0FFF98448A16A02F0FBF975
:104B40000021206A02F06FF98048616A02F0F3F9EF
:104B5000BAEB167F7ED1282003F0C2FB7B4900917F
:104B60007323CDE901A34B2340F227128FA103F059
:104B7000D9FA0546282003F0B3FB4FF014080A23A6
:104B80002A468EA1CDF8008003F06EFB03903820FA
:104B900003F0A6FB4FF05009CDE90059803FCDF856
:104BA000088039785E460BEB811106237DA23431F3
:104BB00002F01CF847F6FF720021606001F0E6FF8A
:104BC000282003F08DFB4FF0230A0A232A467EA1FA
:104BD000CDF800A003F048FB0490382003F080FBE0
:104BE0008DE820063978062306EB81116DA2363157
:104BF00001F0FCFFA060282003F072FB4FF0320BA5
:104C00000A232A4672A1CDF800B003F02DFB0590CF
:104C1000382003F065FB8DE8200A3978062306EB7F
:104C2000811160A2383101F0E1FFE060282003F03B
:104C300057FBB4232A4668A1CDF8008003F014FB8B
:104C40008346382003F04CFBE622CDE90052CDF834
:104C5000088000E069E03978032306EB811160A247
:104C60003A3101F0C3FF2061364822210068026812
:104C7000E06A9047421E0021206901F087FF28204A
:104C800003F02EFB8C232A4656A1CDF8008003F0BA
:104C9000EBFA8146282003F023FB8C232A4652A1FD
:104CA000CDF800A003F0E0FA3978804606EB8110D9
:104CB00090F83A20E06A00F015FC21694B48486200
:104CC00060684B494162A0684A494162E0684A49CC
:104CD000416249461D4802F02EF941461B4802F048
:104CE0002AF92946194802F026F91848039902F0D2
:104CF00022F91648616802F01EF91448049902F07E
:104D00001AF91248A16802F016F91048059902F044
:104D100012F90E48E16802F00EF959460B4802F00C
:104D20000AF90A48216902F006F907483349803830
:104D3000426F5162806F416207B00448BDE8F04F96
:104D400002F08DB9F4FF012004E10120C0E601204A
:104D500053656E736F726C6573732074756E696ED4
:104D6000672053544F202620434F524449430000AC
:104D700053656E736F726C6573732074756E696EB4
:104D8000672053544F202620434F52444943202844
:104D9000417578290000000053544F00473100004E
:104DA00004E0012025366400473200005265762079
:104DB00075702074756E696E6700000044757261CD
:104DC00074696F6E00000000456E642073706400AB
:104DD000456E6420497100005374616765000000EE
:104DE000253364006D73000072706D00E1630F087D
:104DF000B5640F080D650F0835650F081D530F08C2
:104E00003EB5282003F06CFAA0232249CDE9001317
:104E1000142202925A2391221FA103F083F9204CFD
:104E2000A061282003F05CFA0F21009105231DA149
:104E3000A26903F019FAE061402003F051FAA26977
:104E40000521CDE900211E25A4F58072029519499E
:104E50001278062301EBC20117A2091D02F06AFBBA
:104E60002062302003F03CFA41210091052313A178
:104E7000A26901F0B1FC6062282003F031FA0095CC
:104E80003C2311A1A26903F0EFF9A062616A0F4807
:104E900048623EBDE4E101204D6F6E69746F72009F
:104EA00004E101204D65617375726564207370655E
:104EB0006564000068E70120253664005374617260
:104EC000742F53746F70000072706D00F5510F08ED
:104ED00070B531490024096809698847010E0E0739
:104EE0004FF009014FF00A024FF002034FF00105A5
:104EF0000ED0B1EB107F03D1C0F303660A2E17D09A
:104F0000B2EB107F15D1C0F30366092E10D010E06C
:104F1000B1EB107F00D10124B2EB107F00D102244D
:104F2000B5EB107F02D0B3EB107F33D1032431E017
:104F30000624B1EB107F05D1C0F3036102290BD029
:104F4000012909D0C0F30361092906D1B3EB107F11
:104F500002D0B5EB107F00D10424B2EB107F05D155
:104F6000C0F3036102290BD0012909D0C0F303610A
:104F70000A2906D1B3EB107F02D0B5EB107F00D128
:104F800005240B21B1EB107F04D1C0F30360092885
:104F900000D10724204670BDF4FF012010B532482F
:104FA00002F02BF83048A83002F027F82F4802F022
:104FB00024F82E48A83002F020F82D4802F01DF801
:104FC0002B48A83002F019F82A4802F016F82A49AE
:104FD0000020C860086148618861C8610862486251
:104FE0008862C862086348638863C8630864486469
:104FF0008864C864086548658865C8650866486649
:105000008866C866086748678867C867803108602F
:1050100048608860C860086148618861C86108624A
:1050200048628862C862086348638863C86308642A
:1050300048648864C864086548658865C86508660A
:1050400048668866C866086748678867C8678031A9
:10505000086048608860C860086148618861C8610C
:1050600008624862886210BDD0E2012020E401207D
:1050700070E50120C0E6012004E0012010B50748DA
:1050800007A102780B48521CFBF746F90949BDE815
:10509000104001F1200002F0B6BA000004E0012047
:1050A0004D6F746F722073656C65637465643A202C
:1050B00025316400A0E10120034807210068C2688F
:1050C0000248C06A10470000F4FF012004E10120FB
:1050D00010B50C46FFF762FF072C23D2DFE804F07F
:1050E00004070A171A1D2000FDF7ECFC04E0FDF789
:1050F000CFFD01E0FEF7A2F80C4B986801F02EFA04
:105100009968BDE810400144094802F07CBAFEF7F6
:1051100019FC07E0FEF7C0FE04E0FFF7E5F901E047
:10512000FFF76AFCBDE81040FFF7A8BF04E00120CC
:10513000C0E101202DE9F047814617480E46144F83
:10514000DFF85080002400EB8615395D662908D011
:10515000D8F80000026848469047411C01D025F865
:105160001400641CE4B2202CEFD3D8F80000042112
:105170000268484690470849103941F8360095F8CA
:105180003A2031464846BDE8F04700F0ABB9000090
:1051900008B40F08F4FF012078E7012070B5134C24
:1051A000134D002120680268E86A9047C6B2206863
:1051B000002211468368E86A984720680621C26881
:1051C000E86A90472068012200218368E86A9847CE
:1051D00020680621C268E86A9047206832460021AC
:1051E0008368E86ABDE8704018470000F4FF0120BA
:1051F00004E101202DE9F047414A424F424DA7F119
:10520000800C2DED068B02F5807411782B6801EB74
:1052100041060CEB811017F82680B8F1000F06D07C
:1052200007EB8601C97859B1012960D10EE0828867
:1052300034485B68903850F83110E06A984756E07F
:10524000B0F91820B0F914101B6A4EE0E146904600
:10525000B0F93E0004F0E9F99FED2C8B53EC182BCC
:1052600004F00EFA9FED2B9B53EC192B04F056F82B
:1052700041EC100B03F0D8F998F80010B0EE40AAFA
:1052800009EB8116F0EE60AAB6F93C0004F0CDF906
:1052900053EC1A2B04F0F4F904F098F907B2B6F9BC
:1052A0003E0004F0C2F953EC182B04F0E9F953EC7A
:1052B000192B04F033F841EC100B03F019FA98F8AD
:1052C0000010B0EE408A09EB8110F0EE608AB0F970
:1052D0003C0004F0AAF953EC182B04F0D1F904F0C7
:1052E00075F901B228683A46036AE06A9847286867
:1052F0000621C268E06ABDEC068BBDE8F0471047A6
:1053000004E00120F8E70120F4FF01201F85EB51A4
:10531000B81E094000000000008066400D4B0C4A9A
:10532000806A1B7802EB8312801A0B4A400852FAFB
:1053300080F31B78662B09D0C0B2105C074A126854
:1053400093680A4601460648C06A1847704700003D
:1053500078E7012004E0012008B40F08F4FF0120E1
:1053600004E101202DE9F041284E11F0FF05284904
:10537000307800EB400001EB8000057140D0002147
:10538000224C8034E06D01F04EFDC5B30021206E4B
:1053900001F049FDFDB11E4F3078803F07EB8010D2
:1053A000B0F91C104184C28B8284028CC284E06DEF
:1053B00001F0D0FA307807EB8010B0F92410206E9D
:1053C00001F0C8FAA06E30B1317807EB8111B1F964
:1053D000261001F0BFFAE06D012680F82060206EF3
:1053E00080F82060A06E002807D06DB15FF000014A
:1053F00001F019FDA06E80F82060BDE8F08101E0A9
:105400000121BDE70121C2E70121F1E704E001200C
:10541000F8E7012070B50D46FFF780FF0D480E4AF2
:10542000017801EB410002EB8000007900280FD0E9
:10543000084C8034A06E00280AD0803A02EB81111B
:10544000CD84294601F0ACFAA06E012180F820102D
:1054500070BD000004E00120F8E7012010B50C4603
:10546000FFF75CFF0C480D4A007800EB400102EBAF
:105470008101097900290ED0A2F1800101EB801091
:1054800021468484044C8034206E01F089FA206E19
:10549000012180F8201010BD04E00120F8E7012070
:1054A00010B50C46FFF73AFF0C480D4A007800EBA8
:1054B000400102EB8101097900290ED0A2F180019F
:1054C00001EB801021464484044C8034E06D01F0EF
:1054D00067FAE06D012180F8201010BD04E0012082
:1054E000F8E70120F8B51546094A02EB811409498D
:1054F00004F1380200920968931E121F8E69294632
:10550000B047E08E00EB40004000E086F8BD0000B0
:1055100078E70120F4FF012038B51546094A062333
:1055200002EB8112B2F9361091FBF3F10BB2B2F932
:10553000381000910449928E09684C692946A047A9
:1055400038BD000078E70120F4FF012070B50D4C54
:105550000D4D002120680268E86A9047C6B22068B5
:10556000002211468368E86A984720680721C268CC
:10557000E86A90472068324600218368E86ABDE8FF
:1055800070401847F4FF012004E1012070B50D4C74
:105590000D4D002120680268E86A9047C6B2206875
:1055A000012200218368E86A984720680721C268C1
:1055B000E86A90472068324600218368E86ABDE8BF
:1055C00070401847F4FF012004E101202DE9F0416B
:1055D000164A054610461649007802F5807400EB1D
:1055E000400001EB80015369124E134FE06A9D4267
:1055F0000BD193F830504D70FFF76AFC56F820003D
:105600000021425D3868C3690BE0926992F830501E
:105610008D70FFF75DFC56F820000121425D38686F
:10562000C369206BBDE8F0411847000004E0012089
:10563000F8E70120DCB30F08F4FF0120034808213C
:105640000068C2680248C06A10470000F4FF0120E9
:1056500004E101202DE9F041164C174D002120688E
:105660000268E86A9047C6B2206800221146836843
:10567000E86A9847114F2068A7F11008BA88436874
:10568000D8F80010E86A9847206801220021836852
:10569000E86A98472068B7F84420D8F808104368AB
:1056A000E86A98472068324600218368E86ABDE8C6
:1056B000F0411847F4FF012004E1012078E70120C0
:1056C0002DE9F0476B4C6C4ADFF8B091A2F18005F0
:1056D0002DED068B04F58076207800EB400102EB7F
:1056E000810305EB8010DB78002B7CD0012B7BD174
:1056F000B0F93E0003F099FF9FED618B53EC182B3E
:1057000003F0BEFF9FED609B53EC192B03F006FEE8
:1057100041EC100B02F088FF2078B0EE40AA05EBB8
:105720008017F0EE60AAB7F93C0003F07EFF53EC5F
:105730001A2B03F0A5FF03F049FF0FFA80F8B7F921
:105740003E0003F072FF53EC182B03F099FF53EC6B
:10575000192B03F0E3FD41EC100B02F0C9FF207898
:10576000B0EE40AA05EB8010F0EE60AAB0F93C0064
:1057700003F05BFF53EC1A2B03F082FF03F026FFCC
:1057800001B2D9F800004246036AF06A98472078CF
:1057900005EB8010B0F93E0003F047FF53EC182BE7
:1057A00003F06EFF53EC192B03F0B8FD41EC100B26
:1057B00002F09EFF2078B0EE40AA05EB8016F0EED6
:1057C00060AAB6F93C0003F030FF53EC1A2B03F04B
:1057D00057FF03F0FBFEB082B6F93E0003F025FF51
:1057E00053EC182B01E020E01BE003F049FF53ECE1
:1057F000192B03F093FD41EC100B02F015FF2078FC
:10580000B0EE408A05EB8014F0EE608AB4F93C00FB
:1058100003F00BFF53EC182B03F032FF03F0D6FE1E
:105820002083BDEC068BBDE8F08712F82110134AE7
:10583000136851B1B0F91820B0F914101B6AF06A5E
:10584000BDEC068BBDE8F047184719694F46F06A72
:1058500088478006E5D52078412105EB8010B0F916
:10586000182038688368F06ABDEC068BBDE8F04705
:105870001847000004E00120F8E70120F4FF0120B0
:105880001F85EB51B81E09400000000000806640F3
:105890002DE9F047604D614ADFF88481A2F1800470
:1058A0002DED068B05F58079287800EB400102EBA1
:1058B000810104EB8010C97800297CD001297BD1BB
:1058C000B0F93E0003F0B1FE9FED568B53EC182B60
:1058D00003F0D6FE9FED559B53EC192B03F01EFDF4
:1058E00041EC100B02F0A0FE2878B0EE40AA04EBC9
:1058F0008016F0EE60AAB6F93C0003F096FE53EC79
:105900001A2B03F0BDFE03F061FE07B2B6F93E00AC
:1059100003F08BFE53EC182B03F0B2FE53EC192B63
:1059200003F0FCFC41EC100B02F0E2FE2878B0EE34
:1059300040AA04EB8010F0EE60AAB0F93C0003F03E
:1059400074FE53EC1A2B03F09BFE03F03FFE01B2F2
:10595000D8F800003A46036AD9F82C00984728780E
:1059600004EB8010B0F93E0003F05FFE53EC182BFF
:1059700003F086FE53EC192B03F0D0FC41EC100B26
:1059800002F0B6FE2878B0EE40AA04EB8016F0EEE6
:1059900060AAB6F93C0003F048FE53EC1A2B03F062
:1059A0006FFE03F013FEB082B6F93E0003F03DFE39
:1059B00053EC182B01E020E01BE003F061FE53ECF8
:1059C000192B03F0ABFC41EC100B02F02DFE2878F4
:1059D000B0EE408A04EB8014F0EE608AB4F93C002B
:1059E00003F023FE53EC182B03F04AFE03F0EEFD08
:1059F0002083BDEC068BBDE8F087B0F91820B0F924
:105A00001410D8F80000036AD9F82C00BDEC068BFE
:105A1000BDE8F0471847000004E00120F8E7012046
:105A2000F4FF01201F85EB51B81E09400000000063
:105A3000008066402DE9F041404C414D00212DEDA4
:105A4000068B20680268E86A904700F0FF0820682B
:105A5000002211468368E86A98473A48A0F1800618
:105A6000017821B1C07858B1012857D10FE03548ED
:105A7000B2889038016820684368E86A98474DE02A
:105A80002068B6F91820B6F91410036A44E0B6F994
:105A90003E0003F0CAFD9FED2C9B53EC192B03F045
:105AA000EFFD9FED2B8B53EC182B03F037FC41ECF3
:105AB000100B02F0B9FDB0EE40AAF0EE60AAB6F904
:105AC0003C0003F0B2FD53EC1A2B03F0D9FD03F0B8
:105AD0007DFD07B2B6F93E0003F0A7FD53EC192B8C
