:020000040807EB
:1000000070FF0020290207085D521A0065020708E8
:100010003502070837020708390207080000000008
:100020000000000000000000000000003B02070884
:100030003D020708000000003F02070841020708D0
:100040004302070843020708430207084302070860
:100050004302070843020708430207084302070850
:100060004302070843020708430207084302070840
:100070004302070843020708430207084302070830
:100080004302070843020708430207084302070820
:100090004302070843020708430207084302070810
:1000A0004302070843020708430207084302070800
:1000B00043020708430207084302070843020708F0
:1000C00043020708430207084302070843020708E0
:1000D00043020708430207084302070843020708D0
:1000E00043020708430207084302070843020708C0
:1000F00043020708430207084302070843020708B0
:10010000430207084302070843020708430207089F
:10011000430207084302070843020708430207088F
:10012000430207084302070843020708430207087F
:1001300000F002F800F068F80AA090E8000C824491
:100140008344AAF10107DA4501D100F05DF8AFF26E
:10015000090EBAE80F0013F0010F18BFFB1A43F0A5
:1001600001031847D0DA0000F0DA0000103A24BF8B
:1001700078C878C1FAD8520724BF30C830C144BF0C
:1001800004680C607047000000230024002500264E
:10019000103A28BF78C1FBD8520728BF30C148BFEA
:1001A0000B607047692900F0FF80642900F0FC8033
:1001B000752900F0F9806F2900F09081782900F00E
:1001C000B7810368DB0928BF41F08001632900F093
:1001D000E483E32900F0F783002070471FB59DE812
:1001E000030000F051FC00F005FD04000020002198
:1001F00008F044FD401C606000F0D4FA1FBD10B54B
:10020000002007F07FFF10BD00F0CEFC1146FFF785
:10021000E5FF08F0C7FC00F00FFD03B4FFF7EFFFA8
:1002200003BC00F0BBFC00000948804709480047B8
:10023000FEE7FEE7FEE7FEE7FEE7FEE7FEE7FEE796
:10024000FEE7FEE704480549054A044B70470000F5
:10025000292907083101070870E7002070FF0020F6
:1002600070FF002000B5FFB441464A4653465C4645
:1002700065463EB40D496A460A600D4908600D495D
:1002800088473EBC884691469A46A346AC46FFBC8A
:1002900000BD064801688D463EBC884691469A4698
:1002A000A346AC46FFBC044800BD0000F0FF0020A0
:1002B000F4FF002039010708DCD407080FB41CB58F
:1002C000074B06AA7B4469460090059800F043FB63
:1002D0000020694600F052FB1CBC5DF814FB0000D6
:1002E000B506000070B5044685690068C10601D5F1
:1002F000302600E02026C00707D070BDD4E90121D8
:1003000030469047206A401C20626D1EF6D570BDB5
:1003100070B5044685690078C00707D170BDD4E97F
:10032000012120209047206A401C20626D1EF6D5D6
:1003300070BD09684A0501D540B27047C905FCD5B2
:1003400000B2704709684A0501D5C0B27047C905B7
:10035000FCD580B2704770B50C460546012A05D021
:100360002878800600D5EA69002302E0012305E031
:100370005B1C934202D2E05C0028F9D1A869E61820
:10038000C01AA861286A184428622846FFF7AAFF05
:1003900004E0D5E9012114F8010B9047B442F8D3E9
:1003A0002846FFF7B5FF70BD2DE9F0410646002451
:1003B00010687529314616A510D0FFF7BAFF00283E
:1003C00002DA404213A507E031688A0701D512A579
:1003D00002E0490704D511A5012401E0FFF7B2FFAF
:1003E00000210A2206F1240709E0B0FBF2FCB0FB71
:1003F000F2F302FB1C00303078541846491C0028E8
:10040000F3D123462A463046BDE8F04100F045BA14
:10041000000000002D0000002B0000002000000064
:100420002DE9FF5F15468A460446DFF8AC80F844A4
:100430000027D8E900103E46CDE9001010E03AF858
:1004400016106A4602A800F0CAFA411C07D02178AB
:10045000890603D5E269391891420DD80744761C04
:100460002078800602D5E069B84205DDAE42E6DBC1
:100470003AF816000028E2D1A069C01BA06120460E
:10048000FFF730FFD8E90010CDE90010002017E099
:100490003AF818106A4602A800F0A1FAB0F1FF3F3E
:1004A00081460BD000250DF1080B05E0D4E90121B0
:1004B0001BF8050090476D1C4D45F7D308F101006E
:1004C000B0428046E4DB206A384420622046FFF7D1
:1004D0001FFFBDE8FF9F0000BAD0000070B50446C2
:1004E00021461068FFF72EFF002104F1240505E0E6
:1004F00000F007023032C0086A54491C0028F7D1C6
:100500002068002308A2050708D500F02000084352
:1005100004D0E069012305A2401EE0612046BDE849
:10052000704000F0BAB90000000000003000000088
:1005300070B504460D4621461068FFF703FF218879
:10054000090502D50F4A7A4402E00E4A7A440E3277
:10055000002104F1240305E000F00F060009965D78
:100560005E54491C0028F7D120780023000704D5E9
:10057000702D02D009B1022311322046BDE870402F
:1005800000F08BB9AACF00002DE9F05F8946044640
:100590004FF0000ADFF874B1FB44C0F820A02046F9
:1005A000E1688847002874D0252806D0D4E90121C5
:1005B0009047206A401C2062F1E700265F462046F3
:1005C000E16888472028054607DB312D05D27819D8
:1005D00010F8200C08B10643F1E7B00701D526F06A
:1005E0000406C4F81CA00027C4F818A02A2D09D0BE
:1005F000284608F047F938B304EB8708303DC8F8BF
:10060000185019E059F8041B204604EB8702916149
:10061000E1688847012F054618D1E069002820DAF3
:1006200026F020061DE0D8F8180000EB800005EB4E
:1006300040003038C8F818002046E1688847054671
:1006400008F020F90028EED1012F0AD02E2D08D174
:100650002046E16888477F1C0546022F46F02006A9
:10066000C4DBA069002803DA404246F00106A0611D
:10067000F00701D026F010066C2D0BD0682D09D0A4
:100680004C2D39D06A2D35D0742D35D07A2D33D0FC
:1006900016E038E0E1682F4620468847B842054614
:1006A00009D16C2F26D04FF48060E16806432046C4
:1006B0008847054604E06C2F1AD04FF4807006433B
:1006C0000DB3A5F14100192802D8203546F4006683
:1006D0004A462946204626604E46FFF763FD80B114
:1006E00001280BD0F61D26F0070000F1080956E797
:1006F0004020E4E78020D8E70020D6E706F104098F
:100700004DE7284652E7206ABDE8F09F80CF000001
:1007100010B5431C02E010F8011B71B18107FAD13A
:100720004FF0013202C88C1A8C4314EAC211F9D07E
:10073000C01A0A0603D0C01E10BDC01A10BD0A049C
:1007400001D0801E10BD0902FCD0401E10BD4FF02C
:10075000000200B5134694469646203922BFA0E811
:100760000C50A0E80C50B1F12001BFF4F7AF09071D
:1007700028BFA0E80C5048BF0CC05DF804EB89000E
:1007800028BF40F8042B08BF704748BF20F8022B51
:1007900011F0804F18BF00F8012B70477047704769
:1007A0007047000070B5064C7C44064D7D4403E064
:1007B000206820448047241DAC42F9D170BD000060
:1007C000B8D50000B8D500000048704744E70020C5
:1007D0000048704748E7002070B5064600F034F93D
:1007E000056806F10B0020F00704B4429CBF00200E
:1007F00070BD2B466A68BAB11068A04210D304F1EC
:10080000080188423CBF5068586007D351681019EE
:1008100041601168091B016058601460101D70BDB3
:1008200013465268002AE7D12146284600F018F9FD
:100830000028DED170BD70B50446051F00F004F934
:100840000068002C14BF446870BD002C18BFAC4277
:100850003CBF20466468F8D301680A18AA4218BF52
:10086000456003D12A680546114401602868411992
:10087000A1421CBF6C6070BD61686960216808445A
:10088000286070BD10B500F0E3F8006810BD10B529
:10089000044600F0DDF8046010BD2DE9F0470D4678
:1008A00099469246044600F124080168880604D55A
:1008B000E06921F01001216000E00120A84201DD83
:1008C000471B00E00027A1697A1902EB0900081A0A
:1008D000A0612078C00602D42046FFF703FD002661
:1008E00008E0D4E901211AF806009047206A401C6C
:1008F000761C20624E45F4DB2078C0060AD52046DF
:10090000FFF7F0FC06E0D4E9012130209047206A8F
:10091000401C2062381EA7F10107F4DC07E0D4E98F
:10092000012118F805009047206A401C2062281E0B
:10093000A5F10105F3DC2046FFF7EAFC207800066C
:1009400002D50220BDE8F0870120FBE701694A1CBF
:1009500002610878704700B58FB0CDE90131002100
:10096000059105497944CDE9031011466846FFF722
:100970000BFE0FB000BD0000E5FFFFFF0A6802F8A4
:10098000010B0A60704710B5436913B1AFF30080E3
:1009900001E0FFF7E0FC012010BD127800F1240116
:1009A0000A7000224A700122EDE711684FF0FF3211
:1009B000E9E710B5436913B1AFF3008001E0FFF739
:1009C0002FFD012010BD128800F124018284002235
:1009D000C2840122EDE711684FF0FF32E9E770B5FC
:1009E00016460C46054600F027F8036893F8010107
:1009F000012806D0FF2C0FD8185D68B101202C709B
:100A000070BDD3F807013246214603F207130344B1
:100A10002846BDE8704018474FF0FF3070BD10B554
:100A200000F06EF8BDE8104000F064B800F080B847
:100A30000048704710E7002010B500F0DBF8001DFB
:100A400010BD00BF398200000048704718E7002041
:100A50000048704710E700207047704770477047A4
:100A600038B504460A4600206946AFF300800028E6
:100A700008BF38BD02460099204600F0C3F80120A7
:100A800038BD012000F0FFB8F8B5AFF3008005468F
:100A900000200C46102000BF0646A819A0420DD920
:100AA000324669460020AFF30080070008BF00F01F
:100AB000EAF80098A04218BF0546C419FFF7C4FF22
:100AC00005600746F01D20F007004619284600F093
:100AD0000AF8B44208BFF8BDA21B31463868BDE829
:100AE000F84000F08FB800210160C0E901107047A4
:100AF00010207047002801D000F050B87047000067
:100B000010B5002102A000F0A5F8012010BD0000E2
:100B10005349475056464E3A2050757265207669C3
:100B2000727475616C20666E2063616C6C65640024
:100B300010B500F00EF8016919B100220261884772
:100B400001E08068804700F07DF8000010B500F0FB
:100B500079F870B500F052F804680546A4B9202071
:100B6000FFF73AFE040011D0094900202C60C4E9C7
:100B700000010849A1602073206160610649A061FD
:100B800009B100F087F8E061204670BD00F05AF826
:100B9000000000004D0B070800000000014918206C
:100BA000ABBEFEE7260002007546FFF741FFAE46EA
:100BB00005006946534620F00700854618B020B569
:100BC000FFF740FBBDE820404FF000064FF0000764
:100BD0004FF000084FF0000B21F00701AC46ACE8E5
:100BE000C009ACE8C009ACE8C009ACE8C0098D4652
:100BF000704700000048704730E700200048704709
:100C00004CE70020034640688C46002818BF884205
:100C10003CBF03464068F8D318681844884207D0A0
:100C20000CF1030020F00700001D411A521A014682
:100C3000081D0A60FFF7FFBD0446AFF300802046A1
:100C4000FFF7EBFA002000F04BF8FFF7D8FA01208D
:100C5000FFF7A4FF70B505460C460A2000E06D1CA6
:100C600000F036F835B128780028F8D102E0641C8D
:100C700000F02EF814B120780028F8D1BDE87040BB
:100C80000A2000F025B810B500F032F8BDE8104099
:100C9000FFF730BF10B58820FFF79EFD002801D078
:100CA0000021017010BD802902D808B1017809B176
:100CB00000207047012100F8081B704718B100F1AF
:100CC0000802914201D00020704700210170704756
:100CD00008B569468DF800000320ABBE08BD70471B
:100CE00010B500F06DF8BDE81040FFF703BF00003D
:100CF00010B5012805D0002103A0FFF7ABFF0120AC
:100D000010BD09A1F8E7000053494752544D454D25
:100D10003A204F7574206F662068656170206D659C
:100D20006D6F7279000000003A2048656170206D97
:100D3000656D6F727920636F72727570746564008F
:100D40004FF0013C50F8042B51F8043B9A4221D15A
:100D5000A2EB0C03934313EACC1317D150F8042BE6
:100D600051F8043B9A4215D1A2EB0C03934313EACA
:100D7000CC130BD150F8042B51F8043B9A4209D103
:100D8000A2EB0C03934313EACC13DBD04FF000002B
:100D9000704700BFD01A01BAB1FA81F101F0180111
:100DA00022FA01F0CB40C1F12001DBB2C0B2C01A7F
:100DB0002CFA01F3D11A914311EAC311E6D170471D
:100DC00010B5002102A0FFF745FF012010BD000073
:100DD000534947414252543A2041626E6F726D61ED
:100DE0006C207465726D696E6174696F6E000000CD
:100DF00030B51A498379026853B30B6893430B608B
:100E00000A1D13680468A343136002790A44136837
:100E1000046823431360114A083213680468A3432B
:100E20001360131D1C680568AC431C604479102CCA
:100E300005D021440A68006802430A6030BD116889
:100E4000046821431160196800680143196030BDCE
:100E50000079084401689143016030BD00040140FD
:100E600010B58A0721F003040649130F21440F220D
:100E70008C689A4094438C608A68984002438A60E8
:100E800010BD000000000140F0B5CA78002502F056
:100E90000F03D20601D58A7813430A784FF00F0E5C
:100EA00012F0FF0F4FF001021CD004680F8802FA05
:100EB00005F63740B74211D14FEA850C0EFA0CF710
:100EC00024EA070703FA0CF43C43CF78282F02D01A
:100ED000482F02D002E0466100E006616D1C082D3B
:100EE000E4D304600C88FF2C1ED944685FF0000630
:100EF00006F1080702FA07F50F882F40AF420FD11D
:100F00004FEA860C0EFA0CF7BC4303FA0CF73C438D
:100F1000CF78282F00D14561CF78482F00D10561C7
:100F2000761C082EE4D34460F0BD0246002092688F
:100F30000A4200D0012070470AB101617047416147
:100F4000704700002DE9F74FDFF8DCA182B054466E
:100F5000DFF8D8810298C4E90B01D8F800001546E3
:100F6000474601690298884706462946704806F0B8
:100F7000C1F9AAF580796F496D48C9F8085006F0A3
:100F80006DFA6C496A48A83106F068FA6A496848FF
:100F900006F064FA68496648A83106F05FFA6749C6
:100FA000634806F05BFA65496148A83106F056FAD5
:100FB00063495F4806F052FA002589F80050386806
:100FC00029460268E06A9047C0B200903868002263
:100FD00011468368E06A9847386803210268E06A2E
:100FE0009047C0B20127574C012824D02770002118
:100FF0005148A83005F006FE6570A770AB46DAF8D8
:101000003000B946554628B3D8F8001047460A685C
:101010001C21904700F0FF0A38681D210268286BE8
:101020009047C7B2E86A03F0ADFE474A0146002088
:1010300052F821100BE025700121D9E7524500D16B
:1010400060700A5CBA4200D1A070401CC0B20A5C59
:10105000FF2AF3D184F803B084F804B084F805B013
:1010600084F806B084F807B084F808B084F809B0B2
:1010700084F80AB084F80BB0D8F8000001225F466B
:1010800083680021E86A9847D8F8000003210268C5
:10109000E86A9047C0B2012840D084F80C9000BFA5
:1010A000D8F800000021009A8368E86A98476773BF
:1010B00084F80E90E77327746774A774E774277534
:1010C0006775A775E775029800F08AF818491F48F8
:1010D000C1F80C010021164806F02EF90920B0EBEA
:1010E000167F1DD0C6F30360092819D000211348CC
:1010F000A83005F087FD0A20B0EB167F12D0C6F3AA
:1011000003600A280ED000210D4805F07BFD05B0D4
:101110000021BDE8F04F022001F064BB2773BFE758
:101120000121E4E70121EFE704E00020F4FF0020C3
:10113000C0E00020D0E1002020E3002070E4002087
:10114000C0E50020F8E600205CB60708854F0708D8
:101150002DE9F0411E4C204606F032F904F582706C
:1011600006F002FF022001F031FB1A4EB18808435D
:1011700006D0002902D0B088401EB080BDE8F081C2
:10118000154C164D002120680268E86A9047C7B2E6
:101190002068002211468368E86A98472068022187
:1011A000C268E86A90472068012200218368E86AE3
:1011B000984720680221C268E86A904720683A464A
:1011C00000218368E86A98470420B080D3E70000D4
:1011D000C0E0002004DF0020F4FF002004E0002035
:1011E00070B5134C064600212068026830469047CF
:1011F000C5B2206800221146836830469847002116
:10120000304603F0F1FE2068012200218368304659
:10121000984700280BD00121304603F0E5FE2068F6
:101220002A46002183683046BDE87040184770BDEB
:10123000F4FF00202DE9F14FFE4D0527DFF8F8837C
:10124000FE4EDFF8FC9384B0002405F1910A30686B
:10125000295D02681AF801100498904799F8003047
:1012600008EB83122B5D641CE4B222F81300BC422D
:10127000EDD3F04D01270024ED1E05F1010A306881
:10128000295D02681AF8011004989047EA4999F814
:101290000020103901EBC2012A5D641CE4B241F860
:1012A0002200BC42EBD399F800004D4600EB400110
:1012B000E1488030012410F82100E8BB30680821A3
:1012C0000268049890472978474608EB8111888284
:1012D00030680C210268049890472A7800B207EB26
:1012E000821102EB4203D44A0883803202EB83026C
:1012F000D278012A2CD1B1F914200AB9002854D08F
:10130000524300FB0020B84608F06AFA06F09DFE42
:1013100008F04AFA2A7808EB8217B887B7F918005C
:1013200008F05EFA8146B7F9140008F059FA494608
:1013300006F08DFEC34900E014E008F069FAC249E6
:1013400008F070F908F030FA2A7808EB8211C887A3
:10135000BB498031886B08B180F82040486C08B1E7
:1013600080F820403068012102680498904787B2D5
:10137000060C286CA8464CF2186B68B307B1C6B1CE
:10138000B24805F0C5FCD8F840104546884202D165
:10139000AE4805F022FD286C428B5A451CD0A0F8BF
:1013A0001AB0002105F0FDFB13E0002088875A20C9
:1013B000CDE7002141834546012105F0F2FBA3481A
:1013C00005F0A6FC296C884203D000219F4805F057
:1013D000ABFC286C80F82040984DDFF87492002117
:1013E00028680268D9F82C009047C0B2029028689B
:1013F000002211468368D9F82C00984728680121FB
:10140000026804989047824628680221026804987E
:101410009047C0B201901FFA8AF9D8F878004FEAD5
:101420001A4A4546E8B1B9F1000F02D0BAF1000FEF
:1014300031D08648A83005F06BFCA96F884203D1F3
:101440008248A83005F0C9FCA86F428B5A4508D0E5
:10145000A0F81AB05FF0000105F0A3FBA86F80F8B8
:1014600020407748406F28B359EA0A0117D07748DF
:10147000A83005F04DFC724D696F884203D1734866
:10148000A83005F0AAFC686F428B5A4512D0A0F82C
:101490001AB0002109E0002141830121DCE7684DF9
:1014A000418B39B100214183012105F07AFB686F3E
:1014B00080F82040614D012200212868836864483B
:1014C000C06A9847286801210268049890478046BE
:1014D00028680221026804989047C0B200905848DA
:1014E0001FFA88F580304FEA1848006808B315B134
:1014F000B8F1000F38D05548A83005F009FC504924
:1015000080310968884203D15048A83005F065FC55
:101510004B4A80321068438B5B450AD0A0F81AB062
:101520005FF0000105F03DFB45488030006880F821
:1015300020404348C06F30B355EA080118D04348F3
:10154000A83005F0E5FB3E49C96F884203D13F480A
:10155000A83005F042FC3A4AD06F438B5B4512D06D
:10156000A0F81AB0002108E0002141830121D9E749
:10157000428B42B100214183012105F012FB30482A
:10158000C06F80F820402D480021029A00688368CF
:101590002F48C06A984749EA0A0A4AEA050050EA11
:1015A00008003BD02B49B1F8000101280AD0894638
:1015B000022833D00121274805F0BEFEB9F800010A
:1015C00001282BD1DFF8789099F8000018B14D462A
:1015D000012809D019E055EA080516D0B9F802002B
:1015E0004D46A8B9012105E0BAF1000F0DD0688879
:1015F00070B90021E86806F0CCFA0021084604F032
:1016000033FBE868002180F82310B9F8021019B301
:10161000B9F80210B1F10101A9F80210084D8035A6
:10162000686890B3DDE9002111437DD00199062956
:1016300014D015E0F7B5070878E60020F4FF002085
:1016400004DF002000003443C3F5484078E2002066
:1016500004E00020C0E000201E21DDE7062A63D060
:10166000824805F055FB6968884202D17F4805F041
:10167000B4FB6868428B5A4507D0A0F81AB0002125
:1016800005F08FFA686880F82040DFF8E4810021D7
:101690007B0698F8000000EB4002764800EB8200E1
:1016A0004FF00202417100D54271730600D54471BA
:1016B0008171FB0600D58271F30600D58471C1717A
:1016C000BB0600D5C271B30600D5C4710172FB0719
:1016D00000D00272F30700D004723B0600D50272FC
:1016E000330600D5047241727B0700D5427273073E
:1016F00000D544728172BB0700D58272B30700D552
:101700008472C172390700D5C272310700D5C47224
:10171000D8F84010F1B3D8F8242043795649568BB5
:1017200031F813309E4200E098E002D0538382F8F3
:101730002040D8F828208379568B31F813309E4208
:1017400002D0538382F82040D8F82C20C379568BDE
:1017500031F813309E4202D0538382F82040D8F8EB
:101760003020037A568B31F813309E4202D05383D7
:1017700082F82040D8F83420437A568B31F8133061
:101780009E4202D0538382F82040D8F83820837AD2
:10179000568B00E011E031F813309E4202D05383A3
:1017A00082F82040D8F83C20C07A538B31F81000E2
:1017B000834202D0508382F82040D8F81C0008B140
:1017C00080F82040D8F8200008B180F820402B484D
:1017D000006A08B180F82040A86A08B180F820406B
:1017E000E86B08B180F82040A86C08B180F8204070
:1017F000234D00212868026804989047C7B22868E2
:101800000022114683680498984728681E210268C0
:1018100004989047174E0122903E0021706028687E
:1018200083680498984758B128681E210268049874
:101830009047F06028683A460021836804989847EA
:10184000D8F84C0008B180F82040D8F8640000288F
:1018500001D080F8204005B0BDE8F08F418B002911
:101860003FF413AF00214183012109E720E3002069
:1018700004DF0020F8E60020FCB5070804E00020A3
:10188000F4FF002070B506460E4800244068472843
:1018900015D040F23F11002000F0C4F900F02EFEF8
:1018A0004FF49635304600F0FFFD641CAC42F9D38E
:1018B000BDE8704001220421034800F03FB8002138
:1018C000E9E7000038E00020000C014038B50121B4
:1018D000082000F0CDFE0420ADF8000003208DF8B4
:1018E00002001020134C8DF8030069462046FFF7D4
:1018F000CBFA01220421204600F020F880200E4D72
:10190000ADF8000069462846FFF7BEFA4FF40044E0
:10191000ADF8004069462846FFF7B6FA0122214695
:10192000284600F00BF801228021284600F006F836
:1019300038BD0000000C014000140140FFF7FCBA64
:10194000064B30B49B68203AD2B21C68DB88534304
:1019500004EB430230BC00F003B8000038E0002084
:101960002DE9F74F904600270646019900F05AF9F5
:101970001C4C31E000F0C2FD00254FF00C094FF087
:10198000800A4FF0010B17E0B0FBF9F1CA000AFA28
:1019900002F138F817202941114201D10C2805D94C
:1019A0000BFA05F10A4203D10C2801D9608800E046
:1019B000208800F079FD6D1CA0688088A842E3D8DB
:1019C000012204210848FFF7B9FF761CB6B2304661
:1019D000019900F027F97F1CA068C088B842C9D8D7
:1019E000BDE8FE8F38E00020000C01407047000089
:1019F0002DE9F047194D80469946686817460E460E
:101A00000024472803D1A1F23F16704286B2314626
:101A1000404600F007F9B9F1000F1AD100F06EFD51
:101A200003E0288800F040FD641CBC42F9D3BDE807
:101A3000F047012204210A48FFF780BF288800F000
:101A40004DFD08F1010080B28046314600F0EAF811
:101A5000641CBC42F2D3BDE8F087000038E00020EF
:101A6000000C0140024A13880380508808807047A8
:101A700038E00020014880687047000038E000200E
:101A800003484068472801D0012070470020704774
:101A900038E000207047000070B52D4C00252188EB
:101AA00021F038012180218841F00801218000F0D7
:101AB00057FD732000F07AFDFF21204600F02DFE37
:101AC0008021204600F020FE0028F9D10121204687
:101AD00000F01AFE0028F9D0204600F01CFE6D1C14
:101AE000EDB2052DE8D3FF21204600F016FE80213F
:101AF000204600F009FE0028F9D10121204600F01F
:101B000003FE0028F9D0204600F005FE0546FF211F
:101B1000204600F002FE8021204600F0F5FD00285E
:101B2000F9D10121204600F0EFFD0028F9D0204630
:101B300000F0F1FDE9B240EA012501220421054847
:101B4000FFF7FCFE208820F038002080284670BD7A
:101B500000380040000C014030B587B0012108205A
:101B600000F086FD01218C03204600F069FD601025
:101B7000ADF8140003208DF8160018201D4D8DF8C7
:101B8000170005A92846FFF77FF9ADF8144005A90D
:101B90002846FFF779F96000ADF8140005A928463A
:101BA000FFF772F9144C204600F084FD0021ADF8D7
:101BB00000104FF48270ADF80200ADF8041002205E
:101BC000ADF806000120ADF808004002ADF80A00AB
:101BD000ADF80C100720ADF80E10ADF810006946F6
:101BE000204600F09CFD0121204600F059FD07B081
:101BF00030BD0000000C01400038004001B5BDF8C8
:101C000000000149488008BD38E0002003B5BDF858
:101C1000001003480180BDF8041041800CBD000095
:101C200038E0002070B505460E480C46406847284D
:101C300009D02946202000F06BFC21462120BDE878
:101C4000704000F065BC210A022000F061FCE1B2A6
:101C5000032000F05DFC0021062000F059FC29461D
:101C60000720ECE738E00020014988607047000059
:101C700038E0002001B5BDF800000149088008BD2A
:101C800038E000202DE9F05FFFF720FEFFF764FF4A
:101C9000FE48416847297CD041684FF48079A1F51E
:101CA00013424FF4E06B41F2300A40F23F1741F229
:101CB0001808203A6ED0416840F20514A1F5A842F8
:101CC00040F2062540F60806083A7DD04068A0F5A7
:101CD0001341253979D10121002000F019FC494632
:101CE000012000F015FC5946022000F011FC41468D
:101CF000032000F00DFC0021042000F009FC291F46
:101D0000082000F005FC0021092000F001FC002162
:101D10000A2000F0FDFB00210C2000F0F9FB00215F
:101D20000D2000F0F5FB00210F2000F0F1FB002159
:101D3000102000F0EDFB0021112000F0E9FB002154
:101D4000122000F0E5FB0021132000F0E1FB14203D
:101D500006F01CFF41F2B071102000F0D9FB40F2F8
:101D60003711112000F0D4FB052006F00FFFB91F3A
:101D7000122000F0CDFB052006F008FF4FF4E851DB
:101D8000132000F0C5FB1321292000F0C1FB052022
:101D900001E088E18FE006F0F9FE0021202000F04C
:101DA000B7FB0021212000F0B3FB0721302000F019
:101DB000AFFB40F20231312000F0AAFB2146322075
:101DC00000F0A6FB294601E077E26AE3352000F047
:101DD0009FFB3146362000F09BFB2946372000F060
:101DE00097FB40F20451382000F092FB0721392084
:101DF00000F08EFB21463C2000F08AFB31463D205E
:101E000000F086FB0021502000F082FBEF215120E2
:101E100000F07EFB0021522000F07AFB394653206F
:101E200000F076FB4FF42741602000F071FB0121A8
:101E3000612000F06DFB00216A2000F069FB0021A9
:101E4000802000F065FB0021812000F061FB002173
:101E5000822000F05DFB0021832000F059FB00216F
:101E6000842000F055FB0021852000F051FB10215B
:101E7000902000F04DFB0021922000F049FB03214F
:101E8000932000F045FB4FF48871952000F040FB53
:101E90000021972000F03CFB0021982000F038FB47
:101EA0004146032000F034FB40F233110720BDE827
:101EB000F05F00F02DBB052006F068FE4FF40041F6
:101EC000E52000F025FB0121002000F021FB494620
:101ED000012000F01DFB5946022000F019FB51467D
:101EE000032000F015FB0021042000F011FB40F25C
:101EF0000221082000F00CFB0021092000F008FB63
:101F000000210A2000F004FB00210C2000F000FB5F
:101F100000210D2000F0FCFA00210F2000F0F8FA5B
:101F20000021102000F0F4FA0021112000F0F0FA56
:101F30000021122000F0ECFA0021132000F0E8FA52
:101F4000142006F023FE41F2B071102000F0E0FAF8
:101F500040F23711112000F0DBFA052006F016FEE2
:101F600040F23911122000F0D3FA052006F00EFEDF
:101F70004FF4E851132000F0CBFA1321292000F090
:101F8000C7FA052006F002FE0021202000F0C0FA6A
:101F90000021212000F0BCFA0621302000F0B8FA20
:101FA00040F20111312000F0B3FA0321322000F099
:101FB000AFFA4FF48371352000F0AAFA40F60231EF
:101FC000362000F0A5FA40F20231372000F0A0FAE6
:101FD00040F20771382000F09BFA0721392000F009
:101FE00097FA4FF4C0613C2000F092FA40F20B21C6
:101FF0003D2000F08DFA0021502000F089FAEF21F9
:10200000512000F085FA0021522000F081FA394673
:10201000532000F07DFA4FF41C51602000F078FA54
:102020000121612000F074FA00216A2000F070FAAA
:102030000021802000F06CFA0021812000F068FA75
:102040000021822000F064FA0021832000F060FA71
:102050000021842000F05CFA0021852000F058FA6D
:102060001021902000F054FA0021922000F050FA44
:102070000321932000F04CFA4FF48871952000F072
:1020800047FA0021972000F043FA01E038E00020F1
:102090000021982000F03CFA4146032000F038FA75
:1020A00040F2731102E70021EA2000F031FA20210A
:1020B000EB2000F02DFA0C21EC2000F029FAC421CD
:1020C000ED2000F025FA4021E82000F021FA382127
:1020D000E92000F01DFA0121F12000F019FA102189
:1020E000F22000F015FAA321272000F011FA0121B7
:1020F000402000F00DFA0021412000F009FA0021F3
:10210000422000F005FA1021432000F001FA0E21D0
:10211000442000F0FDF92421452000F0F9F90421C4
:10212000462000F0F5F95021472000F0F1F9022196
:10213000482000F0EDF91321492000F0E9F91921B8
:102140004A2000F0E5F919214B2000F0E1F91621B1
:102150004C2000F0DDF91B21502000F0D9F931218D
:10216000512000F0D5F92F21522000F0D1F93F2164
:10217000532000F0CDF93F21542000F0C9F93E2151
:10218000552000F0C5F92F21562000F0C1F97B2120
:10219000572000F0BDF90921582000F0B9F90621B7
:1021A000592000F0B5F906215A2000F0B1F90C21B0
:1021B0005B2000F0ADF91D215C2000F0A9F9CC21D5
:1021C0005D2000F0A5F91B21084600F0A1F90121CE
:1021D0001A2000F09DF92F21242000F099F95721B1
:1021E000252000F095F98621232000F091F9362171
:1021F000182000F08DF90121192000F089F9002143
:10220000012000F085F988211F2000F081F90220CB
:1022100006F0BCFC80211F2000F07AF9022006F0B5
:10222000B5FC90211F2000F073F9022006F0AEFCEF
:10223000D0211F2000F06CF9022006F0A7FC052138
:10224000172000F065F90021012000F061F900215C
:10225000022000F05DF90021032000F059F901216E
:10226000042000F055F93F21052000F051F900212C
:10227000062000F04DF90021072000F049F9002167
:10228000082000F045F9EF21092000F041F928214C
:10229000162000F03DF90021362000F039F9042124
:1022A000362000F035F93821282000F031F90620D9
:1022B00006F06CFC3C212820F9E543F20801E320FC
:1022C00000F026F91221E72000F022F941F2312135
:1022D000EF2000F01DF94946012000F019F9594698
:1022E000022000F015F95146032000F011F90021F9
:1022F000042000F00DF940F20221082000F008F956
:102300000021092000F004F900210A2000F000F962
:1023100000210C2000F0FCF800210D2000F0F8F85E
:1023200000210F2000F0F4F80021102000F0F0F858
:102330000021112000F0ECF80021122000F0E8F854
:102340000021132000F0E4F8142006F01FFC072100
:10235000112000F0DDF8052006F018FC41F2B02154
:10236000102000F0D5F8052006F010FC40F2BD1159
:10237000122000F0CDF8052006F008FC4FF4A05123
:10238000132000F0C5F80E21292000F0C1F8052027
:1023900006F0FCFB0021202000F0BAF8394621208D
:1023A00000F0B6F80721302000F0B2F840F2023118
:1023B000312000F0ADF82146322000F0A9F829467E
:1023C000352000F0A5F83146362000F0A1F8294666
:1023D000372000F09DF840F20451382000F098F8C2
:1023E0000721392000F094F821463C2000F090F8B5
:1023F00031463D2000F08CF80021502000F088F894
:10240000EF21512000F084F80021522000F080F8E4
:102410003946532000F07CF84FF42741602000F04B
:1024200077F80121612000F073F800216A2000F0A4
:102430006FF80021802000F06BF80021812000F06F
:1024400067F80021822000F063F80021832000F06B
:102450005FF80021842000F05BF80021852000F067
:1024600057F81021902000F053F80021922000F03E
:102470004FF80321932000F04BF84FF4887195201A
:1024800000F046F80021972000F042F80021982043
:1024900000F03EF84146032000F03AF84FF489710D
:1024A00004E5BDE8F09F000070B50B4D0446010A3D
:1024B000284600F032F98021284600F025F900284E
:1024C000F9D1E1B2284600F028F98021284600F031
:1024D0001BF90028F9D170BD0038004010B5044642
:1024E00000F00CF82046FFF7DFFF0122BDE81040A6
:1024F00004210148FFF722BA000C014010B5222048
:1025000000F02EF8BDE81040722000F04FB8000037
:1025100070B50C4600F024F8722000F047F80E4D1C
:10252000210A284600F0F9F88021284600F0ECF84E
:102530000028F9D1E1B2284600F0EFF880212846C2
:1025400000F0E2F80028F9D1BDE870400122042132
:102550000248FFF7F3B9000000380040000C0140CA
:1025600070B50546702000F021F80E4C0021204681
:1025700000F0D3F88021204600F0C6F80028F9D1F9
:102580002946204600F0C9F88021204600F0BCF81A
:102590000028F9D1BDE87040012204210248FFF76C
:1025A000CDB9000000380040000C014010B50446D1
:1025B000002204210748FFF7C1F92146064C2046B6
:1025C00000F0ABF88021204600F09EF80028F9D1F9
:1025D00010BD0000000C01400038004070B50F2312
:1025E000C47801780122F4B1144C2468457804F4CD
:1025F000E064C4F5E064240AC4F10406E34084788E
:10260000B5401C402C4301F1E021230181F8003446
:10261000007800F01F018A404009800000F1E020AE
:10262000C0F8002170BD01F01F0082404809800001
:1026300000F1E020C0F8802170BD00000CED00E04A
:10264000044A0029D16901D0014300E08143D161EE
:102650007047000000100240044A0029116901D0AF
:10266000014300E081431161704700000010024007
:10267000044A0029916901D0014300E0814391613E
:102680007047000000100240044A0029D16801D0C0
:10269000014300E08143D160704700000010024018
:1026A0000029018802D041F0400101E021F0400101
:1026B00001807047114910B588420AD18414012164
:1026C0002046FFF7E1FF2046BDE810400021FFF75C
:1026D000DBBF0B49884202D10121041404E00949FF
:1026E00088420AD10121C4132046FFF7B5FF2046D6
:1026F000BDE810400021FFF7AFBF10BD0030014022
:1027000000380040003C00400246002012890A4286
:1027100000D001207047808970478181704730B5B3
:1027200002884C8802F441530A88CD8822438C8861
:102730002C4322430C8922434C8922438C89224317
:10274000CC8922431A430280828B22F40062828366
:10275000098A018230BD000038B500200090FFF7E3
:1027600091FA0020FFF798F90146009045F20840E1
:10277000094C814206D049F22530814202D0401FE7
:10278000814203D16060FFF77DFA01E0472060607D
:1027900001480C30A06038BD38E0002010B50021A1
:1027A000072000F01FF80021052000F01BF8002191
:1027B000062000F017F80021032000F013F8002194
:1027C000BDE81040042000F00DB800000349044AA1
:1027D00031F8101052F82000FEF7A7BB54CB0708C1
:1027E00074E000207FB5044623480D46012150F8CF
:1027F000240040F00100FFF73BFF04208DF80F009C
:102800001D4803A9103830F81400ADF80C001B481F
:1028100050F82400FEF738FB012D2CD1164840302B
:1028200010F81410103810F81400FEF719FB1248B5
:10283000203030F81400009000208DF804000CB116
:102840000C2000E008208DF8050001258DF80650C9
:102850006846FEF7CDFA0848503010F814008DF89D
:1028600008000F208DF809008DF80A008DF80B5034
:1028700002A8FFF7B3FE7FBD64CB070874E0002019
:102880000CB50021264801910091026842F4803283
:1028900002604FF4A063026802F400320092019AD1
:1028A000521C0192009A12B9019A9A42F3D102681D
:1028B000920333D5012100911A490A6842F01002AF
:1028C0000A600A6822F003020A600A6842F0020203
:1028D0000A604168416041684160416841F480613B
:1028E0004160416821F47C114160416841F4E81184
:1028F0004160016841F08071016001688901FCD587
:10290000416821F003014160416841F002014160EA
:102910004168C1F381010229FAD10CBD00910CBDBF
:1029200000100240002002400F4810B5016841F03D
:102930000101016041680D4A1140416001680C4A83
:1029400011400160016821F480210160416821F497
:10295000FE0141604FF41F018160FFF791FF0549BF
:102960004FF00060086010BD001002400000FFF84A
:10297000FFFFF6FE08ED00E02DE9FE4F282005F0F0
:102980006DFB0321009105233B4A3CA105F02AFB86
:102990008246282005F062FB1E2100910523364A5D
:1029A00039A105F01FFB8146282005F057FB3C218B
:1029B00000910523304A3EA105F014FB80462820F3
:1029C00005F04CFB4B21009105232B4A41A105F05A
:1029D00009FB0746282005F041FB5A2100910523F9
:1029E000254A45A105F0FEFA0646282005F036FBEB
:1029F000B42100910523204A48A105F0F3FA0546C9
:102A0000282005F02BFB7321009105231A4A4B491E
:102A100005F0E8FA04465146174804F04AF94946D9
:102A2000154804F046F94146134804F042F9394686
:102A3000114804F03EF931460F4804F03AF92946AE
:102A40000D4804F036F921460B4804F032F92820ED
:102A500005F004FB08499623F7228DE80E0038495B
:102A60002C234822096803F05FFC03B00146BDE84F
:102A7000F04F014804F01DB9D0E1002048656C70AA
:102A800020506167650000005573652074686520FB
:102A90006A6F79737469636B20746F20776F726BE0
:102AA0002077697468204C43442047554900000052
:102AB0002D55502F444F574E20746F206D6F766503
:102AC000206265747765656E20636F6E74726F6CDB
:102AD000730000002D4C4546542F5249475448205E
:102AE000746F206D6F7665206265747765656E2002
:102AF00070616765730000002D53454C20746F2092
:102B0000696E746572616374207769746820746893
:102B10006520636F6E74726F6C000000436F707994
:102B200072696768742053544D6963726F656C6590
:102B30006374726F6E6963730000000002B6070869
:102B400000DF00202DE9F04F87B00021FE4804F09F
:102B500059F8282005F082FA0021FB4A0B46009123
:102B6000A832FAA105F03EFA8046282005F076FA50
:102B70001421F54A00910A23A832FAA105F032FA8D
:102B80000746382005F06AFA2121EF4A00910A230E
:102B9000A832F64905F038F9F54CE060282005F038
:102BA0005DFA1421E84A00916423A832F1A105F0EE
:102BB00019FA0646382005F051FA21210091E24A1F
:102BC000EA496423A8320C3105F01EF9206128205F
:102BD00005F044FADFF87093352309F1A8090A21BA
:102BE000CDF80090CDE901133C239B22E4A105F030
:102BF00057F90546282005F031FA112100910F23DD
:102C00002A46E4A105F0EEF90490282005F026FA02
:102C1000252100910F232A46E1A105F0E3F9059053
:102C2000382005F01BFA6E22CDE900524FF00F0A52
:102C3000CDF808A0227809F5806B0BEB82110323F5
:102C4000DAA203F091FEE061382005F007FA2321B3
:102C50006E220095CDE90121227803230BEB82112E
:102C6000D2A2891C03F080FE2062282005F0F6F92C
:102C70001422CD23CDF80090CDE90132AA2364229D
:102C8000CBA105F00DF90390282005F0E7F9052305
:102C9000CDF800A0C8A1039A05F0A4F9606228202D
:102CA00005F0DCF9212100910523C6A1039A05F066
:102CB00099F9A062282005F0D1F93321009105236C
:102CC000C3A1039A05F08EF9E062282005F0C6F949
:102CD000452100910523C1A1039A05F083F92063E2
:102CE000282005F0BBF9572100910523BEA1039AC6
:102CF00005F078F96063282005F0B0F969210091AA
:102D00000523BCA1039A05F06DF9A063282005F006
:102D1000A5F97B2100910523B9A1039A05F062F979
:102D2000E063302005F09AF98D2100910A23B7A1C4
:102D3000039A03F00FFCB849206441624CF2186119
:102D40004183002103F02DFF4846216C03F0B1FFC1
:102D50004146484603F0ADFF3146484603F0A9FF1F
:102D60003946484603F0A5FF4846E16803F0A1FF55
:102D70002178E06804F00DFFE168A8484862484601
:102D8000216903F096FF207809F5906600EB40007A
:102D900016F82010206904F0FCFEA14804F58077A5
:102DA00000680169F86A8847C0067AD5282005F0CE
:102DB00055F973230A21CDF80090CDE901133C2386
:102DC000BE2298A105F06CF88046282005F046F94F
:102DD000112100910523424696A105F003F9824690
:102DE000282005F03BF9252100910523424692A1B8
:102DF00005F0F8F88146382005F030F90190F86ABE
:102E000001F0C0FFDFF864B121230BF1180B42463B
:102E10005BF820100F200090019804F0F5FF60612E
:102E2000382005F01BF90190F86A01F0ABFF5BF860
:102E300020102320009021234246019804F0E4FF53
:102E4000A0614146A6F5906003F033FF5146A6F518
:102E5000906003F02EFF4946A6F5906003F029FF2D
:102E6000A6F59060616903F024FFA6F59060A16962
:102E700003F01FFF207800EB400006EB8000417854
:102E8000606904F086FE207800EB400006EB8000CD
:102E90008178A06904F07DFE616968484862A16993
:102EA000486229482946A83003F003FF26480499C0
:102EB000A83003F0FEFE24480599A83003F0F9FE7F
:102EC0002148E169A83003F0F4FE1F48216AA830C8
:102ED00003F0EFFE0021E06903F063FE0021206AA9
:102EE00003F05FFE4E4800680169F86A88470221D6
:102EF000B1EB107F03D0C0F30360022813D1302060
:102F000005F0ACF8B221104A00910A23A8324CA176
:102F100003F020FB014678610B48A83003F0C9FE9E
:102F200079694C48486208480399A83003F0C1FE0B
:102F30000548616AA83003F0BCFE0348A16AA830C6
:102F400003F0B7FE004887E0D0E10020436F6E66D3
:102F5000696775726174696F6E20616E6420646563
:102F6000627567004D6F746F7200000024B6070829
:102F700004DF00204374726C206D6F6465000000F4
:102F8000506F77657220626F617264207374617430
:102F90007573000044432042757320766F6C740093
:102FA0004865617473696E6B20542E00253364008C
:102FB0004661756C747300004F766572637572724A
:102FC000656E74005265767570206661696C0000EC
:102FD0005370656564206664626B0000535720651A
:102FE00072726F7200000000556E64657220766F19
:102FF0006C7400004F76657220766F6C7400000070
:103000004F7665722074656D700000004661756CC6
:10301000742061636B0000006D4F0708695C07084E
:10302000F4FF00204441432053657474696E677354
:10303000000000004368310043683200595407081B
:10304000456E636F64657220616C69676E6D656E55
:1030500074000000C9540708A830E16A03F029FE93
:103060002048216B03F025FE1E48616B03F021FE12
:103070001C48A16B03F01DFE1A48E16B03F019FE1A
:103080002078626A00EB400006EB800116484B791D
:1030900030F8133053838B79A26A30F8133053839E
:1030A000CB79E26A30F8133053830B7A226B30F815
:1030B000133053834B7A626B30F8133053838B7A1F
:1030C000A26B30F813305383C97AE26B30F81100E9
:1030D000508321690548486207B00248BDE8F04FB7
:1030E00003F07BBE78E20020FCB50708A15B07086F
:1030F0002DE9F04F8BB0282004F0B0FF00210B46E3
:103100000091FB4AFBA104F06DFF0790282004F01A
:10311000A5FFF74914230A228DE80E005A239122B5
:10312000F9A104F0BDFE0646F948FA4C4FF0050B34
:1031300000784FF01E0900284FF0410A4FF0280098
:103140007BD004F08BFF0F21009105233246F2A1C2
:1031500004F048FF0746382004F080FF0096EC4951
:10316000CDE901B94D460623EFA26C3903F0FCFB13
:10317000EE49A0644162402004F070FF3C210096BB
:10318000CDE90115E2490623E7A28C3904F090F855
:10319000E064282004F062FF75233246E4A1009524
:1031A00004F020FF8046282004F058FF32210091CF
:1031B00005233246DFA104F015FF0546382004F050
:1031C0004DFFD349CDE9006B0623D7A26839CDF86E
:1031D00008A003F0C9FBD949606541623946C4487B
:1031E00003F067FDC248A16C03F063FDC048E16CC9
:1031F00003F05FFD4146BE4803F05BFD2946BC4835
:1032000003F057FDBA48616D03F053FD0021E06CF7
:1032100003F0C7FC302004F021FF7821009128231F
:10322000B34AC7A103F096F96067302004F016FF97
:103230008C212823AE4A009100E0DCE0C3A103F01A
:1032400089F9C549A06741624CF2186141830021A8
:1032500003F0A7FCA648616F03F02BFDA448A16F03
:1032600003F027FD282004F0F9FEA1491423A02231
:103270008DE80E005A239122B8A104F011FE0546F4
:10328000A348017B8438039000294FF028007CD0AC
:1032900004F0E4FE0F21009105232A469EA104F0CC
:1032A000A1FE0890382004F0D9FE9949CDE9005BD1
:1032B0004F4606239CA22C39CDF8089003F054FB0E
:1032C000A84920664162402004F0C8FE3C21CDE9B7
:1032D0000051062394A20297039903F0E9FF606668
:1032E000282004F0BBFE75232A4691A1009704F024
:1032F00079FE8046282004F0B1FE3221009105239A
:103300002A468CA104F06EFE0746382004F0A6FE83
:103310007F49CDE9005B062383A22839CDF808A0B8
:1033200003F022FB9049E06641627148089903F07E
:10333000C0FC6F48216E03F0BCFC6D48616E03F069
:10334000B8FC41466A4803F0B4FC3946684803F0CB
:10335000B0FC6748E16E03F0ACFC0021606E03F046
:1033600020FC302004F07AFE78210091BE23604AD0
:1033700073A103F0EFF8E067302004F06FFE8C21BA
:103380000091BE235A4A71A100E040E103F0E2F847
:10339000604F76498037386041624CF21861418352
:1033A000002103F0FEFB302004F058FEA021009124
:1033B00044234F4A6EA103F0CDF878604C4807993A
:1033C00003F077FC31464A4803F073FC294648482D
:1033D00003F06FFC4648E16F03F06BFC444839682A
:1033E00003F067FC4248796803F063FC48480178C1
:1033F00000297CD0D0E104F031FE0F21009105239B
:10340000324661A104F0EEFD0490402004F026FE57
:103410003F49CDE9006B062343A29039CDF80890CF
:1034200003F046FF5C4D60645C4F28680021026831
:10343000F86A9047C0B2039028680022114683685A
:10344000F86A98472868D4F8448040210268F86AEE
:103450009047029028683F210268F86A90470299D5
:10346000C8E90E1028680021039A8368F86A984713
:10347000402004F0F3FD3C21CDE9006124490623FE
:1034800029A2CDF808908C3903F012FFE0642820BF
:1034900004F0E4FD7523324625A1CDF8009004F038
:1034A000A1FD0746282004F0D9FD32210091052313
:1034B00032463BA104F096FD0546382004F0CEFDCF
:1034C0001349CDE9006B062317A27C39CDF808A07B
:1034D00003F04AFA47F6FF720021206503F014FA60
:1034E000302004F0BBFD3C23324632A166E03FE1D0
:1034F00020E300204475616C20636F6E74726F6C02
:103500002070616E656C00004D6F746F7220310029
:10351000F8E6002004DF00204971207265662E2F36
:103520005370656564000000253664002560070857
:1035300072706D004964207265662E009D5E0708FA
:1035400053746172742F53746F7000004661756C10
:10355000742061636B000000D95307084D6F746FCE
:1035600072203200C1600708615F0708195407081C
:1035700053746172742F53746F7020626F7468207B
:103580006D6F746F72730000546172676574204DC3
:103590006561737572656400F4FF002004E000202B
:1035A00052616D70206475726174696F6E206D7305
:1035B000000000004578656300000000CDF800A021
:1035C00002F0C8FFA0657C48049903F072FB7A48BA
:1035D000616C03F06EFB7848E16C03F06AFB3946DE
:1035E000754803F066FB2946734803F062FB724896
:1035F000216D03F05EFB7048A16D03F05AFB0021C2
:10360000E06C03F0CEFAA16D6C48486202E604F06B
:1036100025FD0F2105232A460091AFF2940104F005
:10362000E1FC0890402004F019FD1E2105220095C0
:10363000CDE901210623AFF21012614903F038FEF3
:10364000604FE065DFF88081386800210268D8F8B3
:103650002C00904700F0FF0B38680122002183689E
:10366000D8F82C0098473868D4F85C90402102685C
:10367000D8F82C009047049038683F210268D8F8A9
:103680002C0090470499C9E90E1038685A46002169
:103690008368D8F82C009847402004F0DFFC1E22F5
:1036A0003C210095CDE901120623AFF28412039963
:1036B00003F0FEFD6066282004F0D0FC1E21752377
:1036C0002A460091AFF2981104F08CFC8046282025
:1036D00004F0C4FC322105232A460091AFF24011C8
:1036E00004F080FC0746382004F0B8FC0522CDE940
:1036F00000520623CDF808A0AFF2D41230494C3165
:1037000003F032F947F6FF720021A06603F0FCF8DF
:10371000302004F0A3FC3C232A46AFF26811CDF818
:1037200000A002F017FF20672348089903F0C1FAB0
:103730002148E16D03F0BDFA1F48616E03F0B9FA4C
:1037400041461D4803F0B5FA39461B4803F0B1FA6B
:103750001948A16E03F0ADFA1748216F03F0A9FADA
:103760000021606E03F01DFA216F18484862F8E5E9
:10377000007B88B9302004F071FCB4210091402313
:103780000D4A13A102F0E6FE0146B8600A4803F0B4
:1037900090FAB96814484862796814484862616FC1
:1037A00013484862E16F134848620BB00248BDE815
:1037B000F04F03F012BB000020E3002099610708DE
:1037C00070E60020F4FF002004E00020E561070817
:1037D000457865632073696D756C74616E656F758E
:1037E000732052616D707300E1540708515007084F
:1037F0004D580708595907082DE9F04F8BB028207C
:1038000004F02CFC00210B460091FE4AFEA104F0BE
:10381000E9FB0390282004F021FC0A22F94BCDE9B2
:1038200000324FF0140ACDF808A05A239122FBA1D0
:1038300004F036FB0746282004F010FC1E210091FE
:103840003C233A46F8A104F0CDFB0490282004F074
:1038500005FC412100913C233A46F4A104F0C2FB4F
:103860000590282004F0FAFB0F21009105233A4629
:10387000EFA104F0B7FB0690402004F0EFFB1E21FF
:1038800005220097CDE90121DFF8B8B3EC4A062301
:103890009BF8001002EBC101EBA203F009FD0BF154
:1038A0008004DFF8A8830646E060D8F8000004F141
:1038B000800540210268E86A90478146D8F80000F8
:1038C0003F210268E86A9047C6E90E90282004F07C
:1038D000C5FB3221009105233A46DDA104F082FBAD
:1038E0000790382004F0BAFB412105220097CDE96A
:1038F00001215A46DFF84893127809F1100909EBC3
:1039000082110623D0A2091D03F02EF847F6FF729C
:103910000021206102F0F8FF302004F09FFB4121DC
:1039200000915A233A46CEA102F014FECE496061BE
:10393000416201F0BFF9282004F090FBB1497323E4
:103940000A228DE80E004B236822C8A104F0A8FAD1
:103950000646282004F082FB0A233246C6A1CDF891
:1039600000A004F03FFB0890282004F077FB2321FF
:1039700000910A233246C1A104F034FB099038209B
:1039800004F06CFB51464FF0280A0096CDE901A1E6
:103990005A460623127809EB8211ABA2891D02F068
:1039A000E3FFA061382004F059FB23210096CDE904
:1039B00001A15A460623127809EB8211A2A208310E
:1039C00002F0D2FFE0618F48039903F072F98D484D
:1039D000049903F06EF98B48059903F06AF93946AA
:1039E000884803F066F98748069903F062F985482C
:1039F000E16803F05EF98348079903F05AF98148BA
:103A0000216903F056F97F48616903F052F97D4856
:103A1000A96903F04EF97B48E96903F04AF979484E
:103A2000296A03F046F97748A96A03F042F90021B0
:103A3000286A03F0B6F87348696A03F03AF9314628
:103A4000704803F036F96F48089903F032F96D4871
:103A5000099903F02EF96B48A16903F02AF9694826
:103A6000E16903F026F9D8F800000169E86A88479F
:103A700080072BD5282004F0F1FA32270A2332469A
:103A80007FA1009704F0AEFA0546382004F0E6FA6C
:103A9000CDE9006A02979BF80020062309EB82110A
:103AA00069A20A3102F060FF20622946554803F0FE
:103AB00000F95448216A03F0FCF847F6FF72002130
:103AC000206A02F021FFA1696E48486247F6FF753F
:103AD0002A460021A06902F017FF2A460021E0696A
:103AE00002F012FFD8F8000001696748C06A8847F1
:103AF000C0077DD0282004F0B1FA424973237D220B
:103B00008DE80E004B23B42260A104F0C9F90546EC
:103B1000282004F0A3FA0E260A232A465FA1009665
:103B200004F060FA0390282004F098FA50232A4603
:103B30005AA1009604F056FA8246382004F08EFA14
:103B40000A22CDE900524FF01908CDF808809BF801
:103B500000104E4609EB81115F46042351A20C313F
:103B600002F002FF6062382004F078FA5022CDE9BA
:103B70000052CDF808803978042306EB811149A260
:103B80000E3102F0F1FEA062282004F067FA4FF037
:103B90002C080A232A4638A1CDF8008004F022FA26
:103BA0008146282004F05AFA50232A4633A1CDF842
:103BB000008004F017FA8046382004F04FFA0A22F9
:103BC000CDE900524FF0370BCDF808B03978062315
:103BD00006EB81111CA2103102F0C6FEE062382013
:103BE00004F03CFA5022CDE90052CDF808B000E0D4
:103BF0009CE03978062306EB811113A2123102F002
:103C0000B3FE51E0C8E30020537065656420636F24
:103C10006E74726F6C6C65720000000053657420E6
:103C2000706F696E7400000072706D006D7300003B
:103C300054617267657420737065656400000000EC
:103C400068E6002004DF002025366400F4FF002031
:103C500052616D70206475726174696F6E0000004E
:103C60004578656300000000395C0708504944202E
:103C70004761696E730000004B5000004B49000023
:103C80004B440000B151070804E00020466C7578F1
:103C900020776C2E2074756E696E670042555380D4
:103CA000000000002534640020632946254803F005
:103CB00000F82448039902F0FCFF5146214802F025
:103CC000F8FF2048616A02F0F4FF1E48A16A02F082
:103CD000F0FF0021A06A02F064FF4946194802F093
:103CE000E8FF4146174802F0E4FF1648E16A02F097
:103CF000E0FF1448216B02F0DCFF4FF47A720021E0
:103D0000606A02F001FE47F6FF752A460021E06A6C
:103D100002F0FAFD2A460021206B02F0F5FD616AEF
:103D200009484862E16A4862216B4862A169064815
:103D30004862E16948620BB00248BDE8F04F03F009
:103D40004CB80000C8E30020B15107082DE9F04F3E
:103D50008BB0282004F082F900210B460091FE4A26
:103D6000FEA104F03FF90390282004F077F98721A1
:103D70000091E623F84AFEA104F034F904902820CB
:103D800004F06CF90A23DFF8D083CDE900834FF00B
:103D9000140ACDF808A05A239122F7A104F080F864
:103DA0000746282004F05AF90F21009105233A46CE
:103DB000F4A104F017F9F54C6063382004F04EF9D3
:103DC0001E2105220097CDE90121A4F1800508F507
:103DD00002762978062306EB8111EDA2143102F058
:103DE000C3FDA063282004F039F90F21009150236E
:103DF0003A46E8A104F0F6F80590382004F02EF9D0
:103E00001E2150220097CDE901212978062306EBD7
:103E10008111DFA2163102F0A7FDE063282004F033
:103E20001DF93221009105233A46DBA104F0DAF8AE
:103E30002064382004F012F9412105220097CDE9D1
:103E400001212978062306EB8111D1A2183102F055
:103E50008BFD6064282004F001F932210091502389
:103E60003A46CFA104F0BEF80690382004F0F6F8E8
:103E7000412150220097CDE901212978062306EB44
:103E80008111C3A21A3102F06FFDA064282004F052
:103E9000E5F8844673200A22CDF80080CDE90120A0
:103EA0004B236822BFA1604603F0FAFF8146282019
:103EB00004F0D4F80A234A46BEA1CDF800A004F0CD
:103EC00091F80790382004F0C9F84FF0280BCDE99D
:103ED000009B8446CDF808A02878062306EB8011C5
:103EE000ABA260461C3102F03FFDE064282004F0E4
:103EF000B5F8232100910A234A46AFA104F072F8D5
:103F00000890382004F0AAF82321CDF80090CDE9DC
:103F100001B184462878062306EB80119CA26046F6
:103F20001E3102F021FD2065282004F097F8844618
:103F300073207822CDF80080CDE901204B23682240
:103F40009EA1604603F0ACFF8046282004F086F86E
:103F50000A23424697A1CDF800A004F043F8099047
:103F6000382004F07BF8CDE9008B8446CDF808A01A
:103F70002878062306EB801185A26046223102F0E4
:103F8000F3FCE065282004F069F8232100910A235E
:103F9000424689A104F026F80A90382004F05EF821
:103FA0002321CDF80080CDE901B18446287806238D
:103FB00006EB801176A26046243102F0D5FC206623
:103FC000302004F04BF873210091E623624A7FA170
:103FD00003F094F8E066382004F040F89621009150
:103FE000E6235D4A7B4903F00FFF206700F062FE85
:103FF0005948039902F05DFE5748049902F059FEB2
:104000003946554802F055FE5348616B02F051FEA7
:104010005148A16B02F04DFE4F48059902F049FE50
:104020004D48E16B02F045FE0021E06B02F0B9FD66
:104030004948216C02F03DFE4748616C02F039FEB0
:104040004548069902F035FE4348A16C02F031FE66
:104050000021A06C02F0A5FD04F1800081693E48BA
:1040600002F027FE04F18000C1693B4802F021FE06
:1040700004F18000016A384802F01BFE04F1800060
:10408000816A354802F015FE04F180000021006AC3
:1040900002F087FD04F18000416A2F4802F009FE1A
:1040A000287800EB400106F1800000EB81004946D2
:1040B0000779294802F0FDFD2748079902F0F9FD2C
:1040C0002548E16C02F0F5FD2348089902F0F1FD66
:1040D0002148216D02F0EDFDE16C3F484862216D01
:1040E0003E4848623E480068016904F18000C06AA9
:1040F000884740072DD5282003F0B0FF4FF0320A43
:104100000A234A4637A1CDF800A003F06BFF606593
:10411000382003F0A3FFCDE9009BCDF808A0297853
:10412000062306EB81111AA2203102F01DFCA065C6
:104130000948616D02F0BDFD0748A16D02F0B9FDAF
:1041400047F6FF720021A06D02F0DEFBA16D26484C
:10415000486247F6FF7A49E070E4002043757272C6
:10416000656E7420636F6E74726F6C6C6572730031
:10417000496E70757400000053657420706F696E2D
:10418000747300004971207265662E0084DF002080
:1041900025366400497100004964207265662E006E
:1041A00049640000497120504944204761696E7399
:1041B000000000004B5000004B49000049642050B3
:1041C0004944204761696E73000000004C696E6BC2
:1041D000000000007CB607082D530708E9520708C5
:1041E000F4FF00204B440000A15207085246002172
:1041F000E06C02F089FB52460021206D02F084FB46
:1042000041465D4802F055FD5B48099902F051FDB9
:104210005948E16D02F04DFD57480A9902F049FDF9
:104220005548216E02F045FD544800680169544824
:10423000C06A8847DFF84C91000733D5282003F087
:104240000DFF32210A2342460091AFF2680103F0CC
:10425000C9FE6066382003F001FF3221CDF80080EE
:10426000CDE901B12978062306EB8111AFF2E00216
:10427000263102F079FBA0663F48616E02F019FD1D
:104280003D48A16E02F015FD52460021A06E02F0DD
:104290003BFB002F55D00021A06E02F082FCA16EE6
:1042A000C1F82490564652460021E06D02F02CFBE6
:1042B00032460021206E02F027FB2F48E16E02F00B
:1042C000F8FC2D48216F02F0F4FCA84628782E4D0A
:1042D00000EB400005EB8000C178206F03F059FC33
:1042E00001F044FDE66E726A2AB196F8210010B121
:1042F00039463046904786F82C7027B30021E06D90
:1043000002F04FFC0FB30021206E02F04AFC216F37
:104310001E484862E16E1E484862A06B1D4941621A
:10432000626C1D495162E26DC2F82490226EC2F89F
:10433000249098F8001001EB410115F8211031B1DB
:1043400014E00121A8E70121D9E70121DCE70021E0
:1043500002F027FC0948006801690948C06A8847DB
:10436000800603D40021606C02F01BFC0BB00248F5
:10437000BDE8F04F02F031BD70E40020F4FF0020F2
:1043800004E00020B1510708F8E600205962070850
:10439000F1510708E15607084D5507082DE9F04F80
:1043A000FF48DFF8008487B0006800250169D8F86D
:1043B0002C008847064609200024B0EB167F09D15F
:1043C000282003F04BFE0023F74AF8A1009403F0E5
:1043D00009FE0546C6F30360092809D1282003F029
:1043E0003DFE0023F04AF8A1009403F0FBFD0546D2
:1043F00070064FF028000AD503F030FEEA49142376
:104400000A228DE80E005A239122F8A109E003F058
:1044100025FEE54914230A228DE80E005A23912235
:10442000F5A103F03DFD0446282003F017FE0F21FF
:10443000009105232246F1A103F0D4FD039038201A
:1044400003F00CFE1E2105220094DFF8B8B3CDE97D
:104450000121DFF8AC939BF80020062309EB8211C1
:10446000E9A2283102F080FA0BF1800A5746CAF817
:104470007400282003F0F2FD0F2100915023224602
:10448000E2A103F0AFFD0490382003F0E7FD1E2207
:1044900050210094CDE901129BF80020062309EB7E
:1044A0008211D9A22A3102F05FFAB86700F002FC4B
:1044B0002946BD4802F0FDFB2146BB4802F0F9FB4E
:1044C000B948039902F0F5FBB748796F02F0F1FBA8
:1044D000B548049902F0EDFBB348B96F02F0E9FB6F
:1044E00070065BD5282003F0B9FD32210091052329
:1044F0002246C7A103F076FD0390382003F0AEFDFD
:104500000521CDE90041412702979BF800200623B1
:1045100009EB8211BCA2303102F026FA554647F66B
:10452000FF720021CAF87C0002F0EEF9282003F0A7
:1045300095FD3221009150232246B7A103F052FD90
:104540000490382003F08AFD5021CDE90041029704
:104550009BF80020062309EB8211ABA2323102F056
:1045600003FA444647F6FF720021C8F8000002F043
:10457000CBF98D48039902F09CFB8B48E96F02F060
:1045800098FB8948049902F094FB8748216802F05F
:1045900090FBE96FA248486221684862444682481D
:1045A000D8F8181002F085FB7F48E16902F081FB22
:1045B0007D48216A02F07DFB7B48A16A02F079FB0D
:1045C0000021206A02F0EDFA7748616A02F071FB7F
:1045D0000920B0EB167F7DD1282003F03FFD724902
:1045E00073230A228DE80E004B2340F227128DA17F
:1045F00003F056FC0546282003F030FD4FF0140868
:104600000A232A468BA1CDF8008003F0EBFC03902F
:10461000382003F023FD5022CDE90052CDF8088068
:104620009BF800104E4609EB81115F46062376A2E7
:10463000343102F099F947F6FF720021606002F010
:1046400063F9282003F00AFD4FF023090A232A46C4
:104650007BA1CDF8009003F0C5FC8346382003F021
:10466000FDFC5022CDE90052CDF8089039780623A0
:1046700006EB811164A2363102F076F9A0602820A1
:1046800003F0ECFC322100910A232A466EA103F0CC
:10469000A9FC0490382003F0E1FC3221502200955F
:1046A000CDE901213978062306EB811156A2383174
:1046B00002F05AF9E060282003F0D0FCB4232A4627
:1046C00063A1CDF8008003F08DFC0590382003F045
:1046D000C5FC00E0D9E0E622CDE90052CDF8088023
:1046E0003978032306EB81115BA23A3102F03CF9E1
:1046F00020612B48222100680268E06A9047421E30
:104700000021206902F000F9282003F0A7FC8C2387
:104710002A4652A1CDF8008003F064FC01902820C5
:1047200003F09CFC8C232A464DA1CDF8009003F0A9
:1047300059FC3978804606EB811090F83A20E06AFF
:1047400000F016FE216947484862616846484862A1
:10475000A16846484862E1684548486212480199A4
:1047600002F0A7FA4146104802F0A3FA29460E4883
:1047700002F09FFA0C48039902F09BFA0A4861681C
:1047800002F097FA5946084802F093FA0648A168E1
:1047900002F08FFA0448049902F08BFA024869E0AB
:1047A000F4FF002004E0002018E5002053656E733C
:1047B0006F726C6573732074756E696E67205354E5
:1047C0004F202620504C4C0053656E736F726C6501
:1047D00073732074756E696E672053544F202620C2
:1047E000504C4C20284175782900000053544F202C
:1047F0002620504C4C00000053544F00473100001D
:1048000078E6002004DF00202536640047320000EF
:10481000504C4C204B500000504C4C204B49000059
:10482000B15107085265762075702074756E696EF7
:10483000670000004475726174696F6E00000000CB
:10484000456E642073706400456E642049710000F9
:104850005374616765000000253364006D730000C8
:1048600072706D005D610708316207088962070890
:10487000B1620708E16802F01CFA0A48059902F0E3
:1048800018FA0848216902F014FADAF87420064888
:104890005062DAF87810486207B00248BDE8F04F7D
:1048A00002F09BBA18E50020B15107082DE9F04F3E
:1048B000D14887B0002400680169D048C06A8847A1
:1048C00006460A250027B5EB167F09D1282003F0FC
:1048D000C5FB0023CA4ACBA1009703F083FB044623
:1048E000C6F303600A2809D1282003F0B7FB002390
:1048F000C34ACCA1009703F075FB0446282003F0BF
:10490000ADFBBF4BCDE9003514210291AA465A23D5
:104910009122CEA103F0C4FA0546282003F09EFBA5
:104920004FF00F0805232A46C9A1CDF8008003F0F7
:1049300059FB8146382003F091FB1E21052200958A
:10494000CDE90121C349DFF8B8B2062309780BF19C
:10495000B80B0BEB8111C0A22C3102F005F8A74F68
:10496000803F7867282003F079FB50232A46BBA1BB
:10497000CDF8008003F036FB8046382003F06EFB54
:104980001E2150220095CDE90121B2490623B2A291
:1049900009780BEB81112E3101F0E6FFB86700F0CA
:1049A00089F92146964802F084F92946944802F094
:1049B00080F94946924802F07CF99148796F02F0FB
:1049C00078F941468E4802F074F98D48B96F02F0CB
:1049D00070F98A4C8A48A16902F06BF98848E1694C
:1049E00002F067F98648216A02F063F98448A16AF7
:1049F00002F05FF90021206A02F0D3F88048616A72
:104A000002F057F9BAEB167F7ED1282003F026FB7F
:104A10007B4900917323CDE901A34B2340F2271278
:104A20008FA103F03DFA0546282003F017FB4FF055
:104A300014080A232A468EA1CDF8008003F0D2FA8A
:104A40000390382003F00AFB4FF05009CDE90059DC
:104A5000803FCDF8088039785E460BEB8111062344
:104A60007DA2343101F080FF47F6FF7200216060C3
:104A700001F04AFF282003F0F1FA4FF0230A0A233D
:104A80002A467EA1CDF800A003F0ACFA04903820AD
:104A900003F0E4FA8DE820063978062306EB81114D
:104AA0006DA2363101F060FFA060282003F0D6FA35
:104AB0004FF0320B0A232A4672A1CDF800B003F062
:104AC00091FA0590382003F0C9FA8DE8200A397868
:104AD000062306EB811160A2383101F045FFE0604A
:104AE000282003F0BBFAB4232A4668A1CDF8008041
:104AF00003F078FA8346382003F0B0FAE622CDE9D5
:104B00000052CDF8088000E069E03978032306EB15
:104B1000811160A23A3101F027FF2061364822213D
:104B200000680268E06A9047421E0021206901F097
:104B3000EBFE282003F092FA8C232A4656A1CDF8EA
:104B4000008003F04FFA8146282003F087FA8C2377
:104B50002A4652A1CDF800A003F044FA39788046E5
:104B600006EB811090F83A20E06A00F001FC216920
:104B70004B48486260684B494162A0684A494162BB
:104B8000E0684A49416249461D4802F092F84146B0
:104B90001B4802F08EF82946194802F08AF8184896
:104BA000039902F086F81648616802F082F814480A
:104BB000049902F07EF81248A16802F07AF81048D1
:104BC000059902F076F80E48E16802F072F859464D
:104BD0000B4802F06EF80A48216902F06AF80748AB
:104BE00033498038426F5162806F416207B0044898
:104BF000BDE8F04F02F0F1B8F4FF002004E000201F
:104C0000C0E5002053656E736F726C65737320741A
:104C1000756E696E672053544F202620434F5244CF
:104C20004943000053656E736F726C657373207433
:104C3000756E696E672053544F202620434F5244AF
:104C400049432028417578290000000053544F0043
:104C50004731000004DF00202536640047320000A1
:104C60005265762075702074756E696E670000005D
:104C70004475726174696F6E00000000456E6420B7
:104C800073706400456E642049710000537461675D
:104C900065000000253364006D73000072706D00C4
:104CA0005D6107083162070889620708B162070879
:104CB000B15107083EB5282003F0D0F9A0232249BE
:104CC000CDE90013142202925A2391221FA103F06E
:104CD000E7F8204CA061282003F0C0F90F210091D3
:104CE00005231DA1A26903F07DF9E061402003F0D6
:104CF000B5F9A2690521CDE900211E25A4F5807230
:104D0000029519491278062301EBC20117A2091D69
:104D100002F0CEFA2062302003F0A0F94121009188
:104D2000052313A1A26901F015FC6062282003F09D
:104D300095F900953C2311A1A26903F053F9A062F3
:104D4000616A0F4848623EBDE4E000204D6F6E6925
:104D5000746F720004E000204D65617375726564C4
:104D6000207370656564000068E6002025366400E5
:104D700053746172742F53746F70000072706D0001
:104D8000A950070870B531490024096809698847A6
:104D9000010E0E074FF009014FF00A024FF0020317
:104DA0004FF001050ED0B1EB107F03D1C0F30366C5
:104DB0000A2E17D0B2EB107F15D1C0F30366092E6F
:104DC00010D010E0B1EB107F00D10124B2EB107FC6
:104DD00000D10224B5EB107F02D0B3EB107F33D1AA
:104DE000032431E00624B1EB107F05D1C0F3036149
:104DF00002290BD0012909D0C0F30361092906D18A
:104E0000B3EB107F02D0B5EB107F00D10424B2EBDE
:104E1000107F05D1C0F3036102290BD0012909D00D
:104E2000C0F303610A2906D1B3EB107F02D0B5EBC2
:104E3000107F00D105240B21B1EB107F04D1C0F30A
:104E40000360092800D10724204670BDF4FF00202C
:104E500010B5324801F08FFF3048A83001F08BFFC9
:104E60002F4801F088FF2E48A83001F084FF2D481C
:104E700001F081FF2B48A83001F07DFF2A4801F0A6
:104E80007AFF2A490020C860086148618861C861CA
:104E9000086248628862C862086348638863C863BE
:104EA000086448648864C864086548658865C8659E
:104EB000086648668866C866086748678867C8677E
:104EC0008031086048608860C86008614861886116
:104ED000C861086248628862C86208634863886380
:104EE000C863086448648864C86408654865886560
:104EF000C865086648668866C86608674867886740
:104F0000C8678031086048608860C860086148618F
:104F10008861C86108624862886210BDD0E10020E3
:104F200020E3002070E40020C0E5002004DF002022
:104F300010B5074807A102780B48521CFBF7BEF9D1
:104F40000949BDE8104001F1200002F01ABA000042
:104F500004DF00204D6F746F722073656C6563749D
:104F600065643A2025316400A0E000200348072151
:104F70000068C2680248C06A10470000F4FF0020C1
:104F800004E0002010B50C46FFF762FF072C23D287
:104F9000DFE804F004070A171A1D2000FDF7ECFCF7
:104FA00004E0FDF7CFFD01E0FEF7A2F80C4B986896
:104FB00001F092F99968BDE810400144094802F0F7
:104FC000E0B9FEF719FC07E0FEF7C0FE04E0FFF7CA
:104FD000E5F901E0FFF76AFCBDE81040FFF7A8BF64
:104FE00004DF0020C0E000202DE9F047814617488B
:104FF0000E46144FDFF85080002400EB8615395D13
:10500000662908D0D8F80000026848469047411C3D
:1050100001D025F81400641CE4B2202CEFD3D8F89A
:10502000000004210268484690470849103941F8B9
:10503000360095F83A2031464846BDE8F04700F082
:1050400097B9000088B60708F4FF002078E6002032
:1050500070B5134C134D002120680268E86A904730
:10506000C6B22068002211468368E86A9847206823
:105070000621C268E86A90472068012200218368FF
:10508000E86A984720680621C268E86A9047206865
:10509000324600218368E86ABDE870401847000086
:1050A000F4FF002004E000202DE9F05F3A4A3B4F76
:1050B0003B4E1178A7F1800C01EB4105336817F8DE
:1050C000258002F580740CEB8110B8F1000F06D03A
:1050D00007EB8501C97859B1012955D10EE08288C5
:1050E0002E485B68903850F83110E06A98474BE0E2
:1050F000B0F91820B0F914101B6A43E0E346924659
:10510000B0F93E0004F007F8264A274B04F02EF8C9
:105110000022264B03F078FE03F0EAFC0F469AF8D3
:10512000001005460BEB8119B9F93C0003F0F3FFC1
:105130002A463B4604F01AF803F0BEFF0FFA80F847
:10514000B9F93E0003F0E7FF164A174B04F00EF8DA
:105150000022164B03F058FE03F02AFD0F469AF882
:10516000001005460BEB8110B0F93C0003F0D3FFB3
:105170002A463B4603F0FAFF03F09EFF01B2306877
:105180004246036AE06A984730680621C268E06ACE
:10519000BDE8F05F1047000004DF0020F8E60020C3
:1051A000F4FF00201F85EB51B81E094000806640C7
:1051B0000B4B0A4609491B78008D01EB8311401AFD
:1051C000C0F347010748415C662905D006480068DE
:1051D00083680648C06A18477047000078E60020D8
:1051E00004DF002088B60708F4FF002004E0002058
:1051F0002DE9F041284E11F0FF052849307800EBE9
:10520000400001EB8000057140D00021224C803429
:10521000E06D01F0C6FCC5B30021206E01F0C1FCB9
:10522000FDB11E4F3078803F07EB8010B0F91C10A5
:105230004184C28B8284028CC284E06D01F048FA02
:10524000307807EB8010B0F92410206E01F040FA9E
:10525000A06E30B1317807EB8111B1F9261001F061
:1052600037FAE06D012680F82060206E80F820601B
:10527000A06E002807D06DB15FF0000101F091FC35
:10528000A06E80F82060BDE8F08101E00121BDE75B
:105290000121C2E70121F1E704DF0020F8E6002048
:1052A00070B50D46FFF784FF0D480E4A017801EBFB
:1052B000410002EB8000007900280FD0084C8034B8
:1052C000A06E00280AD0803A02EB8111CD842946D5
:1052D00001F024FAA06E012180F8201070BD0000BA
:1052E00004DF0020F8E6002010B50C46FFF760FF51
:1052F0000C480D4A007800EB400102EB810109796E
:1053000000290ED0A2F1800101EB80102146848497
:10531000044C8034206E01F001FA206E012180F8E7
:10532000201010BD04DF0020F8E6002010B50C4668
:10533000FFF73EFF0C480D4A007800EB400102EBFE
:105340008101097900290ED0A2F1800101EB8010C2
:1053500021464484044C8034E06D01F0DFF9E06DB7
:10536000012180F8201010BD04DF0020F8E60020A5
:10537000F8B51546094A02EB8114094904F13802CF
:1053800000920968931E121F8E692946B047E08E6D
:1053900000EB40004000E086F8BD000078E6002009
:1053A000F4FF002038B51546094A062302EB8112A6
:1053B000B2F9361091FBF3F10BB2B2F9381000914B
:1053C0000449928E09684C692946A04738BD0000FF
:1053D00078E60020F4FF002070B50D4C0D4D002143
:1053E00020680268E86A9047C6B220680022114629
:1053F0008368E86A984720680721C268E86A90478E
:105400002068324600218368E86ABDE8704018478A
:10541000F4FF002004E0002070B50D4C0D4D00217C
:1054200020680268E86A9047C6B22068012200211D
:105430008368E86A984720680721C268E86A90474D
:105440002068324600218368E86ABDE8704018474A
:10545000F4FF002004E000202DE9F041164A054643
:1054600010461649007802F5807400EB400001EB0D
:1054700080015369124E134FE06A9D420BD193F89D
:1054800030504D70FFF77EFC56F820000021425D41
:105490003868C3690BE0926992F830508D70FFF75D
:1054A00071FC56F820000121425D3868C369206B09
:1054B000BDE8F0411847000004DF0020F8E60020B6
:1054C0005CB60708F4FF0020034808210068C268A2
:1054D0000248C06A10470000F4FF002004E00020EA
:1054E0002DE9F041164C174D002120680268E86A4A
:1054F0009047C6B22068002211468368E86A984740
:10550000114F2068A7F11008BA884368D8F8001036
:10551000E86A98472068012200218368E86A984772
:105520002068B7F84420D8F808104368E86A98471C
:105530002068324600218368E86ABDE8F0411847D8
:10554000F4FF002004E0002078E600202DE9F05F61
:105550005D4C5E4ADFF878B12078A2F1800500EB5F
:10556000400102EB810304F58076DB7805EB8010C7
:10557000002B7DD0012B7CD1B0F93E0003F0CBFD98
:10558000544A554B03F0F2FD0022544B03F03CFC0F
:1055900003F0AEFA07462078884605EB8019B9F982
:1055A0003C0003F0B8FD3A46434603F0DFFD03F04C
:1055B00083FD0FFA80FAB9F93E0003F0ACFD454ACD
:1055C000454B03F0D3FD0022444B03F01DFC03F0D8
:1055D000EFFA07462078884605EB8010B0F93C00CA
:1055E00003F099FD3A46434603F0C0FD03F064FD25
:1055F00001B2DBF800005246036AF06A984720784F
:1056000005EB8010B0F93E0003F085FD314A324BC6
:1056100003F0ACFD0022314B03F0F6FB03F0C8FAB7
:1056200006462078884605EB8017B7F93C0003F062
:1056300072FD3246434603F099FD03F03DFDB8820A
:10564000B7F93E0003F067FD224A234B03F08EFDBD
:105650000022224B03F0D8FB03F04AFA06462078DA
:105660000F4605EB8014B4F93C0003F054FD01E053
:1056700009E006E032463B4603F078FD03F01CFDEE
:105680002083BDE8F09F12F82110114A136841B140
:10569000B0F91820B0F914101B6AF06ABDE8F05F89
:1056A000184719695F46F06A88478006E9D520786F
:1056B000412105EB8010B0F9182038688368F06A42
:1056C000BDE8F05F1847000004DF0020F8E6002086
:1056D000F4FF00201F85EB51B81E09400080664092
:1056E0002DE9F05F534D544ADFF850A12878A2F11C
:1056F000800400EB400102EB810105F5807BC97855
:1057000004EB801000297CD001297BD1B0F93E0048
:1057100003F001FD4A4A4B4B03F028FD00224A4B9F
:1057200003F072FB03F0E4F9064628780F4604EB19
:105730008018B8F93C0003F0EEFC32463B4603F01B
:1057400015FD03F0B9FC0FFA80F9B8F93E0003F03B
:10575000E2FC3B4A3B4B03F009FD00223A4B03F0CD
:1057600053FB03F025FA064628780F4604EB801019
:10577000B0F93C0003F0CFFC32463B4603F0F6FCA8
:1057800003F09AFC01B2DAF800004A46036ADBF83B
:105790002C009847287804EB8010B0F93E0003F005
:1057A000BAFC274A274B03F0E1FC0022264B03F00A
:1057B0002BFB03F0FDF906462878884604EB80179A
:1057C000B7F93C0003F0A7FC3246434603F0CEFC99
:1057D00003F072FCB882B7F93E0003F09CFC184A53
:1057E000184B03F0C3FC0022174B03F00DFB03F032
:1057F0007FF9064628780F4604EB8014B4F93C0084
:1058000001E00BE008E003F086FC32463B4603F083
:10581000ADFC03F051FC2083BDE8F09FB0F91820E7
:10582000B0F91410DAF80000036ADBF82C00BDE8C8
:10583000F05F184704DF0020F8E60020F4FF0020A6
:105840001F85EB51B81E0940008066402DE9F84FD6
:105850003B4C3C4D002120680268E86A9047C0B28A
:1058600000902068002211468368E86A984736480D
:10587000A0F18006017821B1C07858B1012850D13B
:105880000FE03148B2889038016820684368E86AC0
:10589000984746E02068B6F91820B6F91410036A54
:1058A0003DE0B6F93E0003F036FCDFF8A0A0DFF8DB
:1058B000A0B052465B4603F059FC0022254B03F092
:1058C000A3FA03F015F907468846B6F93C0003F041
:1058D00022FC3A46434603F049FC03F0EDFB0FFA85
:1058E00080F9B6F93E0003F016FC52465B4603F021
:1058F0003DFC0022174B03F087FA03F059F90746E5
:105900008846B6F93C0003F006FC3A46434603F0ED
:105910002DFC03F0D1FB01B220684A46036AE86A15
:10592000984720680621C268E86A90472068009A74
:1059300000218368E86A01B0BDE8F04F1847000015
:10594000F4FF002004E00020F8E600201F85EB5162
:10595000B81E0940008066402DE9F84F3C4C3D4D93
:10596000002120680268E86A9047C0B20090206871
:10597000012200218368E86A98473748A0F1800631
:10598000017B21B1C07B60B1012852D110E03248C7
:10599000B6F844209038816820684368E86A9847E0
:1059A00047E02068B6F95820B6F95410036A3EE083
:1059B000B6F97E007C3603F0AEFBDFF8A0A0DFF87E
:1059C000A0B052465B4603F0D1FB0022254B03F00A
:1059D0001BFA03F08DF807468846B6F9000003F07D
:1059E0009AFB3A46434603F0C1FB03F065FB0FFA0E
:1059F00080F9B6F9020003F08EFB52465B4603F0D5
:105A0000B5FB0022174B03F0FFF903F0D1F807466E
:105A10008846B6F9000003F07EFB3A46434603F0A1
:105A2000A5FB03F049FB01B220684A46036AE86A15
:105A3000984720680621C268E86A90472068009A63
:105A400000218368E86A01B0BDE8F04F1847000004
:105A5000F4FF002004E00020F8E600201F85EB5151
:105A6000B81E0940008066402DE9F05F454C464A6B
:105A70002078A2F1800500EB400102EB810105EBEB
:105A80008010C97829B101294AD1B0F91410E9B3BD
:105A90004AE0A046B0F93E0003F03DFBDFF8EC9091
:105AA000DFF8ECA04A46534603F060FBDFF8E4B0B1
:105AB00000225B4603F0A8F903F07AF8044698F850
:105AC00000000F4605EB8016B6F93C0003F023FBFF
:105AD00022463B4603F04AFB03F0EEFAB082B6F9E9
