:020000040801F1
:10380000781B0020193A01085D521A00553A010848
:10381000253A0108273A0108293A0108000000006A
:103820000000000000000000000000002B3A01082A
:103830002D3A0108000000002F3A0108313A010832
:10384000333A0108333A0108333A0108333A0108A0
:10385000333A0108333A0108333A0108333A010890
:10386000333A0108333A0108333A0108333A010880
:10387000333A0108333A0108333A0108333A010870
:10388000333A0108333A0108333A010800000000D6
:10389000000000000000000000000000333A0108B2
:1038A000333A0108333A0108333A0108333A010840
:1038B000333A0108333A0108333A0108333A010830
:1038C000333A0108333A0108333A0108333A010820
:1038D000333A0108333A0108333A0108333A010810
:1038E000333A0108333A0108333A01080000000076
:1038F00000000000000000000000000000000000C8
:1039000000000000000000000000000000000000B7
:103910000000000000000000333A0108333A0108BB
:1039200000F002F800F068F80AA090E8000C824469
:103930008344AAF10107DA4501D100F05DF8AFF246
:10394000090EBAE80F0013F0010F18BFFB1A43F07D
:10395000010318477C7300009C730000103A24BFD9
:1039600078C878C1FAD8520724BF30C830C144BFE4
:1039700004680C6070470000002300240025002626
:10398000103A28BF78C1FBD8520728BF30C148BFC2
:103990000B607047692900F0FF80642900F0FC800B
:1039A000752900F0F9806F2900F09081782900F0E6
:1039B000B7810368DB0928BF41F08001632900F06B
:1039C000DA83E32900F0ED83002070471FB59DE8FE
:1039D000030000F043FC00F0F7FC0400002000218D
:1039E00004F01CFF401C606000F0D4FA1FBD10B54D
:1039F000002004F088FE10BD00F0C0FC1146FFF767
:103A0000E5FF04F006FF00F001FD03B4FFF7EFFF50
:103A100003BC00F0ADFC000009488047094800479E
:103A2000FEE7FEE7FEE7FEE7FEE7FEE7FEE7FEE76E
:103A3000FEE7FEE704480549054A044B70470000CD
:103A40006D5C010821390108B0140020781B0020AA
:103A5000741B002000B5FFB441464A4653465C46FD
:103A600065463EB40D496A460A600D4908600D4935
:103A700088473EBC884691469A46A346AC46FFBC62
:103A800000BD064801688D463EBC884691469A4670
:103A9000A346AC46FFBC044800BD0000F01F002058
:103AA000F41F0020293901080CA701080FB41CB528
:103AB000074B06AA7B4469460090059800F039FB45
:103AC0000020694600F048FB1CBC5DF814FB0000B8
:103AD000A106000070B5044685690068C10601D5DD
:103AE000302600E02026C00707D070BDD4E90121B0
:103AF00030469047206A401C20626D1EF6D570BD8E
:103B000070B5044685690078C00707D170BDD4E957
:103B1000012120209047206A401C20626D1EF6D5AE
:103B200070BD09684A0501D540B27047C905FCD58A
:103B300000B2704709684A0501D5C0B27047C9058F
:103B4000FCD580B2704770B50C460546012A05D0F9
:103B50002878800600D5EA69002302E0012305E009
:103B60005B1C934202D2E05C0028F9D1A869E618F8
:103B7000C01AA861286A184428622846FFF7AAFFDD
:103B800004E0D5E9012114F8010B9047B442F8D3C1
:103B90002846FFF7B5FF70BD2DE9F0410646002429
:103BA00010687529314616A510D0FFF7BAFF002816
:103BB00002DA404213A507E031688A0701D512A551
:103BC00002E0490704D511A5012401E0FFF7B2FF87
:103BD00000210A2206F1240709E0B0FBF2FCB0FB49
:103BE000F2F302FB1C00303078541846491C0028C0
:103BF000F3D123462A463046BDE8F04100F03ABAF8
:103C0000000000002D0000002B000000200000003C
:103C10002DE9FF5F15468A460446DFF8AC80F8447C
:103C20000027D8E900103E46CDE9001010E03AF830
:103C300016106A4602A800F0C0FA411C07D021788D
:103C4000890603D5E269391891420DD80744761CDC
:103C50002078800602D5E069B84205DDAE42E6DB99
:103C60003AF816000028E2D1A069C01BA0612046E6
:103C7000FFF730FFD8E90010CDE90010002017E071
:103C80003AF818106A4602A800F097FAB0F1FF3F20
:103C900081460BD000250DF1080B05E0D4E9012188
:103CA0001BF8050090476D1C4D45F7D308F1010046
:103CB000B0428046E4DB206A384420622046FFF7A9
:103CC0001FFFBDE8FF9F0000FA6A000070B50446C0
:103CD00021461068FFF72EFF002104F1240505E0BE
:103CE00000F007023032C0086A54491C0028F7D19E
:103CF0002068002308A2050708D500F0200008432B
:103D000004D0E069012305A2401EE0612046BDE821
:103D1000704000F0AFB9000000000000300000006B
:103D200070B504460D4621461068FFF703FF218851
:103D3000090502D50F4A7A4402E00E4A7A440E324F
:103D4000002104F1240305E000F00F060009965D50
:103D50005E54491C0028F7D120780023000704D5C1
:103D6000702D02D009B1022311322046BDE8704007
:103D700000F080B9EA6900002DE9F05F8946044649
:103D80004FF0000ADFF874B1FB44C0F820A02046D1
:103D9000E1688847002874D0252806D0D4E901219D
:103DA0009047206A401C2062F1E700265F462046CB
:103DB000E16888472028054607DB312D05D27819B0
:103DC00010F8200C08B10643F1E7B00701D526F042
:103DD0000406C4F81CA00027C4F818A02A2D09D096
:103DE000284604F003FD38B304EB8708303DC8F8DB
:103DF000185019E059F8041B204604EB8702916122
:103E0000E1688847012F054618D1E069002820DACB
:103E100026F020061DE0D8F8180000EB800005EB26
:103E200040003038C8F818002046E1688847054649
:103E300004F0DCFC0028EED1012F0AD02E2D08D191
:103E40002046E16888477F1C0546022F46F0200681
:103E5000C4DBA069002803DA404246F00106A061F5
:103E6000F00701D026F010066C2D0BD0682D09D07C
:103E70004C2D39D06A2D35D0742D35D07A2D33D0D4
:103E800016E038E0E1682F4620468847B8420546EC
:103E900009D16C2F26D04FF48060E168064320469C
:103EA0008847054604E06C2F1AD04FF48070064313
:103EB0000DB3A5F14100192802D8203546F400665B
:103EC0004A462946204626604E46FFF763FD80B1EC
:103ED00001280BD0F61D26F0070000F1080956E76F
:103EE0004020E4E78020D8E70020D6E706F1040967
:103EF0004DE7284652E7206ABDE8F09FC069000000
:103F000010B5431C02E010F8011B71B18107FAD112
:103F10004FF0013202C88C1A8C4314EAC211F9D056
:103F2000C01A0A0603D0C01E10BDC01A10BD0A0474
:103F300001D0801E10BD0902FCD0401E10BD4FF004
:103F4000000200B5134694469646203922BFA0E8E9
:103F50000C50A0E80C50B1F12001BFF4F7AF0907F5
:103F600028BFA0E80C5048BF0CC05DF804EB8900E6
:103F700028BF40F8042B08BF704748BF20F8022B29
:103F800011F0804F18BF00F8012B70477047704741
:103F90007047000070B5064C7C44064D7D4403E03C
:103FA000206820448047241DAC42F9D170BD000038
:103FB000646E0000646E00000048704780140020AA
:103FC000004870478414002070B5064600F02AF9B6
:103FD000056806F10B0020F00704B4429CBF0020E6
:103FE00070BD2B466A68BAB11068A04210D304F1C4
:103FF000080188423CBF5068586007D351681019C7
:1040000041601168091B016058601460101D70BD8B
:1040100013465268002AE7D12146284600F00AF9E3
:104020000028DED170BD70B50446051F00F0FAF817
:104030000068002C14BF446870BD002C18BFAC424F
:104040003CBF20466468F8D301680A18AA4218BF2A
:10405000456003D12A68054611440160286841196A
:10406000A1421CBF6C6070BD616869602168084432
:10407000286070BD2DE9F0470D46994692460446EA
:1040800000F124080168880604D5E06921F01001D8
:10409000216000E00120A84201DD471B00E000276D
:1040A000A1697A1902EB0900081AA0612078C006FC
:1040B00002D42046FFF70EFD002608E0D4E90121D6
:1040C0001AF806009047206A401C761C20624E4574
:1040D000F4DB2078C0060AD52046FFF7FBFC06E09B
:1040E000D4E9012130209047206A401C2062381E0C
:1040F000A7F10107F4DC07E0D4E9012118F8050075
:104100009047206A401C2062281EA5F10105F3DCBF
:104110002046FFF7F5FC2078000602D50220BDE816
:10412000F0870120FBE7000001694A1C0261087862
:10413000704700B58FB0CDE90131002105910549E7
:104140007944CDE9031011466846FFF715FE0FB01C
:1041500000BD0000E5FFFFFF0A6802F8010B0A60DE
:10416000704710B5436913B1AFF3008001E0FFF76A
:10417000EAFC012010BD127800F124010A7000222F
:104180004A700122EDE711684FF0FF32E9E710B500
:10419000436913B1AFF3008001E0FFF739FD01205F
:1041A00010BD128800F1240182840022C284012201
:1041B000EDE711684FF0FF32E9E770B516460C469F
:1041C000054600F027F8036893F80101012806D09E
:1041D000FF2C0FD8185D68B101202C7070BDD3F88A
:1041E00007013246214603F2071303442846BDE87F
:1041F000704018474FF0FF3070BD10B500F06AF8FE
:10420000BDE8104000F060B800F07CB8004870478E
:104210004C14002010B500F0D7F8001D10BD00BFF1
:10422000FD45000000487047541400207047704757
:104230007047704738B504460A4600206946AFF318
:104240000080002808BF38BD02460099204600F0D3
:10425000C3F8012038BD012000F0FFB8F8B5AFF376
:104260000080054600200C46102000BF0646A81915
:10427000A0420DD9324669460020AFF30080070006
:1042800008BF00F0EAF80098A04218BF0546C4191C
:10429000FFF7C8FF05600746F01D20F0070046192C
:1042A000284600F00AF8B44208BFF8BDA21B314608
:1042B0003868BDE8F84000F08FB800210160C0E91F
:1042C0000110704710207047002801D000F050B84E
:1042D0007047000010B5002102A000F0A5F80120F1
:1042E00010BD00005349475056464E3A2050757253
:1042F00065207669727475616C20666E2063616CEE
:104300006C65640010B500F00EF8016919B1002267
:104310000261884701E08068804700F07DF8000076
:1043200010B500F079F870B500F052F80468054651
:10433000A4B92020FFF748FE040011D0094900204D
:104340002C60C4E900010849A1602073206160610C
:104350000649A06109B100F087F8E061204670BD10
:1043600000F05AF80000000021430108000000009E
:1043700001491820ABBEFEE7260002007546FFF794
:1043800045FFAE4605006946534620F007008546C6
:1043900018B020B5FFF74EFBBDE820404FF00006F7
:1043A0004FF000074FF000084FF0000B21F007011D
:1043B000AC46ACE8C009ACE8C009ACE8C009ACE860
:1043C000C0098D4670470000004870476C140020FB
:1043D0000048704788140020034640688C46002837
:1043E00018BF88423CBF03464068F8D31868184499
:1043F000884207D00CF1030020F00700001D411A8D
:10440000521A0146081D0A60FFF70DBE0446AFF3BD
:1044100000802046FFF7F9FA002000F04BF8FFF784
:10442000E6FA0120FFF7A4FF70B505460C460A2006
:1044300000E06D1C00F036F835B128780028F8D17E
:1044400002E0641C00F02EF814B120780028F8D1A6
:10445000BDE870400A2000F025B810B500F032F831
:10446000BDE81040FFF730BF10B58820FFF7ACFD66
:10447000002801D00021017010BD802902D808B1A8
:10448000017809B100207047012100F8081B70472E
:1044900018B100F10802914201D0002070470021BC
:1044A0000170704708B569468DF800000320ABBE67
:1044B00008BD704710B500F06DF8BDE81040FFF77B
:1044C00003BF000010B5012805D0002103A0FFF7AD
:1044D000ABFF012010BD09A1F8E700005349475286
:1044E000544D454D3A204F7574206F6620686561C4
:1044F00070206D656D6F7279000000003A2048658C
:104500006170206D656D6F727920636F7272757066
:10451000746564004FF0013C50F8042B51F8043BE3
:104520009A4221D1A2EB0C03934313EACC1317D187
:1045300050F8042B51F8043B9A4215D1A2EB0C031E
:10454000934313EACC130BD150F8042B51F8043BDE
:104550009A4209D1A2EB0C03934313EACC13DBD0AC
:104560004FF00000704700BFD01A01BAB1FA81F1D4
:1045700001F0180122FA01F0CB40C1F12001DBB2B9
:10458000C0B2C01A2CFA01F3D11A914311EAC31137
:10459000E6D1704710B5002102A0FFF745FF0120CA
:1045A00010BD0000534947414252543A2041626EC7
:1045B0006F726D616C207465726D696E6174696F84
:1045C0006E00000030B51A498379026853B30B6856
:1045D00093430B600A1D13680468A34313600279B8
:1045E0000A441368046823431360114A08321368AD
:1045F0000468A3431360131D1C680568AC431C606A
:104600004479102C05D021440A68006802430A60EE
:1046100030BD1168046821431160196800680143C6
:10462000196030BD0079084401689143016030BDD4
:104630000004014010B58A0721F003040649130F56
:1046400021440F228C689A4094438C608A68984079
:1046500002438A6010BD000000000140F0B5CA7836
:10466000002502F00F03D20601D58A7813430A7899
:104670004FF00F0E12F0FF0F4FF001021CD0046834
:104680000F8802FA05F63740B74211D14FEA850C80
:104690000EFA0CF724EA070703FA0CF43C43CF7830
:1046A000282F02D0482F02D002E0466100E00661C8
:1046B0006D1C082DE4D304600C88FF2C1ED94468BF
:1046C0005FF0000606F1080702FA07F50F882F4091
:1046D000AF420FD14FEA860C0EFA0CF7BC4303FA37
:1046E0000CF73C43CF78282F00D14561CF78482F75
:1046F00000D10561761C082EE4D34460F0BD02466B
:10470000002092680A4200D0012070470AB101617E
:1047100070474161704700002DE9F0473D4D3E4E26
:104720008146C5E91D01306814460169484688473D
:1047300021463A4803F00AF9204602F099FA011995
:10474000364803F04AF93649344803F0B3F934499E
:104750003248A83103F0AEF93249304803F0AAF9E3
:1047600000242C70306803210268686F90472D4F39
:10477000C0B20121E83701281FD02A483970002231
:1047800080F8212042747C70B970A86F38B331680A
:10479000A8460A681C219047C5B230681D210268EE
:1047A000D8F878009047C6B2D8F8740002F0C4F880
:1047B0001D4A002152F820000EE01A483C700122E8
:1047C00080F82120DFE7AA4200D17970425CB24232
:1047D00000D1B970491CC9B2425CFF2AF3D1FC7008
:1047E0003C717C71BC71FC713C727C72BC72FC725D
:1047F000484600F03FF809490C48C1F80C01002177
:10480000064803F0C5F8BDE8F0470021022001F09A
:104810009BB9000000100020F41F0020F8100020B9
:104820000812002058130020988801087D6A0108AA
:1048300010B50E4C204603F0EFF804F5827003F03B
:10484000BFFE022001F074F9094C6188084305D0CD
:10485000002902D06088401E608010BD00210846FB
:1048600002F056F904206080F4E70000F810002000
:1048700000100020002102F017B900002DE9F05FC0
:10488000944D0527DFF85092944EDFF8548283460A
:10489000002405F16D0A3068295D02681AF80110DC
:1048A0005846904798F8002009EB82112A5D641C55
:1048B000E4B221F81200BC42EDD33746854E012503
:1048C0000024DFF81CA2F61E06F101090AF17C0A99
:1048D0003868315D026819F801105846904798F819
:1048E00000200AEBC201325D641CE4B241F82200F0
:1048F000AC42EDD33868012102685846904784B233
:10490000050C54EA050008D07648B0F800010128EB
:1049100003D00121734803F03BF8D8F8300001269A
:1049200058B304B1ADB1704802F05AFED8F8301057
:10493000884202D16C4802F0B8FED8F830004CF240
:104940001861428B8A4218D04183002102F097FD02
:104950000FE000214183012102F091FD624802F045
:104960003FFED8F83010884203D000215E4802F0A4
:1049700043FED8F8300080F8206098F8000000214D
:1049800000EB40025448403000EB82006306417166
:104990004FF0020200D542716B0600D5467181715D
:1049A000E30600D58271EB0600D58671C171A306BE
:1049B00000D5C271AB0600D5C6710172E30700D005
:1049C0000272EB0700D00672230600D502722B0696
:1049D00000D506724172630700D542726B0700D59D
:1049E00046728172A30700D58272AB0700D586722A
:1049F000C172210700D5C272290700D5C672D8F846
:104A00003010E9B33349D8F814204379491D548B49
:104A100031F813309C4202D0538382F82060D8F8DA
:104A2000183082795C8B31F81220944202D05A837C
:104A300083F82060D8F81C20C379548B31F81330E8
:104A40009C4202D0538382F82060D8F82020037A59
:104A5000548B31F813309C4202D0538382F820608B
:104A6000D8F82420437A548B31F813309C4202D07A
:104A7000538382F82060D8F82830827A5C8B00E07B
:104A800011E031F81220944202D05A8383F820605A
:104A9000D8F82C20C07A538B31F81000834202D012
:104AA000508382F82060D8F80C0008B180F82060AC
:104AB000D8F8100008B180F82060D8F8680008B174
:104AC00080F82060D8F85000002801D080F82060DD
:104AD000BDE8F09F4B88010800140020F41F00205F
:104AE00000100020F8100020B01200202DE9F0473F
:104AF0008146002540F23F11284600F067FA124C2B
:104B0000606849F2203645F20847B04202D060683A
:104B1000B84201D100F06EFE4FF49638484600F0DE
:104B200005FE6D1C4545F9D36068B04202D060684F
:104B3000B84206D1BDE8F04701220421034800F045
:104B400039B8BDE8F087000084100020000C014057
:104B500038B50121282000F03DFF0420ADF8000009
:104B600003208DF8020010208DF8030069460F48DD
:104B7000FFF774FD80200E4DADF800006946284611
:104B8000FFF76CFD4FF40044ADF80040694628463D
:104B9000FFF764FD01222146284600F00BF80122B0
:104BA0008021284600F006F838BD0000000C0140C6
:104BB00000140140FFF7AABD064B30B49B68203AB1
:104BC000D2B21C68DB88534304EB430230BC00F0D4
:104BD00003B80000841000202DE9F74F924600270B
:104BE0000646019900F0F2F949F22039DFF8908089
:104BF0003EE06168494504D06168A1F5A8400838E5
:104C000001D100F0F7FD00254FF00C0B18E000BFBC
:104C1000B0FBFBF1CA00802191403AF817202941EE
:104C2000114201D10C2805D90121A9400A4203D122
:104C30000C2801D9608800E0208800F077FD6D1C09
:104C4000A0688088A842E3D86168494504D06168BB
:104C5000A1F5A840083804D1012204210948FFF732
:104C6000A9FF761CF6B23046019900F0AFF97F1C1F
:104C7000D8F808004446C088B842BAD8BDE8FE8FCC
:104C800084100020000C01402DE9F74F82B000266F
:104C900004469246ADF80060ADF8046001A968468C
:104CA00000F0A4F8A0462046039900F08FF949F2DD
:104CB000203945F2084B1D4D31E06968494502D065
:104CC0006968594501D100F095FD00240127B740DE
:104CD0000DE000BF3AF81400384202D1BDF80400DC
:104CE00001E0BDF8000000F021FD641CE4B2A868FA
:104CF0008088A042EED86968494502D06968594564
:104D000004D1012204210A48FFF754FF08F10100F1
:104D1000C0B28046039900F059F9761CF6B2A86833
:104D2000C088B042C9D805B0BDE8F08F841000201B
:104D3000000C01402DE9F05F994616468B4605466A
:104D4000002400F043F9DFF89C8049F2203045F25E
:104D50000847B9F1000F03D0814648F2123A3DE00E
:104D6000D8F804100546A94203D0D8F80400B84288
:104D700007D100F03FFD04E0B8F8000000F0D6FCD9
:104D8000641CB442F8D3D8F80410A94203D0D8F870
:104D90000400B84224D1BDE8F05F0122042112488A
:104DA000FFF708BFD8F80410494503D0D8F804101D
:104DB000B94204D1B8F8000000F00CFD07E0D8F8C3
:104DC0000410514503D1B8F8000000F0AFFC6D1C91
:104DD000EDB25946284600F0F9F8641CB442E1D31C
:104DE000BDE8F09F84100020000C0140024A1388A7
:104DF0000380508808807047841000200148806834
:104E000070470000841000200120704770B52D4CC1
:104E10000025218821F038012180218841F00801F6
:104E2000218000F04FFD732000F072FDFF2120462D
:104E300000F025FE8021204600F018FE0028F9D160
:104E40000121204600F012FE0028F9D0204600F093
:104E500014FE6D1CEDB2052DE8D3FF21204600F0B5
:104E60000EFE8021204600F001FE0028F9D101212C
:104E7000204600F0FBFD0028F9D0204600F0FDFDA3
:104E80000546FF21204600F0FAFD8021204600F073
:104E9000EDFD0028F9D10121204600F0E7FD0028B2
:104EA000F9D0204600F0E9FDE9B240EA01250122EF
:104EB00004210548FFF77EFE208820F0380020807E
:104EC000284670BD00380040000C014030B587B066
:104ED0000121082000F07EFD01218C03204600F016
:104EE00061FD6010ADF8140003208DF81600182045
:104EF000294D8DF8170005A92846FFF7AFFBADF83F
:104F0000144005A92846FFF7A9FB6000ADF814007E
:104F100005A92846FFF7A2FB204C204600F07CFDA7
:104F200000211F4AADF800104FF48270ADF8020066
:104F30005068A0F51343203B0AD05068A0F5A84361
:104F4000083B05D05068A0F50342123A09D010E0A2
:104F5000ADF804100220ADF806000120ADF80800FD
:104F600007E04FF40060ADF80400ADF80610ADF8AE
:104F700008104FF40070ADF80C10ADF80A00ADF851
:104F80000E106946204600F07CFD0121204600F00D
:104F900039FD07B030BD0000000C01400038004072
:104FA0008410002001B5BDF800000149488008BD0B
:104FB0008410002003B5BDF8001003480180BDF83F
:104FC000041041800CBD00008410002010B50C4678
:104FD00013494A68A2F51343203B18D04A68A2F54A
:104FE000A843083B13D04968A1F50342123A15D1F2
:104FF0000146422000F008FCC4F30021432000F0E9
:1050000003FCE1B24420BDE8104000F0FDBB0146C6
:10501000202000F0F9FB21462120F4E710BD00001C
:10502000841000200149886070470000841000202F
:1050300001B5BDF800000149088008BD84100020BA
:105040002DE9F05FFFF784FDFFF740FFFE48416860
:105050004FF48075A1F513424FF4E06641F230073A
:1050600040F2022840F2023940F23F144FF4887AAD
:1050700041F2180B203A7DD04168A1F5A842083AC8
:1050800079D04068A0F50341123975D11021012073
:1050900000F0BAFBA021002000F0B6FB01210320A4
:1050A00000F0B2FB012003F0A8FB0021032000F078
:1050B000ABFB04212B2000F0A7FB1821282000F0D7
:1050C000A3FB05211A2000F09FFB0521252000F0FD
:1050D0009BFB0021192000F097FB73211C2000F09E
:1050E00093FB7421242000F08FFB01211E2000F08F
:1050F0008BFBC121182000F087FB012003F07DFB12
:10510000E121182000F080FBF121182000F07CFB49
:10511000062003F072FBF521182000F075FB062035
:1051200003F06BFB09211B2000F06EFB012003F054
:1051300064FB11211F2000F067FB0E21202000F0EE
:1051400063FB81211E2000F05FFB012003F055FB73
:1051500000219D2000F058FB0021C02000F054FBEE
:1051600000210E2000F050FB00210F2000F04CFB2E
:10517000002102E0E9E0DEE1D5E2102000F044FB8E
:105180000021112000F040FB0021122000F03CFB28
:105190000021132000F038FB0021142000F034FB24
:1051A0000021152000F030FB0021162000F02CFB20
:1051B0000021172000F028FB0121342000F024FBFF
:1051C0000021352000F020FB00214B2000F01CFBCB
:1051D00000214C2000F018FB00214E2000F014FBB1
:1051E00000214F2000F010FB0021502000F00CFBAC
:1051F00000213C2000F008FB00213D2000F004FBD2
:1052000001213E2000F000FB3F21084600F0FCFA9F
:105210000221402000F0F8FA0221412000F0F4FAC7
:105220000021422000F0F0FA0021432000F0ECFAC7
:105230000021442000F0E8FA0021452000F0E4FAC3
:10524000EF21462000F0E0FA0021472000F0DCFAD0
:105250000021482000F0D8FA0121492000F0D4FABA
:105260003F214A2000F0D0FA08211D2000F0CCFA9E
:105270000021862000F0C8FA3021872000F0C4FA0F
:105280000221882000F0C0FA0521892000F0BCFA34
:1052900001218D2000F0B8FA20218B2000F0B4FA13
:1052A0000121332000F0B0FA0121372000F0ACFAE0
:1052B0000021762000F0A8FA10218F2000F0A4FA37
:1052C0006721902000F0A0FA0721912000F09CFABD
:1052D0006521922000F098FA0721932000F094FABB
:1052E0000121942000F090FA7621952000F08CFAAC
:1052F0005621962000F088FA0021972000F084FAC9
:105300000621982000F080FA0321992000F07CFA11
:1053100000219A2000F078FA5021012000F074FA60
:105320000421052000F070FA8021002000F06CFAC2
:1053300001213B2000F068FA042003F05EFA2021EE
:105340000020BDE8F05F00F05FBA052003F055FAD9
:105350004FF40041E52000F057FA0121002000F051
:1053600053FA2946012000F04FFA3146022000F09E
:105370004BFA3946032000F047FA0021042000F0E0
:1053800043FA4146082000F03FFA0021092000F0CE
:105390003BFA00210A2000F037FA00210C2000F02F
:1053A00033FA00210D2000F02FFA00210F2000F029
:1053B0002BFA0021102000F027FA0021112000F024
:1053C00023FA0021122000F01FFA0021132000F020
:1053D0001BFA142003F011FA41F2B071102000F012
:1053E00013FA40F23711112000F00EFA052003F0F5
:1053F00004FA40F23911122000F006FA052003F0F9
:10540000FCF94FF4E851132000F0FEF91321292094
:1054100000F0FAF9052003F0F0F90021202000F057
:10542000F3F90021212000F0EFF90621302000F0EF
:10543000EBF940F20111312000F0E6F903213220AE
:1054400000F0E2F902E00000841000204FF48371C4
:10545000352000F0D9F940F60231362000F0D4F9B9
:105460004946372000F0D0F940F20771382000F0AB
:10547000CBF90721392000F0C7F94FF4C0613C2077
:1054800000F0C2F940F20B213D2000F0BDF90021EF
:10549000502000F0B9F9EF21512000F0B5F90021BA
:1054A000522000F0B1F92146532000F0ADF94FF43D
:1054B0001C51602000F0A8F90121612000F0A4F93E
:1054C00000216A2000F0A0F90021802000F09CF962
:1054D0000021812000F098F90021822000F094F949
:1054E0000021832000F090F90021842000F08CF945
:1054F0000021852000F088F91021902000F084F927
:105500000021922000F080F90321932000F07CF923
:105510005146952000F078F90021972000F074F9A9
:105520000021982000F070F95946032000F06CF932
:1055300040F27311F5E043F20801E32000F064F952
:105540001221E72000F060F941F23121EF2000F054
:105550005BF92946012000F057F93146022000F09E
:1055600053F93946032000F04FF90021042000F0E0
:105570004BF94146082000F047F90021092000F0CE
:1055800043F900210A2000F03FF900210C2000F02F
:105590003BF900210D2000F037F900210F2000F029
:1055A00033F90021102000F02FF90021112000F024
:1055B0002BF90021122000F027F90021132000F020
:1055C00023F9142003F019F90721112000F01CF928
:1055D000052003F012F941F2B021102000F014F977
:1055E000052003F00AF940F2BD11122000F00CF979
:1055F000052003F002F94FF4A051132000F004F944
:105600000E21292000F000F9052003F0F6F8002112
:10561000202000F0F9F82146212000F0F5F80721BC
:10562000302000F0F1F84946312000F0EDF840F26A
:1056300005152946322000F0E7F840F206263146EB
:10564000352000F0E1F840F608073946362000F032
:10565000DBF83146372000F0D7F840F2045138200B
:1056600000F0D2F80721392000F0CEF829463C207E
:1056700000F0CAF839463D2000F0C6F8002150205D
:1056800000F0C2F8EF21512000F0BEF800215220B6
:1056900000F0BAF82146532000F0B6F84FF4274145
:1056A000602000F0B1F80121612000F0ADF8002188
:1056B0006A2000F0A9F80021802000F0A5F8002160
:1056C000812000F0A1F80021822000F09DF8002147
:1056D000832000F099F80021842000F095F8002143
:1056E000852000F091F81021902000F08DF8002125
:1056F000922000F089F80321932000F085F85146AC
:10570000952000F081F80021972000F07DF800211D
:10571000982000F079F85946032000F075F84FF40E
:10572000897107200DE6BDE8F09F000070B5254E99
:1057300005467068244CA0F51341203904D07068E8
:10574000A0F5A841083913D1290A204600F097F99D
:105750008021204600F08AF90028F9D1E9B22046DC
:1057600000F08DF98021204600F080F90028F9D161
:105770007068A0F50341123922D1144E00224FF473
:1057800000413046FFF716FA012280213046FFF72C
:1057900011FA0F4E002204213046FFF70BFA29467A
:1057A000204600F06CF98021204600F05FF90028C7
:1057B000F9D13046BDE8704001220421FFF7FAB963
:1057C00070BD00008410002000380040001401402B
:1057D000000C014010B5044600F00CF82046FFF71D
:1057E000A5FF0122BDE8104004210148FFF7E2B9FE
:1057F000000C014010B5222000F064F8BDE8104014
:10580000722000F085B800002DE9F041294A536864
:10581000294E2A4CA3F51345203D2ED05368A3F5FD
:10582000A845083D29D05268A2F50343123B3FD159
:10583000DFF88C800546CFB20022E1134046FFF727
:10584000B9F9002280214046FFF7B4F90022042173
:105850003046FFF7AFF947EA0521204600F00FF97F
:105860008021204600F002F90028F9D13046BDE839
:10587000F04101220421FFF79DB90D4600F022F806
:10588000722000F045F8290A204600F0F8F880213F
:10589000204600F0EBF80028F9D1E9B2204600F0EC
:1058A000EEF88021204600F0E1F80028F9D1DDE78C
:1058B000BDE8F08184100020000C01400038004059
:1058C0000014014070B50546702000F021F80E4C20
:1058D0000021204600F0D3F88021204600F0C6F8D1
:1058E0000028F9D12946204600F0C9F88021204639
:1058F00000F0BCF80028F9D1BDE870400122042175
:105900000248FFF757B9000000380040000C014082
:1059100010B50446002204210748FFF74BF9214641
:10592000064C204600F0ABF88021204600F09EF89F
:105930000028F9D110BD0000000C014000380040E3
:1059400070B50F23C47801780122F4B1144C246897
:10595000457804F4E064C4F5E064240AC4F1040664
:10596000E3408478B5401C402C4301F1E021230141
:1059700081F80034007800F01F018A40400980005F
:1059800000F1E020C0F8002170BD01F01F0082404E
:105990004809800000F1E020C0F8802170BD0000BF
:1059A0000CED00E0044A0029D16901D0014300E078
:1059B0008143D1617047000000100240044A002971
:1059C000116901D0014300E081431161704700007B
:1059D00000100240044A0029916901D0014300E00F
:1059E000814391617047000000100240044A002981
:1059F000D16801D0014300E08143D16070470000CD
:105A0000001002400029018802D041F0400101E06D
:105A100021F0400101807047114910B588420AD138
:105A2000841401212046FFF7E1FF2046BDE8104025
:105A30000021FFF7DBBF0B49884202D1012104148A
:105A400004E0094988420AD10121C4132046FFF726
:105A5000B5FF2046BDE810400021FFF7AFBF10BDE5
:105A60000030014000380040003C00400246002069
:105A700012890A4200D001207047808970478181D5
:105A8000704730B502884C8802F441530A88CD88AB
:105A900022438C882C4322430C8922434C89224385
:105AA0008C892243CC8922431A430280828B22F4C0
:105AB00000628283098A018230BD000070B5FFF761
:105AC000BFFA0020FFF7A2F949F220310B4C8842BF
:105AD00001D161600EE045F208456560FFF7B0FA5C
:105AE0000020FFF793F9A84204D048F2123060601A
:105AF000FFF7A6FA01480C30A06070BD84100020AA
:105B000010B50021072000F01FF80021052000F04B
:105B10001BF80021062000F017F80021032000F0F8
:105B200013F80021BDE81040042000F00DB800007B
:105B30000349044A31F8101052F82000FEF7DFBD87
:105B4000849D0108C01000207FB5044623480D46FF
:105B5000012150F8240040F00100FFF73BFF042032
:105B60008DF80F001D4803A9103830F81400ADF867
:105B70000C001B4850F82400FEF770FD012D2CD1BD
:105B80001648403010F81410103810F81400FEF7C2
:105B900051FD1248203030F81400009000208DF89C
:105BA00004000CB10C2000E008208DF80500012550
:105BB0008DF806506846FEF705FD0848503010F88D
:105BC00014008DF808000F208DF809008DF80A00E8
:105BD0008DF80B5002A8FFF7B3FE7FBD949D01081E
:105BE000C01000200CB500211F48019100910268EF
:105BF00042F4803202604FF4A063026802F4003283
:105C00000092019A521C0192009A12B9019A9A428A
:105C1000F3D10268920324D50121009141684160CB
:105C20004168416041684160416821F47C114160F4
:105C3000416841F498114160016841F08071016050
:105C400001688901FCD5416821F003014160416888
:105C500041F0020141604168C1F381010229FAD19A
:105C60000CBD00910CBD000000100240104810B5A2
:105C7000016841F00101016041680E4A1140416034
:105C800001680D4A11400160016821F48021016022
:105C9000416821F4FE0141604FF41F018160002141
:105CA000C162FFF79FFF05494FF00060086010BD1B
:105CB000001002400000FFF8FFFFF6FE08ED00E0D4
:105CC0002DE9F84F282002F0F1FC03210091052373
:105CD000324A33A102F0B2FC8246282002F0E6FCF0
:105CE0001E21009105232D4A30A102F0A7FC814618
:105CF000282002F0DBFC3C2100910523274A35A136
:105D000002F09CFC8046282002F0D0FC4B21009140
:105D10000523224A38A102F091FC0746282002F010
:105D2000C5FC5A21009105231C4A3CA102F086FCC7
:105D30000646282002F0BAFCB42100910523174A38
:105D40003FA102F07BFC0546282002F0AFFC732146
:105D500000910523114A424902F070FC0446514665
:105D60000E4801F00EFC49460C4801F00AFC414681
:105D70000A4801F006FC3946084801F002FC3146A9
:105D8000064801F0FEFB2946044801F0FAFB2146D3
:105D9000BDE8F84F014801F0F4BB000008120020F4
:105DA00048656C7020506167650000005573652080
:105DB000746865206A6F79737469636B20746F20EF
:105DC000776F726B2077697468204C434420475585
:105DD000490000002D55502F444F574E20746F201E
:105DE0006D6F7665206265747765656E20636F6E92
:105DF00074726F6C730000002D4C4546542F52494D
:105E000047544820746F206D6F7665206265747703
:105E100065656E2070616765730000002D53454C09
:105E200020746F20696E7465726163742077697481
:105E3000682074686520636F6E74726F6C00000078
:105E4000436F707972696768742053544D69637247
:105E50006F656C656374726F6E6963730000000038
:105E6000568801082DE9F04FF94887B0002180F8E5
:105E700021104174282002F019FC0021F44A0B463D
:105E80000091A832F3A102F0D9FB0646282002F0C7
:105E90000DFCEF4F3522A8374FF00A0B0097CDE9E4
:105EA00001B23C239B22F1A102F026FB05462820EB
:105EB00002F0FCFB112100910F232A46F0A102F011
:105EC000BDFB0490282002F0F1FB252100910F2357
:105ED0002A46EEA102F0B2FB0590382002F0E6FB64
:105EE0004FF06E0AEC4CCDE9005A4FF00F08CDF898
:105EF0000880227807F5A87909EB82110323E7A22D
:105F000001F0A4F9E060382002F0D0FB23210095D5
:105F1000CDE901A12278032309EB8211DFA2891CBC
:105F200001F094F92061282002F0C0FB1421CD2259
:105F30000097CDE90121AA236422D9A102F0DCFA5D
:105F40000390282002F0B2FB0523CDF80080D6A1F3
:105F5000039A02F073FB6061282002F0A7FB212165
:105F600000910523D3A1039A02F068FBA0612820C9
:105F700002F09CFB332100910523D1A1039A02F08A
:105F80005DFBE061282002F091FB45210091052393
:105F9000CEA1039A02F052FB2062282002F086FB79
:105FA000572100910523CCA1039A02F047FB6062C0
:105FB000282002F07BFB692100910523C9A1039AE7
:105FC00002F03CFBA062282002F070FB7B210091D4
:105FD0000523C7A1039A02F031FBE062302002F0F2
:105FE00065FB8D2100910A23C4A1039A00F040FFB4
:105FF000C549206341624CF218614183002101F0E0
:106000003EFA3846216B01F0BCFA3146384601F0C1
:10601000B8FADFF8F8A2DAF800000169606F884783
:10602000C00607F5C87977D5282002F03FFB732218
:106030000097CDE901B23C23BE22B5A102F05CFA83
:106040000646282002F032FB11210091052332463A
:10605000B3A102F0F3FA8046282002F027FB2521A5
:10606000009105233246AFA102F0E8FA0746382036
:1060700002F01CFB0190606F00F05EFCDFF8A8B23C
:10608000212332465BF820100F200090019802F087
:10609000E7F96060382002F009FB0190606F00F0C2
:1060A0004BFC5BF8201023200090212332460198FE
:1060B00002F0D6F9A0603146A9F5C87001F061FA86
:1060C0004146A9F5C87001F05CFA3946A9F5C870D7
:1060D00001F057FAA9F5C870616801F052FAA9F504
:1060E000C870A16801F04DFA20784E4600EB4000E0
:1060F00009EB80004178606802F077F8207800EBC7
:10610000400006EB80008178A06802F06EF86168BC
:1061100086484862A16848624D482946A83001F087
:1061200030FA4B480499A83001F02BFA48480599F9
:10613000A83001F026FA4648E168A83001F021FABB
:1061400043482169A83001F01CFA0021E06801F001
:1061500096F90021206901F092F9DAF8000001694E
:10616000606F88470221B1EB107F03D0C0F303605A
:10617000022813D1302002F099FAB221344A00915A
:106180000A23A8326AA100F073FE0146E065304898
:10619000A83001F0F6F9E16D6A4848622C4803998D
:1061A000A83001F0EEF92A486169A83001F0E9F958
:1061B0002748A169A83001F0E4F92548E169A83031
:1061C00001F0DFF92248216AA83001F0DAF920480D
:1061D000616AA83001F0D5F91D48A16AA83001F024
:1061E000D0F91B48E16AA83001F0CBF92078626948
:1061F00000EB400109EB81014B484B79283830F81E
:10620000133053838B79A26930F813305383CB79E1
:10621000E26930F8133053830B7A226A30F8133076
:1062200053834B7A626A30F8133053838B7AA26AB5
:1062300030F813305383C97AE26A30F81100508382
:1062400007B00348BDE8F04FA83001F02EBA0000B7
:1062500008120020436F6E66696775726174696F1A
:106260006E20616E6420646562756700506F7765AB
:106270007220626F617264207374617475730000C0
:1062800044432042757320766F6C740048656174D6
:1062900073696E6B20542E000010002025336400BB
:1062A0004661756C747300004F7665726375727227
:1062B000656E74005265767570206661696C0000C9
:1062C0005370656564206664626B000053572065F7
:1062D00072726F7200000000556E64657220766FF6
:1062E0006C7400004F76657220766F6C740000004D
:1062F0004F7665722074656D700000004661756CA4
:10630000742061636B000000656A0108F41F0020BF
:106310004441432053657474696E67730000000044
:10632000436831004368320078880108C16B010876
:10633000456E636F64657220616C69676E6D656E32
:10634000740000002D6C01082DE9F04F87B0282063
:1063500002F0ACF900210B460091FE4AFEA102F0CA
:106360006DF90390282002F0A1F90A22F94BCDE93A
:1063700000324FF01408CDF808805A239122FBA177
:1063800002F0BAF80746282002F090F91E21009189
:106390003C233A46F8A102F051F90490282002F07B
:1063A00085F9412100913C233A46F4A102F046F9D7
:1063B0008346282002F07AF90F21009105233A46FE
:1063C000EFA102F03BF98246402002F06FF91E2156
:1063D00005220097CDE90121ED490623A1F17C04B6
:1063E000227801EBC201EBA201F08EFA0546606350
:1063F000E948402100680268606F90470646E64819
:106400003F2100680268606F9047C5E90E60282050
:1064100002F04CF93221009105233A46DFA102F047
:106420000DF98146382002F041F9412105220097FB
:10643000CDE90121C74D2178A83505EB811106234F
:10644000D4A2091D00F002FF47F6FF720021A063ED
:1064500000F0CDFE302002F029F9412100915A23AD
:106460003A46D2A100F004FDD249E063416200F057
:10647000FDF9282002F01AF9B64973230A228DE8A3
:106480000E004B236822CCA102F036F806462820E5
:1064900002F00CF90A233246CAA1CDF8008002F0BE
:1064A000CDF80590282002F001F9232100910A235C
:1064B0003246C5A102F0C2F80690382002F0F6F884
:1064C00041464FF028080096CDE901812178062346
:1064D00005EB8111AFA2891D00F0B8FE20643820C1
:1064E00002F0E4F823210096CDE90181217806230A
:1064F00005EB8111A7A2083100F0A8FE6064954861
:10650000039901F03EF89348049901F03AF859468E
:10651000904801F036F839468E4801F032F851467D
:106520008C4801F02EF88B48616B01F02AF849463F
:10653000884801F026F88748A16B01F022F88548C9
:10654000E16B01F01EF88348216E01F01AF88148D2
:10655000616E01F016F87F48A16E01F012F87D48D7
:10656000216F01F00EF80021A06E00F088FF79483D
:10657000E16E01F006F83146764801F002F8754800
:10658000059900F0FEFF7348069900F0FAFF714884
:10659000216C00F0F6FF6F48616C00F0F2FF7E485E
:1065A00000680169606F884780072ED5282002F0B7
:1065B0007DF84FF032080A23324684A1CDF80080DE
:1065C00002F03CF80746382002F070F82822CDE9A6
:1065D0000062CDF808802178062305EB81116DA2B9
:1065E0000A3100F033FEA06439465A4800F0C9FF72
:1065F0005848A16C00F0C5FF47F6FF720021A06C5F
:1066000000F0F5FD216C7248486247F6FF7B5E465C
:106610005A460021206C00F0EAFD32460021606CF1
:1066200000F0E5FD5C4800680169606F8847C007BD
:106630007DD0282002F03AF8464973237D228DE868
:106640000E004B23B42263A101F056FF064628201A
:1066500002F02CF80E270A23324662A1009701F0BF
:10666000EDFF8246282002F021F8502332465DA13A
:10667000009701F0E3FF8146382002F017F80A2264
:10668000CDE90062192702972178042305EB8111D7
:1066900056A20C3100F0DAFDE064382002F006F872
:1066A0005022CDE9006202972178042305EB811185
:1066B0004EA20E3100F0CAFD2065282001F0F6FF41
:1066C0002C270A2332463FA1009701F0B7FF8046EE
:1066D000282001F0EBFF502332463BA1009701F048
:1066E000ADFF0746382001F0E1FF37210A2200966E
:1066F000CDE901212178062305EB811125A2103176
:1067000000F0A4FD6065382001F0D0FF3721502251
:106710000096CDE901212178062305EB81111DA208
:10672000123100F093FDA06531460A4800E08DE08B
:1067300000F027FF5146074800F023FF494605486F
:1067400000F01FFF0348E16C00F01BFF0148216DC2
:106750004EE0000058130020537065656420636F9D
:106760006E74726F6C6C657200000000536574206B
:10677000706F696E7400000072706D006D730000C0
:106780005461726765742073706565640000000071
:106790007C10002025366400F41F002052616D70CB
:1067A000206475726174696F6E00000045786563DE
:1067B00000000000456C0108504944204761696EA3
:1067C000730000004B5000004B4900004B44000098
:1067D0004D6B0108466C757820776C2E2074756EB1
:1067E000696E670042555380000000002534640044
:1067F00000F0C7FE0021206D00F041FE414619481F
:1068000000F0BFFE3946174800F0BBFE1548616D29
:1068100000F0B7FE1348A16D00F0B3FE4FF47A729A
:106820000021E06C00F0E3FC5D465A460021606DFB
:1068300000F0DDFC2A460021A06D00F0D8FCE16CE0
:1068400009484862616D4862A16D4862216C064842
:106850004862616C486207B00248BDE8F04F00F042
:1068600024BF0000581300204D6B01083EB52820BE
:1068700001F01CFFA0232249CDE90013142202924B
:106880005A2391221FA101F037FE204C20662820B8
:1068900001F00CFF0F21009105231DA1226E01F0D4
:1068A000CDFE6066402001F001FF226E0521CDE99A
:1068B00000211E250295227804F17C0101EBC20122
:1068C000062317A2091D01F01FF8A066302001F071
:1068D000EDFE41210091052312A1226E00F0C8FABD
:1068E000E066282001F0E2FE00953C2310A1226E14
:1068F00001F0A4FE2067E16E0E4848623EBD000034
:106900001C1100204D6F6E69746F72000010002022
:106910004D65617375726564207370656564000010
:106920002536640053746172742F53746F700000C5
:1069300072706D00116B010870B53149002409684F
:1069400009698847010E0E074FF009014FF00A024E
:106950004FF002034FF001050ED0B1EB107F03D1D1
:10696000C0F303660A2E17D0B2EB107F15D1C0F327
:106970000366092E10D010E0B1EB107F00D1012486
:10698000B2EB107F00D10224B5EB107F02D0B3EB45
:10699000107F33D1032431E00624B1EB107F05D101
:1069A000C0F3036102290BD0012909D0C0F30361B0
:1069B000092906D1B3EB107F02D0B5EB107F00D1CF
:1069C0000424B2EB107F05D1C0F3036102290BD080
:1069D000012909D0C0F303610A2906D1B3EB107F66
:1069E00002D0B5EB107F00D105240B21B1EB107F55
:1069F00004D1C0F30360092800D10724204670BDEC
:106A0000F41F002010B5144800F01DFE1248A830F5
:106A100000F019FE114800F016FE114800214160F7
:106A20008160C160016141618161C1610162416256
:106A30008162C162016341638163C1630164416436
:106A40008164C164016541658165C1650166416616
:106A50008166C166016710BD08120020581300202E
:106A600000100020034807210068C2680248406FF8
:106A700010470000F41F00200010002010B50C4645
:106A8000FFF7C0FF3CB1012C09D0022C0BD1BDE8AF
:106A90001040FFF759BCBDE81040FFF711B9BDE841
:106AA0001040FFF7DFB910BD2DE9F04781461648C9
:106AB0000E46134FDFF84C80002400EB8615395D3D
:106AC000662908D0D8F80000026848469047411C63
:106AD00001D025F81400641CE4B2202CEFD3D8F8C0
:106AE00000000421026848469047084941F83600F2
:106AF00095F83A2031464846BDE8F04700F046B8E0
:106B0000B8880108F41F0020001400207C10002029
:106B100070B50C4C0A490C4D207801EB80118A8825
:106B200004F17C0151F8301028684368606F984781
:106B300028680621C268606FBDE8704010470000F9
:106B40000014002000100020F41F002030B40A467A
:106B5000018D0B48094B047803EB8413C91AC1F368
:106B600047030849C95C662905D0074B406F1B687D
:106B70009B6830BC184730BC7047000000140020F0
:106B800000100020B8880108F41F0020F8B5154651
:106B9000094A02EB8114094904F13802009209689C
:106BA000931E121F8E692946B047E08E00EB40000D
:106BB0004000E086F8BD000000140020F41F002013
:106BC0002DE9F041154C03462046154F01786268C7
:106BD000144D154E01EB4101406F07EB81019342CB
:106BE0000BD192F830704F70FFF7A6FE55F82000D9
:106BF0000021C25D3068C3690BE0A26892F8307072
:106C00008F70FFF799FE55F820000121C25D3068B2
:106C1000C369A06FBDE8F0411847000000100020D4
:106C20004014002098880108F41F00200348082120
:106C30000068C2680248406F10470000F41F00203F
:106C4000001000200848074A00F17C030178406FDB
:106C500002EB811253F83110044B92881B685B6879
:106C6000184700000014002000100020F41F00202E
:106C7000014600200A5C401CC0B2002AFAD17047CD
:106C800010B5002400F0E9F800B10124204610BD41
:106C900070B5426A0D4604464AB194F82C0030B1F2
:106CA0002DB994F8210010B100212046904784F8B6
:106CB0002C5070BD70B500240546052906D1002171
:106CC000FFF7E6FF284601F02FF80124284600F0E0
:106CD000C4F800B10124204670BD2DE9FC5F0646D2
:106CE000C069C1888588891D8CB2B06AFDF708F932
:106CF0004543ED1DA9B22246304601F050F830461A
:106D000000F0F3FF85B2304600F0EFFF040C304690
:106D100001F06EF8801E87B2304601F047F8801E01
:106D20001FFA80F8B6F81A90304601F061F8019029
:106D3000304601F03BF88346304600F0D6FF8246ED
:106D4000304600F0D2FF4FEA1A4180B2CDF80090F1
:106D50005A46019B00F040FB304600F07EF840B3FD
:106D6000304600F0C2FF801C85B2304600F0BDFF07
:106D70000014801C84B2B6F81A90304601F038F83E
:106D8000401E82B2CDF80090A4F10109681E1FFADE
:106D900089F180B2012300F0FDFAB6F81AA030465E
:106DA00001F004F8801E82B21FFA89F1CDF800A02C
:106DB00011E0708B0090601C81B205EB080080B27E
:106DC00001233A4600F0E6FA708B009008F10200C9
:106DD00082B2E01981B20023284600F0DBFA708B02
:106DE00000903B4642462146284600F0F5FA308B9B
:106DF0000090F81E82B2A01C814681B2A81C80B20D
:106E0000012300F0C7FA96F8210008B11F2000E026
:106E1000308B0090A8F1020082B2BF1E641C681C77
:106E2000BBB2A1B280B200F0D7FAB26AED1C02B0D8
:106E30001FFA89F1A8B2BDE8F05F00F00DBB10B5F4
:106E400004460020052907D101212046FFF720FF35
:106E5000204600F069FF012010BD90F82C1021B1F0
:106E600090F8210008B10120704700207047000011
:106E700070B51C4616460D4622463146049B00F06E
:106E800005FB084901600021416280F82C1004468E
:106E9000012100F0F4FA0121A562204684F82010B7
:106EA00070BD000068A7010801F0FBBB10B5C36A04
:106EB0000C4603B911A390F83310062919D2DFE864
:106EC00001F0180303070B0F00F063F802460AE015
:106ED00000F05FF882B206E000F05BF802B202E078
:106EE00000F057F8C2B22046BDE810401946FCF742
:106EF000DDBD00F04EF842B2F5E700002564000069
:106F000070B50E460446002500F041FC28B3A06A87
:106F100010B3012E02D0022E1ED10DE094F83200E3
:106F2000218EFF280144218602D0401C84F83200C3
:106F3000204600F042F90CE094F83200218EFF2840
:106F40000144218602D0401C84F83200204600F023
:106F500006F8204600F0E8FE0125284670BD10B571
:106F6000034600F016F80146B3F93000B3F93420B7
:106F7000091A8A4206DD8010188693F832008008CC
:106F800083F8320093F83300BDE81040184600F053
:106F90002DB890F83310806A06290DD2DFE801F091
:106FA0000C030305070A0068704700887047B0F9B2
:106FB000000070470078704790F90000704770B586
:106FC0000E460446002500F0E2FB00B10125052E27
:106FD00008D194F8230038B1002084F8230020461B
:106FE00000F0A2FE284670BD0120F6E710B503466A
:106FF000806A00281FD0B3F934208A421BDCB3F921
:1070000036208A4217DB93F83320022A04D0042A60
:1070100004D049B2017002E0016000E00180586ACA
:10702000002808D01846FFF7B4FF5A6A0146BDE8A9
:1070300010401846104710BD2DE9F0418AB00446B3
:10704000202101A8FCF77BFF658B204600F0D0FED5
:107050008046204600F0AAFE0646204600F045FE87
:107060000746204600F041FE390C80B243463246C6
:10707000009500F0B1F9258B204600F0B9FEC01E46
:1070800087B2204600F031FE0646204600F02DFE75
:107090003114891C801C89B280B201233A460095C4
:1070A00000F078F994F82100A0B1204600F0A0FE8D
:1070B000801E87B2204600F079FE801E86B22046F0
:1070C00000F013FE0546204600F00FFE1F21009140
:1070D000291414E0258B204600F08AFE801E87B21A
:1070E000204600F063FE801E86B2204600F0FDFDC3
:1070F0008046204600F0F9FD4FEA28410095491CE2
:10710000401C89B280B23B46324600F065F9204609
:1071100000F03DFB50B194F8210038B14FF6E0701B
:10712000ADF80000BDF80000FDF73CFF94F8220028
:1071300038B947F6FF70ADF80000BDF80000FDF764
:1071400031FFA06A002812D001A92046FFF7AEFE49
:10715000204600F0CAFD0546204600F0C6FD291471
:10716000891CC01C89B280B201AA00F075F90AB06E
:10717000BDE8F08170B50E460446002500F007FB1F
:10718000C8B1A06AB0B100200121012E02D0022EA8
:1071900010D106E0218684F83200204600F00DF878
:1071A00005E0218684F832002046FFF7D8FE20460D
:1071B00000F0BAFD0125284670BD10B50346FFF763
:1071C000E8FE0146B3F93000B3F9362001448A42A3
:1071D00006DA8010188693F83200800883F83200AF
:1071E00093F83300BDE810401846FFF7FFBE8186D4
:1071F000C28670472DE9F04106AC1D4617460E4683
:1072000094E80E0000F0CEFA0F4901600221044616
:1072100080F833100121C4E90A670186C069C1887A
:107220008088091D68438AB2401D81B2204600F063
:10723000B6FD48F20101A186891EE18600212046A3
:107240006162BDE8F081000090A701082DE9F041DE
:1072500006AC1D4617460E4694E80E0000F0A2FA52
:107260000F4901600421044680F833100121C4E96C
:107270000A670186C069C1888088091D68438AB28F
:10728000401D81B2204600F08AFD48F20101A1862E
:10729000891EE186002120466162BDE8F081000080
:1072A00090A7010801F0FDB92DE9FC410D461249F6
:1072B000DDF820801C4609881700A1EB0000A0F132
:1072C000010086B216D001A96846FDF78FFD404641
:1072D000FDF7AEFE07E0E8B26D1CADB200233A4602
:1072E0003146FDF727FD641EA4B2F4D2BDF80000BC
:1072F000FDF79EFEBDE8FC81E210002010B5FEF710
:10730000DDFB4FF6FF742046FDF7F0FB2046FDF74E
:1073100049FEBDE810400020FDF78ABE2DE9F0418E
:1073200090460E4604460546FDF76EFD184F0128AF
:1073300003D13888001B401E85B2FDF75FFD8088B1
:1073400039882044884221D8FDF758FD80880628D6
:1073500004D1FDF753FDC088082806D0F0B242469C
:107360002946BDE8F041FDF727BCFDF747FD04685D
:10737000FDF744FD8188A8F12000414304EB410260
:10738000F0B22946BDE8F041FDF77EBCBDE8F081D2
:10739000E21000202DE9FC410E460E4998461446A5
:1073A0000988089F081A401E85B201A96846FDF7A2
:1073B0001DFD3846FDF73CFE34B1641EA2B2F0B2AA
:1073C00043462946FDF7B6FCBDF80000FDF730FE48
:1073D000BDE8FC81E21000202DE9FC410D461D496D
:1073E000089F1C4609881600A1EB0000A0F10100CF
:1073F0001FFA80F82BD0002C29D001A96846FDF790
:10740000F5FC3846FDF714FE771EBAB2E8B2002349
:107410004146FDF78FFC2819401EBAB2C0B20023C6
:107420004146FDF787FC601E82B2E8B20123414667
:10743000FDF780FCA8EB0600401C81B2E8B20123F6
:107440002246FDF777FCBDF80000FDF7F1FDBDE831
:10745000FC810000E210002070B514460E4605467F
:1074600009E031462846FFF759FFFDF7C7FC808841
:10747000641C284485B22278002AF2D170BD80F8BD
:107480002210002901D180F8211070472DE9FF4119
:107490001F46944600240D46064623463A4661465A
:1074A00001A8009400F008FC02462946304600F08E
:1074B000DBFC0449016080F8224080F8214004B0E0
:1074C000BDE8F081B4A7010801F0EBB800224274D6
:1074D000002904D090F82120002A00D04174704780
:1074E00000F06BBC70B50C4600F096FC05460948F0
:1074F000286054B1204600F07BFC0246A089218917
:10750000401A81B2284600F04AFC012085F821008B
:10751000284670BDD8A701082DE9F04186B00F4676
:10752000DDE90C4580461E46114602A800F0BAFB74
:107530000246334639464046CDE9004500F0C0FCDE
:1075400003490160012180F8211006B0BDE8F081F7
:10755000D8A7010810B500F0D9FC0349016001214A
:1075600080F8211010BD0000D8A7010870B50D46A5
:10757000044600F0E9FC95F8210084F8210020463B
:1075800070BD002909D0B0F8A620202A05D200EB52
:107590008203521CA0F8A6205962704770B50C46B1
:1075A000054600F01DF801684A6921469047002809
:1075B00007D1012C06D0022C03D1284600F075F823
:1075C000012070BD284600F08BF8F9E710B50B4696
:1075D00000F006F801688A69BDE8104019461047B6
:1075E000B0F8A620B0F8A4108A4203D900EB8100BD
:1075F000406A70470020704770B50446B0F8A60096
:107600000E46B0421ED92046FFF7EAFF002580F85B
:1076100021502046FFF7E4FF00F086FBA4F8A460A9
:107620002046FFF7DDFF80F8215090F8222001214D
:107630000AB180F821102046FFF7D2FFBDE8704064
:1076400000F072BB70BD70B50546002408E005EB84
:107650008400406A10B1016849688847641CE4B23C
:10766000B5F8A600A042F2D8002025F8A40F688043
:1076700070BD70B5054690F8200010B1284600F0A6
:1076800053FBB5F8A60000280ED0002408E005EB57
:107690008400406A90F8201009B100F045FB641C9A
:1076A000B5F8A600A042F2DC70BD30B4B0F8A63048
:1076B000002B13D0B0F8A4100A46491C8B4200D806
:1076C00000218A4206D000EB8104646A94F82240CB
:1076D000002CF2D030BC89B2FFF78EBF30BC7047AF
:1076E00030B4B0F8A620002A12D0B0F8A4100B468F
:1076F00001B91146491E8B4206D000EB8104646A31
:1077000094F82240002CF3D030BC89B2FFF774BF4C
:1077100030BC704770B5044600F04FFBB4F8A600CB
:1077200000280BD0002505E004EB8500406A00F03E
:10773000FBFA6D1CB4F8A600A842F5DC70BD70B56C
:107740000C460546FFF74CFF01680A692146904741
:10775000002807D1012C06D0022C03D12846FFF7C0
:10776000A4FF012070BD2846FFF7BAFFF9E700002B
:1077700010B5FFF7B7FE044901600021A0F8A4107E
:10778000A0F8A610417410BDFCA70108704790F83E
:10779000231021B190F8210008B10120704700208A
:1077A0007047000010B5FFF771FE044605482060E1
:1077B000002084F8230001212046FFF760FE2046C8
:1077C00010BD000020A8010800F06BBF70B50E4688
:1077D00004460025FFF7DBFF38B3A06A20B3012E73
:1077E00002D0022E20D10EE094F83210208EFF2914
:1077F00008442086084602D0401C84F83200204607
:1078000000F06AF80DE094F83210208EFF29084449
:107810002086084602D0401C84F83200204600F042
:1078200006F8204600F080FA0125284670BD10B504
:107830000346FFF7AEFB0146B3F930009A6B091A15
:107840008A4206DD8010188693F83200800883F89B
:107850003200BDE810401846AFF3008010B5034673
:10786000806A002812D09A6B8A420FDCDA6B8A4257
:107870000CDB0160586A002808D01846FFF789FB26
:107880005A6A0146BDE810401846104710BD70B551
:107890000E4604460025FFF77AFFD8B1A06AC0B1B2
:1078A000012E02D0022E14D108E0012020860020F3
:1078B00084F83200204600F00FF807E0012020860F
:1078C000002084F832002046FFF7B1FF204600F088
:1078D0002BFA0125284670BD10B50346FFF759FB6A
:1078E0000146B3F93000DA6B01448A4206DA8010AF
:1078F000188693F83200800883F83200BDE8104003
:107900001846FFF7ABBF0000FEB508AF97E8700060
:107910008DE87000FFF76EFC034901600349816345
:107920000349C163FEBD000044A801086179FEFF60
:107930003F420F0000F0B5BE10B50C4600F021F834
:1079400001684A692146BDE810401047903000F0B8
:1079500070BE70B50C46054600F013F801688A69E0
:1079600021469047002807D1032C06D0042C03D1D0
:10797000284600F035F8012070BD284600F07EF85A
:10798000F9E7B0F8001100EB8100D0F8E000704793
:1079900070B50446B0F802010D46A8421CD9204635
:1079A000FFF7EFFF0021FFF791FDA4F800512046FB
:1079B000FFF7E7FF0121FFF789FD2046FFF7E1FF11
:1079C000012180F82010D4F80C21002A04D0294687
:1079D0002046BDE87040104770BDB83000F029BEA9
:1079E00030B4B0F80231002B14D0B0F800110A46C0
:1079F000491C8B4200D800218A4207D000EB810449
:107A0000D4F8E04094F82140002CF1D030BC89B289
:107A1000FFF7BEBF30BC704770B5044600F190055B
:107A200090F8B00028B1284600F0C7F9284600F0C9
:107A30007BF994F8D80004F1B80528B1284600F085
:107A4000BCF9284600F070F994F8200010B12046E7
:107A500000F06AF9B4F80211B4F8000181420CD9BF
:107A600004EB8000D0F8E000002806D02046FFF7A5
:107A700088FFBDE87040FFF7FCBD70BD30B4B0F8C2
:107A80000221002A14D0B0F800110B4671B1491E32
:107A90008B4207D000EB8104D4F8E04094F82140F9
:107AA000002CF3D030BC89B2FFF772BF1146EEE76D
:107AB00030BC704700290AD0B0F80221082A06D24B
:107AC00000EB8203521CA0F80221C3F8E0107047BB
:107AD000704710B50C46FFF754FF01680A6921464C
:107AE000BDE81040104700002DE9FF4F99B0044653
:107AF000DDE926769B461546114615A800F0D2F81A
:107B0000CDE9007602465B4600212046FFF704FDE2
:107B10005D494FF0000840F8241BFFF71BFD24309F
:107B2000FFF718FD2430FFF715FD243000F098FD15
:107B3000283000F095FDA0F1B8044C305349C0E95D
:107B400000188146FFF7DAFBA4F80281A4F800814F
:107B50002889A988DFF838A1401A83B2BAF806004C
:107B60000022801C80B20090114615A800F0A4F8F5
:107B70001F22CDE9002A4FF6FF7A024653462146DE
:107B800002A8FFF7C9FC014604F148001890FFF76E
:107B9000EDFC189800F0C8F82889A988401A83B22B
:107BA0006889E988411AF088091A801C891E80B208
:107BB0000AB20090002115A800F07EF8CDE9007609
:107BC00002465B46214602A8FFF7A6FC014604F1E7
:107BD0006C008346FFF7CAFC584600F0A5F8698997
:107BE000E8880F1A584600F003F93F1A189800F079
:107BF000FFF8381A87B22889A988401A85B21898E0
:107C000000F0F6F802B22B46002115A8009700F00C
:107C100053F8CDE900A602460023214602A8FFF74B
:107C20007BFC014604F124000546FFF79FFC284633
:107C300000F07AF80120034600900BA8189A1A99D0
:107C400000F0FCFC014604F1900000F019FD012356
:107C50005A4610A10BA8CDF8008000F0EFFC0146B9
:107C600004F1B80000F00CFD202104F1E000FCF765
:107C700066F94D4600F058FC6C60C4F80C811DB0EC
:107C80002046BDE8F08F000068A8010834A901086B
:107C900090100020200000000149016070470000A2
:107CA00068A80108034A02604A68426089688160E6
:107CB000704700008CA8010830B5054D039C056095
:107CC0008180C280194401811119418130BD0000B9
:107CD0008CA801080349016000218180C1800181D5
:107CE000418170478CA80108704730B5054640694E
:107CF000002468B1FFF7F9FF2989084460F30F04F5
:107D00006869FFF7F2FF698901EB2041204604E032
:107D10002989204661F30F00698961F31F4030BD56
:107D200000207047002070472DE9FC4104460020E8
:107D300084F82000204600F060F8B0B1E06908B196
:107D4000FDF770F9608BADF80000208BADF80400F2
:107D5000BDF80410BDF80000FDF72CF9206881681B
:107D600002B02046BDE8F0410847E0896189268BD2
:107D7000401A85B2A0892189401A87B22046FFF7B0
:107D8000B4FF80462046FFF7B0FF4FEA184180B2AB
:107D90002B463A460096FFF787FABDE8FC81038937
:107DA0001944818141891144C181704781890089C9
:107DB000081A80B27047002070472DE9F843074643
:107DC000048B00F015F880463846FFF7EFFF0546B4
:107DD0003846FFF78AFF06463846FFF786FF310C24
:107DE00080B243462A460094FFF75EFABDE8F88366
:107DF000C1894089081A80B2704710B504464069AD
:107E000030B1FFF7FAFF28B1607C18B1012010BD36
:107E1000607C10BD002010BD0A4610B5114902C09B
:107E2000FFF758FF041F002020816081A081E081BE
:107E300001216174217484F8200004F11A00811E6C
:107E40006261FCF7D3FFFCF7D9FFE061606938B1EC
:107E5000408B60836069008B20836069C069E0614A
:107E6000204610BD9CA801080B4610B5134902C05E
:107E7000FFF730FF041F90882081D088608110892F
:107E8000A0815089E081012060742074002084F872
:107E9000200004F11A00811E6361FCF7A7FFFCF7C4
:107EA000ADFFE061606938B1408B60836069008B31
:107EB00020836069C069E061204610BD9CA801086C
:107EC0002DE9F0410F46DDE906650F4902C0FFF7D5
:107ED00001FF041F90882081D08860811089A081D3
:107EE0005089E0810120607420740020676184F86B
:107EF000200063832683FCF781FFE06105B1E56123
:107F00002046BDE8F08100009CA8010810B50D498D
:107F100002C0FFF7DFFE041F002020816081A081E6
:107F2000E08101216174217484F82000606104F112
:107F30001A00811EFCF75AFFFCF760FFE061204643
:107F400010BD00009CA801088B688360CB68C360EB
:107F50000A7C02744A7C42744A6942610A8B028339
:107F60004A8B4283CA69C26191F8201080F82010C0
:107F7000704710B50024FFF70AFC00B10124204629
:107F800010BD70B50E4604460025FFF700FC00B199
:107F90000125052E08D194F8230038B1002084F87B
:107FA00023002046FFF7C0FE284670BD0120F6E7FB
:107FB0002DE9F843816A044671B1E069C288868878
:107FC000121D95B20846FBF79BFF4643761DB1B2E2
:107FD0002A462046FFF7E3FE658B2046FFF708FFA1
:107FE00080462046FFF7E2FE06462046FFF77DFE6C
:107FF00007462046FFF779FE390C80B243463246E9
:108000000095FFF7E9F9258B2046FFF7F1FEC01E2A
:1080100087B22046FFF769FE06462046FFF765FE59
:108020003114891C801C89B280B201233A46009524
:10803000FFF7B0F994F82100A0B12046FFF7D8FE71
:10804000801E87B22046FFF7B1FE801E86B2204612
:10805000FFF74BFE05462046FFF747FE1F21009124
:10806000291414E0258B2046FFF7C2FE801E87B23C
:108070002046FFF79BFE801E86B22046FFF735FEA6
:1080800080462046FFF731FE4FEA28410095491C03
:10809000401C89B280B23B463246FFF79DF920462C
:1080A000FFF775FB50B194F8210038B14FF6E0703E
:1080B000ADF80000BDF80000FCF774FF2046FFF7A4
:1080C00014FE05462046FFF710FE2914A26ABDE8FB
:1080D000F843891CC01C89B280B2FFF7BDB90122E8
:1080E000816280F82020426A002A00D01047704741
:1080F00010B50024FFF74BFB00B10124204610BD52
:1081000070B51C4616460D4622463146049BFFF7C5
:1081100049FB04460448206000206062294620464E
:10812000FFF7DDFF204670BDC0A8010800F0B9BA16
:1081300010B50024FFF72BFB00B10124204610BD31
:1081400070B50E4604460025FFF721FBD0B1012E85
:1081500002D0022E15D108E0208E00B9608E401E9C
:1081600081B2204600F041F80FE0618E208E491E5A
:10817000884201D1002101E0401C81B2204600F07C
:1081800034F80125052E03D000E00125284670BDF6
:1081900094F8230030B1002084F823002046FFF734
:1081A000C3FDF2E70120F7E710B504460020608622
:1081B000E06A98B910BD00BFFBF7A2FEA18E88420D
:1081C00006D9618EE06A50F82100FBF799FEA0867F
:1081D000608E401C80B26086FF28EBD8608EE16A1A
:1081E00051F820000028E7D110BD428E8A4208D9FC
:1081F000002A06D00186C26A52F821100268D269AC
:10820000104770472DE9FC410446C069C188808849
:10821000091D8AB2A18E491C48430A3081B220460A
:10822000FFF7BDFD658B2046FFF7E2FD07462046C0
:10823000FFF7BCFD06462046FFF757FD8046204667
:10824000FFF753FD4FEA184180B23B463246009596
:10825000FFF7C2F8258B2046FFF7CAFDC01E87B284
:108260002046FFF742FD06462046FFF73EFD31144B
:10827000891C801C89B280B201233A460095FFF721
:1082800089F894F82100A0B12046FFF7B1FD801EC7
:1082900087B22046FFF78AFD801E86B22046FFF790
:1082A00024FD05462046FFF720FD1F2100912914DB
:1082B00014E0258B2046FFF79BFD801E87B22046E9
:1082C000FFF774FD801E86B22046FFF70EFD804644
:1082D0002046FFF70AFD4FEA28410095491C401C43
:1082E00089B280B23B463246FFF776F82046FFF768
:1082F0004EFA50B194F8210038B14FF6E070ADF865
:108300000000BDF80000FCF74DFE2046A56AFFF70F
:10831000ECFC06462046FFF7E8FC3114891CC01C23
:1083200089B280B22A46FFF797F8658B2046FFF79F
:108330005FFDC01E86B22046FFF7D7FC8046204670
:10834000FFF7D3FC07462046FFF730FDC119E0696F
:108350000123324680880095081A401F87B24FEAF1
:108360002840801C81B23846FFF714F8658B204600
:10837000FFF73EFDC01E86B22046FFF7B6FC8046E2
:108380002046FFF7B2FC07462046FFF70FFDC11954
:10839000E0690123324680880095081A001F87B2E1
:1083A0004FEA2840801C81B23846FEF7F3FF658B08
:1083B0002046FFF71DFDC01E86B22046FFF795FC44
:1083C00080462046FFF791FC07462046FFF7EEFC6B
:1083D000C11EC81987B24FEA2840801C81B2012310
:1083E000324638460095FEF7D5FF208BADF80000E9
:1083F000608BADF80400BDF80410BDF80000FCF778
:10840000D9FD2046FFF771FC05462046FFF76DFCBD
:1084100006462046FFF7CAFC8119E06906A280885B
:1084200002B0081AC01E83B22814BDE8F041801CB7
:1084300081B21846FFF710B8760000000122816271
:1084400080F82020426A002A00D01047704710B5FB
:108450000024FFF79CF900B10124204610BD000064
:1084600038B50D46049900910021FFF749FE0446F6
:108470000648E56220600020A0862046FFF794FEB3
:1084800000212046FFF7B1FE204638BDE8A80108CC
:1084900000F007B92DE9F8430446458BFFF7A8FC27
:1084A000E1698988A0EB510087B22046FFF77EFC86
:1084B00080462046FFF719FCE1690014898800EB2B
:1084C000510086B22046FFF710FC80B23B46424680
:1084D00031460095FEF780FF2046656AFFF705FCF0
:1084E00006462046FFF701FC310C2A46BDE8F8435A
:1084F000801D80B2FEF7B0BFF8B506AF1D46164628
:1085000097E81C00009400F099F8044604482060A5
:10851000AAB2B1B22046FFF742FC2046F8BD0000E7
:1085200010A9010800F0BDB8FDF7EABA2DE9F04145
:1085300007250F46064605290BD2DFE801F00A039E
:1085400005070900052504E0062502E0042500E0F2
:1085500003252846FDF7ECFA184CB8B96078A84214
:108560000AD1207810B1401E207005E0706818B163
:1085700001684A69394690476078FF2806D16570DE
:10858000706818B101680A69394690472846FDF7B6
:10859000CFFA01280FD16078A8420CD1FF2060707B
:1085A000052020707068002805D001688A69394666
:1085B000BDE8F0411047BDE8F0810000E010002068
:1085C00010B504460521FFF7B1FF01212046FFF752
:1085D000ADFF02212046FFF7A9FF03212046FFF748
:1085E000A5FF2046BDE810400421FFF79FBF70B5EE
:1085F000416A0446C9B1E069C58886880846FBF728
:108600007FFC4643B1B22A462046FFF7C8FB20460E
:10861000FFF76BFB05462046FFF767FB290C626AF4
:10862000BDE8704080B2FEF717BFBDE87040FFF7AD
:10863000C4BB4162012180F82010704770B51D460F
:1086400016460C462A463146049BFEF71FFF034997
:1086500044620160012180F8201070BD44A9010826
:1086600010B5FFF753FC002180F8221080F821108C
:10867000014A0260416210BD44A9010800F011B82E
:1086800070B50C460546FFF75FFC94F8210085F8AD
:10869000210094F8220085F82200606A686228466A
:1086A00070BD10B5FBF7BFFC10BD000010B5040095
:1086B00007D1012405E0FBF77FFC006800B90448FE
:1086C00080472046FBF780FC0028F4D010BD000056
:1086D000094201082DE9F041074690460E46002563
:1086E0001020FBF771FC04000BD0C4F80C80C4E927
:1086F0000176FBF765FC0168216004602846BDE84F
:10870000F0810125FAE72DE9F0410646FBF758FC18
:10871000804613E026B1E068B04201D025460EE065
:1087200020682860D4E90101D8F800708847204605
:10873000FBF779FCD8F80000B84200D045462C6819
:10874000002CE7D1BDE8F0810020FBF756BD00000A
:108750001CB5F020002200904FF4A07311461B4876
:10876000FFF7AAFA1A4A1B49FFF7B4FF1A491F205C
:10877000164ACDE900014FF6FF7318A102F10C0073
:10878000FFF7B2F9124A1649FFF7A4FF0F4930313B
:108790000C4601F1EC00FEF7EBFF0D4A1149FFF723
:1087A00099FF21461048FEF7E3FF094A0D49FFF7FC
:1087B00091FF0D482146A830FEF7DAFF02B0044AC7
:1087C000BDE810400749FFF785BF0000EC1000200E
:1087D00000380108E97C0108E410002000000000D6
:1087E000997C01088D770108B012002030380A28E2
:1087F00001D2012070470020704701B581B048F2D6
:10880000D041019848430090002801D0401EFAE76B
:108810000CBD10B5FBF735F9002010BD10B50029CF
:108820000AD00878002807D005487844FBF772FE84
:10883000002801D0002010BD0248784410BD00007F
:10884000C6240000BE24000001661E0001070B0DB7
:1088500018C600F81F004C4344206D616E616765C7
:1088600072207665723A20342E320000000000003B
:10887000000000000000000000000000DC8801088B
:10888000DC8801088C8A0108E48A0108E48A01086E
:1088900068890108048A010800000000388901087D
:1088A0004F890108D08A0108488B0108618B0108B3
:1088B000E4890108708A0108191A6605060718215B
:1088C0001617081F0C20090A0B0D0E0F101112139A
:1088D00015146666666666666600000060A9010893
:1088E00074A9010828AA0108D8A90108B0A901089B
:1088F00088A9010864AA010850AA0108C4A90108AE
:108900009CA901083CAA0108ECA90108A0AA010839
:10891000DCAA01088CAA010878AA0108C8AA0108E3
:10892000B4AA0108F0AA010804AB010800AA0108D2
:1089300014AA010800000000232425262728292A3C
:108940002B2C2D2E31323334353642433D3EFF231E
:108950002425262728292A2B2C2D2E3738393A3B37
:108960003C44453D3EFF000060A9010874A9010890
:1089700028AA0108D8A90108B0A9010888A90108F6
:1089800064AA010850AA0108C4A901089CA9010809
:108990003CAA0108ECA9010868AB0108A4AB0108D6
:1089A0002CAB010818AB010840AB010854AB01081F
:1089B0007CAB010890AB010808AC010844AC01088D
:1089C000CCAB0108B8AB0108E0AB0108F4AB01087F
:1089D0001CAC010830AC010800AA010814AA010867
:1089E00000000000232425262728292A2B2C2D2EA1
:1089F00031323334353642433738393A3B3C4445DB
:108A00003D3EFF0060A9010874A9010828AA0108D9
:108A1000D8A90108B0A9010888A9010864AA010819
:108A200050AA0108C4A901089CA901083CAA010890
:108A3000ECA9010858AC01086CAC010894AC010821
:108A400080AC010868AB0108A4AB01082CAB01089D
:108A500018AB010840AB010854AB01087CAB01081E
:108A600090AB010800AA010814AA01080000000048
:108A7000232425262728292A2B2C2D2E5D5E5F6096
:108A800031323334353642433D3EFF0060A90108A0
:108A900074A9010828AA0108D8A90108B0A90108E9
:108AA00088A9010864AA010850AA0108C4A90108FC
:108AB0009CA901083CAA0108ECA90108A8AC01087E
:108AC000BCAC010800AA010814AA010800000000BB
:108AD000232425262728292A2B2C2D2E2F303D3ED6
:108AE000FF00000060A9010874A9010828AA010874
:108AF000D8A90108B0A9010888A9010864AA010839
:108B000050AA0108C4A901089CA901083CAA0108AF
:108B1000ECA90108A8AC0108BCAC0108A0AA010896
:108B2000DCAA01088CAA010878AA0108C8AA0108D1
:108B3000B4AA0108F0AA010804AB010800AA0108C0
:108B400014AA010800000000232425262728292A2A
:108B50002B2C2D2E2F3031323334353642433D3ECF
:108B6000FF232425262728292A2B2C2D2E2F30378A
:108B700038393A3B3C44453D3EFF000000000000D0
:108B800000000000000000000000000000000000E5
:108B900000000000000000000000000000000000D5
:108BA00000000000000000000000000080018001C3
:108BB00080018001800180018001800180018001AD
:108BC0008001800180010000000080018001000020
:108BD0000000000000000000000000000000CC00C9
:108BE000CC00CC00CC00CC00CC0000000000000089
:108BF0000000000000000000000000000000000075
:108C00000000000000000000000000000000000064
:108C1000000000000000600C600C600C30063006A4
:108C2000FE1FFE1F300638071803FE1FFE1F180325
:108C300018038C018C018C01000000008000E0030F
:108C4000F80F9C0E8C1C8C188C009800F801E00723
:108C5000800E801C8C188C189C18B80CF00FE00348
:108C60008000800000000000000000000000000004
:108C70000E181B0C110C11061106110311039B0198
:108C80008E01C038C06C60446044304430441844A5
:108C9000186C0C380000000000000000E001F00338
:108CA0003807180618063003F001F000F8009C3170
:108CB0000E33061E061C061C063FFC73F021000046
:108CC00000000000000000000000000000000C0098
:108CD0000C000C000C000C000C0000000000000058
:108CE0000000000000000000000000000000000084
:108CF000000000000000000000000000000200036F
:108D00008001C000C0006000600030003000300012
:108D10003000300030003000300060006000C000E3
:108D2000C00080010003000200000000200060007D
:108D3000C000800180010003000300060006000659
:108D4000000600060006000600060003000380017E
:108D50008001C00060002000000000000000000052
:108D6000000000000000C000C000D806F807E001C5
:108D70003003380700000000000000000000000081
:108D800000000000000000000000000000000000E3
:108D9000000000000000800180018001800180014E
:108DA000FC3FFC3F800180018001800180010000C8
:108DB00000000000000000000000000000000000B3
:108DC00000000000000000000000000000000000A3
:108DD0000000000000000000000000008001800191
:108DE0000001000180000000000000000000000001
:108DF0000000000000000000000000000000000073
:108E00000000E007E0070000000000000000000094
:108E10000000000000000000000000000000000052
:108E20000000000000000000000000000000000042
:108E3000000000000000000000000000C000C000B2
:108E4000000000000000000000000000000C000C0A
:108E500000060006000600030003000380038001F3
:108E600080018001C000C000C00060006000000000
:108E7000000000000000000000000000E003F00718
:108E8000380E180C0C180C180C180C180C180C18A0
:108E90000C180C180C18180C380EF007E003000022
:108EA0000000000000000000000000000001800140
:108EB000C001F001980188018001800180018001DA
:108EC000800180018001800180018001800100001B
:108ED000000000000000000000000000E003F80FA8
:108EE000180C0C180C1800180018000C00060003D1
:108EF0008001C000600030001800FC1FFC1F000053
:108F0000000000000000000000000000E001F80781
:108F1000180E0C0C0C0C000C0006C003C007000C53
:108F2000001800180C180C18180CF807E0030000C3
:108F3000000000000000000000000000000C000E17
:108F4000000F000F800DC00C600C600C300C180C72
:108F50000C0CFC3FFC3F000C000C000C000C000053
:108F6000000000000000000000000000F80FF80FF3
:108F7000180018000C00EC03FC071C0E001C001865
:108F8000001800180C181C0C180EF807E00300005D
:108F9000000000000000000000000000C007F00F0B
:108FA000381C181818000C00CC03EC0F3C0E1C1CCD
:108FB0000C180C180C18181C380EF007E0030000F1
:108FC000000000000000000000000000FC1FFC1F6B
:108FD000000C00060006000380038001C001C000F1
:108FE000E0006000600070003000300030000000E1
:108FF000000000000000000000000000E003F00797
:10900000380E180C180C180C3806F007F007180C5E
:109010000C180C180C180C18380CF80FE003000092
:10902000000000000000000000000000E003F00766
:10903000380E1C0C0C180C180C181C1C381EF81BB5
:10904000E0190018000C000C1C0EF807F0010000DD
:109050000000000000000000000000000000000010
:1090600000000000000080018001000000000000FE
:1090700000000000000000000000800180010000EE
:1090800000000000000000000000000000000000E0
:1090900000000000000080018001000000000000CE
:1090A00000000000000000000000800180010001BD
:1090B000000180000000000000000000000000002F
:1090C000000000000000000000000010001C800FE5
:1090D000E003F87FF87FF87FE003800F001C0010AA
:1090E0000000000000000000000000000000000080
:1090F00000000000000000000000F81F0000000059
:109100000000F81F00000000000000000000000048
:10911000000000000000000000000000000000004F
:109120000000000000000000000008003800F0010E
:10913000C007FE1FFE1FFE1FC007F0013800080019
:10914000000000000000000000000000E003F80F35
:10915000180C0C180C180018000C000600038001F5
:10916000C000C000C00000000000C000C00000003F
:109170000000000000000000000000000000E00708
:1091800018180420C229224A1144094409440944F8
:1091900009221113E20C024004201818E007000015
:1091A00000000000000000000000000080038003B9
:1091B000C006C006C006600C600C301830183018AD
:1091C000F83FF83F1C700C600C6006C006C0000041
:1091D000000000000000000000000000FC03FC0F85
:1091E0000C0C0C180C180C180C0CFC07FC0F0C18B1
:1091F0000C300C300C300C300C18FC1FFC0700003D
:10920000000000000000000000000000C007F01F88
:1092100038381C300C700660060006000600060098
:109220000600060006600C701C30F01FE00700000E
:10923000000000000000000000000000FE03FE0F20
:10924000060E0618061806300630063006300630C0
:109250000630063006180618060EFE0FFE03000044
:10926000000000000000000000000000FC3FFC3F88
:109270000C000C000C000C000C00FC1FFC1F0C0070
:109280000C000C000C000C000C00FC3FFC3F00002C
:10929000000000000000000000000000F83FF83F60
:1092A00018001800180018001800F81FF81F180000
:1092B0001800180018001800180018001800000006
:1092C000000000000000000000000000E00FF83F78
:1092D0003C780E6006E007C00300030003FE03FEB7
