:02000004080FE3
:10000000F0ED012085020F085D521A00C1020F08B1
:1000100091020F0893020F0895020F0800000000DC
:1000200000000000000000000000000097020F0820
:1000300099020F08000000009B020F089D020F08A4
:100040009F020F089F020F089F020F089F020F08D0
:100050009F020F089F020F089F020F089F020F08C0
:100060009F020F089F020F089F020F089F020F08B0
:100070009F020F089F020F089F020F089F020F08A0
:100080009F020F089F020F089F020F089F020F0890
:100090009F020F089F020F089F020F089F020F0880
:1000A0009F020F089F020F089F020F089F020F0870
:1000B0009F020F089F020F089F020F089F020F0860
:1000C0009F020F089F020F089F020F089F020F0850
:1000D0009F020F089F020F089F020F089F020F0840
:1000E0009F020F089F020F089F020F089F020F0830
:1000F0009F020F089F020F089F020F089F020F0820
:100100009F020F089F020F089F020F089F020F080F
:100110009F020F089F020F089F020F089F020F08FF
:100120009F020F089F020F089F020F089F020F08EF
:100130009F020F089F020F089F020F089F020F08DF
:100140009F020F089F020F089F020F089F020F08CF
:100150009F020F089F020F089F020F089F020F08BF
:100160009F020F089F020F089F020F089F020F08AF
:100170009F020F089F020F089F020F089F020F089F
:100180009F020F089F020F0800F002F800F06AF8C3
:100190000AA090E8000C82448344AAF10107DA45E2
:1001A00001D100F05FF8AFF2090EBAE80F0013F0CA
:1001B000010F18BFFB1A43F001031847E8C60000FF
:1001C00008C70000103A24BF78C878C1FAD852078F
:1001D00024BF30C830C144BF04680C6070470000C1
:1001E0000023002400250026103A28BF78C1FBD840
:1001F000520728BF30C148BF0B607047692900F023
:100200000181642900F0FE80752900F0FB806F29D0
:1002100000F09281782900F0B9810368DB0928BFDA
:1002200041F08001632900F0E683E32900F0F983BF
:10023000002070471FB508F0BFFB9DE8030000F0E9
:1002400051FC00F005FD04000020002107F044FFF0
:10025000401C606000F0D4FA1FBD10B5002007F00C
:1002600045F810BD00F0CEFC1146FFF7E3FF07F0A4
:100270002DFF00F00FFD03B4FFF7EFFF03BC00F00C
:10028000BBFC00000948804709480047FEE7FEE73D
:10029000FEE7FEE7FEE7FEE7FEE7FEE7FEE7FEE736
:1002A00004480549054A044B70470000752B0F08A8
:1002B00089010F0818E70120F0ED0120F0ED012081
:1002C00000B5FFB441464A4653465C4665463EB4D7
:1002D0000D496A460A600D4908600D4988473EBCD1
:1002E000884691469A46A346AC46FFBC00BD0648E8
:1002F00001688D463EBC884691469A46A346AC4668
:10030000FFBC044800BD0000F0FF0120F4FF012005
:1003100091010F0854C10F080FB41CB5074B06AA72
:100320007B4469460090059800F043FB0020694635
:1003300000F052FB1CBC5DF814FB0000B506000089
:1003400070B5044685690068C10601D5302600E015
:100350002026C00707D070BDD4E901213046904760
:10036000206A401C20626D1EF6D570BD70B5044633
:1003700085690078C00707D170BDD4E9012120202C
:100380009047206A401C20626D1EF6D570BD09683A
:100390004A0501D540B27047C905FCD500B2704787
:1003A00009684A0501D5C0B27047C905FCD580B2BD
:1003B000704770B50C460546012A05D0287880069E
:1003C00000D5EA69002302E0012305E05B1C9342AB
:1003D00002D2E05C0028F9D1A869E618C01AA86129
:1003E000286A184428622846FFF7AAFF04E0D5E9E6
:1003F000012114F8010B9047B442F8D32846FFF7C7
:10040000B5FF70BD2DE9F04106460024106875293E
:10041000314616A510D0FFF7BAFF002802DA404295
:1004200013A507E031688A0701D512A502E0490744
:1004300004D511A5012401E0FFF7B2FF00210A2233
:1004400006F1240709E0B0FBF2FCB0FBF2F302FB7B
:100450001C00303078541846491C0028F3D123463C
:100460002A463046BDE8F04100F045BA00000000E1
:100470002D0000002B000000200000002DE9FF5F90
:1004800015468A460446DFF8AC80F8440027D8E9D0
:1004900000103E46CDE9001010E03AF816106A460A
:1004A00002A800F0CAFA411C07D02178890603D5BA
:1004B000E269391891420DD80744761C20788006ED
:1004C00002D5E069B84205DDAE42E6DB3AF8160037
:1004D0000028E2D1A069C01BA0612046FFF730FFD1
:1004E000D8E90010CDE90010002017E03AF8181004
:1004F0006A4602A800F0A1FAB0F1FF3F81460BD096
:1005000000250DF1080B05E0D4E901211BF80500D9
:1005100090476D1C4D45F7D308F10100B04280466D
:10052000E4DB206A384420622046FFF71FFFBDE865
:10053000FF9F0000D6BC000070B50446214610683D
:10054000FFF72EFF002104F1240505E000F007026B
:100550003032C0086A54491C0028F7D120680023B3
:1005600008A2050708D500F02000084304D0E06980
:10057000012305A2401EE0612046BDE8704000F066
:10058000BAB90000000000003000000070B5044659
:100590000D4621461068FFF703FF2188090502D5A3
:1005A0000F4A7A4402E00E4A7A440E32002104F1E6
:1005B000240305E000F00F060009965D5E54491C17
:1005C0000028F7D120780023000704D5702D02D031
:1005D00009B1022311322046BDE8704000F08BB90A
:1005E000C6BB00002DE9F05F894604464FF0000AC3
:1005F000DFF874B1FB44C0F820A02046E1688847CA
:10060000002874D0252806D0D4E901219047206A1B
:10061000401C2062F1E700265F462046E1688847DB
:100620002028054607DB312D05D2781910F8200C5B
:1006300008B10643F1E7B00701D526F00406C4F877
:100640001CA00027C4F818A02A2D09D0284607F0BE
:100650000DFD38B304EB8708303DC8F8185019E099
:1006600059F8041B204604EB87029161E168884732
:10067000012F054618D1E069002820DA26F020066F
:100680001DE0D8F8180000EB800005EB4000303882
:10069000C8F818002046E1688847054607F0E6FCE0
:1006A0000028EED1012F0AD02E2D08D12046E16876
:1006B00088477F1C0546022F46F02006C4DBA06950
:1006C000002803DA404246F00106A061F00701D09D
:1006D00026F010066C2D0BD0682D09D04C2D39D08A
:1006E0006A2D35D0742D35D07A2D33D016E038E010
:1006F000E1682F4620468847B842054609D16C2F4D
:1007000026D04FF48060E1680643204688470546BE
:1007100004E06C2F1AD04FF4807006430DB3A5F19E
:100720004100192802D8203546F400664A46294679
:10073000204626604E46FFF761FD80B101280BD0B0
:10074000F61D26F0070000F1080956E74020E4E70F
:100750008020D8E70020D6E706F104094DE72846B7
:1007600052E7206ABDE8F09F9CBB000010B5431C17
:1007700002E010F8011B71B18107FAD14FF001328C
:1007800002C88C1A8C4314EAC211F9D0C01A0A06A6
:1007900003D0C01E10BDC01A10BD0A0401D0801EB7
:1007A00010BD0902FCD0401E10BD4FF0000200B584
:1007B000134694469646203922BFA0E80C50A0E884
:1007C0000C50B1F12001BFF4F7AF090728BFA0E832
:1007D0000C5048BF0CC05DF804EB890028BF40F8FE
:1007E000042B08BF704748BF20F8022B11F0804F40
:1007F00018BF00F8012B7047704770477047000022
:1008000070B5064C7C44064D7D4403E020682044CE
:100810008047241DAC42F9D170BD0000CCC100005E
:10082000CCC1000000487047E8E60120004870474E
:10083000ECE6012070B5064600F034F9056806F1D3
:100840000B0020F00704B4429CBF002070BD2B4673
:100850006A68BAB11068A04210D304F10801884256
:100860003CBF5068586007D3516810194160116847
:10087000091B016058601460101D70BD134652685A
:10088000002AE7D12146284600F018F90028DED1D9
:1008900070BD70B50446051F00F004F90068002C17
:1008A00014BF446870BD002C18BFAC423CBF20464A
:1008B0006468F8D301680A18AA4218BF456003D1DA
:1008C0002A6805461144016028684119A1421CBFED
:1008D0006C6070BD6168696021680844286070BD03
:1008E00010B500F0E3F8006810BD10B5044600F044
:1008F000DDF8046010BD2DE9F0470D46994692469B
:10090000044600F124080168880604D5E06921F056
:100910001001216000E00120A84201DD471B00E03A
:100920000027A1697A1902EB0900081AA061207852
:10093000C00602D42046FFF703FD002608E0D4E9F4
:1009400001211AF806009047206A401C761C20629C
:100950004E45F4DB2078C0060AD52046FFF7F0FCB0
:1009600006E0D4E9012130209047206A401C206233
:10097000381EA7F10107F4DC07E0D4E9012118F8DB
:1009800005009047206A401C2062281EA5F1010541
:10099000F3DC2046FFF7EAFC2078000602D50220AF
:1009A000BDE8F0870120FBE701694A1C0261087875
:1009B000704700B58FB0CDE901310021059105499F
:1009C0007944CDE9031011466846FFF70BFE0FB0DE
:1009D00000BD0000E5FFFFFF0A6802F8010B0A6096
:1009E000704710B5436913B1AFF3008001E0FFF722
:1009F000E0FC012010BD127800F124010A700022F1
:100A00004A700122EDE711684FF0FF32E9E710B5B7
:100A1000436913B1AFF3008001E0FFF72FFD012020
:100A200010BD128800F1240182840022C2840122B8
:100A3000EDE711684FF0FF32E9E770B516460C4656
:100A4000054600F027F8036893F80101012806D055
:100A5000FF2C0FD8185D68B101202C7070BDD3F841
:100A600007013246214603F2071303442846BDE836
:100A7000704018474FF0FF3070BD10B500F06EF8B1
:100A8000BDE8104000F064B800F080B8004870473E
:100A9000B4E6012010B500F0DBF8001D10BD00BF6A
:100AA0003976000000487047BCE6012000487047D6
:100AB000B4E60120704770477047704738B5044668
:100AC0000A4600206946AFF30080002808BF38BD01
:100AD00002460099204600F0C3F8012038BD0120ED
:100AE00000F0FFB8F8B5AFF30080054600200C46D3
:100AF000102000BF0646A819A0420DD9324669460B
:100B00000020AFF30080070008BF00F0EAF800986B
:100B1000A04218BF0546C419FFF7C4FF0560074689
:100B2000F01D20F007004619284600F00AF8B442EC
:100B300008BFF8BDA21B31463868BDE8F84000F098
:100B40008FB800210160C0E9011070471020704784
:100B5000002801D000F050B87047000010B5002107
:100B600002A000F0A5F8012010BD00005349475035
:100B700056464E3A205075726520766972747561DA
:100B80006C20666E2063616C6C65640010B500F0CB
:100B90000EF8016919B100220261884701E08068FE
:100BA000804700F07DF8000010B500F079F870B5CE
:100BB00000F052F804680546A4B92020FFF73AFE79
:100BC000040011D0094900202C60C4E90001084943
:100BD000A1602073206160610649A06109B100F045
:100BE00087F8E061204670BD00F05AF80000000070
:100BF000A90B0F080000000001491820ABBEFEE75A
:100C0000260002007546FFF741FFAE460500694623
:100C1000534620F00700854618B020B5FFF740FB8B
:100C2000BDE820404FF000064FF000074FF00008ED
:100C30004FF0000B21F00701AC46ACE8C009ACE86E
:100C4000C009ACE8C009ACE8C0098D467047000097
:100C500000487047D4E6012000487047F0E60120C4
:100C6000034640688C46002818BF88423CBF0346B4
:100C70004068F8D318681844884207D00CF1030084
:100C800020F00700001D411A521A0146081D0A6093
:100C9000FFF7FFBD0446AFF300802046FFF7EBFAF5
:100CA000002000F04BF8FFF7D8FA0120FFF7A4FF6F
:100CB00070B505460C460A2000E06D1C00F036F8C1
:100CC00035B128780028F8D102E0641C00F02EF835
:100CD00014B120780028F8D1BDE870400A2000F057
:100CE00025B810B500F032F8BDE81040FFF730BF6E
:100CF00010B58820FFF79EFD002801D0002101706B
:100D000010BD802902D808B1017809B100207047D0
:100D1000012100F8081B704718B100F10802914248
:100D200001D00020704700210170704708B5694666
:100D30008DF800000320ABBE08BD704710B500F071
:100D40006DF8BDE81040FFF703BF000010B50128A3
:100D500005D0002103A0FFF7ABFF012010BD09A1C2
:100D6000F8E7000053494752544D454D3A204F751E
:100D700074206F662068656170206D656D6F727993
:100D8000000000003A2048656170206D656D6F724B
:100D90007920636F72727570746564004FF0013C66
:100DA00050F8042B51F8043B9A4221D1A2EB0C03DA
:100DB000934313EACC1317D150F8042B51F8043B9A
:100DC0009A4215D1A2EB0C03934313EACC130BD137
:100DD00050F8042B51F8043B9A4209D1A2EB0C03C2
:100DE000934313EACC13DBD04FF00000704700BFF1
:100DF000D01A01BAB1FA81F101F0180122FA01F01A
:100E0000CB40C1F12001DBB2C0B2C01A2CFA01F311
:100E1000D11A914311EAC311E6D1704710B50021F0
:100E200002A0FFF745FF012010BD000053494741D4
:100E30004252543A2041626E6F726D616C2074654B
:100E4000726D696E6174696F6E000000074A9042AE
:100E500001D2074801E005481038064A8B0001EA34
:100E6000020101D5C1607047816070471064024083
:100E7000006002407D0F7D0F0029016802D041F023
:100E8000010101E021F00101016070472DE9F0430B
:100E9000016821F001010160002101604160816071
:100EA000C1600161212141613C493C4A3D25103925
:100EB000904202D18D60BDE8F083384A4FF47466E9
:100EC0001832904201D18E60F5E7344A4FF474171E
:100ED0003032904201D18F60EDE7304A4FF0746CB0
:100EE0004832904202D1C1F808C0E4E72B4B2C4AAB
:100EF0006033984201D1CA60DDE7284C294B783431
:100F0000A04201D1CB60D6E7DFF89080264C08F1F3
:100F10009008404501D1CC60CDE7DFF880804FF0EC
:100F20003D5908F1A808404502D1C1F80C90C2E72C
:100F30001E49DFF878800839404501D10D60BAE7D5
:100F40001A4D1835A84201D10E60B4E7174D30355F
:100F5000A84201D10F60AEE7144D4835A84202D136
:100F6000C1F800C0A7E7114D10496035091FA8421C
:100F700001D10A609FE70D4A7832904201D10B609F
:100F800099E70A4A9032904201D10C6093E7074AF0
:100F9000A83290428FD1C1F800908CE710600240D7
:100FA0003D000020400F002000003D201064024062
:100FB0000246094B00209A4201D2084A01E0064A43
:100FC000103A8B0001D5526800E01268044B1A40B9
:100FD0000A4200D0012070471064024000600240C5
:100FE0007D0F7D0F30B50368124ACC6813400A6844
:100FF0002243D1E905452C432243CC6922430C6AA4
:1010000022434C6A22438C6A22434C6B22438C6BF2
:1010100022431A430260426922F00703D1E90B24FC
:1010200022431A4342610A6942604A6882608968C1
:10103000C16030BD3F801CF030B51A498379026829
:1010400053B30B6893430B600A1D13680468A343F2
:10105000136002790A441368046823431360114A39
:10106000083213680468A3431360131D1C680568E5
:10107000AC431C604479102C05D021440A680068F8
:1010800002430A6030BD1168046821431160196889
:1010900000680143196030BD00790844016891433C
:1010A000016030BD003C01408000A0F1C04000293B
:1010B000016802D041F0010101E0024A11400160E3
:1010C00070470000FEFF0F0010B5D0E90112114378
:1010D000D0E903231A431143426911438269114342
:1010E000C2691143026A1143426A1143826A114381
:1010F000C26A1143026B114302689200A2F1C0421E
:1011000011608168082907D101688900A1F1C041F7
:101110000A6842F040020A60416BD1E9002342EACA
:1011200003128B688C891B0243EA04431A430B8A1F
:1011300042EA03520B7D896942EA03620A4301686D
:101140008900A1F1C0414A60C16AB1F5804F08D061
:1011500000686FF070418000A0F1C040C0F8041139
:1011600010BD816BD1E9002342EA03128B680C8A1F
:101170001B0243EA04531A430B7D896942EA036266
:1011800000680A438000A0F1C040C0F8042110BDEF
:10119000F0B50023012403270D6804FA03F215407B
:1011A000954242D1D0F800C05E0007FA06F52CEA5D
:1011B000050CC0F800C091F804C0D0F800E00CFAAB
:1011C00006FC4CEA0E0CC0F800C091F804C0BCF15B
:1011D000010F02D0BCF1020F1FD1D0F808C02CEAD9
:1011E000050CC0F808C091F805C0D0F808E00CFA6A
:1011F00006FC4CEA0E0CC0F808C0D0F804C02CEA7B
:10120000020CC0F804C0426891F806C00CFA03FC56
:101210001FFA8CFC42EA0C024260C268AA43C26018
:10122000CA79C568B2402A43C2605B1C102BB3D395
:10123000F0BD4B07DB0E9A40C90810B500EB8100EA
:10124000016A0F249C40A1430162016A11430162BB
:1012500010BD0246002012690A4200D001207047EA
:1012600002460020938A128B43EA024323F07F4216
:10127000914300D1012070470029818802D041F4B8
:10128000006101E021F400618180704700298188BC
:1012900002D041F4805101E021F4805181807047F7
:1012A0000029018802D041F4807101E021F48071AD
:1012B000018070470029018802D041F4007101E0EB
:1012C00021F40071018070470CB5024600200092A5
:1012D0000A0F21F07F41019202D0009A143202E0FD
:1012E000009A090C1832009212680A4200D00120BC
:1012F0000CBD00007FB5044680880D4620F03F06F7
:10130000684601F00FF927490298B0FBF1F189B264
:101310000E43A680228822F001022280224B2A68F6
:101320009A421BD85200B0FBF2F080B2042800D2DF
:101330000420491C2184A083208840F001002080E3
:1013400021884FF6F5300140A8886A891043084388
:101350002080A8892989084320817FBDEB88A3F5D7
:101360003F46FF3E0BD002EBC20303EB0212B0FB81
:10137000F2F080B240F48040020506D007E002EBB4
:101380004202B0FBF2F080B2F6E740F001004FF409
:10139000967251434FF47A72B1FBF2F140F400407F
:1013A000C7E7000040420F00A08601002DE9F84F7A
:1013B00082460020894600906946012000F0D6F957
:1013C000504D01212846FFF761FF01212846FFF714
:1013D00067FF4D4C4FF440564C4F266004E02068A8
:1013E000401E2060401C7CD039462846FFF76CFF29
:1013F0000028F4D000225146284600F08FF8DFF88C
:101400001081266004E02068401E2060401C77D0D8
:1014100041462846FFF724FF0028F4D049462846D5
:1014200000F084F8DFF8E480DFF8E09008F17F084E
:1014300009F10309266004E02068401E2060401C7A
:101440005ED041462846FFF73FFF28B94946284667
:10145000FFF73AFF0028EFD001212846FFF720FFD1
:10146000266004E02068401E2060401C48D03946B9
:101470002846FFF729FF0028F4D0012251462846CC
:1014800000F04CF82660234E04E02068401E2060E7
:10149000401C35D031462846FFF7E2FE0028F4D044
:1014A00001212846FFF7E8FE1B4E01213046FFF7D9
:1014B000E3FC164F4FF4C0401F37206004E0206863
:1014C000401E2060401C1BD039463046FFF770FD9F
:1014D0000028F4D001212846FFF7ECFE0021304619
:1014E00000E00DE0FFF7C8FC00212846FFF7C4FE2E
:1014F00039463046FFF7AAFC9DF80000BDE8F88F9A
:101500000220FBE70054004028E101200100001008
:1015100082000700020003001060024012B141F097
:10152000010101E001F0FE01018270470182704774
:101530002DE9F84F8A46814600278DF8002069463C
:10154000384600F013F9414D01212846FFF7A8FE67
:101550003F4C4FF44056DFF8FC80266004E02068E2
:10156000401E2060401C6FD041462846FFF7ACFE6D
:101570000028F4D0002249462846FFF7CFFFDFF8C5
:10158000D880266004E02068401E2060401C5BD0AC
:1015900041462846FFF764FE0028F4D0514628460D
:1015A000FFF7C4FFDFF8AC80DFF8A89008F17F08F0
:1015B00009F10309266004E02068401E2060401CF9
:1015C00042D041462846FFF77FFE28B949462846C3
:1015D000FFF77AFE0028EFD001212846FFF74CFEE6
:1015E000DFF8788001214046FFF746FC266046463A
:1015F000DFF86C8004E02068401E2060401C23D08F
:1016000041463046FFF7D4FC0028F4D04FF4C040E8
:1016100020604C4621462846FFF756FE0028F9D0A8
:1016200001212846FFF746FE00213046FFF724FC43
:1016300000212846FFF720FE41463046FFF706FC12
:101640003846BDE8F88FFFE70220FAE70054004073
:1016500028E101200100001082000700A060024084
:10166000000020201FB500F0CBF80020ADF80400EA
:10167000ADF808004FF48060ADF80A000001ADF845
:101680000C004BF6FF713748ADF806100090694624
:101690003548FFF72FFE822000F048F910B10420F2
:1016A00004B010BD882000F041F908B10520F7E72B
:1016B000822000F07BF9882000F078F901220721D0
:1016C000822000F08BF801221146822000F01BF9E5
:1016D00001221146822000F0DFF80021012000F0F5
:1016E000F5F900220C21882000F00DF901220C21CF
:1016F000882000F0D1F803220C21882000F0DEF8C9
:1017000000F064F901220D21882000F067F8012221
:101710000421882000F0F7F800220121882000F041
:10172000F2F801220521882000F0B6F800210420FB
:1017300000F0CCF90021012000F0C8F90022F821C6
:10174000882000F0E0F80122F821882000F0A4F8B9
:101750000322F821882000F0B1F800F095F900206C
:101760009EE70000A08601000054004030B50D4601
:10177000044601218FB0480500F098FE4FF000703C
:1017800000901448CDE9010500210015CDE90510B0
:101790000420CDE90A100791089109910C910D914F
:1017A0000E91012C0FD0002C0BD140200390012072
:1017B000094C04902046FFF769FB69462046FFF775
:1017C00011FC0FB030BD0220034CCDE90310903C5A
:1017D000F0E7000010540040A060024070B50C46D5
:1017E000164605460421FFF7E1FD0EB1A04300E0D7
:1017F0002043024604212846FFF79AFE002070BDD0
:101800007CB501214C05204600F068FE01214FF413
:10181000817000F04BFE0121880300F077FE01216A
:10182000204600F067FE0021204600F063FE4020C5
:10183000009002208DF804008DF8050001208DF83D
:101840000600134D00248DF8074069462846FFF72F
:101850009FFC6815009069462846FFF799FC042212
:1018600006212846FFF7E5FC042209212846FFF758
:10187000E0FC042000908DF804408DF80740694694
:101880000448FFF785FC0221082001F001F97CBD26
:10189000000402400020024070B50C461646054682
:1018A0001721FFF783FD0EB1204300E0A04302465D
:1018B00017212846FFF73CFE002070BD2DE9F041BE
:1018C0000D46164607461621FFF770FD0446152102
:1018D0003846FFF76BFD20EA050124EA05020C46B5
:1018E000F00700D02A43B00701D541EA05041621CC
:1018F0003846FFF71DFE224615213846FFF718FE31
:101900000020BDE8F08170B50C461646054613214F
:10191000FFF74CFD0EB1204300E0A0430246132127
:101920002846FFF705FE002070BD000010B500F04E
:101930002EF8A0F50061113906D00448006808B1FE
:10194000012010BD022010BD002010BD28E10120A3
:1019500010B512218820FFF729FD1F21B1EBD00F10
:1019600013D0010601D4012010BD410601D402208C
:1019700010BD810601D4032010BDC10601D404208E
:1019800010BD000701D4052010BD002010BD70B5AA
:1019900005460021FFF70AFD4FF6FF7101EA00241A
:1019A00001212846FFF702FD204370BD10B5044613
:1019B00002220321FFF7BCFD022006F05FFB00229C
:1019C00003212046FFF7B4FD002010BD10B504210F
:1019D0008220FFF7EBFC20F0030204218220FFF7B6
:1019E000A7FD0A218220FFF7E1FC40F007020A214F
:1019F0008220FFF79DFD492220218220FFF798FDDC
:101A0000022006F03BFB012221218220FFF790FDFE
:101A100017218220FFF7CAFC20F01E021721822026
:101A2000FFF786FD9A2241218220FFF781FD0122E6
:101A30004A218220FFF77CFD01224B218220FFF703
:101A400077FD00224B218220FFF772FD01225621F3
:101A50008220FFF76DFD012258218220FFF768FDEB
:101A6000012240218220FFF763FDFF220B2182200B
:101A7000FFF75EFD03480021C18081804180018025
:101A8000084610BD38E1012008B500208DF800009F
:101A900004218820FFF78AFC8DF800009DF80000E3
:101AA00020F009008DF800009DF800200421882016
:101AB000FFF73EFD012260218820FFF739FD032258
:101AC00060218820FFF734FD002008BD10B5C20753
:101AD00001D0822303E010F0050F08D088230246CE
:101AE00039B110211846FFF723FD002010BD032057
:101AF00010BD1121F6E700002DE9F05F5B4CDFF827
:101B000070A18346C4E91601DAF80000164657466C
:101B100001695846884705463146564804F0DCFCC2
:101B2000304603F0CBFC8119524804F01CFD5249A9
:101B3000504804F085FD50494E48A83104F080FD1E
:101B40004E494C4804F07CFD4C494A48A83104F009
:101B500077FD4B49474804F073FD49494548A83192
:101B600004F06EFDA4F180000026067038680321A1
:101B70000268A06D9047C0B2424F4FF001090128A2
:101B800024D087F8009000213C4804F02DF97E70A5
:101B900087F80290E06DB04638B3DAF80010564688
:101BA000A1460A681C219047C4B230681D21026812
:101BB000D9F85C009047C6B2D9F8580002F03CFE54
:101BC000314A0146002052F821100BE03E700121FD
:101BD000DAE7A24200D178700A5CB24200D1B87054
:101BE000401CC0B20A5CFF2AF3D187F8038087F853
:101BF000048087F8058087F8068087F8078087F8D3
:101C0000088087F8098087F80A8087F80B80584693
:101C100000F060F817491D48C1F80C010021154873
:101C200004F07CFC0920B0EB157F1AD0C5F30360EB
:101C3000092816D00021124804F0D6F80A20B0EB8B
:101C4000157F10D0C5F303600A280CD000210C4882
:101C5000A83004F0C9F8BDE8F05F0021022000F0D0
:101C6000C5BE0121E7E70121F1E7000084E0012082
:101C7000F4FF012068E1012078E20120C8E301209F
:101C800018E50120A8E6012020A30F08CD490F0880
:101C900010B50E4C204604F085FC04F5827005F06A
:101CA00053FA022000F096FE094C6188084305D0E3
:101CB000002902D06088401E608010BD00210846C7
:101CC00002F0DCFE04206080F4E7000068E10120FF
:101CD00004E00120002102F09DBE00002DE9F14F3B
:101CE000C54D0527C54EDFF81893DFF8188300248B
:101CF00005F1850A3068295D02681AF8011000981C
:101D0000904798F8003009EB83122B5D641CE4B215
:101D100022F81300BC42EDD3B74D01270024DFF8B1
:101D2000E4A2ED1E05F1010B0AF1E00A3068295D1D
:101D300002681BF801100098904798F800200AEB01
:101D4000C2012A5D641CE4B241F82200BC42EDD31A
:101D5000454698F80000DFF8A88200EB400108F142
:101D600040084FF0000A18F821000124E8BB306851
:101D7000082102680098904729784F4609EB8111A5
:101D8000888230680C210268009890472A7800B257
:101D900007EB821102EB420308EB83020883D2783F
:101DA000012A35D1B1F9142002B9E8B312FB02F1CE
:101DB00010FB001000EE100AB8EEC00A05F035FA6C
:101DC000BDEEC00A287810EE101A07EB801081874C
:101DD000B0F91810B0F9140000EE101AF8EEC00AAD
:101DE00000EE100AB8EEC00A00E019E005F01FFA94
:101DF000DFED850A20EE200ADFED840A297880EEE7
:101E0000201A07EB8111BDEEC10A10EE100AC88737
:101E1000686E08B180F82040286F08B180F8204033
:101E200030680121026800E027E00098904786B200
:101E3000070C56EA070008D07548B0F800010128E1
:101E400003D00121724804F069FB686B58B306B1F6
:101E5000BFB1704804F04EF8696B884202D16D48FA
:101E600004F0ADF8686B4CF21861428B8A421AD0CC
:101E70004183002103F087FF12E0A1F83CA05A2023
:101E8000C5E700214183012103F07DFF614804F093
:101E900031F8696B884203D000215E4804F036F8BF
:101EA000686B80F820402878514600EB400208EB30
:101EB0008200730680F805A04FF0020200D542713F
:101EC0007B0600D544718171F30600D58271FB0653
:101ED00000D58471C171B30600D5C271BB0600D5AF
:101EE000C4710172F30700D00272FB0700D00472C4
:101EF000330600D502723B0600D5047241727307A7
:101F000000D542727B0700D544728172B30700D5B9
:101F10008272BB0700D58472C172310700D5C272CC
:101F2000390700D5C472696BF1B33349AA694379A3
:101F3000491D568B31F813309E4202D0538382F8EC
:101F40002040EA698379568B31F813309E4202D0E3
:101F5000538382F820402A6AC379568B31F81330B4
:101F60009E4202D0538382F820406A6A037A568BDD
:101F700031F813309E4202D0538382F82040AA6A7F
:101F8000437A568B31F813309E4202D0538382F845
:101F90002040EA6A837A568B31F813309E4202D091
:101FA000538382F8204000E009E02A6BC07A538B0B
:101FB00031F81000834202D0508382F82040286913
:101FC00008B180F82040686908B180F820400D48C9
:101FD0008030C06C08B180F82040686D08B180F88E
:101FE0002040A86E08B180F82040686F002801D01A
:101FF00080F82040BDE8F88FC7A20F08F4FF012049
:1020000068E6012004E0012000003443C3F54840A5
:1020100068E1012020E3012030B50546002440F2AC
:102020003F11204600F0F0F94FF0D0412220088007
:102030004FF496304D80641C8442FBD330BD0000C9
:102040001CB50121782000F031FA4CF23370009079
:1020500002208DF804008DF8050000208DF80600A0
:10206000404C8DF8070069462046FFF791F80C2296
:1020700000212046FFF7DDF80C2201212046FFF762
:10208000D8F80C2204212046FFF7D3F80C220521B2
:102090002046FFF7CEF80C2208212046FFF7C9F8AA
:1020A0000C2209212046FFF7C4F80C220A21204601
:1020B000FFF7BFF80C220E212046FFF7BAF80C22DA
:1020C0000F212046FFF7B5F84FF68070264C0090A0
:1020D00069462046FFF75CF80C2207212046FFF7EF
:1020E000A8F80C2208212046FFF7A3F80C220921AA
:1020F0002046FFF79EF80C220A212046FFF799F8A8
:102100000C220B212046FFF794F80C2211462046A2
:10211000FFF78FF80C220D212046FFF78AF80C22DA
:102120000E212046FFF785F80C220F212046FFF7ED
:1021300080F801200D4C009069462046FFF728F8F2
:102140000C2200212046FFF774F82015084C00905F
:1021500069462046FFF71CF80C220A212046FFF7AB
:1021600068F81CBD000C0240001002400014024040
:1021700000180240064B10B45B68203AD2B21C68CB
:10218000DB88534304EB430210BC00F003B80000AB
:1021900040E101202DE9F04390468946002605469E
:1021A00000F032F94FF0D047184C29E02220388057
:1021B00000201BE00C23B1FBF3F34FEAC30C802398
:1021C00003FA0CF338F816C0034113EA0C0F01D1DF
:1021D0000C2906D9012383401CEA030F03D10C29E3
:1021E00001D9618800E021887980401C9188814272
:1021F000E0D86D1CADB24946284600F005F9761CC2
:102200006268D088B042D1D8BDE8F08340E10120B7
:102210002DE9FC430024894605461746ADF80040E9
:10222000ADF8044001A9684600F08CF849462846FC
:1022300000F0EAF84FF0D048144E21E02220434647
:10224000A8F8000000200122A2400DE037F810C0DD
:102250001CEA020F02D1BDF804C001E0BDF800C0C5
:10226000A3F802C0401CC0B2B1F804C08445EDD848
:102270006D1CEDB24946284600F0C6F8641CE4B275
:102280007168C888A042D9D8BDE8FC8340E101202C
:102290002DE9F047984617468A460646002400F086
:1022A000B3F8222110484FF0D045B8F1000F02D00A
:1022B0008946804614E0298002E001886980641C18
:1022C000BC42FAD3BDE8F087A5F80090B8F800004A
:1022D0006880761CB6B25146304600F095F8641C12
:1022E000BC42F1D3EEE7000040E1012000B501213E
:1022F00097B0084600F0E6F805200F90002009216D
:10230000CDE91001149004211590CDE90010129030
:102310001021CDE902011390049005900690090266
:102320000790CDE908010A900B900C900FA80D9032
:102330000E906846FEF7C8FE01210420FEF7B4FEA9
:1023400017B000BD024A1388038050880880704788
:1023500040E10120014840687047000040E1012051
:10236000012070472DE9F04F8046099FA1F23F11EF
:10237000D01985B2484280B2834601461E460024E9
:10238000284600F041F84FF0D0494FF0220A1DE0F6
:1023900041F20801032000F051F84A46A9F800A0D4
:1023A000002005E004FB060338F813105180401CA0
:1023B000B042F7D341F21801032000F03FF86D1E40
:1023C000ADB25946284600F01FF8641CBC42DFD36A
:1023D000BDE8F08F4FF0D04108804888704700007A
:1023E00001B5BDF800000149488008BD40E1012069
:1023F00003B5BDF8001003480180BDF8041041800A
:102400000CBD000040E101200B4600B50146202034
:1024100000F014F8194621205DF804EB00F00EB826
:10242000014948607047000040E1012001B5BDF856
:1024300000000149088008BD40E101204FF0D04272
:10244000108051807047000030B50F22C4780178A9
:102450000123FCB1144C246801F1E02104F4E06490
:10246000C4F5E064C4F30724C4F10405E2404478F1
:10247000AC408578154025432A0181F80024007876
:1024800000F01F018B404009800000F1E020C0F8FF
:10249000003130BD01F01F0083404809800000F189
:1024A000E020C0F8803130BD0CED00E0044A002986
:1024B000116801D0014300E08143116070470000C2
:1024C00030380240044A0029116801D0014300E07D
:1024D000814311607047000038380240044A0029E7
:1024E000116801D0014300E0814311607047000092
:1024F00040380240044A0029116801D0014300E03D
:10250000814311607047000020380240044A0029CE
:10251000116801D0014300E0814311607047000061
:102520004438024070B5204A1168204C11F00C016B
:1025300004D01F4E042903D0082903D004601BE0F7
:10254000066019E01849091F0B68C3F380550B6832
:1025500003F03F0315B1B6FBF3F301E0B4FBF3F373
:102560000C680968C4F388146343C1F30141491C32
:102570004900B3FBF1F1016011680F2303EA111167
:102580000C4B5C5C0168E14041601468072505EA7A
:1025900094241C5D21FA04F48460126805EA523226
:1025A0009A5CD140C16070BD083802400024F4003C
:1025B00040787D01ECE001202DE9F84F00200090EB
:1025C000FFF73EFDFFF792FE052005F065FD0020B8
:1025D000FFF700FFA0F513414FF480764FF4E0675A
:1025E00040F2022341F2B07540F2371840F2391937
:1025F0004FF4E85A40F2023B41F2180400902039AF
:1026000002D0491F7DD0DAE14FF40041E520FFF709
:1026100015FF01210020FFF711FF31460120FFF7D0
:102620000DFF39460220FFF709FF41F23001032078
:10263000FFF704FF00210420FFF700FF19460820E0
:10264000FFF7FCFE00210920FFF7F8FE00210A2019
:10265000FFF7F4FE00210C20FFF7F0FE00210D2013
:10266000FFF7ECFE00210F20FFF7E8FE002110200D
:10267000FFF7E4FE00211120FFF7E0FE0021122009
:10268000FFF7DCFE00211320FFF7D8FE142005F031
:1026900003FD29461020FFF7D1FE41461120FFF728
:1026A000CDFE052005F0F8FC49461220FFF7C6FED6
:1026B000052005F0F1FC51461320FFF7BFFE132162
:1026C0002920FFF7BBFE052005F0E6FC00212020B5
:1026D000FFF7B4FE00212120FFF7B0FE06213020D5
:1026E000FFF7ACFE40F201113120FFF7A7FE0321F6
:1026F0003220FFF7A3FE4FF483713520FFF79EFED3
:1027000000E071E040F602313620FFF797FE5946AF
:102710003720FFF793FE40F207713820FFF78EFE57
:1027200007213920FFF78AFE4FF4C0613C20FFF7F4
:1027300085FE40F20B213D20FFF780FE0021502056
:10274000FFF77CFEEF215120FFF778FE0021522099
:10275000FFF774FE40F23F115320FFF76FFE4FF476
:102760001C516020FFF76AFE01216120FFF766FE21
:1027700000216A20FFF762FE00218020FFF75EFE45
:1027800000218120FFF75AFE00218220FFF756FE2C
:1027900000218320FFF752FE00218420FFF74EFE28
:1027A00000218520FFF74AFE10219020FFF746FE0A
:1027B00000219220FFF742FE03219320FFF73EFE07
:1027C0004FF488719520FFF739FE00219720FFF71D
:1027D00035FE00219820FFF731FE21460320FFF748
:1027E0002DFE40F27311E7E001210020FFF726FEE5
:1027F00031460120FFF722FE39460220FFF71EFE78
:1028000021460320FFF71AFE00210420FFF716FEE1
:1028100019460820FFF712FE00210920FFF70EFEDF
:1028200000210A20FFF70AFE00210C20FFF706FE18
:1028300000210D20FFF702FE00210F20FFF7FEFD13
:1028400000211020FFF7FAFD00211120FFF7F6FD0F
:1028500000211220FFF7F2FD00211320FFF7EEFD0B
:10286000142005F019FC29461020FFF7E7FD41462A
:102870001120FFF7E3FD052005F00EFC494612206C
:10288000FFF7DCFD052005F007FC51461320FFF79C
:10289000D5FD13212920FFF7D1FD052005F0FCFB14
:1028A00000212020FFF7CAFD00212120FFF7C6FDEF
:1028B00007213020FFF7C2FD59463120FFF7BEFD4A
:1028C00040F2051319463220FFF7B8FD40F2062505
:1028D00029463520FFF7B2FD40F60806314636207E
:1028E000FFF7ACFD29463720FFF7A8FD40F2045161
:1028F0003820FFF7A3FD07213920FFF79FFD194678
:102900003C20FFF79BFD31463D20FFF797FD00215E
:102910005020FFF793FDEF215120FFF78FFD00219D
:102920005220FFF78BFD40F23F115320FFF786FD49
:102930004FF427416020FFF781FD01216120FFF75F
:102940007DFD00216A20FFF779FD00218020FFF73F
:1029500075FD00218120FFF771FD00218220FFF726
:102960006DFD00218320FFF769FD00218420FFF722
:1029700065FD00218520FFF761FD10219020FFF704
:102980005DFD00219220FFF759FD03219320FFF701
:1029900055FD4FF488719520FFF750FD00219720D9
:1029A000FFF74CFD00219820FFF748FD214603204A
:1029B000FFF744FD40F233110720FFF73FFD0348C6
:1029C000A0F108014860BDE8F88F000048E101204F
:1029D000FEF748BE0349044A31F8101052F82000AF
:1029E000FEF737BC28A60F081CE1012070B504468D
:1029F00025480E4686B050F824000121FFF756FD09
:102A000001218803FFF782FD1F4800258DF8105033
:102A100038388DF8135030F8140003901B4803A980
:102A200050F82400FEF7B4FB012E2BD116482638AF
:102A300010F81410801F10F8140000F029F8124844
:102A4000323830F8140000908DF804500CB10C208E
:102A500000E008208DF8050001258DF80650684635
:102A6000FEF7EAFA0848203810F814008DF808003C
:102A70000F208DF809008DF80A008DF80B5002A880
:102A8000FFF7E2FC06B070BD60A60F081CE1012054
:102A900010B58A0721F003040849130F21440F22BF
:102AA000D1F808489A409443C1F80848D1F808285A
:102AB00098400243C1F8082810BD000000300140D2
:102AC0000CB500202749019000900A6842F480323A
:102AD0000A604FF4A0430A6802F400320092019A9F
:102AE000521C0192009A12B9019A9A42F3D10A68D3
:102AF000920334D5012000901A484030026842F019
:102B0000805202601848026842F440420260154850
:102B1000083002680260026842F400420260026803
:102B200042F4A0520260031F104A1A600A6842F081
:102B300080720A600A689201FCD50D4A40F2057164
:102B40001160016821F003010160016841F0020198
:102B500001600168C1F381010229FAD10CBD009026
:102B60000CBD0000003802400070004019544007BE
:102B7000003C0240124810B5016841F47001016048
:102B80001048016841F0010101600E4A002108323D
:102B9000116002680C4B1A400260031D0B4A1A6058
:102BA000026822F48022026006480C300160FFF7C0
:102BB00087FF03494FF000608039086010BD0000B6
:102BC00088ED00E000380240FFFFF6FE10300024E0
:102BD0002DE9FE4F282004F031FB0321009105234D
:102BE0003B4A3CA104F0EEFA8246282004F026FB82
:102BF0001E2100910523364A39A104F0E3FA8146EB
:102C0000282004F01BFB3C2100910523304A3EA103
:102C100004F0D8FA8046282004F010FB4B210091E4
:102C200005232B4A41A104F0CDFA0746282004F0E1
:102C300005FB5A2100910523254A45A104F0C2FA5B
:102C40000646282004F0FAFAB42100910523204A10
:102C500048A104F0B7FA0546282004F0EFFA7321E2
:102C6000009105231A4A4B4904F0ACFA0446514638
:102C7000174803F010F94946154803F00CF941468E
:102C8000134803F008F93946114803F004F93146B6
:102C90000F4803F000F929460D4803F0FCF82146DF
:102CA0000B4803F0F8F8282004F0C8FA08499623E6
:102CB000F7228DE80E0038492C234822096802F0DB
:102CC00025FC03B00146BDE8F04F014803F0E3B82E
:102CD00078E2012048656C70205061676500000053
:102CE00055736520746865206A6F79737469636BC6
:102CF00020746F20776F726B2077697468204C4363
:102D000044204755490000002D55502F444F574E41
:102D100020746F206D6F7665206265747765656ECF
:102D200020636F6E74726F6C730000002D4C45460B
:102D3000542F524947544820746F206D6F76652098
:102D40006265747765656E20706167657300000069
:102D50002D53454C20746F20696E746572616374E5
:102D600020776974682074686520636F6E74726F71
:102D70006C000000436F7079726967687420535467
:102D80004D6963726F656C656374726F6E696373AE
:102D900000000000D2A20F0800E001202DE9F04F52
:102DA00087B00021FE4803F01FF8282004F046FAFF
:102DB0000021FB4A0B460091A832FAA104F002FA66
:102DC0000746282004F03AFAF54A4FF0140B0A237C
:102DD000A832FAA1CDF800B004F0F4F90546382085
:102DE00004F02CFA2121EE4A00910A23A832F64978
:102DF00004F0FCF8F54C6060282004F01FFADFF8BE
:102E0000A083352308F1A8080A21CDF80080CDE978
:102E100001133C239B22EEA104F034F9064628203E
:102E200004F00CFA112100910F233246EDA104F0B9
:102E3000C9F90490282004F001FA252100910F23FC
:102E40003246EBA104F0BEF90590382004F0F6F903
:102E50006E22CDE900624FF00F09CDF8089022787C
:102E600008F5527A0AEB82110323E4A202F06EFE07
:102E70002061382004F0E2F923216E220096CDE98A
:102E80000121227803230AEB8211DCA2891C02F0C3
:102E90005DFE6061282004F0D1F9CD23CDE90083E7
:102EA000CDF808B0AA236422D5A104F0EBF8039072
:102EB000282004F0C3F90523CDF80090D2A1039A8D
:102EC00004F080F9A061282004F0B8F921210091D4
:102ED0000523D0A1039A04F075F9E061282004F0DD
:102EE000ADF9332100910523CDA1039A04F06AF9CD
:102EF0002062282004F0A2F9452100910523CBA1EE
:102F0000039A04F05FF96062282004F097F95721D2
:102F100000910523C8A1039A04F054F9A062282067
:102F200004F08CF9692100910523C6A1039A04F0ED
:102F300049F9E062282004F081F97B210091052302
:102F4000C3A1039A04F03EF92063302004F076F91F
:102F50008D2100910A23C1A1039A02F0EDFBC24921
:102F6000606341624CF218614183002102F00BFF63
:102F70004046616B02F08FFF3946404602F08BFFFE
:102F80002946404602F087FF4046616802F083FF11
:102F9000207808F5627700EB400017F82010606891
:102FA00003F0E9FEB14804F1800500680169A86DED
:102FB0008847C0067BD5282004F040F973230A21F6
:102FC000CDF80080CDE901133C23BE22A8A104F076
:102FD00059F88046282004F031F911210091052389
:102FE0004246A7A104F0EEF88246282004F026F914
:102FF0002521009105234246A2A104F0E3F8814671
:10300000382004F01BF90446A86D01F015FCDFF828
:10301000B8B121230BF10C0B42465BF820100F20B6
:103020000090204603F0E2FF684CA060382004F0D6
:1030300005F90190A86D01F0FFFB5BF8201023203B
:10304000009021234246019803F0D0FFE060414602
:10305000A7F5627002F01FFF5146A7F5627002F0FB
:103060001AFF4946A7F5627002F015FFA7F56270D6
:10307000A16802F010FFA7F56270E16802F00BFF93
:10308000207800EB400007EB80004178A06803F057
:1030900072FE207800EB400007EB80008178E0684A
:1030A00003F069FEA16878484862E16848623C48DC
:1030B0003146A83002F0EFFE39480499A83002F0FA
:1030C000EAFE37480599A83002F0E5FE3F4C344847
:1030D000A830216902F0DFFE31486169A83002F0B2
:1030E000DAFE0021206902F04EFE0021606902F044
:1030F0004AFE5E4800680169A86D88470221B1EB6D
:10310000107F03D0C0F30360022813D1302004F0F5
:1031100095F8B221224A00910A23A8325BA102F05D
:103120000BFB014628641E48A83002F0B4FE296C4F
:103130005B4848621A480399A83002F0ACFE184870
:10314000A169A83002F0A7FE1548E169A83002F095
:10315000A2FE1348216AA83002F09DFE1048616A61
:10316000A83002F098FE0E48A16AA83002F093FE43
:103170000B48E16AA83002F08EFE0948216BA830A6
:1031800002F089FE2078A26900EB400007EB800185
:103190000D484B79283830F8133053838B7981E010
:1031A00078E20120436F6E66696775726174696FBA
:1031B0006E20616E64206465627567004374726C92
:1031C000206D6F6465000000F4A20F0804E0012088
:1031D000506F77657220626F6172642073746174DE
:1031E0007573000044432042757320766F6C740041
:1031F0004865617473696E6B20542E00253364003A
:103200004661756C747300004F76657263757272F7
:10321000656E74005265767570206661696C000099
:103220005370656564206664626B000053572065C7
:1032300072726F7200000000556E64657220766FC6
:103240006C7400004F76657220766F6C740000001D
:103250004F7665722074656D700000004661756C74
:10326000742061636B000000B5490F08F4FF012072
:103270004441432053657474696E67730000000015
:103280004368310043683200D14D0F08456E636FCB
:1032900064657220616C69676E6D656E7400000014
:1032A000414E0F08E26930F813305383CB79226A1C
:1032B00030F8133053830B7A626A30F8133053833B
:1032C0004B7AA26A30F8133053838B7AE26A30F873
:1032D00013305383C97A226B30F811005083616830
:1032E0000348486207B00348BDE8F04F02F067BEEC
:1032F000F9510F0820E301202DE9F04F89B0282073
:1033000003F09CFF00210B460091FE4AFEA103F052
:1033100059FF0390282003F091FFFA494FF0140A57
:103320000A238DE80A045A239122FCA103F0AAFE85
:103330000746282003F082FF1E2100913C233A46D5
:10334000F9A103F03FFF0490282003F077FF41210B
:1033500000913C233A46F5A103F034FF0590282064
:1033600003F06CFF0F21009105233A46F0A103F012
:1033700029FF8346402003F061FF1E2105220097AC
:10338000CDE90121EE490623A1F1E004227801EB09
:10339000C201ECA203F07EF8DFF8AC830646A0631E
:1033A000D8F8000004F1800540210268A86D90471C
:1033B0008146D8F800003F210268A86D9047C6E911
:1033C0000E90282003F03AFF3221009105233A465F
:1033D000DEA103F0F7FE0690382003F02FFF412115
:1033E00005220097CDE90121DFF8709322780623AA
:1033F00009EB8211D3A2091D02F0A8FB47F6FF7268
:103400000021E06302F072FB302003F017FF41213E
:1034100000915A233A46D2A102F08EF9D249206493
:10342000416201F0A1F9282003F008FFB549732398
:103430000A228DE80E004B236822CCA103F022FE65
:103440000646282003F0FAFE0A233246CAA1CDF828
:1034500000A003F0B7FE0790282003F0EFFE232121
:1034600000910A233246C5A103F0ACFE0890382033
:1034700003F0E4FE51464FF0280A0096CDE901A181
:103480002278062309EB8211AEA2891D02F05EFBB1
:103490006064382003F0D2FE23210096CDE901A11B
:1034A0002278062309EB8211A6A2083102F04EFB16
:1034B000A0649448039902F0EEFC9248049902F04B
:1034C000EAFC9048059902F0E6FC39468D4802F086
:1034D000E2FC59468B4802F0DEFC8A48A16B02F000
:1034E000DAFC8848069902F0D6FC8648E16B02F0C7
:1034F000D2FC8448216C02F0CEFC8248696C02F058
:10350000CAFC8048A96C02F0C6FC7E48E96C02F057
:10351000C2FC7C48696D02F0BEFC0021E86C02F040
:1035200032FC7848296D02F0B6FC3146754802F04D
:10353000B2FC7448079902F0AEFC7248089902F098
:10354000AAFC7048616C02F0A6FC6E48A16C02F007
:10355000A2FCD8F800000169A86D884780072AD529
:10356000282003F06BFE32270A23324684A10097FD
:1035700003F028FE0546382003F060FECDE9006A1E
:1035800002972278062309EB82116EA20A3102F01B
:10359000DDFAE06429465B4802F07DFC5948E16CA5
:1035A00002F079FC47F6FF720021E06C02F09EFA0F
:1035B000616C7448486247F6FF752A460021606CCA
:1035C00002F094FA2A460021A06C02F08FFAD8F893
:1035D000000001695A486038806D8847C0077DD077
:1035E000282003F02BFE474973237D228DE80E002F
:1035F0004B23B42264A103F045FD0546282003F0C7
:103600001DFE0E260A232A4663A1009603F0DAFD6A
:103610008346282003F012FE50232A465EA100961E
:1036200003F0D0FD8246382003F008FE0A22CDE9DF
:1036300000521927029721784E4609EB8111042385
:1036400057A20C3102F082FA2065382003F0F6FD13
:103650005022CDE9005202972178042306EB811114
:103660004FA20E3102F072FA6065282003F0E6FDE9
:103670002C270A232A4640A1009703F0A3FD804689
:10368000282003F0DBFD50232A463CA1009703F0DD
:1036900099FD0746382003F0D1FD0A22CDE90052FA
:1036A0004FF03709CDF808902178062306EB8111F9
:1036B00024A2103102F04AFAA065382003F0BEFDC2
:1036C0005022CDE90052CDF808902178062306EB70
:1036D00081111CA2123102F039FA00E092E0E0659B
:1036E0002946084802F0D7FB5946064802F0D3FBAA
:1036F0005146044802F0CFFB0248216D02F0CBFB9B
:1037000000484FE0C8E30120537065656420636F93
:103710006E74726F6C6C65720000000053657420EB
:10372000706F696E7400000072706D006D73000040
:1037300054617267657420737065656400000000F1
:10374000E4E0012025366400F4FF012052616D7031
:10375000206475726174696F6E00000068E6012074
:10376000457865630000000091520F0850494420DD
:103770004761696E730000004B5000004B49000028
:103780004B440000A54B0F08466C757820776C2ED3
:103790002074756E696E670042555380000000000A
:1037A00025346400616D02F076FB0021606D02F04B
:1037B000EAFA4146194802F06EFB3946174802F012
:1037C0006AFB1648A16D02F066FB1448E16D02F039
:1037D00062FB4FF47A720021206D02F087F947F600
:1037E000FF752A460021A06D02F080F92A460021CB
:1037F000E06D02F07BF9216D09484862A16D4862D5
:10380000E16D4862616C06484862A16C486209B08B
:103810000248BDE8F04F02F0D2BB0000C8E301202F
:10382000A54B0F082DE9F04F8BB0282003F006FDC3
:1038300000210B460091FE4AFEA103F0C3FC039059
:10384000282003F0FBFC87210091E623F84AFEA123
:1038500003F0B8FC0490282003F0F0FC4FF00A09B4
:10386000F34DCDE900594FF014085A239122F8A1E5
:10387000CDF8088003F006FC0646282003F0DEFCA5
:103880000F21009105233246F4A103F09BFCF54C77
:103890002066382003F0D2FC1E2105220096CDE9D7
:1038A0000121227805F5FC7101EB82110623EEA2BD
:1038B000143102F04BF96066282003F0BFFC0F21A1
:1038C000009150233246E9A103F07CFC059038209A
:1038D00003F0B4FC1E2150270096CDE90171227837
:1038E00005F5FC7101EB82110623DFA2163102F00F
:1038F0002DF9A066282003F0A1FC4FF0320B052320
:103900003246DBA1CDF800B003F05CFCE066382065
:1039100003F094FC412105220096CDE90121227893
:1039200005F5FC7101EB82110623CFA2183102F0DC
:103930000DF92067282003F081FC322100915023EB
:103940003246CDA103F03EFC0690382003F076FC11
:1039500041210096CDE90171227805F5FC7101EB5A
:1039600082110623C0A21A3102F0F0F86067282005
:1039700003F064FC73220095CDE901924B23682289
:10398000BEA103F07FFB0746282003F057FC0A2363
:103990003A46BEA1CDF8008003F014FC0790382011
:1039A00003F04CFC4FF02809CDE90079CDF80880F0
:1039B000227805F5FC7101EB82110623AAA21C31C5
:1039C00002F0C4F8A067282003F038FC4FF0230A67
:1039D0000A233A46AEA1CDF800A003F0F3FB08900D
:1039E000382003F02BFC8DE88006227805F5FC7169
:1039F00001EB821106239CA21E3102F0A7F8E067BA
:103A0000282003F01BFC732178220095CDE90121C9
:103A10004B2368229FA103F035FB0546282003F0C5
:103A20000DFC0A232A4699A1CDF8008003F0CAFBB9
:103A30000990382003F002FCCDE90059CDF8088048
:103A400098492278062301EB821187A2223102F0E5
:103A50007DF804F18008C8F80800282003F0EEFB88
:103A60000A232A468AA1CDF800A003F0ABFB0A90F6
:103A7000382003F0E3FB8DE820068A4922780623EC
:103A800001EB821178A2243102F060F84146C8604F
:103A9000302003F0D3FB73210091E623644A82A116
:103AA00002F01EFC41468861382003F0C7FB9621D6
:103AB0000091E6235E4A7E4903F098FA4146C861C8
:103AC00000F052FE5A48039902F0E5F9584804996B
:103AD00002F0E1F93146564802F0DDF95448216E12
:103AE00002F0D9F95248616E02F0D5F950480599B3
:103AF00002F0D1F94E48A16E02F0CDF90021A06E7E
:103B000002F041F94A48E16E02F0C5F94848216FD8
:103B100002F0C1F94648069902F0BDF94448616FC8
:103B200002F0B9F90021606F02F02DF94046416CB6
:103B30003F4802F0B0F94046816C3D4802F0ABF9D5
:103B40004046C16C3A4802F0A6F94046416D3848FB
:103B500002F0A1F940460021C06C02F014F9404681
:103B6000016D334802F097F9207800EB40014D4891
:103B7000403000EB8100394606792D4802F08BF980
:103B80002B48079902F087F92948A16F02F083F9C1
:103B90002748089902F07FF92548E16F02F07BF988
:103BA000A16F44484862E16F434848624348006857
:103BB00001694046806D8847400747F6FF7A2CD55B
:103BC000282003F03BFB0A233A463DA1CDF800B084
:103BD00003F0F8FAC8F800004446382003F02EFB42
:103BE000204A8DE8800A2F491278062301EB8211C2
:103BF0001DA2203101F0AAFF60600D48216802F08B
:103C00004AF90B48616802F046F9524600216068A3
:103C100001F06CFF61682B484862124F54465246CF
:103C20000021B86F01F062FF22460021F86F4BE0DF
:103C300070E4012043757272656E7420636F6E7458
:103C4000726F6C6C65727300496E70757400000061
:103C500053657420706F696E74730000497120722F
:103C600065662E0004E001202536640049710000DD
:103C70004964207265662E00496400004971205035
:103C80004944204761696E73000000004B500000FA
:103C90004B490000496420504944204761696E73D4
:103CA0000000000068E601204C696E6B0000000017
:103CB00040A30F08254D0F08E14C0F08F4FF012029
:103CC0004B440000994C0F0801F010FF29465D4855
:103CD00002F0E1F85B48099902F0DDF844465948E2
:103CE000D8F8081002F0D7F856480A9902F0D3F82D
:103CF0005448E16802F0CFF8534800680169A06DAC
:103D00008847DFF84881000731D5282003F096FA6C
:103D10000A232A46AFF25801CDF800B003F052FA58
:103D20002061382003F08AFA8DE8200A48493A7861
:103D3000062301EB8211AFF2D002263101F006FF1B
:103D400060614048216902F0A6F83E48616902F0CE
:103D5000A2F852460021606901F0C8FE002E56D03C
:103D60000021606902F00FF86169C1F824805546AE
:103D700052460021A06801F0B9FE2A460021E06801
:103D800001F0B4FE2F48A16902F085F82D48E169E1
:103D900002F081F83878DFF8B89000EB400109F1C3
:103DA000400909EB8100C178E06902F0E4FF01F00D
:103DB00087FAA5696A6A2AB195F8210010B13146DF
:103DC0002846904785F82C601EB30021A06801F0BA
:103DD000DAFF06B30021E06801F0D5FFE1691D4874
:103DE0004862A1691C484862786E1C4941623A6F7A
:103DF0001B495162A268C2F82480E268C2F824809C
:103E0000397801EB410219F8221031B113E0012198
:103E1000A7E70121DAE70121DDE7002101F0B3FF87
:103E2000094800680169A06D8847800603D4002115
:103E3000386F01F0A8FF0BB00248BDE8F04F02F068
:103E4000BEB8000070E40120F4FF0120A54B0F086C
:103E500068E6012045540F08E94B0F08954F0F08FD
:103E6000594E0F082DE9F04FFF4887B00027006832
:103E7000FE4C0169A06D8847064609200025B0EB7D
:103E8000167F09D1282003F0D9F90023F84AF9A1B7
:103E9000009503F097F90746C6F30360092809D196
:103EA000282003F0CBF90023F14AF9A1009503F093
:103EB00089F907467006DFF8B8B34FF028000BD534
:103EC00003F0BCF914210A22CDF800B0CDE901219C
:103ED0005A239122F7A10AE003F0B0F914210A2233
:103EE000CDF800B0CDE901215A239122F4A103F0CD
:103EF000C9F80546282003F0A1F94FF00F0A052361
:103F00002A46F0A1CDF800A003F05CF90390382018
:103F100003F094F91E210522DFF850930095CDE9B6
:103F20000121A9F18009DFF8A08399F80020062378
:103F300008EB8211E5A2283101F008FE206228205A
:103F400003F07CF950232A46E1A1CDF800A003F04C
:103F500039F90490382003F071F91E214FF0500A0E
:103F60000095CDE901A199F80020062308EB821104
:103F7000D6A22A3101F0EAFD606200F0F5FB394675
:103F8000BB4801F088FF2946B94801F084FFB848D2
:103F9000039901F080FFB648216A01F07CFFB44824
:103FA000049901F078FFB248616A01F074FF70066D
:103FB00058D5282003F042F93221009105232A46E2
:103FC000C4A103F0FFF80390382003F037F9412132
:103FD00005220095CDE9012199F80010474608EB2C
:103FE00081110623B9A2303101F0B0FD47F6FF720E
:103FF0000021A06201F07AFD282003F01FF9322190
:10400000009150232A46B5A103F0DCF80490382033
:1040100003F014F941210095CDE901A199F80010B0
:10402000062307EB8111A9A2323101F08FFD47F67B
:10403000FF720021E06201F059FD8D48039901F003
:104040002AFF8B48A16A01F026FF8948049901F0F4
:1040500022FF8748E16A01F01EFFA16AA148486279
:10406000E16A48628248616C01F015FF8048A16CEA
:1040700001F011FF7E48E16C01F00DFF7C48616D9D
:1040800001F009FF0021E06C01F07DFE7848216D10
:1040900001F001FF0920B0EB167F7DD1282003F04D
:1040A000CDF873230A21CDF800B0CDE901134B23DD
:1040B00040F227128CA102F0E5FF0546282003F00C
:1040C000BDF814260A232A468BA1009603F07AF83D
:1040D0000390382003F0B2F8CDE9005A0296474623
:1040E00099F80010C84607EB8111062377A23431F6
:1040F00001F02CFD47F6FF720021206301F0F6FC71
:10410000282003F09BF84FF023090A232A467DA1BB
:10411000CDF8009003F056F88346382003F08EF86F
:10412000CDE9005ACDF8089098F80010062307EB67
:10413000811166A2363101F009FD6063282003F089
:104140007DF8322100910A232A4670A103F03AF843
:104150000490382003F072F832210095CDE901A1D6
:1041600098F80010062307EB811158A2383101F0AE
:10417000EDFCA063282003F061F8B4232A4665A172
:10418000009603F01FF80590382003F057F8E62159
:10419000CDE90051029600E0D4E098F80010032326
:1041A00007EB81115DA23A3101F0D0FCE0632E48AB
:1041B000222100680268A06D9047421E0021E06B3A
:1041C00001F094FC282003F039F88C232A4654A1EE
:1041D000009602F0F7FF8246282003F02FF88C2388
:1041E0002A4650A1CDF8009002F0ECFF98F800109C
:1041F000064607EB811090F83A20A06D00F0B4FD60
:10420000E16B49484862216B48484862616B484805
:104210004862A16B474848625146154801F03BFE91
:104220003146134801F037FE2946114801F033FEAC
:104230000F48039901F02FFE0D48216B01F02BFE72
:1042400059460B4801F027FE0948616B01F023FE37
:104250000748049901F01FFE0548A16B01F01BFE01
:104260000348059968E00000F4FF012084E0012084
:1042700018E5012053656E736F726C65737320745B
:10428000756E696E672053544F202620504C4C00A9
:1042900053656E736F726C6573732074756E696E9F
:1042A000672053544F202620504C4C2028417578CD
:1042B0002900000053544F202620504C4C00000091
:1042C00053544F004731000068E601202536640052
:1042D00047320000504C4C204B500000504C4C20BA
:1042E0004B490000A54B0F0852657620757020746D
:1042F000756E696E670000004475726174696F6E57
:1043000000000000456E642073706400456E6420F8
:104310004971000053746167650000002533640033
:104320006D73000072706D00E5530F0821540F0883
:1043300075540F0899540F0801F0ADFD0748E16B63
:1043400001F0A9FD216A06484862616A486207B027
:104350000248BDE8F04F01F032BE000018E5012030
:10436000A54B0F082DE9F04FD148DFF8488387B0FF
:10437000006800250169D8F85800884707460A24D4
:104380000026B4EB177F09D1282002F057FF002345
:10439000C94ACAA1009602F015FF0546C7F303609B
:1043A0000A2809D1282002F049FF0023C24ACBA1E4
:1043B000009602F007FF0546282002F03FFFBE4BA3
:1043C000CDE9003414210291A3465A239122CDA1B4
:1043D00002F058FE0646282002F030FF0F2100911F
:1043E00005233246C8A102F0EDFE8146382002F0D6
:1043F00025FF1E2105220096CDE90121AD49DFF8F8
:10440000B8A280390AF1A80A097806230AEB8111BB
:10441000BEA22C3101F09AFBC8F8200044462820A7
:1044200002F00CFF0F21009150233246B8A102F098
:10443000C9FE8046382002F001FF1E21502200965E
:10444000CDE901219B4906238039B0A209780AEB06
:1044500081112E3101F07AFB606200F085F9294666
:10446000954801F018FD3146934801F014FD494686
:10447000914801F010FD9048216A01F00CFD414681
:104480008D4801F008FD8C48616A01F004FD8A48FE
:10449000616C01F000FD8848A16C01F0FCFC8648CD
:1044A000E16C01F0F8FC8448616D01F0F4FC00213E
:1044B000E06C01F068FC8048216D01F0ECFCBBEB86
:1044C000177F7DD1282002F0B9FE7B4A009273232A
:1044D000CDE901B34B2340F227128EA102F0D2FDA9
:1044E0000546282002F0AAFE4FF014080A232A46A7
:1044F0008CA1CDF8008002F065FE0390382002F018
:104500009DFE4FF050096B4FCDE90059803FCDF82B
:104510000880397856460AEB811106237BA2343194
:1045200001F014FB47F6FF720021206301F0DEFA70
:10453000282002F083FE4FF0230A0A232A467CA19A
:10454000CDF800A002F03EFE8346382002F076FE51
:104550008DE820063978062306EB81116BA23631EF
:1045600001F0F4FA6063282002F068FE3221009125
:104570000A232A4670A102F025FE0490382002F09A
:104580005DFE32210095CDE901913978062306EBD5
:1045900081115EA2383101F0D9FAA063282002F01F
:1045A0004DFEB4232A4666A1CDF8008002F00AFE33
:1045B0000590382002F042FEE622CDF8088000E0A7
:1045C0006BE0CDE900523978032306EB81115EA23E
:1045D0003A3101F0BBFAE0633548222100680268F5
:1045E000A06D9047421E0021E06B01F07FFA282069
:1045F00002F024FE8C232A4654A1CDF8008002F05C
:10460000E1FD8146282002F019FE8C232A4650A1A4
:10461000CDF800A002F0D6FD3978804606EB811077
:1046200090F83A20A06D00F09FFBE16B494848628A
:10463000216B49484862616B48484862A16B484811
:10464000486249461C4801F026FC41461A4801F0E0
:1046500022FC2946184801F01EFC1748039901F076
:104660001AFC1548216B01F016FC5946124801F05E
:1046700012FC1148616B01F00EFC0F48049901F027
:104680000AFC0D48A16B01F006FC0B48059901F0EE
:1046900002FC0948E16B01F0FEFB216A31484862E7
:1046A000616A486207B00448BDE8F04F01F087BC7A
:1046B000F4FF012084E00120C0E5012053656E7302
:1046C0006F726C6573732074756E696E67205354D6
:1046D0004F202620434F52444943000053656E73D8
:1046E0006F726C6573732074756E696E67205354B6
:1046F0004F202620434F52444943202841757829B2
:104700000000000053544F0047310000253664007C
:10471000473200005265762075702074756E696EA0
:10472000670000004475726174696F6E00000000DC
:10473000456E642073706400456E6420497100000A
:104740005374616765000000253364006D730000D9
:1047500072706D00E5530F0821540F0875540F084F
:1047600099540F08A54B0F083EB5282002F066FDAE
:10477000A0232349CDE90013142202925A23912247
:1047800020A102F07FFC214C6064282002F056FD3D
:104790000F21009105231EA1626C02F013FDA0649D
:1047A000402002F04BFD0521626CCDE9002104F1AF
:1047B00060011E25A1F1E00202951278062301EBAB
:1047C000C20117A2091D01F065FEE064302002F06D
:1047D00035FD41210091052312A1626C00F0ACFF70
:1047E0002065282002F02AFD00953C2310A1626C70
:1047F00002F0E8FC6065216D0E4848623EBD000095
:104800008CE101204D6F6E69746F720084E00120AD
:104810004D65617375726564207370656564000031
:104820002536640053746172742F53746F700000E6
:1048300072706D007D4A0F0870B531490024096817
:1048400009698847010E0E074FF009014FF00A026F
:104850004FF002034FF001050ED0B1EB107F03D1F2
:10486000C0F303660A2E17D0B2EB107F15D1C0F348
:104870000366092E10D010E0B1EB107F00D10124A7
:10488000B2EB107F00D10224B5EB107F02D0B3EB66
:10489000107F33D1032431E00624B1EB107F05D122
:1048A000C0F3036102290BD0012909D0C0F30361D1
:1048B000092906D1B3EB107F02D0B5EB107F00D1F0
:1048C0000424B2EB107F05D1C0F3036102290BD0A1
:1048D000012909D0C0F303610A2906D1B3EB107F87
:1048E00002D0B5EB107F00D105240B21B1EB107F76
:1048F00004D1C0F30360092800D10724204670BD0D
:10490000F4FF012010B5274801F027FB2548A83007
:1049100001F023FB244801F020FB2348A83001F0DC
:104920001CFB224801F019FB2048A83001F015FBC0
:104930001F49002048608860C8600861486188613C
:10494000C861086248628862C86208634863886315
:10495000C863086448648864C864086548658865F5
:10496000C865086648668866C866086748678867D5
:10497000C8678031086048608860C8600861486125
:104980008861C861086248628862C86208634863D7
:104990008863C863086448648864C86408654865B7
:1049A00010BD000078E20120C8E3012018E50120D5
:1049B00004E00120034807210068C2680248806DB6
:1049C00010470000F4FF012084E0012010B50C46E0
:1049D000FFF798FF062C1CD2DFE804F003070B0F4B
:1049E0001317BDE81040FEF7F3B8BDE81040FEF71E
:1049F000D5B9BDE81040FEF77FBCBDE81040FEF71A
:104A000011BFBDE81040FFF72DBABDE81040FFF719
:104A1000A9BC10BD2DE9F047814616480E46134F3C
:104A2000DFF84C80002400EB8615395D662908D03C
:104A3000D8F80000026848469047411C01D025F88C
:104A40001400641CE4B2202CEFD3D8F80000042139
:104A5000026848469047084941F8360095F83A20E0
:104A600031464846BDE8F04700F07EB94CA30F0838
:104A7000F4FF012068E60120E4E001202DE9F04781
:104A8000414A424F424DA7F1400C2DED068B02F1F9
:104A9000800411782B6801EB41060CEB811017F8AC
:104AA0002680B8F1000F06D007EB8601C97859B10E
:104AB000012960D10EE0828833485B68E03050F80D
:104AC0003110A06D984756E0B0F91820B0F91410D5
:104AD0001B6A4EE0E1469046B0F93E0003F04DFD02
:104AE0009FED2C8B53EC182B03F072FD9FED2B9B4D
:104AF00053EC192B03F0BAFB41EC100B02F044FD10
:104B000098F80010B0EE40AA09EB8116F0EE60AA0A
:104B1000B6F93C0003F031FD53EC1A2B03F058FDBD
:104B200003F0FCFC07B2B6F93E0003F026FD53EC9F
:104B3000182B03F04DFD53EC192B03F097FB41ECC0
:104B4000100B02F085FD98F80010B0EE408A09EBDA
:104B50008110F0EE608AB0F93C0003F00EFD53ECDA
:104B6000182B03F035FD03F0D9FC01B228683A4652
:104B7000036AA06D984728680621C268A06DBDEC45
:104B8000068BBDE8F047104704E00120A8E60120AD
:104B9000F4FF01201F85EB51B81E09400000000002
:104BA000008066400D4B0C4A806A1B7802EB831232
:104BB000801A0B4A400852FA80F31B78662B0AD001
:104BC000C0B2105C074A126893680A46014603485F
:104BD0008030806D1847704768E6012004E00120AE
:104BE0004CA30F08F4FF01202DE9F041284E11F0ED
:104BF000FF052849307800EB400001EB800005718B
:104C000040D00021224C8034A06801F0BCF8C5B32C
:104C10000021E06801F0B7F8FDB11E4F3078403F49
:104C200007EB8010B0F91C104184C28B8284028C87
:104C3000C284A06800F03EFE307807EB8010B0F927
:104C40002410E06800F036FE606930B1317807EB7F
:104C50008111B1F9261000F02DFEA068012680F820
:104C60002060E06880F820606069002807D06DB19E
:104C70005FF0000101F087F8606980F82060BDE80E
:104C8000F08101E00121BDE70121C2E70121F1E747
:104C900004E00120A8E6012070B50D46FFF782FF71
:104CA0000D480E4A017801EB410002EB80000079CB
:104CB00000280FD0084C8034606900280AD0403AA0
:104CC00002EB8111CD84294600F01AFE60690121B2
:104CD00080F8201070BD000004E00120A8E601204B
:104CE00010B50C46FFF75EFF0C480D4A007800EB4C
:104CF000400102EB8101097900290ED0A2F14001A7
:104D000001EB801021468484044C8034E06800F07C
:104D1000F7FDE068012180F8201010BD04E00120BB
:104D2000A8E6012010B50C46FFF73CFF0C480D4AE1
:104D3000007800EB400102EB8101097900290ED0D7
:104D4000A2F1400101EB801021464484044C8034E0
:104D5000A06800F0D5FDA068012180F8201010BDEA
:104D600004E00120A8E60120F8B51546094A02EB47
:104D70008114094904F1380200920968931E121F38
:104D80008E692946B047E08E00EB40004000E08687
:104D9000F8BD000068E60120F4FF012038B5154693
:104DA000094A062302EB8112B2F9361091FBF3F1A6
:104DB0000BB2B2F9381000910449928E09684C691F
:104DC0002946A04738BD000068E60120F4FF012015
:104DD0002DE9F041164A054610461649007802F1C1
:104DE000800400EB400001EB80019368124E134FEA
:104DF000A06D9D420BD193F830504D70FFF71CFD14
:104E000056F820000021425D3868C3690BE0D26883
:104E100092F830508D70FFF70FFD56F820000121F9
:104E2000425D3868C369E06DBDE8F0411847000095
:104E300004E00120A8E6012020A30F08F4FF0120D0
:104E4000034808210068C2680248806D10470000CE
:104E5000F4FF012084E001202DE9F047464D474949
:104E6000DFF81C91A1F140062DED068B05F18004C1
:104E7000287800EB400201EB820306EB8010DB7820
:104E8000002B4FD0012B72D1B046B0F93E0003F099
:104E900074FB9FED3C8B53EC182B03F099FB9FEDBB
:104EA0003B9B53EC192B03F0E1F941EC100B02F0A2
:104EB0006BFB2978B0EE40AA08EB8117F0EE60AAF0
:104EC000B7F93C0003F059FB53EC1A2B03F080FBBD
:104ED00003F024FB06B2B7F93E0003F04EFB53EC9F
:104EE000182B03F075FB53EC192B03F0BFF941ECC1
:104EF000100B02F0ADFB2978B0EE408A08EB811070
:104F0000F0EE608AB0F93C0003F037FB53EC182B4D
:104F100003F05EFB03F002FB01B2D9F80000324659
:104F2000036A09E011F82210154A136851B1B0F96B
:104F30001820B0F914101B6AA06DBDEC068BBDE8FB
:104F4000F047184719694F46A06D884780060ED56F
:104F50002878412106EB8010B0F918203868836862
:104F6000A06DBDEC068BBDE8F0471847FFE7BDEC30
:104F7000068BBDE8F087000004E00120A8E60120D0
:104F8000F4FF01201F85EB51B81E0940000000000E
:104F9000008066402DE9F0473A4D3B4ADFF8EC804F
:104FA000A2F140042DED068B05F18009287800EB75
:104FB000400102EB810104EB8010C978002954D034
:104FC00001295AD1B0F93E0003F0D7FA9FED309B8A
:104FD00053EC192B03F0FCFA9FED2F8B53EC182B9D
:104FE00003F044F941EC100B02F0CEFA2878B0EE51
:104FF00040AA04EB8017F0EE60AAB7F93C0003F07A
:10500000BCFA53EC1A2B03F0E3FA03F087FA06B26A
:10501000B7F93E0003F0B1FA53EC192B03F0D8FABC
:1050200053EC182B03F022F941EC100B02F010FBAB
:105030002878B0EE408A04EB8010F0EE608AB0F978
:105040003C0003F09AFA53EC182B03F0C1FA03F07A
:1050500065FA01B2D8F800003246036AD9F8580060
:10506000BDEC068BBDE8F0471847B0F91820B0F941
:105070001410D8F80000036AF0E7BDEC068BBDE819
:10508000F087000004E00120A8E60120F4FF0120E1
:105090001F85EB51B81E09400000000000806640EB
:1050A00070B54D4C4D4A2DED068BA2F14005207890
:1050B00000EB400102EB810105EB8010C97831B1B2
:1050C00001294CD1B0F9141000294BD04CE0B0F9B3
:1050D0003E0003F052FA9FED429B53EC192B03F074
:1050E00077FA9FED418B53EC182B03F0BFF841EC9E
:1050F000100B02F0ADFA2078B0EE40AA05EB801656
:10510000F0EE60AAB6F93C0003F037FA53EC1A2B24
:1051100003F05EFA03F002FAB082B6F93E0003F043
:105120002CFA53EC192B03F053FA53EC182B03F021
:105130009DF841EC100B02F027FA2078B0EE408A7F
:1051400005EB8014F0EE608AB4F93C0003F015FA28
:1051500053EC182B03F03CFA03F0E0F92083BDEC8C
:10516000068B70BD028B8AB311FB01F1008B10FB23
:10517000001000EE100AB8EEC00A02F056F8BDEEBC
:10518000C00A207810EE101A05EB80108187B0F964
:105190001810B0F9140000EE101AF8EEC00A00EE74
:1051A000100AB8EEC00A02F042F8DFED110A2178C9
:1051B00020EE200ADFED0F0A05EB811180EE201AA8
:1051C000BDEEC10A10EE100AC887C8E7FFE700214C
:1051D00081875A21C187C2E704E00120A8E60120A7
:1051E0001F85EB51B81E094000000000008066409A
:1051F00000003443C3F548402DE9F041204D224ED4
:1052000005F180042978686801EB41021D4990F896
:10521000300001F82200012807D001211B4800F0CE
:10522000E3FD30680122836825E0306802210268CE
:10523000A06D9047C0B930680921C268A06D904741
:10524000306829210268A06D90470E4F2978403FB1
:1052500007EB8111888230682A210268A06D90478F
:10526000297807EB811108830021084800F0BCFD74
:10527000306800228368A06DBDE8F0410321184723
:1052800004E00120A8E60120F4FF0120C8E301208A
:1052900009480849007801EB80118A880649E03105
:1052A00051F8301005480068436803488030806D2D
:1052B0001847000068E6012004E00120F4FF012007
:1052C0002DE9F0413B4C3C4F04252078A7F14006E6
:1052D00000EB400007EB800047F6FF78C07810B184
:1052E000012836D13EE035A1206E01F066FF35A1E0
:1052F000E06E01F062FF2178606E06EB811202F130
:10530000140180F833508162216F18322F4E81F8DA
:1053100033508A6245464246314600F0E7FB2A4652
:105320003146206F00F0E2FB207800EB400017F8D8
:10533000200050B92648006801691E488030806D01
:105340008847800601D4002100E00121206F00F091
:105350001AFD616E012081F82000216F81F8200084
:10536000BDE8F0811BA1206E01F027FF1BA1E06EBC
:1053700001F023FF2178606E06EB811202F13C01FF
:1053800080F833508162236F891C424683F8335082
:105390009962002100F0AAFB40F267120021206F01
:1053A00000F0A4FB207800EB400017F82000002854
:1053B000CBD1C8E704E00120A8E6012049712072A2
:1053C00065662E004964207265662E000180FFFF2D
:1053D000F4FF0120416D702E202020004570732EB7
:1053E0004465670008460D4910B50B4A09780B4C17
:1053F00002EB811280345087C2B2A06DFFF7B4FC7B
:10540000216B012081F82000616B81F82000A16BE5
:1054100081F8200010BD000068E6012004E00120B2
:105420000748064A007802EB80129186014604483C
:1054300092F83A208030806DFFF7B0BC68E601201A
:1054400004E00120094910B508488039084A097864
:10545000C06901EB410102EB810190F83000C87096
:10546000FFF71EFEBDE81040FFF72ABF84E00120D1
:10547000A8E601200748064A007802EB8012D18690
:105480000146044892F83A208030806DFFF786BCD0
:1054900068E6012004E001200748064A007802EB94
:1054A000801211870146044892F83A208030806DBE
:1054B000FFF774BC68E6012004E0012001460020EB
:1054C0000A5C401CC0B2002AFAD17047F8B5044605
:1054D000406A0028204615D001F050FA06462046C2
:1054E00001F02AFA0546204601F0C5F90746204694
:1054F00001F0C1F981B200963A0C2B46606A00F0C7
:1055000053FBF8BDBDE8F84001F01DBA2DE9F041AC
:1055100006AD1E4617460C4695E80E0000F03AFC14
:1055200005460748286032463946284601F0FDF90D
:105530006C6214B1012085F820002846BDE8F08196
:10554000D0C20F0801F075BE10B5002400F0E9F8D4
:1055500000B10124204610BD70B5426A0D460446D4
:105560004AB194F82C0030B12DB994F8210010B153
:1055700000212046904784F82C5070BD70B500245F
:105580000546052906D10021FFF7E6FF284601F070
:1055900091F90124284600F0C4F800B10124204606
:1055A00070BD2DE9FC5F0646C069C1888588891DEC
:1055B0008CB2B06AFBF7DAF84543ED1DA9B222467A
:1055C000304601F0B2F9304601F055F985B2304667
:1055D00001F051F9040C304601F0D0F9801E87B279
:1055E000304601F0A9F9801E1FFA80F8B6F81A902B
:1055F000304601F0C3F90190304601F09DF9834631
:10560000304601F038F98246304601F034F94FEA6D
:105610001A4180B2CDF800905A46019B00F062FB1F
:10562000304600F07EF840B3304601F024F9801C8B
:1056300085B2304601F01FF90014801C84B2B6F820
:105640001A90304601F09AF9401E82B2CDF80090CF
:10565000A4F10109681E1FFA89F180B2012300F04C
:105660001FFBB6F81AA0304601F066F9801E82B220
:105670001FFA89F1CDF800A011E0708B0090601C3A
:1056800081B205EB080080B201233A4600F008FB26
:10569000708B009008F1020082B2E01981B2002301
:1056A000284600F0FDFA708B00903B4642462146AA
:1056B000284600F017FB308B0090F81E82B2A01C29
:1056C000814681B2A81C80B2012300F0E9FA96F865
:1056D000210008B11F2000E0308B0090A8F10200EB
:1056E00082B2BF1E641C681CBBB2A1B280B200F0C3
:1056F000F9FAB26AED1C02B01FFA89F1A8B2BDE84E
:10570000F05F00F02DBB10B504460020052907D13D
:1057100001212046FFF720FF204601F0CBF80120B1
:1057200010BD90F82C1021B190F8210008B1012093
:10573000704700207047000070B51C4616460D46A5
:1057400022463146049B00F025FB084901600021F8
:10575000416280F82C100446012100F014FB012165
:10576000A562204684F8201070BD0000F4C20F0826
:1057700001F05FBD10B5C36A0C4603B911A390F8E0
:105780003310062919D2DFE801F0180303070B0FC5
:1057900000F063F802460AE000F05FF882B206E02B
:1057A00000F05BF802B202E000F057F8C2B2204607
:1057B000BDE810401946FAF7AFBD00F04EF842B20E
:1057C000F5E700002564000070B50E46044600258C
:1057D00000F0A4FD28B3A06A10B3012E02D0022E5F
:1057E0001ED10DE094F83200218EFF28014421865D
:1057F00002D0401C84F83200204600F05DF90CE035
:1058000094F83200218EFF280144218602D0401CEA
:1058100084F83200204600F006F8204601F04AF8ED
:105820000125284670BD10B5034600F016F8014664
:10583000B3F93000B3F93420091A8A4206DD80102A
:10584000188693F83200800883F8320093F833000A
:10585000BDE81040184600F02DB890F83310806A6B
:1058600006290DD2DFE801F00C030305070A0068E2
:10587000704700887047B0F90000704700787047A3
:1058800090F90000704770B50E460446002500F000
:1058900045FD00B10125052E08D194F8230038B14B
:1058A000002084F82300204601F004F8284670BD4B
:1058B0000120F6E710B50346806A00281FD0B3F92F
:1058C00034208A421BDCB3F936208A4217DB93F876
:1058D0003320022A04D0042A04D049B2017002E025
:1058E000016000E00180586A002808D01846FFF7E0
:1058F000B4FF5A6A0146BDE810401846104710BD73
:1059000010B50346806A002814D09A8E8A4211D8B6
:10591000DA8E8A420ED393F833200170586A002839
:1059200008D01846FFF799FF5A6A0146BDE81040B3
:105930001846104710BD2DE9F0418AB004462021D9
:1059400001A8FAF732FF658B204601F017F8804670
:10595000204600F0F1FF0646204600F08CFF074687
:10596000204600F088FF390C80B24346324600954D
:1059700000F0B8F9258B204601F000F8C01E87B270
:10598000204600F078FF0646204600F074FF3114F0
:10599000891C801C89B280B201233A46009500F030
:1059A0007FF994F82100A0B1204600F0E7FF801EA7
:1059B00087B2204600F0C0FF801E86B2204600F06D
:1059C0005AFF0546204600F056FF1F21009129147A
:1059D00014E0258B204600F0D1FF801E87B22046C0
:1059E00000F0AAFF801E86B2204600F044FF8046E9
:1059F000204600F040FF4FEA28410095491C401C1A
:105A000089B280B23B46324600F06CF9204600F085
:105A100085FC50B194F8210038B14FF6E070ADF834
:105A20000000BDF80000FCF7DBFC94F8220038B958
:105A300047F6FF70ADF80000BDF80000FCF7D0FCA1
:105A4000A06A002812D001A92046FFF793FE204645
:105A500000F011FF0546204600F00DFF2914891CB7
:105A6000C01C89B280B201AA00F07AF90AB0BDE880
:105A7000F08170B50E460446002500F04FFCC8B119
:105A8000A06AB0B100200121012E02D0022E10D157
:105A900006E0218684F83200204600F00DF805E08B
:105AA000218684F832002046FFF7BDFE204600F034
:105AB00001FF0125284670BD10B50346FFF7CDFE56
:105AC0000146B3F93000B3F9362001448A4206DAC0
:105AD0008010188693F83200800883F8320093F81B
