:020000040803EF
:1000000030700020850203085D521A00C102030807
:100010009102030893020308950203080000000000
:10002000000000000000000000000000970203082C
:1000300099020308000000009B0203089D020308C8
:100040009F0203089F0203089F0203089F02030800
:100050009F0203089F0203089F0203089F020308F0
:100060009F0203089F0203089F0203089F020308E0
:100070009F0203089F0203089F0203089F020308D0
:100080009F0203089F0203089F0203089F020308C0
:100090009F0203089F0203089F0203089F020308B0
:1000A0009F0203089F0203089F0203089F020308A0
:1000B0009F0203089F0203089F0203089F02030890
:1000C0009F0203089F0203089F0203089F02030880
:1000D0009F0203089F0203089F0203089F02030870
:1000E0009F0203089F0203089F0203089F02030860
:1000F0009F0203089F0203089F0203089F02030850
:100100000000000000000000000000009F02030843
:100110009F0203089F0203089F0203089F0203082F
:100120009F0203089F0203089F0203089F0203081F
:100130009F0203089F020308000000000000000067
:100140009F0203089F0203089F02030800000000AB
:10015000000000000000000000000000000000009F
:1001600000000000000000009F0203089F02030837
:100170009F020308000000000000000000000000D3
:10018000000000009F02030800F002F800F06AF887
:100190000AA090E8000C82448344AAF10107DA45E2
:1001A00001D100F05FF8AFF2090EBAE80F0013F0CA
:1001B000010F18BFFB1A43F001031847B8D700001E
:1001C000D8D70000103A24BF78C878C1FAD85207AF
:1001D00024BF30C830C144BF04680C6070470000C1
:1001E0000023002400250026103A28BF78C1FBD840
:1001F000520728BF30C148BF0B607047692900F023
:100200000181642900F0FE80752900F0FB806F29D0
:1002100000F09281782900F0B9810368DB0928BFDA
:1002200041F08001632900F0E683E32900F0F983BF
:10023000002070471FB509F00FFC9DE8030000F097
:1002400051FC00F005FD04000020002108F094FF9F
:10025000401C606000F0D4FA1FBD10B5002008F00B
:100260009FF810BD00F0CEFC1146FFF7E3FF08F049
:100270007EFF00F00FFD03B4FFF7EFFF03BC00F0BB
:10028000BBFC00000948804709480047FEE7FEE73D
:10029000FEE7FEE7FEE7FEE7FEE7FEE7FEE7FEE736
:1002A00004480549054A044B70470000612A0308C9
:1002B0008901030860680020307000203070002041
:1002C00000B5FFB441464A4653465C4665463EB4D7
:1002D0000D496A460A600D4908600D4988473EBCD1
:1002E000884691469A46A346AC46FFBC00BD0648E8
:1002F00001688D463EBC884691469A46A346AC4668
:10030000FFBC044800BD0000F07F0020F47F002007
:100310009101030818D203080FB41CB5074B06AAB5
:100320007B4469460090059800F043FB0020694635
:1003300000F052FB1CBC5DF814FB0000B506000089
:1003400070B5044685690068C10601D5302600E015
:100350002026C00707D070BDD4E901213046904760
:10036000206A401C20626D1EF6D570BD70B5044633
:1003700085690078C00707D170BDD4E9012120202C
:100380009047206A401C20626D1EF6D570BD09683A
:100390004A0501D540B27047C905FCD500B2704787
:1003A00009684A0501D5C0B27047C905FCD580B2BD
:1003B000704770B50C460546012A05D0287880069E
:1003C00000D5EA69002302E0012305E05B1C9342AB
:1003D00002D2E05C0028F9D1A869E618C01AA86129
:1003E000286A184428622846FFF7AAFF04E0D5E9E6
:1003F000012114F8010B9047B442F8D32846FFF7C7
:10040000B5FF70BD2DE9F04106460024106875293E
:10041000314616A510D0FFF7BAFF002802DA404295
:1004200013A507E031688A0701D512A502E0490744
:1004300004D511A5012401E0FFF7B2FF00210A2233
:1004400006F1240709E0B0FBF2FCB0FBF2F302FB7B
:100450001C00303078541846491C0028F3D123463C
:100460002A463046BDE8F04100F045BA00000000E1
:100470002D0000002B000000200000002DE9FF5F90
:1004800015468A460446DFF8AC80F8440027D8E9D0
:1004900000103E46CDE9001010E03AF816106A460A
:1004A00002A800F0CAFA411C07D02178890603D5BA
:1004B000E269391891420DD80744761C20788006ED
:1004C00002D5E069B84205DDAE42E6DB3AF8160037
:1004D0000028E2D1A069C01BA0612046FFF730FFD1
:1004E000D8E90010CDE90010002017E03AF8181004
:1004F0006A4602A800F0A1FAB0F1FF3F81460BD096
:1005000000250DF1080B05E0D4E901211BF80500D9
:1005100090476D1C4D45F7D308F10100B04280466D
:10052000E4DB206A384420622046FFF71FFFBDE865
:10053000FF9F00009ACD000070B504462146106868
:10054000FFF72EFF002104F1240505E000F007026B
:100550003032C0086A54491C0028F7D120680023B3
:1005600008A2050708D500F02000084304D0E06980
:10057000012305A2401EE0612046BDE8704000F066
:10058000BAB90000000000003000000070B5044659
:100590000D4621461068FFF703FF2188090502D5A3
:1005A0000F4A7A4402E00E4A7A440E32002104F1E6
:1005B000240305E000F00F060009965D5E54491C17
:1005C0000028F7D120780023000704D5702D02D031
:1005D00009B1022311322046BDE8704000F08BB90A
:1005E0008ACC00002DE9F05F894604464FF0000AEE
:1005F000DFF874B1FB44C0F820A02046E1688847CA
:10060000002874D0252806D0D4E901219047206A1B
:10061000401C2062F1E700265F462046E1688847DB
:100620002028054607DB312D05D2781910F8200C5B
:1006300008B10643F1E7B00701D526F00406C4F877
:100640001CA00027C4F818A02A2D09D0284608F0BD
:100650006FFD38B304EB8708303DC8F8185019E037
:1006600059F8041B204604EB87029161E168884732
:10067000012F054618D1E069002820DA26F020066F
:100680001DE0D8F8180000EB800005EB4000303882
:10069000C8F818002046E1688847054608F048FD7C
:1006A0000028EED1012F0AD02E2D08D12046E16876
:1006B00088477F1C0546022F46F02006C4DBA06950
:1006C000002803DA404246F00106A061F00701D09D
:1006D00026F010066C2D0BD0682D09D04C2D39D08A
:1006E0006A2D35D0742D35D07A2D33D016E038E010
:1006F000E1682F4620468847B842054609D16C2F4D
:1007000026D04FF48060E1680643204688470546BE
:1007100004E06C2F1AD04FF4807006430DB3A5F19E
:100720004100192802D8203546F400664A46294679
:10073000204626604E46FFF761FD80B101280BD0B0
:10074000F61D26F0070000F1080956E74020E4E70F
:100750008020D8E70020D6E706F104094DE72846B7
:1007600052E7206ABDE8F09F60CC000010B5431C42
:1007700002E010F8011B71B18107FAD14FF001328C
:1007800002C88C1A8C4314EAC211F9D0C01A0A06A6
:1007900003D0C01E10BDC01A10BD0A0401D0801EB7
:1007A00010BD0902FCD0401E10BD4FF0000200B584
:1007B000134694469646203922BFA0E80C50A0E884
:1007C0000C50B1F12001BFF4F7AF090728BFA0E832
:1007D0000C5048BF0CC05DF804EB890028BF40F8FE
:1007E000042B08BF704748BF20F8022B11F0804F40
:1007F00018BF00F8012B7047704770477047000022
:1008000070B5064C7C44064D7D4403E020682044CE
:100810008047241DAC42F9D170BD00009CD200007D
:100820009CD20000004870473068002000487047A4
:100830003468002070B5064600F034F9056806F10A
:100840000B0020F00704B4429CBF002070BD2B4673
:100850006A68BAB11068A04210D304F10801884256
:100860003CBF5068586007D3516810194160116847
:10087000091B016058601460101D70BD134652685A
:10088000002AE7D12146284600F018F90028DED1D9
:1008900070BD70B50446051F00F004F90068002C17
:1008A00014BF446870BD002C18BFAC423CBF20464A
:1008B0006468F8D301680A18AA4218BF456003D1DA
:1008C0002A6805461144016028684119A1421CBFED
:1008D0006C6070BD6168696021680844286070BD03
:1008E00010B500F0E3F8006810BD10B5044600F044
:1008F000DDF8046010BD2DE9F0470D46994692469B
:10090000044600F124080168880604D5E06921F056
:100910001001216000E00120A84201DD471B00E03A
:100920000027A1697A1902EB0900081AA061207852
:10093000C00602D42046FFF703FD002608E0D4E9F4
:1009400001211AF806009047206A401C761C20629C
:100950004E45F4DB2078C0060AD52046FFF7F0FCB0
:1009600006E0D4E9012130209047206A401C206233
:10097000381EA7F10107F4DC07E0D4E9012118F8DB
:1009800005009047206A401C2062281EA5F1010541
:10099000F3DC2046FFF7EAFC2078000602D50220AF
:1009A000BDE8F0870120FBE701694A1C0261087875
:1009B000704700B58FB0CDE901310021059105499F
:1009C0007944CDE9031011466846FFF70BFE0FB0DE
:1009D00000BD0000E5FFFFFF0A6802F8010B0A6096
:1009E000704710B5436913B1AFF3008001E0FFF722
:1009F000E0FC012010BD127800F124010A700022F1
:100A00004A700122EDE711684FF0FF32E9E710B5B7
:100A1000436913B1AFF3008001E0FFF72FFD012020
:100A200010BD128800F1240182840022C2840122B8
:100A3000EDE711684FF0FF32E9E770B516460C4656
:100A4000054600F027F8036893F80101012806D055
:100A5000FF2C0FD8185D68B101202C7070BDD3F841
:100A600007013246214603F2071303442846BDE836
:100A7000704018474FF0FF3070BD10B500F06EF8B1
:100A8000BDE8104000F064B800F080B8004870473E
:100A9000FC67002010B500F0DBF8001D10BD00BFA2
:100AA000D98600000048704704680020004870475D
:100AB000FC670020704770477047704738B50446A0
:100AC0000A4600206946AFF30080002808BF38BD01
:100AD00002460099204600F0C3F8012038BD0120ED
:100AE00000F0FFB8F8B5AFF30080054600200C46D3
:100AF000102000BF0646A819A0420DD9324669460B
:100B00000020AFF30080070008BF00F0EAF800986B
:100B1000A04218BF0546C419FFF7C4FF0560074689
:100B2000F01D20F007004619284600F00AF8B442EC
:100B300008BFF8BDA21B31463868BDE8F84000F098
:100B40008FB800210160C0E9011070471020704784
:100B5000002801D000F050B87047000010B5002107
:100B600002A000F0A5F8012010BD00005349475035
:100B700056464E3A205075726520766972747561DA
:100B80006C20666E2063616C6C65640010B500F0CB
:100B90000EF8016919B100220261884701E08068FE
:100BA000804700F07DF8000010B500F079F870B5CE
:100BB00000F052F804680546A4B92020FFF73AFE79
:100BC000040011D0094900202C60C4E90001084943
:100BD000A1602073206160610649A06109B100F045
:100BE00087F8E061204670BD00F05AF80000000070
:100BF000A90B03080000000001491820ABBEFEE766
:100C0000260002007546FFF741FFAE460500694623
:100C1000534620F00700854618B020B5FFF740FB8B
:100C2000BDE820404FF000064FF000074FF00008ED
:100C30004FF0000B21F00701AC46ACE8C009ACE86E
:100C4000C009ACE8C009ACE8C0098D467047000097
:100C5000004870471C680020004870473868002032
:100C6000034640688C46002818BF88423CBF0346B4
:100C70004068F8D318681844884207D00CF1030084
:100C800020F00700001D411A521A0146081D0A6093
:100C9000FFF7FFBD0446AFF300802046FFF7EBFAF5
:100CA000002000F04BF8FFF7D8FA0120FFF7A4FF6F
:100CB00070B505460C460A2000E06D1C00F036F8C1
:100CC00035B128780028F8D102E0641C00F02EF835
:100CD00014B120780028F8D1BDE870400A2000F057
:100CE00025B810B500F032F8BDE81040FFF730BF6E
:100CF00010B58820FFF79EFD002801D0002101706B
:100D000010BD802902D808B1017809B100207047D0
:100D1000012100F8081B704718B100F10802914248
:100D200001D00020704700210170704708B5694666
:100D30008DF800000320ABBE08BD704710B500F071
:100D40006DF8BDE81040FFF703BF000010B50128A3
:100D500005D0002103A0FFF7ABFF012010BD09A1C2
:100D6000F8E7000053494752544D454D3A204F751E
:100D700074206F662068656170206D656D6F727993
:100D8000000000003A2048656170206D656D6F724B
:100D90007920636F72727570746564004FF0013C66
:100DA00050F8042B51F8043B9A4221D1A2EB0C03DA
:100DB000934313EACC1317D150F8042B51F8043B9A
:100DC0009A4215D1A2EB0C03934313EACC130BD137
:100DD00050F8042B51F8043B9A4209D1A2EB0C03C2
:100DE000934313EACC13DBD04FF00000704700BFF1
:100DF000D01A01BAB1FA81F101F0180122FA01F01A
:100E0000CB40C1F12001DBB2C0B2C01A2CFA01F311
:100E1000D11A914311EAC311E6D1704710B50021F0
:100E200002A0FFF745FF012010BD000053494741D4
:100E30004252543A2041626E6F726D616C2074654B
:100E4000726D696E6174696F6E000000F0B50268C2
:100E5000867902F01F040121384B01FA04F422F0D4
:100E60001F05002E63D0364A1544D5F80064A6430A
:100E7000C5F80064056825F01F041444D4F8046420
:100E800005F01F0501FA05F5AE43C4F804640568D2
:100E9000047925F01F061E443444266805F01F051A
:100EA00001FA05F52E432660056825F01F04144459
:100EB000D4F8086405F01F0501FA05F5AE43C4F83F
:100EC0000864046824F01F051544D5F80C6404F088
:100ED0001F0701FA07F4A643C5F80C644479102CE7
:100EE0000BD0026822F01F0018442044036802F06F
:100EF0001F0291400B430360F0BD046824F01F0300
:100F00001344D3F8085404F01F0401FA04F42543F1
:100F1000C3F80854036823F01F001044D0F80C24D1
:100F200003F01F0399400A43C0F80C24F0BD007978
:100F3000E91808440168A1430160F0BD00040140C4
:100F400000000140F0B50022012603240D6806FAD6
:100F500002F31D409D422BD10D79012D01D0022DB0
:100F600013D18768550004FA05FC27EA0C0787604F
:100F70004F79AF4085682F43876085889D43858082
:100F800085888B7993401D4385800568570004FA56
:100F900007F39D4305600D79D0F800C0BD4045EAD8
:100FA0000C050560C5689D43CB79BB402B43C360EE
:100FB000521C102ACAD3F0BD4B07DB0E9A40C90859
:100FC00010B500EB8100016A0F249C40A14301622F
:100FD000016A1143016210BD02460020128A0A42D2
:100FE00000D0012070470AB18161704701857047C8
:100FF0002DE9F74FDFF8DCA182B05446DFF8D88145
:101000000298C4E90B01D8F800001546474601696B
:101010000298884706462946704806F0B5FAAAF5B0
:1010200080796F496D48C9F8085006F061FB6C493A
:101030006A48A83106F05CFB6A49684806F058FB2C
:1010400068496648A83106F053FB6749634806F0D3
:101050004FFB65496148A83106F04AFB63495F4888
:1010600006F046FB002589F80050386829460268DA
:10107000E06A9047C0B20090386800221146836849
:10108000E06A9847386803210268E06A9047C0B276
:101090000127574C012824D0277000215148A8303F
:1010A00005F0FAFE6570A770AB46DAF83000B94675
:1010B000554628B3D8F8001047460A681C219047C7
:1010C00000F0FF0A38681D210268286B9047C7B2FC
:1010D000E86A03F003FF474A0146002052F8211056
:1010E0000BE025700121D9E7524500D160700A5C00
:1010F000BA4200D1A070401CC0B20A5CFF2AF3D1F2
:1011000084F803B084F804B084F805B084F806B01D
:1011100084F807B084F808B084F809B084F80AB0FD
:1011200084F80BB0D8F8000001225F4683680021E4
:10113000E86A9847D8F8000003210268E86A9047F7
:10114000C0B2012840D084F80C9000BFD8F800004D
:101150000021009A8368E86A9847677384F80E90C4
:10116000E77327746774A774E77427756775A775A5
:10117000E775029800F08AF818491F48C1F80C0179
:101180000021164806F022FA0920B0EB167F1DD088
:10119000C6F30360092819D000211348A83005F0D0
:1011A0007BFE0A20B0EB167F12D0C6F303600A283C
:1011B0000ED000210D4805F06FFE05B00021BDE8FE
:1011C000F04F012001F09ABB2773BFE70121E4E74C
:1011D0000121EFE704610020F47F0020AC610020D2
:1011E000BC6200200C6400205C650020AC6600201E
:1011F000E4670020CCB30308DD5003082DE9F0417B
:101200001E4C204606F026FA04F5827006F0F6FF22
:10121000012001F061FB1A4EB188084306D0002975
:1012200002D0B088401EB080BDE8F081154C164D4C
:10123000002120680268E86A9047C7B2206800224F
:1012400011468368E86A984720680221C268E86A04
:1012500090472068012200218368E86A9847206847
:101260000221C268E86A904720683A4600218368F4
:10127000E86A98470420B080D3E70000AC61002002
:1012800004600020F47F00200461002070B5134C3E
:10129000064600212068026830469047C5B22068A3
:1012A000002211468368304698470021304603F0FB
:1012B00047FF2068012200218368304698470028B4
:1012C0000BD00121304603F03BFF20682A46002165
:1012D00083683046BDE87040184770BDF47F002039
:1012E0002DE9F14FFF4D0527DFF8FC83FF4EDFF8B6
:1012F000009484B0002405F1910A3068295D0268E9
:101300001AF801100498904799F8003008EB8312FE
:101310002B5D641CE4B222F81300BC42EDD3F14D06
:1013200001270024ED1E05F1010A3068295D0268DD
:101330001AF8011004989047EB4999F800201039E9
:1013400001EBC2012A5D641CE4B241F82200BC42F8
:10135000EBD399F800004D4600EB4001E2488030A5
:10136000012410F82100E8BB3068082102680498C5
:1013700090472978474608EB8111888230680C2114
:101380000268049890472A7800B207EB821102EBBA
:101390004203D54A0883803202EB8302D278012AC5
:1013A00035D1B1F9142002B9F0B312FB02F110FBF0
:1013B000001000EE100AB8EEC00A06F090FFBDEE75
:1013C000C00A287810EE101A07EB80108187B0F958
:1013D0001810B0F9140000EE101AF8EEC00A00EE72
:1013E000100A00E01DE0B8EEC00A06F07AFFDFED5B
:1013F000C10A20EE200ADFEDC00A297880EE201A0B
:1014000007EB8111BDEEC10A10EE100AC887B8487B
:101410008030816B09B181F82040406C08B180F8C0
:101420002040B046306800E01EE0026801210498C8
:10143000904787B2060C286C4CF2186B50B307B17A
:10144000B6B1AE4805F0AEFD296C884202D1AB487A
:1014500005F00DFE286C428B5A451BD0A0F81AB03F
:10146000002105F0E8FC12E0002088875A20CDE733
:1014700000214183012105F0DEFCA04805F092FD2A
:10148000296C884203D000219C4805F097FD286C08
:1014900080F82040D8F80000DFF86492002102684C
:1014A000D9F82C009047C0B20290D8F80000002272
:1014B00011468368D9F82C009847D8F8000001211C
:1014C0000268049890478246D8F80000022102681A
:1014D00004989047C0B201901FFA8AF9A86F4FEAAA
:1014E0001A4AE0B1B9F1000F02D0BAF1000F30D0C2
:1014F0008248A83005F056FDA96F884203D17F4885
:10150000A83005F0B4FDA86F428B5A4507D0A0F86B
:101510001AB0002105F08FFCA86F80F820407448B5
:10152000406F28B359EA0A0117D07448A83005F073
:1015300039FD6F4D696F884203D17048A83005F0BE
:1015400096FD686F428B5A4512D0A0F81AB0002160
:1015500009E0002141830121DCE7654D418B39B170
:1015600000214183012105F066FC686F80F820406E
:101570005E4D01220021286883686148C06A98474F
:101580002868012102680498904780462868022153
:10159000026804989047C0B2009055481FFA88F539
:1015A00080304FEA1848006808B315B1B8F1000F51
:1015B00038D05248A83005F0F5FC4D498031096813
:1015C000884203D14D48A83005F051FD484A803289
:1015D0001068438B5B450AD0A0F81AB05FF0000199
:1015E00005F029FC42488030006880F820404048DF
:1015F000C06F30B355EA080118D04048A83005F054
:10160000D1FC3B49C96F884203D13C48A83005F062
:101610002EFD374AD06F438B5B4512D0A0F81AB02D
:10162000002108E0002141830121D9E7428B42B12A
:1016300000214183012105F0FEFB2D48C06F80F899
:1016400020402A480021029A006883682C48C06A1A
:10165000984749EA0A0A4AEA050050EA08003BD0DE
:101660002849B1F8000101280AD08946022833D060
:101670000121244805F0AAFFB9F8000101282BD167
:10168000DFF86C9099F8000018B14D46012809D098
:1016900019E055EA080516D0B9F802004D46A8B978
:1016A000012105E0BAF1000F0DD0688870B9002162
:1016B000E86806F0B8FB0021084604F0F7FBE8688C
:1016C000002180F82310B9F8021029B3B9F80210EC
:1016D000B1F10101A9F80210054D80356868A0B389
:1016E00012E0000067B3030864670020F47F002065
:1016F0000460002000003443C3F5484064630020C8
:1017000004610020AC610020DDE9002111437DD09F
:101710000199062902D003E01E21DBE7062A75D0D5
:10172000824805F03FFC6968884202D17F4805F095
:101730009EFC6868428B5A4507D0A0F81AB0002179
:1017400005F079FB686880F82040DFF8E48100212B
:101750007B0698F8000000EB4002764800EB820020
:101760004FF00202417100D54271730600D54471F9
:101770008171FB0600D58271F30600D58471C171B9
:10178000BB0600D5C271B30600D5C4710172FB0758
:1017900000D00272F30700D004723B0600D502723B
:1017A000330600D5047241727B0700D5427273077D
:1017B00000D544728172BB0700D58272B30700D591
:1017C0008472C172390700D5C272310700D5C47264
:1017D000D8F84010F1B3D8F8242043795649568BF5
:1017E00031F813309E4202D0538382F82040D8F85B
:1017F00028208379568B31F813309E4202D05383D0
:1018000082F82040D8F82C20568B00E086E0C3797F
:1018100031F813309E4202D0538382F82040D8F82A
:101820003020037A568B31F813309E4202D0538316
:1018300082F82040D8F83420437A568B31F81330A0
:101840009E4202D0538382F82040D8F83820837A11
:10185000568B00E011E031F813309E4202D05383E2
:1018600082F82040D8F83C20C07A538B31F8100021
:10187000834202D0508382F82040D8F81C0008B17F
:1018800080F82040D8F8200008B180F820402B488C
:10189000006A08B180F82040A86A08B180F82040AA
:1018A000E86B08B180F82040A86C08B180F82040AF
:1018B000234D00212868026804989047C7B2286821
:1018C0000022114683680498984728681E21026800
:1018D00004989047174E0122903E002170602868BE
:1018E00083680498984758B128681E2102680498B4
:1018F0009047F06028683A4600218368049898472A
:10190000D8F84C0008B180F82040D8F864000028CE
:1019100001D080F8204005B0BDE8F08F418B002950
:101920003FF413AF00214183012109E70C6400203B
:1019300004600020E46700206CB303080461002009
:10194000F47F002070B506461148002440684728FF
:101950001CD040F23F11002000F0B4FA00F022FE4B
:101960004FF49635304600F0F3FD641CAC42F9D3D9
:10197000084C8021204600F027FF0028F9D1BDE85F
:10198000704001221146044800F026B80021E2E729
:101990003861002000380040001000481CB50121CB
:1019A000480500F0A1FE032101208DF805100090EC
:1019B0008DF8040000208DF80600064C8DF8070015
:1019C00069462046FFF7BEFA01221146204600F084
:1019D00003F81CBD00100048FFF705BB203AD3B246
:1019E000084A30B45468472C03D1A1F23F11494250
:1019F00089B292681468D2885A4304EB420230BC20
:101A000000F002B8386100202DE9F74F904600271A
:101A10000646019900F056FA1C4C31E000F0C2FD78
:101A200000254FF00C094FF0800A4FF0010B17E032
:101A3000B0FBF9F1CA000AFA02F138F8172029417F
:101A4000114201D10C2805D90BFA05F10A4203D144
:101A50000C2801D9608800E0208800F079FD6D1C19
:101A6000A0688088A842E3D8012211460848FFF701
:101A7000B3FF761CF6B23046019900F023FA7F1CC2
:101A8000A068C088B842C9D8BDE8FE8F3861002080
:101A9000001000482DE9F74F82B000260446924618
:101AA000ADF80060ADF8046001A9684600F092F856
:101AB000A0462046039900F005FA49F2203945F284
:101AC000084B1D4D31E06968494502D069685945A8
:101AD00001D100F067FD00240127B7400DE000BFF1
:101AE0003AF81400384202D1BDF8040001E0BDF814
:101AF000000000F02DFD641CE4B2A8688088A042BC
:101B0000EED86968494502D06968594504D1012277
:101B100011460A48FFF760FF08F10100C0B2804695
:101B2000039900F0CFF9761CF6B2A868C088B042DD
:101B3000C9D805B0BDE8F08F38610020001000481A
:101B40002DE9F047204D8A46994669681646804639
:101B50000024AAF23F104742472907D05146404689
:101B600000F0B0F9B9F1000F02D027E0B9B2F6E702
:101B700000F018FD03E0288800F0EAFC641CB44281
:101B8000F9D3124C8021204600F01EFE0028F9D126
:101B9000BDE8F047012211460D48FFF71DBF288818
:101BA00000F0F0FC08F1010000F0FF086868472829
:101BB00008D05146404600F085F9641CB442EED38B
:101BC000BDE8F087B9B2F5E7386100200038004081
:101BD00000100048024A138803805088088070472C
:101BE000386100200148806870470000386100209B
:101BF000012070472DE9FF4F81B0A1F23F11DDF8C0
:101C000038801F4602EB080084B2484280B2009040
:101C10000026E0B2009900F055F949F2203A45F269
:101C2000084BDFF888902DE04168514503D0D9F882
:101C30000410594506D141F20801032000F0BCFC14
:101C400000F0B0FC002507E006FB0751019830F8D2
:101C5000110000F07DFC6D1CBD42F5D3D9F80420C5
:101C60004846524502D04168594504D101221146E7
:101C70000F48FFF7B1FE641EA4B2E0B2009900F075
:101C800021F9761C46454846CED34268524502D0DB
:101C90004168594507D105B041F21801BDE8F04F40
:101CA000032000F089BC05B0BDE8F08F386100204A
:101CB0000010004870B53D4C0025218821F0380106
:101CC0002180218841F0080121803949496847294C
:101CD0004AD000F099FC732000F0BCFCFF212046A4
:101CE00000F0C2FD8021204600F06EFD0028F9D1F1
:101CF0000121204600F068FD0028F9D0204600F0C0
:101D0000A9FD6D1CEDB2052DE8D3FF21204600F0A2
:101D1000ABFD8021204600F057FD0028F9D10121BC
:101D2000204600F051FD0028F9D0FF21204600F0A8
:101D30009BFD8021204600F047FD0028F9D10121BC
:101D4000204600F041FD0028F9D0204600F043FD78
:101D50000546012211461748FFF73EFE208820F075
:101D600038002080284670BD00F04EFC732000F043
:101D700071FC05E00221204600F026FD0028F9D084
:101D80008021204600F020FD0028F3D1FF212046CD
:101D900000F06AFD0121204600F016FD0028F9D070
:101DA0002046BDE8704000F055BD000000380040FE
:101DB00038610020001000482DE9F04188B0012171
:101DC0004FF4880000F090FC012144F2010000F083
:101DD000AFFC01218F03384600F092FC03208DF800
:101DE000190002268DF818600024DFF8A4807D1108
:101DF0008DF81A4005958DF81B4005A94046FFF760
:101E0000A1F80597234F05A93846FFF79BF8A801CD
:101E1000059005A93846FFF795F8052209214046A7
:101E2000FFF7CAF805220E213846FFF7C5F805224C
:101E30000F213846FFF7C0F8174F384600F09AFCDC
:101E4000ADF800404FF48270ADF802004FF4E0604E
:101E5000ADF804000120ADF808000820ADF80C0032
:101E60000720ADF81000ADF80660ADF80A50ADF8E7
:101E70000E406946384600F0B0FCE900384600F0F4
:101E8000EBFC0121384600F06BFC08B0BDE8F081A6
:101E900000140048000400480038004001B5BDF8B7
:101EA00000000149488008BD3861002003B5BDF835
:101EB000001003480180BDF8041041800CBD0000F3
:101EC0003861002070B505460E480C46406847282A
:101ED00009D02946202000F06FFB21462120BDE8D3
:101EE000704000F069BB0021062000F065FB294628
:101EF000072000F061FB210A022000F05DFBE1B247
:101F00000320ECE738610020014988607047000039
:101F10003861002001B5BDF800000149088008BD06
:101F2000386100202DE9F05FFFF738FDFFF744FF2F
:101F3000FE4C60684FF48076A0F513414FF4E067E3
:101F400041F2300840F2022940F2023A40F23F15D5
:101F50004FF4887B203908D06068A0F5A841083983
:101F60007ED0606847287CD0EBE2052007F0E7F8D8
:101F70004FF40041E52000F01FFB0121002000F09C
:101F80001BFB3146012000F017FB3946022000F010
:101F900013FB4146032000F00FFB0021042000F05A
:101FA0000BFB4946082000F007FB0021092000F048
:101FB00003FB00210A2000F0FFFA00210C2000F0B2
:101FC000FBFA00210D2000F0F7FA00210F2000F0AD
:101FD000F3FA0021102000F0EFFA0021112000F0A8
:101FE000EBFA0021122000F0E7FA0021132000F0A4
:101FF000E3FA142007F0A3F841F2B071102000F0CA
:10200000DBFA40F23711112000F0D6FA052007F074
:1020100096F840F23911122000F0CEFA052007F0B0
:102020008EF84FF4E851132000F0C6FA132129204E
:1020300000F0C2FA052007F082F80021202000F00D
:10204000BBFA0021212000F0B7FA0621302000F071
:10205000B3FA40F20111312000F0AEFA032101E0A1
:1020600079E074E1322000F0A7FA4FF48371352053
:1020700000F0A2FA40F60231362000F09DFA5146F7
:10208000372000F099FA40F20771382000F094FAF6
:102090000721392000F090FA4FF4C0613C2000F095
:1020A0008BFA40F20B213D2000F086FA00215020EF
:1020B00000F082FAEF21512000F07EFA0021522038
:1020C00000F07AFA2946532000F076FA4FF41C51BA
:1020D000602000F071FA0121612000F06DFA00210A
:1020E0006A2000F069FA0021802000F065FA0021E2
:1020F000812000F061FA0021822000F05DFA0021C9
:10210000832000F059FA0021842000F055FA0021C4
:10211000852000F051FA1021902000F04DFA0021A6
:10212000922000F049FA0321932000F045FA594625
:10213000952000F041FA0021972000F03DFA00219F
:10214000982000F039FA41F21801032000F034FA27
:1021500040F27311F9E043F20801E32000F02CFA99
:102160001221E72000F028FA41F23121EF2000F09F
:1021700023FA3146012000F01FFA3946022000F010
:102180001BFA4146032000F017FA0021042000F05A
:1021900013FA4946082000F00FFA0021092000F048
:1021A0000BFA00210A2000F007FA00210C2000F0B1
:1021B00003FA00210D2000F0FFF900210F2000F0AC
:1021C000FBF90021102000F0F7F90021112000F0A8
:1021D000F3F90021122000F0EFF90021132000F0A4
:1021E000EBF9142006F0ABFF0721112000F0E4F911
:1021F000052006F0A4FF41F2B021102000F0DCF928
:10220000052006F09CFF40F2BD11122000F0D4F929
:10221000052006F094FF4FF4A051132000F0CCF9F4
:102220000E21292000F0C8F9052006F088FF0021C2
:10223000202000F0C1F92946212000F0BDF9072136
:10224000302000F0B9F95146312000F0B5F940F2E4
:1022500005163146322000F0AFF940F20627394624
:10226000352000F0A9F940F608084146362000F074
:10227000A3F93946372000F09FF940F20451382085
:1022800000F09AF90721392000F096F931463C20F8
:1022900000F092F941463D2000F08EF900215020D7
:1022A00000F08AF9EF21512000F086F90021522038
:1022B00000F082F92946532000F07EF94FF42741BF
:1022C000602000F079F90121612000F075F900210A
:1022D0006A2000F071F90021802000F06DF90021E2
:1022E000812000F069F90021822000F065F90021C9
:1022F000832000F061F90021842000F05DF90021C5
:10230000852000F059F91021902000F055F90021A6
:10231000922000F051F90321932000F04DF9594625
:10232000952000F049F90021972001E03861002054
:1023300000F042F90021982000F03EF941F2180126
:10234000032000F039F94FF489710720F7E00021EC
:10235000EA2000F031F92021EB2000F02DF90C21CA
:10236000EC2000F029F9C421ED2000F025F94021EE
:10237000E82000F021F93821E92000F01DF90121C1
:10238000F12000F019F91021F22000F015F9A32135
:10239000272000F011F90121402000F00DF9002163
:1023A000412000F009F90021422000F005F9102138
:1023B000432000F001F90E21442000F0FDF8242113
:1023C000452000F0F9F80421462000F0F5F85021EE
:1023D000472000F0F1F80221482000F0EDF8132129
:1023E000492000F0E9F819214A2000F0E5F8192108
:1023F0004B2000F0E1F816214C2000F0DDF81B2105
:10240000502000F0D9F83121512000F0D5F82F21CB
:10241000522000F0D1F83F21532000F0CDF83F21A9
:10242000542000F0C9F83E21552000F0C5F82F21B6
:10243000562000F0C1F87B21572000F0BDF809219B
:10244000582000F0B9F80621592000F0B5F806210F
:102450005A2000F0B1F80C215B2000F0ADF81D21EE
:102460005C2000F0A9F8CC215D2000F0A5F81B212C
:10247000084600F0A1F801211A2000F09DF82F2154
:10248000242000F099F85721252000F095F88621A6
:10249000232000F091F83621182000F08DF801215A
:1024A000192000F089F806211C2000F085F806218B
:1024B0001D2000F081F890211F2000F07DF80121FF
:1024C000272000F079F80A2006F039FE05211720B0
:1024D00000F072F80921362000F06EF8382128202B
:1024E00000F06AF83C2006F02AFE3C21282000F08B
:1024F00063F80021012000F05FF80021022000F0C5
:102500005BF80021032000F057F80121042000F0BF
:1025100053F83F21052000F04FF80021062000F07D
:102520004BF80021072000F047F80021082000F0B8
:1025300043F8EF21092000F03FF8E021162000F0D9
:102540003BF80248A060BDE8F09F00004461002015
:1025500070B50B4D0446010A284600F085F980212C
:10256000284600F031F90028F9D1E1B2284600F000
:102570007BF98021284600F027F90028F9D170BDA9
:102580000038004010B5044600F00CF82046FFF774
:10259000DFFF0122BDE8104011460148FFF71CBAD9
:1025A0000010004810B5222000F02EF8BDE81040C1
:1025B000722000F04FB8000070B50C4600F024F80F
:1025C000722000F047F80E4D210A284600F04CF921
:1025D0008021284600F0F8F80028F9D1E1B2284619
:1025E00000F042F98021284600F0EEF80028F9D1E9
:1025F000BDE87040012211460248FFF7EDB9000026
:10260000003800400010004870B50546702000F00A
:1026100021F80E4C0021204600F026F980212046AA
:1026200000F0D2F80028F9D12946204600F01CF924
:102630008021204600F0C8F80028F9D1BDE870409C
:10264000012211460248FFF7C7B9000000380040D8
:102650000010004810B50446002201210748FFF78A
:10266000BBF92146064C204600F0FEF880212046AA
:1026700000F0AAF80028F9D110BD000000100048B1
:102680000038004070B50F23C47801780122F4B1FE
:10269000144C2468457804F4E064C4F5E064240A2A
:1026A000C4F10406E3408478B5401C402C4301F19A
:1026B000E021230181F80034007800F01F018A40F6
:1026C0004009800000F1E020C0F8002170BD01F059
:1026D0001F0082404809800000F1E020C0F88021FE
:1026E00070BD00000CED00E0044A0029516901D0E2
:1026F000014300E081435161704700000010024037
:10270000044A0029D16901D0014300E08143D1612D
:102710007047000000100240044A0029116901D0EE
:10272000014300E081431161704700000010024046
:10273000044A0029916901D0014300E0814391617D
:102740007047000000100240044A0029D16801D0FF
:10275000014300E08143D160704700000010024057
:102760000029018802D041F0400101E021F0400140
:1027700001807047114910B588420AD184140121A3
:102780002046FFF7E1FF2046BDE810400021FFF79B
:10279000DBBF0B49884202D10121041404E009493E
:1027A00088420AD10121C4132046FFF7B5FF204615
:1027B000BDE810400021FFF7AFBF10BD0030014061
:1027C00000380040003C00400246002012890A42C6
:1027D00000D0012070478089704730B54A88B2F533
:1027E000827F1ED0828822F470638A881A43828096
:1027F00002880C8902F44153CA888D8922434C898E
:102800002C43CD892C4322430C884D882C432243F2
:102810001A430280828B22F400628283098A018239
:1028200030BD02880C8902F44153CA888D89224345
:102830004C892C43CD892C4322430C8844F4827468
:1028400022431A430280828822F470638A881A43E2
:102850008280DFE7007B7047828822F4805282808A
:1028600082880A43828070470173704738B5002020
:102870000090FFF757FB0020FFF71CFA014600907D
:1028800045F20840074C814204D049F22030814291
:1028900000D047206060FFF745FB02480C30A06085
:1028A00038BD00003861002010B50021062000F07E
:1028B00025F80021042000F021F80021052000F077
:1028C0001DF80021022000F019F80021BDE8104099
:1028D000032000F013B8000048B1401E0549C0B203
:1028E000054A31F8101052F82000FEF775BBFF20A2
:1028F00070470000D0C803086861002070B586B03A
:102900000D46002848D0401EC4B22448012150F88A
:102910002400FFF7E9FE01210846FFF709FF002622
:102920008DF8106002208DF813001C4803A90C38A4
:1029300030F8140003901A4850F82400FEF702FB08
:10294000012D29D115483238015D801F005D00F04E
:1029500029F812481830012C30F8140000908DF836
:10296000046001D0082000E00C208DF8050001254E
:102970008DF806506846FEF769FA08482C38005D65
:102980008DF808000F208DF809008DF80A008DF8E9
:102990000B5002A8FFF776FE06B070BDDCC8030836
:1029A0006861002010B58A0721F003040649130F5F
:1029B00021440F228C689A4094438C608A68984026
:1029C00002438A6010BD0000000001400CB50021E8
:1029D000214801910091026842F4803202604FF474
:1029E000A043026802F400320092019A521C019244
:1029F000009A12B9019A9A42F3D10268920329D53A
:102A00000121164A0091122111604168416041681C
:102A10004160416841F480614160416821F47C116A
:102A20004160416841F4E8114160016841F0807102
:102A3000016001688901FCD5416821F00301416012
:102A4000416841F0020141604168C1F381010229FE
:102A5000FAD10CBD00910CBD0010024000200240D4
:102A6000164810B5016841F470010160144801680E
:102A700041F0010101604168124A11404160016862
:102A8000114A11400160016821F480210160416810
:102A900021F4FE014160C16A21F00F01C162016BA6
:102AA0000A4A1140016300218160FFF78FFF03494B
:102AB0004FF000608039086010BD000088ED00E034
:102AC000001002400CC07FF8FFFFF6FECCFC00FFB8
:102AD0002DE9FE4F282005F00BFC03210091052372
:102AE0003B4A3CA105F0C8FB8246282005F000FCCB
:102AF0001E2100910523364A39A105F0BDFB814610
:102B0000282005F0F5FB3C2100910523304A3EA129
:102B100005F0B2FB8046282005F0EAFB4B2100912E
:102B200005232B4A41A105F0A7FB0746282005F005
:102B3000DFFB5A2100910523254A45A105F09CFBA6
:102B40000646282005F0D4FBB42100910523204A35
:102B500048A105F091FB0546282005F0C9FB73212B
:102B6000009105231A4A4B4905F086FB044651465D
:102B7000174804F0E8F94946154804F0E4F94146DD
:102B8000134804F0E0F93946114804F0DCF9314605
:102B90000F4804F0D8F929460D4804F0D4F921462D
:102BA0000B4804F0D0F9282005F0A2FB0849962331
:102BB000F7228DE80E0038492C234822096803F0DB
:102BC000FBFC03B00146BDE8F04F014804F0BBB97F
:102BD000BC62002048656C70205061676500000091
:102BE00055736520746865206A6F79737469636BC7
:102BF00020746F20776F726B2077697468204C4364
:102C000044204755490000002D55502F444F574E42
:102C100020746F206D6F7665206265747765656ED0
:102C200020636F6E74726F6C730000002D4C45460C
:102C3000542F524947544820746F206D6F76652099
:102C40006265747765656E2070616765730000006A
:102C50002D53454C20746F20696E746572616374E6
:102C600020776974682074686520636F6E74726F72
:102C70006C000000436F7079726967687420535468
:102C80004D6963726F656C656374726F6E696373AF
:102C90000000000072B30308006000202DE9F04F2F
:102CA00087B00021FE4804F0F7F8282005F020FB4B
:102CB0000021FB4A0B460091A832FAA105F0DCFA8C
:102CC0008046282005F014FB1421F54A00910A23C0
:102CD000A832FAA105F0D0FA0746382005F008FB23
:102CE0002121EF4A00910A23A832F64905F0D6F9CE
:102CF000F54CE060282005F0FBFA1421E84A009129
:102D00006423A832F1A105F0B7FA0646382005F091
:102D1000EFFA21210091E24AEA496423A8320C31FA
:102D200005F0BCF92061282005F0E2FADFF8709385
:102D3000352309F1A8090A21CDF80090CDE9011346
:102D40003C239B22E4A105F0F5F90546282005F077
:102D5000CFFA112100910F232A46E4A105F08CFA45
:102D60000490282005F0C4FA252100910F232A465B
:102D7000E1A105F081FA0590382005F0B9FA6E223C
:102D8000CDE900524FF00F0ACDF808A0227809F5DE
:102D9000806B0BEB82110323DAA203F02DFFE061BD
:102DA000382005F0A5FA23216E220095CDE90121F6
:102DB000227803230BEB8211D2A2891C03F01CFFA3
:102DC0002062282005F094FA1422CD23CDF800903B
:102DD000CDE90132AA236422CBA105F0ABF903901F
:102DE000282005F085FA0523CDF800A0C8A1039A94
:102DF00005F042FA6062282005F07AFA212100915C
:102E00000523C6A1039A05F037FAA062282005F031
:102E10006FFA332100910523C3A1039A05F02CFA20
:102E2000E062282005F064FA452100910523C1A144
:102E3000039A05F021FA2063282005F059FA57215A
:102E400000910523BEA1039A05F016FA60632820BD
:102E500005F04EFA692100910523BCA1039A05F003
:102E60000BFAA063282005F043FA7B21009105238B
:102E7000B9A1039A05F000FAE063302005F038FAB2
:102E80008D2100910A23B7A1039A03F0ABFCB84946
:102E9000206441624CF218614183002103F0CBFFB2
:102EA0004846216C04F04FF84146484604F04BF880
:102EB0003146484604F047F83946484604F043F89E
:102EC0004846E16804F03FF82178E06804F0ABFF81
:102ED000E168A84848624846216904F034F820783F
:102EE00009F5906600EB400016F82010206904F008
:102EF0009AFFA14804F5807700680169F86A88475D
:102F0000C0067AD5282005F0F3F973230A21CDF8FD
:102F10000090CDE901133C23BE2298A105F00AF9E7
:102F20008046282005F0E4F911210091052342464E
:102F300096A105F0A1F98246282005F0D9F92521AE
:102F400000910523424692A105F096F9814638206A
:102F500005F0CEF90190F86A01F0C0FFDFF864B126
:102F600021230BF1180B42465BF820100F20009034
:102F7000019805F093F86061382005F0B9F90190E7
:102F8000F86A01F0ABFF5BF82010232000902123AA
:102F90004246019805F082F8A0614146A6F590608E
:102FA00003F0D1FF5146A6F5906003F0CCFF4946EF
:102FB000A6F5906003F0C7FFA6F59060616903F085
:102FC000C2FFA6F59060A16903F0BDFF207800EB79
:102FD000400006EB80004178606904F024FF20780F
:102FE00000EB400006EB80008178A06904F01BFF35
:102FF000616968484862A169486229482946A83041
:1030000003F0A1FF26480499A83003F09CFF244850
:103010000599A83003F097FF2148E169A83003F033
:1030200092FF1F48216AA83003F08DFF0021E0695C
:1030300003F001FF0021206A03F0FDFE4E48006806
:103040000169F86A88470221B1EB107F03D0C0F311
:103050000360022813D1302005F04AF9B221104A4A
:1030600000910A23A8324CA103F0BCFB0146786111
:103070000B48A83003F067FF79694C48486208485C
:103080000399A83003F05FFF0548616AA83003F098
:103090005AFF0348A16AA83003F055FF004887E0B3
:1030A000BC620020436F6E66696775726174696FF8
:1030B0006E20616E64206465627567004D6F746F89
:1030C0007200000094B30308046000204374726C23
:1030D000206D6F6465000000506F77657220626F2D
:1030E00061726420737461747573000044432042FC
:1030F000757320766F6C74004865617473696E6BCC
:1031000020542E00253364004661756C74730000F2
:103110004F76657263757272656E7400526576756E
:1031200070206661696C0000537065656420666498
:10313000626B00005357206572726F7200000000CE
:10314000556E64657220766F6C7400004F76657200
:1031500020766F6C740000004F7665722074656D88
:10316000700000004661756C742061636B000000A4
:10317000C5500308AD5E0308F47F0020444143209E
:1031800053657474696E6773000000004368310012
:1031900043683200D9550308456E636F6465722039
:1031A000616C69676E6D656E7400000049560308B6
:1031B000A830E16A03F0C7FE2048216B03F0C3FE8C
:1031C0001E48616B03F0BFFE1C48A16B03F0BBFE01
:1031D0001A48E16B03F0B7FE2078626A00EB40000A
:1031E00006EB800116484B7930F8133053838B7906
:1031F000A26A30F813305383CB79E26A30F8133087
:1032000053830B7A226B30F8133053834B7A626B03
:1032100030F8133053838B7AA26B30F8133053831A
:10322000C97AE26B30F81100508321690548486281
:1032300007B00248BDE8F04F03F019BF64630020F7
:103240006CB30308E55D03082DE9F04F8BB028202F
:1032500005F04EF800210B460091FB4AFBA105F05A
:103260000BF80790282005F043F8F74914230A22A9
:103270008DE80E005A239122F9A104F05BFF064667
:10328000F948FA4C4FF0050B00784FF01E09002862
:103290004FF0410A4FF028007BD005F029F80F21AC
:1032A000009105233246F2A104F0E6FF07463820DC
:1032B00005F01EF80096EC49CDE901B94D4606230C
:1032C000EFA26C3903F098FCEE49A0644162402003
:1032D00005F00EF83C210096CDE90115E2490623E0
:1032E000E7A28C3904F02EF9E064282005F000F8FC
:1032F00075233246E4A1009504F0BEFF80462820E5
:1033000004F0F6FF3221009105233246DFA104F0DC
:10331000B3FF0546382004F0EBFFD349CDE9006B3D
:103320000623D7A26839CDF808A003F065FCD94977
:10333000606541623946C44803F005FEC248A16C8D
:1033400003F001FEC048E16C03F0FDFD4146BE48BC
:1033500003F0F9FD2946BC4803F0F5FDBA48616D5C
:1033600003F0F1FD0021E06C03F065FD302004F076
:10337000BFFF782100912823B34AC7A103F032FA96
:103380006067302004F0B4FF8C212823AE4A0091FE
:1033900000E0DCE0C3A103F025FAC549A067416263
:1033A0004CF218614183002103F045FDA648616F8E
:1033B00003F0C9FDA448A16F03F0C5FD282004F067
:1033C00097FFA1491423A0228DE80E005A239122D1
:1033D000B8A104F0AFFE0546A348017B84380390F2
:1033E00000294FF028007CD004F082FF0F210091CB
:1033F00005232A469EA104F03FFF0890382004F0E0
:1034000077FF9949CDE9005B4F4606239CA22C39F2
:10341000CDF8089003F0F0FBA849206641624020F7
:1034200004F066FF3C21CDE90051062394A20297E7
:10343000039904F087F86066282004F059FF75238B
:103440002A4691A1009704F017FF8046282004F037
:103450004FFF3221009105232A468CA104F00CFF76
:103460000746382004F044FF7F49CDE9005B06237E
:1034700083A22839CDF808A003F0BEFB9049E0668E
:1034800041627148089903F05EFD6F48216E03F0B8
:103490005AFD6D48616E03F056FD41466A4803F0DF
:1034A00052FD3946684803F04EFD6748E16E03F06F
:1034B0004AFD0021606E03F0BEFC302004F018FFCE
:1034C00078210091BE23604A73A103F08BF9E06775
:1034D000302004F00DFF8C210091BE235A4A71A1C7
:1034E00000E040E103F07EF9604F764980373860B4
:1034F00041624CF218614183002103F09CFC3020B2
:1035000004F0F6FEA021009144234F4A6EA103F07F
:1035100069F978604C48079903F015FD31464A482F
:1035200003F011FD2946484803F00DFD4648E16FC0
:1035300003F009FD4448396803F005FD4248796805
:1035400003F001FD4848017800297CD0D0E104F067
:10355000CFFE0F2100910523324661A104F08CFEBD
:103560000490402004F0C4FE3F49CDE9006B0623DF
:1035700043A29039CDF8089003F0E4FF5C4D6064FD
:103580005C4F286800210268F86A9047C0B2039037
:103590002868002211468368F86A98472868D4F89A
:1035A000448040210268F86A9047029028683F21D1
:1035B0000268F86A90470299C8E90E10286800214D
:1035C000039A8368F86A9847402004F091FE3C21F2
:1035D000CDE900612449062329A2CDF808908C3951
:1035E00003F0B0FFE064282004F082FE7523324629
:1035F00025A1CDF8009004F03FFE0746282004F0F6
:1036000077FE32210091052332463BA104F034FEBF
:103610000546382004F06CFE1349CDE9006B062303
:1036200017A27C39CDF808A003F0E6FA47F6FF723E
:103630000021206503F0B0FA302004F059FE3C234D
:10364000324632A166E03FE10C6400204475616CB3
:1036500020636F6E74726F6C2070616E656C000019
:103660004D6F746F72203100E46700200460002009
:103670004971207265662E2F5370656564000000E5
:10368000253664008D62030872706D0049642072F3
:1036900065662E00E160030853746172742F5374E1
:1036A0006F7000004661756C742061636B000000F0
:1036B000595503084D6F746F722032003D63030843
:1036C000B56103089955030853746172742F5374DC
:1036D0006F7020626F7468206D6F746F727300007A
:1036E000546172676574204D65617375726564001D
:1036F000F47F00200461002052616D7020647572B7
:103700006174696F6E206D73000000004578656319
:1037100000000000CDF800A003F064F8A0657C482C
:10372000049903F010FC7A48616C03F00CFC7848B3
:10373000E16C03F008FC3946754803F004FC2946A7
:10374000734803F000FC7248216D03F0FCFB7048E5
:10375000A16D03F0F8FB0021E06C03F06CFBA16DA0
:103760006C48486202E604F0C3FD0F2105232A4697
:103770000091AFF2940104F07FFD0890402004F026
:10378000B7FD1E2105220095CDE901210623AFF2E8
:103790001012614903F0D6FE604FE065DFF88081CA
:1037A000386800210268D8F82C00904700F0FF0B21
:1037B0003868012200218368D8F82C0098473868BF
:1037C000D4F85C9040210268D8F82C00904704900F
:1037D00038683F210268D8F82C0090470499C9E95D
:1037E0000E1038685A4600218368D8F82C00984794
:1037F000402004F07DFD1E223C210095CDE9011200
:103800000623AFF28412039903F09CFE6066282021
:1038100004F06EFD1E2175232A460091AFF2981127
:1038200004F02AFD8046282004F062FD32210523A1
:103830002A460091AFF2401104F01EFD07463820E1
:1038400004F056FD0522CDE900520623CDF808A06C
:10385000AFF2D41230494C3103F0CEF947F6FF7283
:103860000021A06603F098F9302004F041FD3C23CC
:103870002A46AFF26811CDF800A002F0B3FF20672E
:103880002348089903F05FFB2148E16D03F05BFBDF
:103890001F48616E03F057FB41461D4803F053FB80
:1038A00039461B4803F04FFB1948A16E03F04BFB50
:1038B0001748216F03F047FB0021606E03F0BBFA4D
:1038C000216F18484862F8E5007B88B9302004F081
:1038D0000FFDB421009140230D4A13A102F082FF95
:1038E0000146B8600A4803F02EFBB96814484862E4
:1038F000796814484862616F13484862E16F134861
:1039000048620BB00248BDE8F04F03F0B0BB0000C6
:103910000C640020296403085C670020F47F002009
:103920000461002075640308457865632073696D40
:10393000756C74616E656F75732052616D70730084
:1039400061560308A9510308415A0308655B03083F
:103950002DE9F04F8BB0282004F0CAFC00210B4663
:103960000091FE4AFEA104F087FC0390282004F099
:10397000BFFC0A22F94BCDE900324FF0140ACDF812
:1039800008A05A239122FBA104F0D4FB074628206B
:1039900004F0AEFC1E2100913C233A46F8A104F04D
:1039A0006BFC0490282004F0A3FC412100913C23EF
:1039B0003A46F4A104F060FC0590282004F098FC3D
:1039C0000F21009105233A46EFA104F055FC069023
:1039D000402004F08DFC1E2105220097CDE9012135
:1039E000DFF8B8B3EC4A06239BF8001002EBC101E4
:1039F000EBA203F0A7FD0BF18004DFF8A8830646D5
:103A0000E060D8F8000004F1800540210268E86A0F
:103A100090478146D8F800003F210268E86A904745
:103A2000C6E90E90282004F063FC322100910523A2
:103A30003A46DDA104F020FC0790382004F058FC41
:103A4000412105220097CDE901215A46DFF848932C
:103A5000127809F1100909EB82110623D0A2091D81
:103A600003F0CAF847F6FF720021206103F094F8D2
:103A7000302004F03DFC412100915A233A46CEA16A
:103A800002F0B0FECE496061416201F0BFF928202A
:103A900004F02EFCB14973230A228DE80E004B235B
:103AA0006822C8A104F046FB0646282004F020FC4A
:103AB0000A233246C6A1CDF800A004F0DDFB089031
:103AC000282004F015FC232100910A233246C1A1CD
:103AD00004F0D2FB0990382004F00AFC51464FF064
:103AE000280A0096CDE901A15A460623127809EB6F
:103AF0008211ABA2891D03F07FF8A061382004F089
:103B0000F7FB23210096CDE901A15A46062312783E
:103B100009EB8211A2A2083103F06EF8E0618F4830
:103B2000039903F010FA8D48049903F00CFA8B48BE
:103B3000059903F008FA3946884803F004FA8748E3
:103B4000069903F000FA8548E16803F0FCF9834820
:103B5000079903F0F8F98148216903F0F4F97F48E7
:103B6000616903F0F0F97D48A96903F0ECF97B483D
:103B7000E96903F0E8F97948296A03F0E4F977483C
:103B8000A96A03F0E0F90021286A03F054F97348A8
:103B9000696A03F0D8F93146704803F0D4F96F48E8
:103BA000089903F0D0F96D48099903F0CCF96B48F6
:103BB000A16903F0C8F96948E16903F0C4F9D8F8CC
:103BC00000000169E86A884780072BD5282004F0A7
:103BD0008FFB32270A2332467FA1009704F04CFB6B
:103BE0000546382004F084FBCDE9006A02979BF873
:103BF0000020062309EB821169A20A3102F0FCFFC2
:103C000020622946554803F09EF95448216A03F082
:103C10009AF947F6FF720021206A02F0BDFFA16900
:103C20006E48486247F6FF752A460021A06902F0F7
:103C3000B3FF2A460021E06902F0AEFFD8F8000089
:103C400001696748C06A8847C0077DD0282004F012
:103C50004FFB424973237D228DE80E004B23B42293
:103C600060A104F067FA0546282004F041FB0E2607
:103C70000A232A465FA1009604F0FEFA039028204A
:103C800004F036FB50232A465AA1009604F0F4FAB9
:103C90008246382004F02CFB0A22CDE900524FF076
:103CA0001908CDF808809BF800104E4609EB8111E9
:103CB0005F46042351A20C3102F09EFF606238205F
:103CC00004F016FB5022CDE90052CDF80880397877
:103CD000042306EB811149A20E3102F08DFFA06290
:103CE000282004F005FB4FF02C080A232A4638A1AF
:103CF000CDF8008004F0C0FA8146282004F0F8FADC
:103D000050232A4633A1CDF8008004F0B5FA80464E
:103D1000382004F0EDFA0A22CDE900524FF0370BBB
:103D2000CDF808B03978062306EB81111CA21031BA
:103D300002F062FFE062382004F0DAFA5022CDE9A6
:103D40000052CDF808B000E09CE03978062306EB7D
:103D5000811113A2123102F04FFF51E0B464002030
:103D6000537065656420636F6E74726F6C6C6572FE
:103D70000000000053657420706F696E74000000CD
:103D800072706D006D73000054617267657420730A
:103D90007065656400000000546700200460002026
:103DA00025366400F47F002052616D7020647572C6
:103DB0006174696F6E000000457865630000000063
:103DC0007D5E0308504944204761696E730000001E
:103DD0004B5000004B4900004B440000295303089E
:103DE00004610020466C757820776C2E2074756E07
:103DF000696E67004255538000000000253464005E
:103E000020632946254803F09EF82448039903F0CF
:103E10009AF85146214803F096F82048616A03F069
:103E200092F81E48A16A03F08EF80021A06A03F000
:103E300002F84946194803F086F84146174803F04E
:103E400082F81648E16A03F07EF81448216B03F00B
:103E50007AF84FF47A720021606A02F09DFE47F60C
:103E6000FF752A460021E06A02F096FE2A460021EC
:103E7000206B02F091FE616A09484862E16A48627B
:103E8000216B4862A16906484862E16948620BB04B
:103E90000248BDE8F04F03F0EAB80000B464002027
:103EA000295303082DE9F04F8BB0282004F020FAA5
:103EB00000210B460091FE4AFEA104F0DDF90390BB
:103EC000282004F015FA87210091E623F84AFEA184
:103ED00004F0D2F90490282004F00AFA0A23DFF84B
:103EE000D083CDE900834FF0140ACDF808A05A23FF
:103EF0009122F7A104F01EF90746282004F0F8F9F2
:103F00000F21009105233A46F4A104F0B5F9F54CD0
:103F10006063382004F0ECF91E2105220097CDE9FA
:103F20000121A4F1800508F502762978062306EB25
:103F30008111EDA2143102F05FFEA063282004F08D
:103F4000D7F90F21009150233A46E8A104F094F9E3
:103F50000590382004F0CCF91E2150220097CDE9BD
:103F600001212978062306EB8111DFA2163102F028
:103F700043FEE063282004F0BBF9322100910523C1
:103F80003A46DBA104F078F92064382004F0B0F957
:103F9000412105220097CDE901212978062306EB6E
:103FA0008111D1A2183102F027FE6064282004F0AC
:103FB0009FF93221009150233A46CFA104F05CF9D9
:103FC0000690382004F094F9412150220097CDE961
:103FD00001212978062306EB8111C3A21A3102F0D0
:103FE0000BFEA064282004F083F9844673200A2283
:103FF000CDF80080CDE901204B236822BFA16046A7
:1040000004F098F88146282004F072F90A234A4601
:10401000BEA1CDF800A004F02FF90790382004F0DD
:1040200067F94FF0280BCDE9009B8446CDF808A036
:104030002878062306EB8011ABA260461C3102F003
:10404000DBFDE064282004F053F9232100910A23CA
:104050004A46AFA104F010F90890382004F048F95E
:104060002321CDF80090CDE901B1844628780623BC
:1040700006EB80119CA260461E3102F0BDFD20655A
:10408000282004F035F9844673207822CDF800808A
:10409000CDE901204B2368229EA1604604F04AF836
:1040A0008046282004F024F90A23424697A1CDF83F
:1040B00000A004F0E1F80990382004F019F9CDE9E6
:1040C000008B8446CDF808A02878062306EB8011E3
:1040D00085A26046223102F08FFDE065282004F0C1
:1040E00007F9232100910A23424689A104F0C4F86C
:1040F0000A90382004F0FCF82321CDF80080CDE9A7
:1041000001B184462878062306EB801176A260462A
:10411000243102F071FD2066302004F0E9F87321AB
:104120000091E623624A7FA103F032F9E06638206D
:1041300004F0DEF896210091E6235D4A7B4903F006
:10414000ADFF206700F062FE5948039902F0FBFEC4
:104150005748049902F0F7FE3946554802F0F3FE3D
:104160005348616B02F0EFFE5148A16B02F0EBFE89
:104170004F48059902F0E7FE4D48E16B02F0E3FE7F
:104180000021E06B02F057FE4948216C02F0DBFE93
:104190004748616C02F0D7FE4548069902F0D3FE0D
:1041A0004348A16C02F0CFFE0021A06C02F043FE58
:1041B00004F1800081693E4802F0C5FE04F18000F0
:1041C000C1693B4802F0BFFE04F18000016A384833
:1041D00002F0B9FE04F18000816A354802F0B3FEB6
:1041E00004F180000021006A02F025FE04F1800045
:1041F000416A2F4802F0A7FE287800EB400106F143
:10420000800000EB810049460779294802F09BFEB7
:104210002748079902F097FE2548E16C02F093FECB
:104220002348089902F08FFE2148216D02F08BFE91
:10423000E16C3F484862216D3E4848623E48006854
:10424000016904F18000C06A884740072DD5282005
:1042500004F04EF84FF0320A0A234A4637A1CDF84F
:1042600000A004F009F86065382004F041F8CDE9B9
:10427000009BCDF808A02978062306EB81111AA22D
:10428000203102F0B9FCA0650948616D02F05BFEC7
:104290000748A16D02F057FE47F6FF720021A06D9E
:1042A00002F07AFCA16D2648486247F6FF7A49E0A1
:1042B0005C65002043757272656E7420636F6E7466
:1042C000726F6C6C65727300496E707574000000DB
:1042D00053657420706F696E7473000049712072A9
:1042E00065662E0084600020253664004971000058
:1042F0004964207265662E004964000049712050AF
:104300004944204761696E73000000004B50000073
:104310004B490000496420504944204761696E734D
:10432000000000004C696E6B00000000ECB3030855
:10433000AD54030869540308F47F00204B44000087
:104340002154030852460021E06C02F025FC52463D
:104350000021206D02F020FC41465D4802F0F3FD93
:104360005B48099902F0EFFD5948E16D02F0EBFD61
:1043700057480A9902F0E7FD5548216E02F0E3FD27
:104380005448006801695448C06A8847DFF84C9176
:10439000000733D5282003F0ABFF32210A23424621
:1043A0000091AFF2680103F067FF6066382003F008
:1043B0009FFF3221CDF80080CDE901B12978062395
:1043C00006EB8111AFF2E002263102F015FCA06687
:1043D0003F48616E02F0B7FD3D48A16E02F0B3FDAB
:1043E00052460021A06E02F0D7FB002F55D00021CD
:1043F000A06E02F020FDA16EC1F8249056465246F0
:104400000021E06D02F0C8FB32460021206E02F070
:10441000C3FB2F48E16E02F096FD2D48216F02F09C
:1044200092FDA84628782E4D00EB400005EB800059
:10443000C178206F03F0F7FC01F0BAFDE66E726AF6
:104440002AB196F8210010B139463046904786F8D7
:104450002C7027B30021E06D02F0EDFC0FB30021BA
:10446000206E02F0E8FC216F1E484862E16E1E4893
:104470004862A06B1D494162626C1D495162E26D48
:10448000C2F82490226EC2F8249098F8001001EB34
:10449000410115F8211031B114E00121A8E70121F3
:1044A000D9E70121DCE7002102F0C5FC09480068DA
:1044B00001690948C06A8847800603D40021606CFE
:1044C00002F0B9FC0BB00248BDE8F04F02F0CFBDDE
:1044D0005C650020F47F002004610020295303085C
:1044E000E4670020E9640308715303089D5803083A
:1044F000CD5603082DE9F04FFF48DFF8008487B060
:10450000006800250169D8F82C0088470646092074
:104510000024B0EB167F09D1282003F0E9FE002328
:10452000F74AF8A1009403F0A7FE0546C6F303601E
:10453000092809D1282003F0DBFE0023F04AF8A166
:10454000009403F099FE054670064FF028000AD546
:1045500003F0CEFEEA4914230A228DE80E005A2306
:104560009122F8A109E003F0C3FEE54914230A22D1
:104570008DE80E005A239122F5A103F0DBFD0446DD
:10458000282003F0B5FE0F21009105232246F1A15A
:1045900003F072FE0390382003F0AAFE1E210522CC
:1045A0000094DFF8B8B3CDE90121DFF8AC939BF8B4
:1045B0000020062309EB8211E9A2283102F01CFB3E
:1045C0000BF1800A5746CAF87400282003F090FEC9
:1045D0000F21009150232246E2A103F04DFE0490EA
:1045E000382003F085FE1E2250210094CDE90112EF
:1045F0009BF80020062309EB8211D9A22A3102F090
:10460000FBFAB86700F002FC2946BD4802F09BFCAB
:104610002146BB4802F097FCB948039902F093FC8D
:10462000B748796F02F08FFCB548049902F08BFC13
:10463000B348B96F02F087FC70065BD5282003F001
:1046400057FE3221009105232246C7A103F014FE34
:104650000390382003F04CFE0521CDE900414127AD
:1046600002979BF80020062309EB8211BCA230318F
:1046700002F0C2FA554647F6FF720021CAF87C00E4
:1046800002F08AFA282003F033FE322100915023F1
:104690002246B7A103F0F0FD0490382003F028FE75
:1046A0005021CDE9004102979BF80020062309EB39
:1046B0008211ABA2323102F09FFA444647F6FF72F4
:1046C0000021C8F8000002F067FA8D48039902F053
:1046D0003AFC8B48E96F02F036FC8948049902F0F5
:1046E00032FC8748216802F02EFCE96FA24848623C
:1046F0002168486244468248D8F8181002F023FC2A
:104700007F48E16902F01FFC7D48216A02F01BFC32
:104710007B48A16A02F017FC0021206A02F08BFBA3
:104720007748616A02F00FFC0920B0EB167F7DD15B
:10473000282003F0DDFD724973230A228DE80E0064
:104740004B2340F227128DA103F0F4FC05462820EC
:1047500003F0CEFD4FF014080A232A468BA1CDF8B2
:10476000008003F089FD0390382003F0C1FD502242
:10477000CDE90052CDF808809BF800104E4609EBB9
:1047800081115F46062376A2343102F035FA47F6EE
:10479000FF720021606002F0FFF9282003F0A8FDFD
:1047A0004FF023090A232A467BA1CDF8009003F09D
:1047B00063FD8346382003F09BFD5022CDE9005273
:1047C000CDF808903978062306EB811164A23631C2
:1047D00002F012FAA060282003F08AFD3221009135
:1047E0000A232A466EA103F047FD0490382003F007
:1047F0007FFD322150220095CDE901213978062331
:1048000006EB811156A2383102F0F6F9E06028205B
:1048100003F06EFDB4232A4663A1CDF8008003F0B7
:104820002BFD0590382003F063FD00E0D9E0E6227F
:10483000CDE90052CDF808803978032306EB8111C9
:104840005BA23A3102F0D8F920612B48222100689E
:104850000268E06A9047421E0021206902F09CF93C
:10486000282003F045FD8C232A4652A1CDF8008074
:1048700003F002FD0190282003F03AFD8C232A4624
:104880004DA1CDF8009003F0F7FC3978804606EB97
:10489000811090F83A20E06A00F02AFE216947482A
:1048A0004862616846484862A16846484862E168D3
:1048B000454848621248019902F045FB41461048BC
:1048C00002F041FB29460E4802F03DFB0C480399DB
:1048D00002F039FB0A48616802F035FB5946084886
:1048E00002F031FB0648A16802F02DFB0448049950
:1048F00002F029FB024869E0F47F002004610020F7
:104900000466002053656E736F726C657373207458
:10491000756E696E672053544F202620504C4C0012
:1049200053656E736F726C6573732074756E696E08
:10493000672053544F202620504C4C202841757836
:104940002900000053544F202620504C4C000000FA
:1049500053544F004731000064670020046000207A
:104960002536640047320000504C4C204B5000006C
:10497000504C4C204B4900002953030852657620C7
:1049800075702074756E696E670000004475726101
:1049900074696F6E00000000456E642073706400DF
:1049A000456E642049710000537461676500000022
:1049B000253364006D73000072706D00ED630308B1
:1049C000C16403081965030841650308E16802F042
:1049D000BAFA0A48059902F0B6FA0848216902F0C5
:1049E000B2FADAF8742006485062DAF878104862B1
:1049F00007B00248BDE8F04F02F039BB0466002062
:104A0000295303082DE9F04FD14887B000240068EE
:104A10000169D048C06A884706460A250027B5EBD9
:104A2000167F09D1282003F063FC0023CA4ACBA1DA
:104A3000009703F021FC0446C6F303600A2809D15D
:104A4000282003F055FC0023C34ACCA1009703F0B3
:104A500013FC0446282003F04BFCBF4BCDE9003586
:104A600014210291AA465A239122CEA103F062FB9F
:104A70000546282003F03CFC4FF00F0805232A468A
:104A8000C9A1CDF8008003F0F7FB8146382003F080
:104A90002FFC1E2105220095CDE90121C349DFF835
:104AA000B8B2062309780BF1B80B0BEB8111C0A249
:104AB0002C3102F0A1F8A74F803F7867282003F03F
:104AC00017FC50232A46BBA1CDF8008003F0D4FB8D
:104AD0008046382003F00CFC1E2150220095CDE9C1
:104AE0000121B2490623B2A209780BEB81112E31C4
:104AF00002F082F8B86700F089F92146964802F082
:104B000022FA2946944802F01EFA4946924802F0D9
:104B10001AFA9148796F02F016FA41468E4802F06F
:104B200012FA8D48B96F02F00EFA8A4C8A48A169D0
:104B300002F009FA8848E16902F005FA8648216A1C
:104B400002F001FA8448A16A02F0FDF90021206A0E
:104B500002F071F98048616A02F0F5F9BAEB167F4C
:104B60007ED1282003F0C4FB7B4900917323CDE95B
:104B700001A34B2340F227128FA103F0DBFA054675
:104B8000282003F0B5FB4FF014080A232A468EA113
:104B9000CDF8008003F070FB0390382003F0A8FBF1
:104BA0004FF05009CDE90059803FCDF808803978A1
:104BB0005E460BEB811106237DA2343102F01CF816
:104BC00047F6FF720021606001F0E6FF282003F045
:104BD0008FFB4FF0230A0A232A467EA1CDF800A0BE
:104BE00003F04AFB0490382003F082FB8DE8200696
:104BF0003978062306EB81116DA2363101F0FCFFF6
:104C0000A060282003F074FB4FF0320B0A232A46E1
:104C100072A1CDF800B003F02FFB0590382003F00F
:104C200067FB8DE8200A3978062306EB811160A224
:104C3000383101F0E1FFE060282003F059FBB42394
:104C40002A4668A1CDF8008003F016FB8346382081
:104C500003F04EFBE622CDE90052CDF8088000E0DB
:104C600069E03978032306EB811160A23A3101F043
:104C7000C3FF20613648222100680268E06A90473D
:104C8000421E0021206901F087FF282003F030FB3D
:104C90008C232A4656A1CDF8008003F0EDFA814618
:104CA000282003F025FB8C232A4652A1CDF800A032
:104CB00003F0E2FA3978804606EB811090F83A204A
:104CC000E06A00F015FC21694B48486260684B4976
:104CD0004162A0684A494162E0684A4941624946E6
:104CE0001D4802F030F941461B4802F02CF92946D4
:104CF000194802F028F91848039902F024F91648D7
:104D0000616802F020F91448049902F01CF9124875
:104D1000A16802F018F91048059902F014F90E483C
:104D2000E16802F010F959460B4802F00CF90A4804
:104D3000216902F008F9074833498038426F51620F
:104D4000806F416207B00448BDE8F04F02F08FB9B0
:104D5000F47F002004610020AC66002053656E7370
:104D60006F726C6573732074756E696E672053542F
:104D70004F202620434F52444943000053656E7331
:104D80006F726C6573732074756E696E672053540F
:104D90004F202620434F524449432028417578290B
:104DA0000000000053544F00473100000460002011
:104DB00025366400473200005265762075702074F5
:104DC000756E696E670000004475726174696F6E7C
:104DD00000000000456E642073706400456E64201E
:104DE0004971000053746167650000002533640059
:104DF0006D73000072706D00ED630308C1640308F9
:104E00001965030841650308295303083EB52820A6
:104E100003F06EFAA0232249CDE900131422029276
:104E20005A2391221FA103F085F9204CA06128206C
:104E300003F05EFA0F21009105231DA1A26903F082
:104E40001BFAE061402003F053FAA2690521CDE985
:104E500000211E25A4F580720295194912780623B7
:104E600001EBC20117A2091D02F06CFB2062302089
:104E700003F03EFA41210091052313A1A26901F03C
:104E8000B1FC6062282003F033FA00953C2311A1A5
:104E9000A26903F0F1F9A062616A0F4848623EBD61
:104EA000D06100204D6F6E69746F72000461002044
:104EB0004D6561737572656420737065656400008B
:104EC000546700202536640053746172742F537444
:104ED0006F70000072706D000152030870B53149A7
:104EE0000024096809698847010E0E074FF009017F
:104EF0004FF00A024FF002034FF001050ED0B1EB64
:104F0000107F03D1C0F303660A2E17D0B2EB107FD7
:104F100015D1C0F30366092E10D010E0B1EB107F5D
:104F200000D10124B2EB107F00D10224B5EB107F39
:104F300002D0B3EB107F33D1032431E00624B1EB70
:104F4000107F05D1C0F3036102290BD0012909D0DC
:104F5000C0F30361092906D1B3EB107F02D0B5EB92
:104F6000107F00D10424B2EB107F05D1C0F30361A0
:104F700002290BD0012909D0C0F303610A2906D107
:104F8000B3EB107F02D0B5EB107F00D105240B21CD
:104F9000B1EB107F04D1C0F30360092800D10724CE
:104FA000204670BDF47F002010B5324802F02DF885
:104FB0003048A83002F029F82F4802F026F82E4891
:104FC000A83002F022F82D4802F01FF82B48A83034
:104FD00002F01BF82A4802F018F82A490020C8609D
:104FE000086148618861C861086248628862C86275
:104FF000086348638863C863086448648864C86455
:10500000086548658865C865086648668866C86634
:10501000086748678867C8678031086048608860AB
:10502000C860086148618861C86108624862886236
:10503000C862086348638863C86308644864886416
:10504000C864086548658865C865086648668866F6
:10505000C866086748678867C86780310860486025
:105060008860C860086148618861C86108624862F8
:10507000886210BDBC6200200C6400205C650020CA
:10508000AC6600200460002010B5074807A1027834
:105090000B48521CFBF740F90949BDE8104001F1EB
:1050A000200002F0B8BA0000046000204D6F746F59
:1050B000722073656C65637465643A202531640001
:1050C0008C610020034807210068C2680248C06A5A
:1050D00010470000F47F00200461002010B50C464A
:1050E000FFF762FF072C23D2DFE804F004070A175A
:1050F0001A1D2000FDF7ECFC04E0FDF7CFFD01E0F8
:10510000FEF7A2F80C4B986801F02EFA9968BDE8FA
:1051100010400144094802F07EBAFEF719FC07E08E
:10512000FEF7C0FE04E0FFF7E5F901E0FFF76AFCD7
:10513000BDE81040FFF7A8BF04600020AC6100206C
:105140002DE9F047814617480E46144FDFF850808E
:10515000002400EB8615395D662908D0D8F80000D8
:10516000026848469047411C01D025F81400641C91
:10517000E4B2202CEFD3D8F800000421026848469E
:1051800090470849103941F8360095F83A203146E1
:105190004846BDE8F04700F0ABB90000F8B303089B
:1051A000F47F00206467002070B5134C134D00217C
:1051B00020680268E86A9047C6B22068002211465B
:1051C0008368E86A984720680621C268E86A9047C1
:1051D0002068012200218368E86A98472068062138
:1051E000C268E86A90472068324600218368E86A0E
:1051F000BDE8704018470000F47F002004610020E3
:105200002DE9F047414A424F424DA7F1800C2DED68
:10521000068B02F5807411782B6801EB41060CEBCC
:10522000811017F82680B8F1000F06D007EB860131
:10523000C97859B1012960D10EE0828834485B6891
:10524000903850F83110E06A984756E0B0F91820CD
:10525000B0F914101B6A4EE0E1469046B0F93E00EA
:1052600004F0DBF99FED2C8B53EC182B04F000FAC3
:105270009FED2B9B53EC192B04F048F841EC100BDD
:1052800003F0DAF998F80010B0EE40AA09EB8116A5
:10529000F0EE60AAB6F93C0004F0BFF953EC1A2B0B
:1052A00004F0E6F904F08AF907B2B6F93E0004F01A
:1052B000B4F953EC182B04F0DBF953EC192B04F080
:1052C00025F841EC100B03F01BFA98F80010B0EE33
:1052D000408A09EB8110F0EE608AB0F93C0004F0DE
:1052E0009CF953EC182B04F0C3F904F067F901B2F0
:1052F00028683A46036AE06A984728680621C26827
:10530000E06ABDEC068BBDE8F04710470460002062
:10531000E4670020F47F00201F85EB51B81E094090
:1053200000000000008066400D4B0C4A806A1B782C
:1053300002EB8312801A0B4A400852FA80F31B7862
:10534000662B09D0C0B2105C074A126893680A46FF
:1053500001460648C06A184770470000646700208D
:1053600004600020F8B30308F47F002004610020EB
:105370002DE9F041284E11F0FF052849307800EB67
:10538000400001EB8000057140D00021224C8034A8
:10539000E06D01F050FDC5B30021206E01F04BFD22
:1053A000FDB11E4F3078803F07EB8010B0F91C1024
:1053B0004184C28B8284028CC284E06D01F0D0FAF9
:1053C000307807EB8010B0F92410206E01F0C8FA95
:1053D000A06E30B1317807EB8111B1F9261001F0E0
:1053E000BFFAE06D012680F82060206E80F8206012
:1053F000A06E002807D06DB15FF0000101F01BFD29
:10540000A06E80F82060BDE8F08101E00121BDE7D9
:105410000121C2E70121F1E704600020E4670020D8
:1054200070B50D46FFF780FF0D480E4A017801EB7D
:10543000410002EB8000007900280FD0084C803436
:10544000A06E00280AD0803A02EB8111CD84294653
:1054500001F0ACFAA06E012180F8201070BD0000B0
:1054600004600020E467002010B50C46FFF75CFFE5
:105470000C480D4A007800EB400102EB81010979EC
:1054800000290ED0A2F1800101EB80102146848416
:10549000044C8034206E01F089FA206E012180F8DE
:1054A000201010BD04600020E467002010B50C46F9
:1054B000FFF73AFF0C480D4A007800EB400102EB81
:1054C0008101097900290ED0A2F1800101EB801041
:1054D00021464484044C8034E06D01F067FAE06DAD
:1054E000012180F8201010BD04600020E467002036
:1054F000F8B51546094A02EB8114094904F138024E
:1055000000920968931E121F8E692946B047E08EEB
:1055100000EB40004000E086F8BD0000646700201A
:10552000F47F002038B51546094A062302EB8112A4
:10553000B2F9361091FBF3F10BB2B2F938100091C9
:105540000449928E09684C692946A04738BD00007D
:1055500064670020F47F002070B50D4C0D4D0021D4
:1055600020680268E86A9047C6B2206800221146A7
:105570008368E86A984720680721C268E86A90470C
:105580002068324600218368E86ABDE87040184709
:10559000F47F00200461002070B50D4C0D4D0021FA
:1055A00020680268E86A9047C6B22068012200219C
:1055B0008368E86A984720680721C268E86A9047CC
:1055C0002068324600218368E86ABDE870401847C9
:1055D000F47F0020046100202DE9F041164A0546C1
:1055E00010461649007802F5807400EB400001EB8C
:1055F00080015369124E134FE06A9D420BD193F81C
:1056000030504D70FFF76AFC56F820000021425DD3
:105610003868C3690BE0926992F830508D70FFF7DB
:105620005DFC56F820000121425D3868C369206B9B
:10563000BDE8F0411847000004600020E467002046
:10564000CCB30308F47F0020034808210068C26837
:105650000248C06A10470000F47F00200461002067
:105660002DE9F041164C174D002120680268E86AC8
:105670009047C6B22068002211468368E86A9847BE
:10568000114F2068A7F11008BA884368D8F80010B5
:10569000E86A98472068012200218368E86A9847F1
:1056A0002068B7F84420D8F808104368E86A98479B
:1056B0002068324600218368E86ABDE8F041184757
:1056C000F47F002004610020646700202DE9F0478A
:1056D0006B4C6C4ADFF8B091A2F180052DED068B82
:1056E00004F58076207800EB400102EB810305EBA6
:1056F0008010DB78002B7CD0012B7BD1B0F93E00F1
:1057000003F08BFF9FED618B53EC182B03F0B0FF80
:105710009FED609B53EC192B03F0F8FD41EC100B4F
:1057200002F08AFF2078B0EE40AA05EB8017F0EE79
:1057300060AAB7F93C0003F070FF53EC1A2B03F09A
:1057400097FF03F03BFF0FFA80F8B7F93E0003F034
:1057500064FF53EC182B03F08BFF53EC192B03F071
:10576000D5FD41EC100B02F0CBFF2078B0EE40AA43
:1057700005EB8010F0EE60AAB0F93C0003F04DFF9D
:1057800053EC1A2B03F074FF03F018FF01B2D9F8A1
:1057900000004246036AF06A9847207805EB8010C3
:1057A000B0F93E0003F039FF53EC182B03F060FF13
:1057B00053EC192B03F0AAFD41EC100B02F0A0FFF3
:1057C0002078B0EE40AA05EB8016F0EE60AAB6F99C
:1057D0003C0003F022FF53EC1A2B03F049FF03F0C7
:1057E000EDFEB082B6F93E0003F017FF53EC182B24
:1057F00001E020E01BE003F03BFF53EC192B03F02A
:1058000085FD41EC100B02F017FF2078B0EE408AC6
:1058100005EB8014F0EE608AB4F93C0003F0FDFE65
:1058200053EC182B03F024FF03F0C8FE2083BDECDB
:10583000068BBDE8F08712F82110134A136851B1A6
:10584000B0F91820B0F914101B6AF06ABDEC068B91
:10585000BDE8F047184719694F46F06A8847800647
:10586000E5D52078412105EB8010B0F91820386883
:105870008368F06ABDEC068BBDE8F047184700006E
:1058800004600020E4670020F47F00201F85EB51B6
:10589000B81E094000000000008066402DE9F04776
:1058A000604D614ADFF88481A2F180042DED068B02
:1058B00005F58079287800EB400102EB810104EBCB
:1058C0008010C97800297CD001297BD1B0F93E0035
:1058D00003F0A3FE9FED568B53EC182B03F0C8FE8C
:1058E0009FED559B53EC192B03F010FD41EC100B71
:1058F00002F0A2FE2878B0EE40AA04EB8016F0EE8B
:1059000060AAB6F93C0003F088FE53EC1A2B03F0B2
:10591000AFFE03F053FE07B2B6F93E0003F07DFE82
:1059200053EC182B03F0A4FE53EC192B03F0EEFC00
:1059300041EC100B02F0E4FE2878B0EE40AA04EB34
:105940008010F0EE60AAB0F93C0003F066FE53EC64
:105950001A2B03F08DFE03F031FE01B2D8F80000DF
:105960003A46036AD9F82C009847287804EB80104F
:10597000B0F93E0003F051FE53EC182B03F078FE13
:1059800053EC192B03F0C2FC41EC100B02F0B8FEF3
:105990002878B0EE40AA04EB8016F0EE60AAB6F9C3
:1059A0003C0003F03AFE53EC1A2B03F061FE03F0C7
:1059B00005FEB082B6F93E0003F02FFE53EC182B23
:1059C00001E020E01BE003F053FE53EC192B03F041
:1059D0009DFC41EC100B02F02FFE2878B0EE408ABF
:1059E00004EB8014F0EE608AB4F93C0003F015FE7D
:1059F00053EC182B03F03CFE03F0E0FD2083BDECDC
:105A0000068BBDE8F087B0F91820B0F91410D8F86B
:105A10000000036AD9F82C00BDEC068BBDE8F04706
:105A20001847000004600020E4670020F47F002095
:105A30001F85EB51B81E0940000000000080664041
:105A40002DE9F041404C414D00212DED068B2068A1
:105A50000268E86A904700F0FF08206800221146BB
:105A60008368E86A98473A48A0F18006017821B136
:105A7000C07858B1012857D10FE03548B288903826
:105A8000016820684368E86A98474DE02068B6F9E5
:105A90001820B6F91410036A44E0B6F93E0003F08A
:105AA000BCFD9FED2C9B53EC192B03F0E1FD9FED0A
:105AB0002B8B53EC182B03F029FC41EC100B02F05C
:105AC000BBFDB0EE40AAF0EE60AAB6F93C0003F0D0
:105AD000A4FD53EC1A2B03F0CBFD03F06FFD07B2CE
