:02000004080FE3
:1000000048EF01207D020F085D521A00B9020F0867
:1000100089020F088B020F088D020F0800000000F4
:100020000000000000000000000000008F020F0828
:1000300091020F080000000093020F0895020F08BC
:1000400097020F0897020F0897020F0897020F08F0
:1000500097020F0897020F0897020F0897020F08E0
:1000600097020F0897020F0897020F0897020F08D0
:1000700097020F0897020F0897020F0897020F08C0
:1000800097020F0897020F0897020F0897020F08B0
:1000900097020F0897020F0897020F0897020F08A0
:1000A00097020F0897020F0897020F0897020F0890
:1000B00097020F0897020F0897020F0897020F0880
:1000C00097020F0897020F0897020F0897020F0870
:1000D00097020F0897020F0897020F0897020F0860
:1000E00097020F0897020F0897020F0897020F0850
:1000F00097020F0897020F0897020F0897020F0840
:1001000097020F0897020F0897020F0897020F082F
:1001100097020F0897020F0897020F0897020F081F
:1001200097020F0897020F0897020F0897020F080F
:1001300097020F0897020F0897020F0897020F08FF
:1001400097020F0897020F0897020F0897020F08EF
:1001500097020F0897020F0897020F0897020F08DF
:1001600097020F0897020F0897020F0897020F08CF
:1001700097020F0897020F0897020F0897020F08BF
:1001800097020F0800F002F800F068F80AA090E863
:10019000000C82448344AAF10107DA4501D100F042
:1001A0005DF8AFF2090EBAE80F0013F0010F18BFA7
:1001B000FB1A43F001031847DCDC0000FCDC000004
:1001C000103A24BF78C878C1FAD8520724BF30C883
:1001D00030C144BF04680C60704700000023002455
:1001E00000250026103A28BF78C1FBD8520728BF47
:1001F00030C148BF0B607047692900F0FF80642957
:1002000000F0FC80752900F0F9806F2900F09081E2
:10021000782900F0B7810368DB0928BF41F080012D
:10022000632900F0E483E32900F0F783002070479E
:100230001FB59DE8030000F051FC00F005FD04002F
:100240000020002108F046FE401C606000F0D4FA57
:100250001FBD10B5002008F07FF810BD00F0CEFCE7
:100260001146FFF7E5FF08F0C9FD00F00FFD03B4EC
:10027000FFF7EFFF03BC00F0BBFC0000094880471C
:1002800009480047FEE7FEE7FEE7FEE7FEE7FEE778
:10029000FEE7FEE7FEE7FEE704480549054A044B92
:1002A00070470000792B0F0885010F0870E80120C6
:1002B00048EF012048EF012000B5FFB441464A460F
:1002C00053465C4665463EB40D496A460A600D4990
:1002D00008600D4988473EBC884691469A46A34629
:1002E000AC46FFBC00BD064801688D463EBC884652
:1002F00091469A46A346AC46FFBC044800BD0000A8
:10030000F0FF0120F4FF01208D010F083CD70F08FA
:100310000FB41CB5074B06AA7B44694600900598AC
:1003200000F043FB0020694600F052FB1CBC5DF866
:1003300014FB0000B506000070B50446856900682E
:10034000C10601D5302600E02026C00707D070BDC9
:10035000D4E9012130469047206A401C20626D1E7E
:10036000F6D570BD70B5044685690078C00707D121
:1003700070BDD4E9012120209047206A401C2062F2
:100380006D1EF6D570BD09684A0501D540B27047AB
:10039000C905FCD500B2704709684A0501D5C0B24D
:1003A0007047C905FCD580B2704770B50C4605464C
:1003B000012A05D02878800600D5EA69002302E0EA
:1003C000012305E05B1C934202D2E05C0028F9D1D6
:1003D000A869E618C01AA861286A18442862284645
:1003E000FFF7AAFF04E0D5E9012114F8010B9047BB
:1003F000B442F8D32846FFF7B5FF70BD2DE9F041B0
:100400000646002410687529314616A510D0FFF75E
:10041000BAFF002802DA404213A507E031688A07D4
:1004200001D512A502E0490704D511A5012401E078
:10043000FFF7B2FF00210A2206F1240709E0B0FB12
:10044000F2FCB0FBF2F302FB1C003030785418468B
:10045000491C0028F3D123462A463046BDE8F04126
:1004600000F045BA000000002D0000002B00000045
:10047000200000002DE9FF5F15468A460446DFF89C
:10048000AC80F8440027D8E900103E46CDE90010C2
:1004900010E03AF816106A4602A800F0CAFA411CA9
:1004A00007D02178890603D5E269391891420DD821
:1004B0000744761C2078800602D5E069B84205DD45
:1004C000AE42E6DB3AF816000028E2D1A069C01B74
:1004D000A0612046FFF730FFD8E90010CDE90010F9
:1004E000002017E03AF818106A4602A800F0A1FAB6
:1004F000B0F1FF3F81460BD000250DF1080B05E060
:10050000D4E901211BF8050090476D1C4D45F7D338
:1005100008F10100B0428046E4DB206A38442062E2
:100520002046FFF71FFFBDE8FF9F0000C6D2000076
:1005300070B5044621461068FFF72EFF002104F134
:10054000240505E000F007023032C0086A54491C57
:100550000028F7D12068002308A2050708D500F07D
:100560002000084304D0E069012305A2401EE06199
:100570002046BDE8704000F0BAB90000000000005D
:100580003000000070B504460D4621461068FFF7A4
:1005900003FF2188090502D50F4A7A4402E00E4A7A
:1005A0007A440E32002104F1240305E000F00F0626
:1005B0000009965D5E54491C0028F7D1207800237D
:1005C000000704D5702D02D009B102231132204654
:1005D000BDE8704000F08BB9B6D100002DE9F05FA6
:1005E000894604464FF0000ADFF874B1FB44C0F8B6
:1005F00020A02046E1688847002874D0252806D02E
:10060000D4E901219047206A401C2062F1E70026CE
:100610005F462046E16888472028054607DB312DE4
:1006200005D2781910F8200C08B10643F1E7B0079D
:1006300001D526F00406C4F81CA00027C4F818A0B1
:100640002A2D09D0284608F047FA38B304EB87086A
:10065000303DC8F8185019E059F8041B204604EB47
:1006600087029161E1688847012F054618D1E0694A
:10067000002820DA26F020061DE0D8F8180000EB4C
:10068000800005EB40003038C8F818002046E168CB
:100690008847054608F020FA0028EED1012F0AD03D
:1006A0002E2D08D12046E16888477F1C0546022F81
:1006B00046F02006C4DBA069002803DA404246F079
:1006C0000106A061F00701D026F010066C2D0BD0BA
:1006D000682D09D04C2D39D06A2D35D0742D35D0E8
:1006E0007A2D33D016E038E0E1682F46204688475F
:1006F000B842054609D16C2F26D04FF48060E168DE
:10070000064320468847054604E06C2F1AD04FF474
:10071000807006430DB3A5F14100192802D8203599
:1007200046F400664A462946204626604E46FFF7B4
:1007300063FD80B101280BD0F61D26F0070000F103
:10074000080956E74020E4E78020D8E70020D6E7F4
:1007500006F104094DE7284652E7206ABDE8F09FFC
:100760008CD1000010B5431C02E010F8011B71B1E0
:100770008107FAD14FF0013202C88C1A8C4314EA77
:10078000C211F9D0C01A0A0603D0C01E10BDC01A8B
:1007900010BD0A0401D0801E10BD0902FCD0401E0D
:1007A00010BD4FF0000200B513469446964620391E
:1007B00022BFA0E80C50A0E80C50B1F12001BFF41A
:1007C000F7AF090728BFA0E80C5048BF0CC05DF880
:1007D00004EB890028BF40F8042B08BF704748BFCE
:1007E00020F8022B11F0804F18BF00F8012B704742
:1007F000704770477047000070B5064C7C44064D4A
:100800007D4403E0206820448047241DAC42F9D198
:1008100070BD0000C4D70000C4D700000048704776
:1008200044E801200048704748E8012070B50646BA
:1008300000F034F9056806F10B0020F00704B4421B
:100840009CBF002070BD2B466A68BAB11068A042F8
:1008500010D304F1080188423CBF5068586007D3A8
:100860005168101941601168091B016058601460DB
:10087000101D70BD13465268002AE7D12146284654
:1008800000F018F90028DED170BD70B50446051FD0
:1008900000F004F90068002C14BF446870BD002CFF
:1008A00018BFAC423CBF20466468F8D301680A1800
:1008B000AA4218BF456003D12A6805461144016069
:1008C00028684119A1421CBF6C6070BD61686960F5
:1008D00021680844286070BD10B500F0E3F8006896
:1008E00010BD10B5044600F0DDF8046010BD2DE920
:1008F000F0470D4699469246044600F124080168E7
:10090000880604D5E06921F01001216000E0012093
:10091000A84201DD471B00E00027A1697A1902EB1C
:100920000900081AA0612078C00602D42046FFF70B
:1009300003FD002608E0D4E901211AF806009047DB
:10094000206A401C761C20624E45F4DB2078C006ED
:100950000AD52046FFF7F0FC06E0D4E9012130205B
:100960009047206A401C2062381EA7F10107F4DC82
:1009700007E0D4E9012118F805009047206A401CDF
:100980002062281EA5F10105F3DC2046FFF7EAFCF2
:100990002078000602D50220BDE8F0870120FBE7A1
:1009A00001694A1C02610878704700B58FB0CDE933
:1009B00001310021059105497944CDE90310114623
:1009C0006846FFF70BFE0FB000BD0000E5FFFFFF1C
:1009D0000A6802F8010B0A60704710B5436913B149
:1009E000AFF3008001E0FFF7E0FC012010BD1278BA
:1009F00000F124010A7000224A700122EDE711681B
:100A00004FF0FF32E9E710B5436913B1AFF300804F
:100A100001E0FFF72FFD012010BD128800F1240135
:100A200082840022C2840122EDE711684FF0FF3278
:100A3000E9E770B516460C46054600F027F803684E
:100A400093F80101012806D0FF2C0FD8185D68B17A
:100A500001202C7070BDD3F807013246214603F205
:100A6000071303442846BDE8704018474FF0FF3095
:100A700070BD10B500F06EF8BDE8104000F064B82D
:100A800000F080B80048704710E8012010B500F071
:100A9000DBF8001D10BD00BF3D840000004870471A
:100AA00018E801200048704710E80120704770479F
:100AB0007047704738B504460A4600206946AFF3D0
:100AC0000080002808BF38BD02460099204600F08B
:100AD000C3F8012038BD012000F0FFB8F8B5AFF32E
:100AE0000080054600200C46102000BF0646A819CD
:100AF000A0420DD9324669460020AFF300800700BE
:100B000008BF00F0EAF80098A04218BF0546C419D3
:100B1000FFF7C4FF05600746F01D20F007004619E7
:100B2000284600F00AF8B44208BFF8BDA21B3146BF
:100B30003868BDE8F84000F08FB800210160C0E9D6
:100B40000110704710207047002801D000F050B805
:100B50007047000010B5002102A000F0A5F80120A8
:100B600010BD00005349475056464E3A205075720A
:100B700065207669727475616C20666E2063616CA5
:100B80006C65640010B500F00EF8016919B100221F
:100B90000261884701E08068804700F07DF800002E
:100BA00010B500F079F870B500F052F80468054609
:100BB000A4B92020FFF73AFE040011D00949002013
:100BC0002C60C4E900010849A160207320616061C4
:100BD0000649A06109B100F087F8E061204670BDC8
:100BE00000F05AF800000000A10B0F080000000000
:100BF00001491820ABBEFEE7260002007546FFF74C
:100C000041FFAE4605006946534620F00700854681
:100C100018B020B5FFF740FBBDE820404FF00006BC
:100C20004FF000074FF000084FF0000B21F00701D4
:100C3000AC46ACE8C009ACE8C009ACE8C009ACE817
:100C4000C0098D46704700000048704730E8012019
:100C5000004870474CE80120034640688C46002855
:100C600018BF88423CBF03464068F8D31868184450
:100C7000884207D00CF1030020F00700001D411A44
:100C8000521A0146081D0A60FFF7FFBD0446AFF384
:100C900000802046FFF7EBFA002000F04BF8FFF74A
:100CA000D8FA0120FFF7A4FF70B505460C460A20CC
:100CB00000E06D1C00F036F835B128780028F8D136
:100CC00002E0641C00F02EF814B120780028F8D15E
:100CD000BDE870400A2000F025B810B500F032F8E9
:100CE000BDE81040FFF730BF10B58820FFF79EFD2C
:100CF000002801D00021017010BD802902D808B160
:100D0000017809B100207047012100F8081B7047E5
:100D100018B100F10802914201D000207047002173
:100D20000170704708B569468DF800000320ABBE1E
:100D300008BD704710B500F06DF8BDE81040FFF732
:100D400003BF000010B5012805D0002103A0FFF764
:100D5000ABFF012010BD09A1F8E70000534947523D
:100D6000544D454D3A204F7574206F66206865617B
:100D700070206D656D6F7279000000003A20486543
:100D80006170206D656D6F727920636F727275701E
:100D9000746564004FF0013C50F8042B51F8043B9B
:100DA0009A4221D1A2EB0C03934313EACC1317D13F
:100DB00050F8042B51F8043B9A4215D1A2EB0C03D6
:100DC000934313EACC130BD150F8042B51F8043B96
:100DD0009A4209D1A2EB0C03934313EACC13DBD064
:100DE0004FF00000704700BFD01A01BAB1FA81F18C
:100DF00001F0180122FA01F0CB40C1F12001DBB271
:100E0000C0B2C01A2CFA01F3D11A914311EAC311EE
:100E1000E6D1704710B5002102A0FFF745FF012081
:100E200010BD0000534947414252543A2041626E7E
:100E30006F726D616C207465726D696E6174696F3B
:100E40006E00000030B51A498379026853B30B680D
:100E500093430B600A1D13680468A343136002796F
:100E60000A441368046823431360114A0832136864
:100E70000468A3431360131D1C680568AC431C6021
:100E80004479102C05D021440A68006802430A60A6
:100E900030BD11680468214311601968006801437E
:100EA000196030BD0079084401689143016030BD8C
:100EB000003C0140F0B50023012403270D6804FA2B
:100EC00003F21540954242D1D0F800C05E0007FA07
:100ED00006F52CEA050CC0F800C091F804C0D0F863
:100EE00000E00CFA06FC4CEA0E0CC0F800C091F8C9
:100EF00004C0BCF1010F02D0BCF1020F1FD1D0F829
:100F000008C02CEA050CC0F808C091F805C0D0F85C
:100F100008E00CFA06FC4CEA0E0CC0F808C0D0F849
:100F200004C02CEA020CC0F804C0426891F806C064
:100F30000CFA03FC1FFA8CFC42EA0C024260C26805
:100F4000AA43C260CA79C568B2402A43C2605B1C2A
:100F5000102BB3D3F0BD4B07DB0E9A40C90810B578
:100F600000EB8100016A0F249C40A1430162016AE9
:100F70001143016210BD0246002012690A4200D0EE
:100F8000012070470AB10183704741837047000018
:100F90002DE9F74FDFF8DCA182B05446DFF8D881A5
:100FA0000298C4E90B01D8F80000154647460169CC
:100FB0000298884706462946704806F0C5FAAAF501
:100FC00080796F496D48C9F8085006F071FB6C498B
:100FD0006A48A83106F06CFB6A49684806F068FB6D
:100FE00068496648A83106F063FB6749634806F024
:100FF0005FFB65496148A83106F05AFB63495F48C9
:1010000006F056FB002589F800503868294602682A
:10101000E06A9047C0B200903868002211468368A9
:10102000E06A9847386803210268E06A9047C0B2D6
:101030000127574C012824D0277000215148A8309F
:1010400005F00AFF6570A770AB46DAF83000B946C4
:10105000554628B3D8F8001047460A681C21904727
:1010600000F0FF0A38681D210268286B9047C7B25C
:10107000E86A03F0AFFF474A0146002052F821100A
:101080000BE025700121D9E7524500D160700A5C60
:10109000BA4200D1A070401CC0B20A5CFF2AF3D152
:1010A00084F803B084F804B084F805B084F806B07E
:1010B00084F807B084F808B084F809B084F80AB05E
:1010C00084F80BB0D8F8000001225F468368002145
:1010D000E86A9847D8F8000003210268E86A904758
:1010E000C0B2012840D084F80C9000BFD8F80000AE
:1010F0000021009A8368E86A9847677384F80E9025
:10110000E77327746774A774E77427756775A77505
:10111000E775029800F08AF818491F48C1F80C01D9
:101120000021164806F032FA0920B0EB167F1DD0D8
:10113000C6F30360092819D000211348A83005F030
:101140008BFE0A20B0EB167F12D0C6F303600A288C
:101150000ED000210D4805F07FFE05B00021BDE84E
:10116000F04F022001F052BC2773BFE70121E4E7F2
:101170000121EFE704E10120F4FF0120C0E101209B
:10118000D0E2012020E4012070E50120C0E601202A
:10119000F8E70120B4B80F08D5510F082DE9F04148
:1011A0001E4C204606F036FA04F5827007F006F869
:1011B000022001F01FFC1A4EB188084306D0002916
:1011C00002D0B088401EB080BDE8F081154C164DAD
:1011D000002120680268E86A9047C7B220680022B0
:1011E00011468368E86A984720680221C268E86A65
:1011F00090472068012200218368E86A98472068A8
:101200000221C268E86A904720683A460021836854
:10121000E86A98470420B080D3E70000C0E10120CD
:1012200004E00120F4FF012004E1012070B5134C1B
:10123000064600212068026830469047C5B2206803
:10124000002211468368304698470021304603F05B
:10125000F3FF206801220021836830469847002868
:101260000BD00121304603F0E7FF20682A46002119
:1012700083683046BDE87040184770BDF4FF012018
:101280002DE9F14FFE4D0527DFF8F883FE4EDFF81C
:10129000FC9384B0002405F1910A3068295D02684E
:1012A0001AF801100498904799F8003008EB83125F
:1012B0002B5D641CE4B222F81300BC42EDD3F04D68
:1012C00001270024ED1E05F1010A3068295D02683E
:1012D0001AF8011004989047EA4999F8002010394B
:1012E00001EBC2012A5D641CE4B241F82200BC4259
:1012F000EBD399F800004D4600EB4001E148803007
:10130000012410F82100E8BB306808210268049825
:1013100090472978474608EB8111888230680C2174
:101320000268049890472A7800B207EB821102EB1A
:101330004203D44A0883803202EB8302D278012A26
:101340002CD1B1F914200AB9002854D0524300FB23
:101350000020B84608F070FB06F0A1FF08F050FB33
:101360002A7808EB8217B887B7F9180008F064FBF1
:101370008146B7F9140008F05FFB494606F091FF7B
:10138000C34900E014E008F06FFBC24908F076FAA8
:1013900008F036FB2A7808EB8211C887BB498031F8
:1013A000886B08B180F82040486C08B180F8204074
:1013B0003068012102680498904787B2060C286CB7
:1013C000A8464CF2186B68B307B1C6B1B24805F035
:1013D000C9FDD8F840104546884202D1AE4805F014
:1013E00026FE286C428B5A451CD0A0F81AB000216A
:1013F00005F001FD13E0002088875A20CDE7002189
:1014000041834546012105F0F6FCA34805F0AAFDFD
:10141000296C884203D000219F4805F0AFFD286C5D
:1014200080F82040984DDFF8749200212868026807
:10143000D9F82C009047C0B20290286800221146CB
:101440008368D9F82C00984728680121026804981D
:101450009047824628680221026804989047C0B2EB
:1014600001901FFA8AF9D8F878004FEA1A4A4546DF
:10147000E8B1B9F1000F02D0BAF1000F31D08648BF
:10148000A83005F06FFDA96F884203D18248A830CB
:1014900005F0CDFDA86F428B5A4508D0A0F81AB0D0
:1014A0005FF0000105F0A7FCA86F80F820407748A6
:1014B000406F28B359EA0A0117D07748A83005F0E1
:1014C00051FD724D696F884203D17348A83005F011
:1014D000AEFD686F428B5A4512D0A0F81AB00021B9
:1014E00009E0002141830121DCE7684D418B39B1DE
:1014F00000214183012105F07EFC686F80F82040C7
:10150000614D01220021286883686448C06A9847B9
:1015100028680121026804989047804628680221C3
:10152000026804989047C0B2009058481FFA88F5A6
:1015300080304FEA1848006808B315B1B8F1000FC1
:1015400038D05548A83005F00DFD50498031096864
:10155000884203D15048A83005F069FD4B4A8032DB
:101560001068438B5B450AD0A0F81AB05FF0000109
:1015700005F041FC45488030006880F82040434831
:10158000C06F30B355EA080118D04348A83005F0C1
:10159000E9FC3E49C96F884203D13F48A83005F0B5
:1015A00046FD3A4AD06F438B5B4512D0A0F81AB083
:1015B000002108E0002141830121D9E7428B42B19B
:1015C00000214183012105F016FC3048C06F80F8EE
:1015D00020402D480021029A006883682F48C06A85
:1015E000984749EA0A0A4AEA050050EA08003BD04F
:1015F0002B49B1F8000101280AD08946022833D0CE
:101600000121274805F0C2FFB9F8000101282BD1BC
:10161000DFF8789099F8000018B14D46012809D0FC
:1016200019E055EA080516D0B9F802004D46A8B9E8
:10163000012105E0BAF1000F0DD0688870B90021D2
:10164000E86806F0D0FB0021084604F035FCE868A5
:10165000002180F82310B9F8021019B3B9F802106C
:10166000B1F10101A9F80210084D8035686890B306
:10167000DDE9002111437DD00199062914D015E040
:101680004FB80F0878E70120F4FF012004E00120A3
:1016900000003443C3F5484078E3012004E1012011
:1016A000C0E101201E21DDE7062A63D0824805F053
:1016B00059FC6968884202D17F4805F0B8FC686827
:1016C000428B5A4507D0A0F81AB0002105F093FBD1
:1016D000686880F82040DFF8E48100217B0698F8F4
:1016E000000000EB4002764800EB82004FF002025F
:1016F000417100D54271730600D544718171FB06BA
:1017000000D58271F30600D58471C171BB0600D586
:10171000C271B30600D5C4710172FB0700D002721A
:10172000F30700D004723B0600D50272330600D5E1
:10173000047241727B0700D54272730700D5447270
:101740008172BB0700D58272B30700D58472C17263
:10175000390700D5C272310700D5C472D8F84010DD
:10176000F1B3D8F8242043795649568B31F8133019
:101770009E4200E098E002D0538382F82040D8F8DF
:1017800028208379568B31F813309E4202D0538340
:1017900082F82040D8F82C20C379568B31F81330CA
:1017A0009E4202D0538382F82040D8F83020037A3A
:1017B000568B31F813309E4202D0538382F820407A
:1017C000D8F83420437A568B31F813309E4202D039
:1017D000538382F82040D8F83820837A568B00E073
:1017E00011E031F813309E4202D0538382F820403A
:1017F000D8F83C20C07A538B31F81000834202D0D5
:10180000508382F82040D8F81C0008B180F82040AE
:10181000D8F8200008B180F820402B48006A08B1B1
:1018200080F82040A86A08B180F82040E86B08B131
:1018300080F82040A86C08B180F82040234D00219A
:101840002868026804989047C7B2286800221146A9
:1018500083680498984728681E2102680498904776
:10186000174E0122903E002170602868836804981A
:10187000984758B128681E21026804989047F06084
:1018800028683A460021836804989847D8F84C00A5
:1018900008B180F82040D8F86400002801D080F812
:1018A000204005B0BDE8F08F418B00293FF413AF15
:1018B00000214183012109E720E4012004E0012007
:1018C000F8E7012054B80F0804E10120F4FF0120DB
:1018D0002DE9F0478146002540F23F11284600F0EF
:1018E000CBFA124C606849F2203645F20847B04204
:1018F00002D06068B84201D100F0D2FE4FF49638B1
:10190000484600F069FE6D1C4545F9D36068B04259
:1019100002D06068B84206D1BDE8F0470122042138
:10192000034800F03BB8BDE8F087000080E10120EB
:10193000000402407CB501210A2000F089FF00204C
:101940008DF806008DF8070001208DF804000420B2
:10195000009002208DF8050069460E48FFF7AAFAAC
:1019600080200D4D009069462846FFF7A3FA4FF4FA
:101970000044694628460094FFF79CFA012221465C
:10198000284600F00BF801228021284600F006F8D6
:101990007CBD000000040240000C0240FFF7F2BAD8
:1019A000064B30B49B68203AD2B21C68DB885343A4
:1019B00004EB430230BC00F003B8000080E10120DA
:1019C0002DE9F74F924600270646019900F054FA98
:1019D00049F22039DFF890803EE06168494504D043
:1019E0006168A1F5A840083801D100F059FE002532
:1019F0004FF00C0B18E000BFB0FBFBF1CA008021D8
:101A000091403AF817202941114201D10C2805D9FB
:101A10000121A9400A4203D10C2801D9608800E0C5
:101A2000208800F0D9FD6D1CA0688088A842E3D80A
:101A30006168494504D06168A1F5A840083804D11F
:101A4000012204210948FFF7A9FF761CF6B23046AF
:101A5000019900F011FA7F1CD8F808004446C088AC
:101A6000B842BAD8BDE8FE8F80E1012000040240F0
:101A70002DE9F74F82B0002604469246ADF800608B
:101A8000ADF8046001A9684600F0A4F8A04620461D
:101A9000039900F0F1F949F2203945F2084B1D4D48
:101AA00031E06968494502D06968594501D100F0C3
:101AB000F7FD00240127B7400DE000BF3AF81400FD
:101AC000384202D1BDF8040001E0BDF8000000F08A
:101AD00083FD641CE4B2A8688088A042EED86968DF
:101AE000494502D06968594504D1012204210A48B8
:101AF000FFF754FF08F10100C0B28046039900F0DF
:101B0000BBF9761CF6B2A868C088B042C9D805B047
:101B1000BDE8F08F80E10120000402402DE9F05F74
:101B2000994616468B460546002400F0A5F9DFF8D5
:101B30009C8049F2203045F20847B9F1000F03D0EC
:101B4000814648F2123A3DE0D8F804100546A94211
:101B500003D0D8F80400B84207D100F0A1FD04E09A
:101B6000B8F8000000F038FD641CB442F8D3D8F88F
:101B70000410A94203D0D8F80400B84224D1BDE82B
:101B8000F05F012204211248FFF708BFD8F80410C3
:101B9000494503D0D8F80410B94204D1B8F8000080
:101BA00000F06EFD07E0D8F80410514503D1B8F8F5
:101BB000000000F011FD6D1CEDB25946284600F002
:101BC0005BF9641CB442E1D3BDE8F09F80E10120E1
:101BD00000040240024A138803805088088070473E
:101BE00080E10120014880687047000080E1012009
:101BF000012070472DE9FF4F81B0A1F23F11DDF8C0
:101C000038801F4602EB080084B2484280B2009040
:101C10000026E0B2009900F02FF949F2203A45F28F
:101C2000084BDFF888902DE04168514503D0D9F882
:101C30000410594506D141F20801032000F03AFD95
:101C400000F02EFD002507E006FB0751019830F853
:101C5000110000F0C1FC6D1CBD42F5D3D9F8042081
:101C60004846524502D04168594504D10122042119
:101C70000F48FFF793FE641EA4B2E0B2009900F093
:101C8000FBF8761C46454846CED34268524502D002
:101C90004168594507D105B041F21801BDE8F04F40
:101CA000032000F007BD05B0BDE8F08F80E1012002
:101CB0000004024070B5002500F05AFD732000F0CA
:101CC0007DFD244CFF21204600F03BFE02212046F2
:101CD00000F02EFE0028F9D00121204600F028FE59
:101CE0000028F9D0204600F02AFE6D1CEDB2052D2B
:101CF000E8D3FF21204600F024FE0221204600F018
:101D000017FE0028F9D00121204600F011FE00281E
:101D1000F9D0204600F013FE0546FF21204600F0D2
:101D200010FE0221204600F003FE0028F9D0012118
:101D3000204600F0FDFD0028F9D0204600F0FFFD10
:101D4000E9B240EA0124012204210348FFF726FEFC
:101D5000204670BD0038004000040240F0B587B056
:101D60000121022000F074FD01218E03304600F0B5
:101D70007BFD344F05220D213846FFF7ECF8052294
:101D80000E213846FFF7E7F805220F213846FFF706
:101D9000E2F8022500248DF81A408DF81B40280334
:101DA0008DF8185005908DF8195005A93846FFF7A1
:101DB00081F805A938460596FFF77CF8A803059039
:101DC00005A93846FFF776F81F4E304600F086FD2D
:101DD000ADF800404FF48270ADF802001B48416836
:101DE000A1F51342203A0AD04168A1F5A842083A69
:101DF00005D04068A0F50341123908D00FE0ADF8D6
:101E000004400120ADF80650ADF8080007E04FF49B
:101E10000060ADF80400ADF80640ADF808404FF49E
:101E20000070ADF80A00ADF80C40ADF80E40694600
:101E3000304600F088FD0121304600F045FD07B036
:101E4000F0BD0000000402400038004080E10120A5
:101E500001B5BDF800000149488008BD80E10120BE
:101E600003B5BDF8001003480180BDF8041041809F
:101E70000CBD000080E1012010B50C4613494A68F2
:101E8000A2F51343203B18D04A68A2F5A843083BAB
:101E900013D04968A1F50342123A15D101464220F8
:101EA00000F008FCC4F30021432000F003FCE1B281
:101EB0004420BDE8104000F0FDBB0146202000F0AA
:101EC000F9FB21462120F4E710BD000080E101204C
:101ED000014988607047000080E1012001B5BDF82C
:101EE00000000149088008BD80E101202DE9F05F74
:101EF000FFF720FDFFF732FFFE4841684FF4807581
:101F0000A1F513424FF4E06641F2300740F2022897
:101F100040F2023940F23F144FF4887A41F2180B34
:101F2000203A7DD04168A1F5A842083A79D04068AE
:101F3000A0F50341123975D11021012000F0BAFB40
:101F4000A021002000F0B6FB0121032000F0B2FB2D
:101F5000012006F045FF0021032000F0ABFB042127
:101F60002B2000F0A7FB1821282000F0A3FB05215F
:101F70001A2000F09FFB0521252000F09BFB00218B
:101F8000192000F097FB73211C2000F093FB7421B3
:101F9000242000F08FFB01211E2000F08BFBC121CB
:101FA000182000F087FB012006F01AFFE12118201D
:101FB00000F080FBF121182000F07CFB062006F0E9
:101FC0000FFFF521182000F075FB062006F008FF32
:101FD00009211B2000F06EFB012006F001FF1121FA
:101FE0001F2000F067FB0E21202000F063FB812101
:101FF0001E2000F05FFB012006F0F2FE00219D2074
:1020000000F058FB0021C02000F054FB00210E20FE
:1020100000F050FB00210F2000F04CFB002102E0FB
:10202000E9E0DEE1D5E2102000F044FB00211120C0
:1020300000F040FB0021122000F03CFB00211320A7
:1020400000F038FB0021142000F034FB00211520A3
:1020500000F030FB0021162000F02CFB002117209F
:1020600000F028FB0121342000F024FB0021352062
:1020700000F020FB00214B2000F01CFB00214C2035
:1020800000F018FB00214E2000F014FB00214F202F
:1020900000F010FB0021502000F00CFB00213C2040
:1020A00000F008FB00213D2000F004FB01213E2050
:1020B00000F000FB3F21084600F0FCFA022140201E
:1020C00000F0F8FA0221412000F0F4FA0021422049
:1020D00000F0F0FA0021432000F0ECFA0021442047
:1020E00000F0E8FA0021452000F0E4FAEF21462054
:1020F00000F0E0FA0021472000F0DCFA002148203F
:1021000000F0D8FA0121492000F0D4FA3F214A20FA
:1021100000F0D0FA08211D2000F0CCFA0021862022
:1021200000F0C8FA3021872000F0C4FA022188208C
:1021300000F0C0FA0521892000F0BCFA01218D20B1
:1021400000F0B8FA20218B2000F0B4FA01213320EE
:1021500000F0B0FA0121372000F0ACFA002176201F
:1021600000F0A8FA10218F2000F0A4FA6721902037
:1021700000F0A0FA0721912000F09CFA652192203E
:1021800000F098FA0721932000F094FA012194209E
:1021900000F090FA7621952000F08CFA56219620D6
:1021A00000F088FA0021972000F084FA0621982098
:1021B00000F080FA0321992000F07CFA00219A2097
:1021C00000F078FA5021012000F074FA0421052073
:1021D00000F070FA8021002000F06CFA01213B2011
:1021E00000F068FA042006F0FBFD20210020BDE885
:1021F000F05F00F05FBA052006F0F2FD4FF40041F9
:10220000E52000F057FA0121002000F053FA29469A
:10221000012000F04FFA3146022000F04BFA394617
:10222000032000F047FA0021042000F043FA414661
:10223000082000F03FFA0021092000F03BFA0021BD
:102240000A2000F037FA00210C2000F033FA0021B8
:102250000D2000F02FFA00210F2000F02BFA0021B2
:10226000102000F027FA0021112000F023FA0021AD
:10227000122000F01FFA0021132000F01BFA142096
:1022800006F0AEFD41F2B071102000F013FA40F2FA
:102290003711112000F00EFA052006F0A1FD40F2E2
:1022A0003911122000F006FA052006F099FD4FF4CE
:1022B000E851132000F0FEF91321292000F0FAF96B
:1022C000052006F08DFD0021202000F0F3F900210B
:1022D000212000F0EFF90621302000F0EBF940F268
:1022E0000111312000F0E6F90321322000F0E2F97B
:1022F00002E0000080E101204FF48371352000F0FE
:10230000D9F940F60231362000F0D4F94946372099
:1023100000F0D0F940F20771382000F0CBF9072126
:10232000392000F0C7F94FF4C0613C2000F0C2F939
:1023300040F20B213D2000F0BDF90021502000F0BB
:10234000B9F9EF21512000F0B5F90021522000F039
:10235000B1F92146532000F0ADF94FF41C51602033
:1023600000F0A8F90121612000F0A4F900216A2001
:1023700000F0A0F90021802000F09CF900218120CC
:1023800000F098F90021822000F094F900218320C8
:1023900000F090F90021842000F08CF900218520C4
:1023A00000F088F91021902000F084F9002192209B
:1023B00000F080F90321932000F07CF9514695202C
:1023C00000F078F90021972000F074F9002198209E
:1023D00000F070F95946032000F06CF940F27311D7
:1023E000F5E043F20801E32000F064F91221E72050
:1023F00000F060F941F23121EF2000F05BF929464D
:10240000012000F057F93146022000F053F9394617
:10241000032000F04FF90021042000F04BF9414661
:10242000082000F047F90021092000F043F90021BD
:102430000A2000F03FF900210C2000F03BF90021B8
:102440000D2000F037F900210F2000F033F90021B2
:10245000102000F02FF90021112000F02BF90021AD
:10246000122000F027F90021132000F023F9142096
:1024700006F0B6FC0721112000F01CF9052006F03B
:10248000AFFC41F2B021102000F014F9052006F055
:10249000A7FC40F2BD11122000F00CF9052006F057
:1024A0009FFC4FF4A051132000F004F90E212920C5
:1024B00000F000F9052006F093FC0021202000F038
:1024C000F9F82146212000F0F5F80721302000F02E
:1024D000F1F84946312000F0EDF840F205152946A3
:1024E000322000F0E7F840F206263146352000F0B1
:1024F000E1F840F608073946362000F0DBF83146AF
:10250000372000F0D7F840F20451382000F0D2F81C
:102510000721392000F0CEF829463C2000F0CAF807
:1025200039463D2000F0C6F80021502000F0C2F8E6
:10253000EF21512000F0BEF80021522000F0BAF83F
:102540002146532000F0B6F84FF42741602000F0F8
:10255000B1F80121612000F0ADF800216A2000F0FF
:10256000A9F80021802000F0A5F80021812000F0CA
:10257000A1F80021822000F09DF80021832000F0C6
:1025800099F80021842000F095F80021852000F0C2
:1025900091F81021902000F08DF80021922000F099
:1025A00089F80321932000F085F85146952000F02A
:1025B00081F80021972000F07DF80021982000F09C
:1025C00079F85946032000F075F84FF48971072017
:1025D0000DE6BDE8F09F000070B5254E0546706819
:1025E000244CA0F51341203904D07068A0F5A8410F
:1025F000083913D1290A204600F0A3F90221204608
:1026000000F096F90028F9D0E9B2204600F099F9D7
:102610000221204600F08CF90028F9D07068A0F55E
:102620000341123922D1144E00224FF400413046AA
:10263000FFF7B4F9012280213046FFF7AFF90F4EC2
:10264000002204213046FFF7A9F92946204600F070
:1026500078F90221204600F06BF90028F9D03046C5
:10266000BDE8704001220421FFF798B970BD000059
:1026700080E1012000380040000C024000040240CC
:1026800010B5044600F00CF82046FFF7A5FF012224
:10269000BDE8104004210148FFF780B90004024062
:1026A00010B5222000F064F8BDE81040722000F060
:1026B00085B800002DE9F041294A5368294E2A4C7B
:1026C000A3F51345203D2ED05368A3F5A845083D3A
:1026D00029D05268A2F50343123B3FD1DFF88C802A
:1026E0000546CFB20022E1134046FFF757F900221A
:1026F00080214046FFF752F9002204213046FFF7BF
:102700004DF947EA0521204600F01BF90221204639
:1027100000F00EF90028F9D03046BDE8F041012262
:102720000421FFF73BB90D4600F022F8722000F0BB
:1027300045F8290A204600F004F90221204600F05D
:10274000F7F80028F9D0E9B2204600F0FAF80221A3
:10275000204600F0EDF80028F9D0DDE7BDE8F08173
:1027600080E101200004024000380040000C0240DB
:1027700070B50546702000F021F80E4C002120466F
:1027800000F0DFF80221204600F0D2F80028F9D04E
:102790002946204600F0D5F80221204600F0C8F86E
:1027A0000028F9D0BDE87040012204210248FFF75B
:1027B000F5B80000003800400004024010B504469F
:1027C000002204210748FFF7E9F82146064C20467D
:1027D00000F0B7F80221204600F0AAF80028F9D04E
:1027E00010BD0000000402400038004030B50F2248
:1027F000C47801780123FCB1144C246801F1E02174
:1028000004F4E064C4F5E064C4F30724C4F10405EF
:10281000E2404478AC408578154025432A0181F890
:102820000024007800F01F018B404009800000F177
:10283000E020C0F8003130BD01F01F00834048099E
:10284000800000F1E020C0F8803130BD0CED00E0E8
:10285000044A0029116801D0014300E0814311605E
:102860007047000030380240044A0029116801D046
:10287000014300E08143116070470000403802408E
:10288000044A0029116801D0014300E0814311602E
:102890007047000020380240044A0029116801D026
:1028A000014300E08143116070470000443802405A
:1028B000044A0029116801D0014300E081431160FE
:1028C00070470000243802400029018802D041F0FE
:1028D000400101E021F0400101807047114910B52D
:1028E00088420AD1841401212046FFF7E1FF2046E7
:1028F000BDE810400021FFF7DBBF0B49884202D141
:102900000121041404E0094988420AD10121C413B9
:102910002046FFF7B5FF2046BDE810400021FFF735
:10292000AFBF10BD0030014000380040003C004007
:102930000246002012890A4200D001207047808997
:1029400070478181704730B502884C8802F441534A
:102950000A88CD8822438C882C4322430C89224349
:102960004C8922438C892243CC8922431A4302801A
:10297000828B22F400628283098A018230BD0000CA
:1029800070B5FFF7B3FA0020FFF794F949F2203150
:102990000B4C884201D161600EE045F2084565604C
:1029A000FFF7A4FA0020FFF785F9A84204D048F207
:1029B00012306060FFF79AFA01480C30A06070BDD9
:1029C00080E1012010B50021072000F01FF8002150
:1029D000052000F01BF80021062000F017F8002168
:1029E000032000F013F80021BDE81040042000F09F
:1029F0000DB800000349044A31F8101052F82000C5
:102A0000FEF7B9BAE4BB0F0860E1012070B50446D7
:102A100025480E4686B050F824000121FFF718FF24
:102A200001218803FFF738FF1F4800258DF810505B
:102A300010388DF8135030F8140003901B4803A988
:102A400050F82400FEF736FA012E2BD116484030FC
:102A500010F81410103810F8140000F029F812487B
:102A6000203030F8140000908DF804500CB10C2088
:102A700000E008208DF8050001258DF80650684615
:102A8000FEF7E0F90848503010F814008DF80800FF
:102A90000F208DF809008DF80A008DF80B5002A860
:102AA000FFF7A4FE06B070BDF4BB0F0860E1012083
:102AB00010B58A0721F003040849130F21440F229F
:102AC000D1F808489A409443C1F80848D1F808283A
:102AD00098400243C1F8082810BD000000300140B2
:102AE0000CB50021214801910091026842F4803226
:102AF00002604FF4C063026802F400320092019A4F
:102B0000521C0192009A12B9019A9A42F3D10268BA
:102B1000920329D501210091144908310A680A60FD
:102B20000A6842F400420A600A6842F4A0520A604D
:102B30000B1F0F4A1A60026842F08072026002683E
:102B40009201FCD50B4A40F203701060086820F037
:102B500003000860086840F0020008600868C0F3DD
:102B600081000228FAD10CBD00910CBD0038024052
:102B7000193C4005003C02400F4810B5016841F087
:102B8000010101600C4A00210832116002680B4B00
:102B90001A400260031D0A4A1A60026822F4802269
:102BA000026005480C300160FFF79AFF05494FF0BD
:102BB0000060086010BD000000380240FFFFF6FE14
:102BC0001030002408ED00E02DE9FE4F282005F02C
:102BD0006FFB0321009105233B4A3CA105F02CFB30
:102BE0008246282005F064FB1E2100910523364A09
:102BF00039A105F021FB8146282005F059FB3C2135
:102C000000910523304A3EA105F016FB804628209E
:102C100005F04EFB4B21009105232B4A41A105F005
:102C20000BFB0746282005F043FB5A2100910523A2
:102C3000254A45A105F000FB0646282005F038FB93
:102C4000B42100910523204A48A105F0F5FA054674
:102C5000282005F02DFB7321009105231A4A4B49CA
:102C600005F0EAFA04465146174804F04CF9494683
:102C7000154804F048F94146134804F044F9394630
:102C8000114804F040F931460F4804F03CF9294658
:102C90000D4804F038F921460B4804F034F9282097
:102CA00005F006FB08499623F7228DE80E00384907
:102CB0002C234822096803F05FFC03B00146BDE8FD
:102CC000F04F014804F01FB9D0E2012048656C7054
:102CD00020506167650000005573652074686520A9
:102CE0006A6F79737469636B20746F20776F726B8E
:102CF0002077697468204C43442047554900000000
:102D00002D55502F444F574E20746F206D6F7665B0
:102D1000206265747765656E20636F6E74726F6C88
:102D2000730000002D4C4546542F5249475448200B
:102D3000746F206D6F7665206265747765656E20AF
:102D400070616765730000002D53454C20746F203F
:102D5000696E746572616374207769746820746841
:102D60006520636F6E74726F6C000000436F707942
:102D700072696768742053544D6963726F656C653E
:102D80006374726F6E696373000000005AB80F08B5
:102D900000E001202DE9F04F87B00021FE4804F04B
:102DA0005BF8282005F084FA0021FB4A0B460091CD
:102DB000A832FAA105F040FA8046282005F078FAFA
:102DC0001421F54A00910A23A832FAA105F034FA39
:102DD0000746382005F06CFA2121EF4A00910A23BA
:102DE000A832F64905F03AF9F54CE060282005F0E4
:102DF0005FFA1421E84A00916423A832F1A105F09A
:102E00001BFA0646382005F053FA21210091E24AC8
:102E1000EA496423A8320C3105F020F9206128200A
:102E200005F046FADFF87093352309F1A8090A2165
:102E3000CDF80090CDE901133C239B22E4A105F0DD
:102E400059F90546282005F033FA112100910F2386
:102E50002A46E4A105F0F0F90490282005F028FAAC
:102E6000252100910F232A46E1A105F0E5F90590FF
:102E7000382005F01DFA6E22CDE900524FF00F0AFE
:102E8000CDF808A0227809F5806B0BEB82110323A3
:102E9000DAA203F091FEE061382005F009FA23215F
:102EA0006E220095CDE90121227803230BEB8211DC
:102EB000D2A2891C03F080FE2062282005F0F8F9D8
:102EC0001422CD23CDF80090CDE90132AA2364224B
:102ED000CBA105F00FF90390282005F0E9F90523AF
:102EE000CDF800A0C8A1039A05F0A6F960622820D9
:102EF00005F0DEF9212100910523C6A1039A05F012
:102F00009BF9A062282005F0D3F933210091052315
:102F1000C3A1039A05F090F9E062282005F0C8F9F2
:102F2000452100910523C1A1039A05F085F920638D
:102F3000282005F0BDF9572100910523BEA1039A71
:102F400005F07AF96063282005F0B2F96921009153
:102F50000523BCA1039A05F06FF9A063282005F0B2
:102F6000A7F97B2100910523B9A1039A05F064F923
:102F7000E063302005F09CF98D2100910A23B7A170
:102F8000039A03F00FFCB849206441624CF21861C7
:102F90004183002103F02FFF4846216C03F0B3FF6B
:102FA0004146484603F0AFFF3146484603F0ABFFC9
:102FB0003946484603F0A7FF4846E16803F0A3FFFF
:102FC0002178E06804F00FFFE168A84848624846AD
:102FD000216903F098FF207809F5906600EB400026
:102FE00016F82010206904F0FEFEA14804F5807751
:102FF00000680169F86A8847C0067AD5282005F07C
:1030000057F973230A21CDF80090CDE901133C2331
:10301000BE2298A105F06EF88046282005F048F9F8
:10302000112100910523424696A105F005F982463B
:10303000282005F03DF9252100910523424692A163
:1030400005F0FAF88146382005F032F90190F86A67
:1030500001F0C0FFDFF864B121230BF1180B4246E9
:103060005BF820100F200090019804F0F7FF6061DA
:10307000382005F01DF90190F86A01F0ABFF5BF80C
:1030800020102320009021234246019804F0E6FFFF
:10309000A0614146A6F5906003F035FF5146A6F5C4
:1030A000906003F030FF4946A6F5906003F02BFFD7
:1030B000A6F59060616903F026FFA6F59060A1690E
:1030C00003F021FF207800EB400006EB8000417800
:1030D000606904F088FE207800EB400006EB800079
:1030E0008178A06904F07FFE616968484862A1693F
:1030F000486229482946A83003F005FF264804996C
:10310000A83003F000FF24480599A83003F0FBFE27
:103110002148E169A83003F0F6FE1F48216AA83073
:1031200003F0F1FE0021E06903F065FE0021206A52
:1031300003F061FE4E4800680169F86A8847022181
:10314000B1EB107F03D0C0F30360022813D130200D
:1031500005F0AEF8B221104A00910A23A8324CA122
:1031600003F020FB014678610B48A83003F0CBFE4A
:1031700079694C48486208480399A83003F0C3FEB7
:103180000548616AA83003F0BEFE0348A16AA83072
:1031900003F0B9FE004887E0D0E20120436F6E667D
:1031A000696775726174696F6E20616E6420646511
:1031B000627567004D6F746F720000007CB80F0875
:1031C00004E001204374726C206D6F6465000000A0
:1031D000506F77657220626F6172642073746174DE
:1031E0007573000044432042757320766F6C740041
:1031F0004865617473696E6B20542E00253364003A
:103200004661756C747300004F76657263757272F7
:10321000656E74005265767570206661696C000099
:103220005370656564206664626B000053572065C7
:1032300072726F7200000000556E64657220766FC6
:103240006C7400004F76657220766F6C740000001D
:103250004F7665722074656D700000004661756C74
:10326000742061636B000000BD510F08B95E0F0848
:10327000F4FF01204441432053657474696E677301
:10328000000000004368310043683200A9560F086F
:10329000456E636F64657220616C69676E6D656E03
:1032A0007400000019570F08A830E16A03F02BFEE4
:1032B0002048216B03F027FE1E48616B03F023FEBC
:1032C0001C48A16B03F01FFE1A48E16B03F01BFEC4
:1032D0002078626A00EB400006EB800116484B79CB
:1032E00030F8133053838B79A26A30F8133053834C
:1032F000CB79E26A30F8133053830B7A226B30F8C3
:10330000133053834B7A626B30F8133053838B7ACC
:10331000A26B30F813305383C97AE26B30F8110096
:10332000508321690548486207B00248BDE8F04F64
:1033300003F07DBE78E3012054B80F08F15D0F085B
:103340002DE9F04F8BB0282004F0B2FF00210B468E
:103350000091FB4AFBA104F06FFF0790282004F0C6
:10336000A7FFF74914230A228DE80E005A23912261
:10337000F9A104F0BFFE0646F948FA4C4FF0050BE0
:1033800000784FF01E0900284FF0410A4FF0280046
:103390007BD004F08DFF0F21009105233246F2A16E
:1033A00004F04AFF0746382004F082FF0096EC49FB
:1033B000CDE901B94D460623EFA26C3903F0FCFBC1
:1033C000EE49A0644162402004F072FF3C21009667
:1033D000CDE90115E2490623E7A28C3904F092F801
:1033E000E064282004F064FF75233246E4A10095D0
:1033F00004F022FF8046282004F05AFF3221009179
:1034000005233246DFA104F017FF0546382004F0FB
:103410004FFFD349CDE9006B0623D7A26839CDF819
:1034200008A003F0C9FBD949606541623946C44828
:1034300003F069FDC248A16C03F065FDC048E16C72
:1034400003F061FD4146BE4803F05DFD2946BC48DE
:1034500003F059FDBA48616D03F055FD0021E06CA1
:1034600003F0C9FC302004F023FF782100912823C9
:10347000B34AC7A103F096F96067302004F018FF43
:103480008C212823AE4A009100E0DCE0C3A103F0C8
:1034900089F9C549A06741624CF218614183002156
:1034A00003F0A9FCA648616F03F02DFDA448A16FAD
:1034B00003F029FD282004F0FBFEA1491423A022DB
:1034C0008DE80E005A239122B8A104F013FE0546A0
:1034D000A348017B8438039000294FF028007CD05A
:1034E00004F0E6FE0F21009105232A469EA104F078
:1034F000A3FE0890382004F0DBFE9949CDE9005B7B
:103500004F4606239CA22C39CDF8089003F054FBBB
:10351000A84920664162402004F0CAFE3C21CDE962
:103520000051062394A20297039903F0EBFF606613
:10353000282004F0BDFE75232A4691A1009704F0CF
:103540007BFE8046282004F0B3FE32210091052343
:103550002A468CA104F070FE0746382004F0A8FE2D
:103560007F49CDE9005B062383A22839CDF808A066
:1035700003F022FB9049E06641627148089903F02C
:10358000C2FC6F48216E03F0BEFC6D48616E03F013
:10359000BAFC41466A4803F0B6FC3946684803F075
:1035A000B2FC6748E16E03F0AEFC0021606E03F0F0
:1035B00022FC302004F07CFE78210091BE23604A7A
:1035C00073A103F0EFF8E067302004F071FE8C2166
:1035D0000091BE235A4A71A100E040E103F0E2F8F5
:1035E000604F76498037386041624CF21861418300
:1035F000002103F000FC302004F05AFEA0210091CD
:1036000044234F4A6EA103F0CDF878604C480799E7
:1036100003F079FC31464A4803F075FC29464848D6
:1036200003F071FC4648E16F03F06DFC44483968D3
:1036300003F069FC4248796803F065FC484801786A
:1036400000297CD0D0E104F033FE0F210091052346
:10365000324661A104F0F0FD0490402004F028FE01
:103660003F49CDE9006B062343A29039CDF808907D
:1036700003F048FF5C4D60645C4F286800210268DD
:10368000F86A9047C0B20390286800221146836808
:10369000F86A98472868D4F8448040210268F86A9C
:1036A0009047029028683F210268F86A9047029983
:1036B000C8E90E1028680021039A8368F86A9847C1
:1036C000402004F0F5FD3C21CDE9006124490623AA
:1036D00029A2CDF808908C3903F014FFE06428206B
:1036E00004F0E6FD7523324625A1CDF8009004F0E4
:1036F000A3FD0746282004F0DBFD322100910523BD
:1037000032463BA104F098FD0546382004F0D0FD78
:103710001349CDE9006B062317A27C39CDF808A028
:1037200003F04AFA47F6FF720021206503F014FA0D
:10373000302004F0BDFD3C23324632A166E03FE17B
:1037400020E401204475616C20636F6E74726F6CAD
:103750002070616E656C00004D6F746F72203100D7
:10376000F8E7012004E001204971207265662E2FE0
:1037700053706565640000002536640075620F08AB
:1037800072706D004964207265662E00ED600F084E
:1037900053746172742F53746F7000004661756CBE
:1037A000742061636B00000029560F084D6F746F21
:1037B0007220320011630F08B1610F0869560F08BB
:1037C00053746172742F53746F7020626F74682029
:1037D0006D6F746F72730000546172676574204D71
:1037E0006561737572656400F4FF012004E10120D6
:1037F00052616D70206475726174696F6E206D73B3
:10380000000000004578656300000000CDF800A0CE
:1038100002F0C8FFA0657C48049903F074FB7A4865
:10382000616C03F070FB7848E16C03F06CFB394687
:10383000754803F068FB2946734803F064FB72483F
:10384000216D03F060FB7048A16D03F05CFB00216B
:10385000E06C03F0D0FAA16D6C48486202E604F017
:1038600027FD0F2105232A460091AFF2940104F0B1
:10387000E3FC0890402004F01BFD1E21052200956A
:10388000CDE901210623AFF21012614903F03AFE9F
:10389000604FE065DFF88081386800210268D8F861
:1038A0002C00904700F0FF0B38680122002183684C
:1038B000D8F82C0098473868D4F85C90402102680A
:1038C000D8F82C009047049038683F210268D8F857
:1038D0002C0090470499C9E90E1038685A46002117
:1038E0008368D8F82C009847402004F0E1FC1E22A1
:1038F0003C210095CDE901120623AFF28412039911
:1039000003F000FE6066282004F0D2FC1E2175231F
:103910002A460091AFF2981104F08EFC80462820D0
:1039200004F0C6FC322105232A460091AFF2401173
:1039300004F082FC0746382004F0BAFC0522CDE9E9
:1039400000520623CDF808A0AFF2D41230494C3112
:1039500003F032F947F6FF720021A06603F0FCF88D
:10396000302004F0A5FC3C232A46AFF26811CDF8C4
:1039700000A002F017FF20672348089903F0C3FA5C
:103980002148E16D03F0BFFA1F48616E03F0BBFAF6
:1039900041461D4803F0B7FA39461B4803F0B3FA15
:1039A0001948A16E03F0AFFA1748216F03F0ABFA84
:1039B0000021606E03F01FFA216F18484862F8E595
:1039C000007B88B9302004F073FCB42100914023BF
:1039D0000D4A13A102F0E6FE0146B8600A4803F062
:1039E00092FAB96814484862796814484862616F6D
:1039F00013484862E16F134848620BB00248BDE8C3
:103A0000F04F03F014BB000020E40120E9630F082D
:103A100070E70120F4FF012004E1012035640F0864
:103A2000457865632073696D756C74616E656F753B
:103A3000732052616D70730031570F08A1520F0847
:103A40009D5A0F08A95B0F082DE9F04F8BB0282075
:103A500004F02EFC00210B460091FE4AFEA104F06A
:103A6000EBFB0390282004F023FC0A22F94BCDE95C
:103A700000324FF0140ACDF808A05A239122FBA17E
:103A800004F038FB0746282004F012FC1E210091A8
:103A90003C233A46F8A104F0CFFB0490282004F020
:103AA00007FC412100913C233A46F4A104F0C4FBF9
:103AB0000590282004F0FCFB0F21009105233A46D5
:103AC000EFA104F0B9FB0690402004F0F1FB1E21A9
:103AD00005220097CDE90121DFF8B8B3EC4A0623AF
:103AE0009BF8001002EBC101EBA203F00BFD0BF100
:103AF0008004DFF8A8830646E060D8F8000004F1EF
:103B0000800540210268E86A90478146D8F80000A5
:103B10003F210268E86A9047C6E90E90282004F029
:103B2000C7FB3221009105233A46DDA104F084FB56
:103B30000790382004F0BCFB412105220097CDE915
:103B400001215A46DFF84893127809F1100909EB70
:103B500082110623D0A2091D03F02EF847F6FF724A
:103B60000021206102F0F8FF302004F0A1FB412188
:103B700000915A233A46CEA102F014FECE4960616C
:103B8000416201F0BFF9282004F092FBB149732390
:103B90000A228DE80E004B236822C8A104F0AAFA7D
:103BA0000646282004F084FB0A233246C6A1CDF83D
:103BB00000A004F041FB0890282004F079FB2321A9
:103BC00000910A233246C1A104F036FB0990382047
:103BD00004F06EFB51464FF0280A0096CDE901A192
:103BE0005A460623127809EB8211ABA2891D02F016
:103BF000E3FFA061382004F05BFB23210096CDE9B0
:103C000001A15A460623127809EB8211A2A20831BB
:103C100002F0D2FFE0618F48039903F074F98D48F8
:103C2000049903F070F98B48059903F06CF9394653
:103C3000884803F068F98748069903F064F98548D5
:103C4000E16803F060F98348079903F05CF9814863
:103C5000216903F058F97F48616903F054F97D4800
:103C6000A96903F050F97B48E96903F04CF97948F8
:103C7000296A03F048F97748A96A03F044F900215A
:103C8000286A03F0B8F87348696A03F03CF93146D2
:103C9000704803F038F96F48089903F034F96D481B
:103CA000099903F030F96B48A16903F02CF96948D0
:103CB000E16903F028F9D8F800000169E86A88474B
:103CC00080072BD5282004F0F3FA32270A23324646
:103CD0007FA1009704F0B0FA0546382004F0E8FA16
:103CE000CDE9006A02979BF80020062309EB8211B8
:103CF00069A20A3102F060FF20622946554803F0AC
:103D000002F95448216A03F0FEF847F6FF720021D9
:103D1000206A02F021FFA1696E48486247F6FF75EC
:103D20002A460021A06902F017FF2A460021E06917
:103D300002F012FFD8F8000001696748C06A88479E
:103D4000C0077DD0282004F0B3FA424973237D22B6
:103D50008DE80E004B23B42260A104F0CBF9054698
:103D6000282004F0A5FA0E260A232A465FA1009611
:103D700004F062FA0390282004F09AFA50232A46AD
:103D80005AA1009604F058FA8246382004F090FABE
:103D90000A22CDE900524FF01908CDF808809BF8AF
:103DA00000104E4609EB81115F46042351A20C31ED
:103DB00002F002FF6062382004F07AFA5022CDE966
:103DC0000052CDF808803978042306EB811149A20E
:103DD0000E3102F0F1FEA062282004F069FA4FF0E3
:103DE0002C080A232A4638A1CDF8008004F024FAD2
:103DF0008146282004F05CFA50232A4633A1CDF8EE
:103E0000008004F019FA8046382004F051FA0A22A2
:103E1000CDE900524FF0370BCDF808B039780623C2
:103E200006EB81111CA2103102F0C6FEE0623820C0
:103E300004F03EFA5022CDE90052CDF808B000E07F
:103E40009CE03978062306EB811113A2123102F0AF
:103E5000B3FE51E0C8E40120537065656420636FD0
:103E60006E74726F6C6C6572000000005365742094
:103E7000706F696E7400000072706D006D730000E9
:103E8000546172676574207370656564000000009A
:103E900068E7012004E0012025366400F4FF0120DA
:103EA00052616D70206475726174696F6E000000FC
:103EB0004578656300000000895E0F085049442082
:103EC0004761696E730000004B5000004B490000D1
:103ED0004B44000001540F0804E10120466C757842
:103EE00020776C2E2074756E696E67004255538082
:103EF000000000002534640020632946254803F0B3
:103F000002F82448039902F0FEFF5146214802F0CE
:103F1000FAFF2048616A02F0F6FF1E48A16A02F02B
:103F2000F2FF0021A06A02F066FF4946194802F03C
:103F3000EAFF4146174802F0E6FF1648E16A02F040
:103F4000E2FF1448216B02F0DEFF4FF47A72002189
:103F5000606A02F001FE47F6FF752A460021E06A1A
:103F600002F0FAFD2A460021206B02F0F5FD616A9D
:103F700009484862E16A4862216B4862A1690648C3
:103F80004862E16948620BB00248BDE8F04F03F0B7
:103F90004EB80000C8E4012001540F082DE9F04F8D
:103FA0008BB0282004F084F900210B460091FE4AD2
:103FB000FEA104F041F90390282004F079F987214B
:103FC0000091E623F84AFEA104F036F90490282077
:103FD00004F06EF90A23DFF8D083CDE900834FF0B7
:103FE000140ACDF808A05A239122F7A104F082F810
:103FF0000746282004F05CF90F21009105233A467A
:10400000F4A104F019F9F54C6063382004F050F97C
:104010001E2105220097CDE90121A4F1800508F5B4
:1040200002762978062306EB8111EDA2143102F005
:10403000C3FDA063282004F03BF90F210091502319
:104040003A46E8A104F0F8F80590382004F030F979
:104050001E2150220097CDE901212978062306EB85
:104060008111DFA2163102F0A7FDE063282004F0E1
:104070001FF93221009105233A46DBA104F0DCF858
:104080002064382004F014F9412105220097CDE97D
:1040900001212978062306EB8111D1A2183102F003
:1040A0008BFD6064282004F003F932210091502335
:1040B0003A46CFA104F0C0F80690382004F0F8F892
:1040C000412150220097CDE901212978062306EBF2
:1040D0008111C3A21A3102F06FFDA064282004F000
:1040E000E7F8844673200A22CDF80080CDE901204C
:1040F0004B236822BFA1604603F0FCFF81462820C5
:1041000004F0D6F80A234A46BEA1CDF800A004F078
:1041100093F80790382004F0CBF84FF0280BCDE946
:10412000009B8446CDF808A02878062306EB801172
:10413000ABA260461C3102F03FFDE064282004F091
:10414000B7F8232100910A234A46AFA104F074F87E
:104150000890382004F0ACF82321CDF80090CDE988
:1041600001B184462878062306EB80119CA26046A4
:104170001E3102F021FD2065282004F099F88446C4
:1041800073207822CDF80080CDE901204B236822EE
:104190009EA1604603F0AEFF8046282004F088F818
:1041A0000A23424697A1CDF800A004F045F80990F3
:1041B000382004F07DF8CDE9008B8446CDF808A0C6
:1041C0002878062306EB801185A26046223102F092
:1041D000F3FCE065282004F06BF8232100910A230A
:1041E000424689A104F028F80A90382004F060F8CB
:1041F0002321CDF80080CDE901B18446287806233B
:1042000006EB801176A26046243102F0D5FC2066D0
:10421000302004F04DF873210091E623624A7FA11B
:1042200003F096F8E066382004F042F896210091F9
:10423000E6235D4A7B4903F011FF206700F062FE30
:104240005948039902F05FFE5748049902F05BFE5B
:104250003946554802F057FE5348616B02F053FE51
:104260005148A16B02F04FFE4F48059902F04BFEFA
:104270004D48E16B02F047FE0021E06B02F0BBFD10
:104280004948216C02F03FFE4748616C02F03BFE5A
:104290004548069902F037FE4348A16C02F033FE10
:1042A0000021A06C02F0A7FD04F1800081693E4866
:1042B00002F029FE04F18000C1693B4802F023FEB0
:1042C00004F18000016A384802F01DFE04F180000C
:1042D000816A354802F017FE04F180000021006A6F
:1042E00002F089FD04F18000416A2F4802F00BFEC4
:1042F000287800EB400106F1800000EB8100494680
:104300000779294802F0FFFD2748079902F0FBFDD5
:104310002548E16C02F0F7FD2348089902F0F3FD0F
:104320002148216D02F0EFFDE16C3F484862216DAC
:104330003E4848623E480068016904F18000C06A56
:10434000884740072DD5282003F0B2FF4FF0320AEE
:104350000A234A4637A1CDF800A003F06DFF60653F
:10436000382003F0A5FFCDE9009BCDF808A02978FF
:10437000062306EB81111AA2203102F01DFCA06574
:104380000948616D02F0BFFD0748A16D02F0BBFD59
:1043900047F6FF720021A06D02F0DEFBA16D2648FA
:1043A000486247F6FF7A49E070E501204375727272
:1043B000656E7420636F6E74726F6C6C65727300DF
:1043C000496E70757400000053657420706F696EDB
:1043D000747300004971207265662E0084E001202C
:1043E00025366400497100004964207265662E001C
:1043F00049640000497120504944204761696E7347
:10440000000000004B5000004B4900004964205060
:104410004944204761696E73000000004C696E6B6F
:1044200000000000D4B80F087D550F0839550F085B
:10443000F4FF01204B440000F1540F0852460021C4
:10444000E06C02F089FB52460021206D02F084FBF3
:1044500041465D4802F057FD5B48099902F053FD63
:104460005948E16D02F04FFD57480A9902F04BFDA3
:104470005548216E02F047FD5448006801695448D0
:10448000C06A8847DFF84C91000733D5282003F035
:104490000FFF32210A2342460091AFF2680103F078
:1044A000CBFE6066382003F003FF3221CDF8008098
:1044B000CDE901B12978062306EB8111AFF2E002C4
:1044C000263102F079FBA0663F48616E02F01BFDC9
:1044D0003D48A16E02F017FD52460021A06E02F089
:1044E0003BFB002F55D00021A06E02F084FCA16E92
:1044F000C1F82490564652460021E06D02F02CFB94
:1045000032460021206E02F027FB2F48E16E02F0B8
:10451000FAFC2D48216F02F0F6FCA84628782E4DB3
:1045200000EB400005EB8000C178206F03F05BFCDE
:1045300001F044FDE66E726A2AB196F8210010B1CE
:1045400039463046904786F82C7027B30021E06D3D
:1045500002F051FC0FB30021206E02F04CFC216FE1
:104560001E484862E16E1E484862A06B1D494162C8
:10457000626C1D495162E26DC2F82490226EC2F84D
:10458000249098F8001001EB410115F8211031B189
:1045900014E00121A8E70121D9E70121DCE700218E
:1045A00002F029FC0948006801690948C06A884787
:1045B000800603D40021606C02F01DFC0BB00248A1
:1045C000BDE8F04F02F033BD70E50120F4FF01209B
:1045D00004E1012001540F08F8E70120A9640F0845
:1045E00041540F0831590F089D570F082DE9F04F1E
:1045F000FF48DFF8008487B0006800250169D8F81B
:104600002C008847064609200024B0EB167F09D10C
:10461000282003F04DFE0023F74AF8A1009403F090
:104620000BFE0546C6F30360092809D1282003F0D4
:104630003FFE0023F04AF8A1009403F0FDFD05467B
:1046400070064FF028000AD503F032FEEA49142321
:104650000A228DE80E005A239122F8A109E003F006
:1046600027FEE54914230A228DE80E005A239122E1
:10467000F5A103F03FFD0446282003F019FE0F21A9
:10468000009105232246F1A103F0D6FD03903820C6
:1046900003F00EFE1E2105220094DFF8B8B3CDE929
:1046A0000121DFF8AC939BF80020062309EB82116F
:1046B000E9A2283102F080FA0BF1800A5746CAF8C5
:1046C0007400282003F0F4FD0F21009150232246AE
:1046D000E2A103F0B1FD0490382003F0E9FD1E22B1
:1046E00050210094CDE901129BF80020062309EB2C
:1046F0008211D9A22A3102F05FFAB86700F002FCF9
:104700002946BD4802F0FFFB2146BB4802F0FBFBF7
:10471000B948039902F0F7FBB748796F02F0F3FB51
:10472000B548049902F0EFFBB348B96F02F0EBFB18
:1047300070065BD5282003F0BBFD322100910523D4
:104740002246C7A103F078FD0390382003F0B0FDA6
:104750000521CDE90041412702979BF8002006235F
:1047600009EB8211BCA2303102F026FA554647F619
:10477000FF720021CAF87C0002F0EEF9282003F055
:1047800097FD3221009150232246B7A103F054FD3A
:104790000490382003F08CFD5021CDE900410297B0
:1047A0009BF80020062309EB8211ABA2323102F004
:1047B00003FA444647F6FF720021C8F8000002F0F1
:1047C000CBF98D48039902F09EFB8B48E96F02F00C
:1047D0009AFB8948049902F096FB8748216802F009
:1047E00092FBE96FA24848622168486244468248C9
:1047F000D8F8181002F087FB7F48E16902F083FBCC
:104800007D48216A02F07FFB7B48A16A02F07BFBB6
:104810000021206A02F0EFFA7748616A02F073FB28
:104820000920B0EB167F7DD1282003F041FD7249AD
:1048300073230A228DE80E004B2340F227128DA12C
:1048400003F058FC0546282003F032FD4FF0140811
:104850000A232A468BA1CDF8008003F0EDFC0390DB
:10486000382003F025FD5022CDE90052CDF8088014
:104870009BF800104E4609EB81115F46062376A295
:10488000343102F099F947F6FF720021606002F0BE
:1048900063F9282003F00CFD4FF023090A232A4670
:1048A0007BA1CDF8009003F0C7FC8346382003F0CD
:1048B000FFFC5022CDE90052CDF80890397806234C
:1048C00006EB811164A2363102F076F9A06028204F
:1048D00003F0EEFC322100910A232A466EA103F078
:1048E000ABFC0490382003F0E3FC32215022009509
:1048F000CDE901213978062306EB811156A2383122
:1049000002F05AF9E060282003F0D2FCB4232A46D2
:1049100063A1CDF8008003F08FFC0590382003F0F0
:10492000C7FC00E0D9E0E622CDE90052CDF80880CE
:104930003978032306EB81115BA23A3102F03CF98E
:1049400020612B48222100680268E06A9047421EDD
:104950000021206902F000F9282003F0A9FC8C2333
:104960002A4652A1CDF8008003F066FC0190282071
:1049700003F09EFC8C232A464DA1CDF8009003F055
:104980005BFC3978804606EB811090F83A20E06AAB
:1049900000F016FE2169474848626168464848624F
:1049A000A16846484862E168454848621248019952
:1049B00002F0A9FA4146104802F0A5FA29460E482D
:1049C00002F0A1FA0C48039902F09DFA0A486168C6
:1049D00002F099FA5946084802F095FA0648A1688B
:1049E00002F091FA0448049902F08DFA024869E055
:1049F000F4FF012004E1012018E6012053656E73E5
:104A00006F726C6573732074756E696E6720535492
:104A10004F202620504C4C0053656E736F726C65AE
:104A200073732074756E696E672053544F2026206F
:104A3000504C4C20284175782900000053544F20D9
:104A40002620504C4C00000053544F0047310000CA
:104A500078E7012004E00120253664004732000099
:104A6000504C4C204B500000504C4C204B49000007
:104A700001540F085265762075702074756E696E4A
:104A8000670000004475726174696F6E0000000079
:104A9000456E642073706400456E642049710000A7
:104AA0005374616765000000253364006D73000076
:104AB00072706D00AD630F0881640F08D9640F0830
:104AC00001650F08E16802F01EFA0A48059902F034
:104AD0001AFA0848216902F016FADAF87420064832
:104AE0005062DAF87810486207B00248BDE8F04F2B
:104AF00002F09DBA18E6012001540F082DE9F04F8D
:104B0000D14887B0002400680169D048C06A88474E
:104B100006460A250027B5EB167F09D1282003F0A9
:104B2000C7FB0023CA4ACBA1009703F085FB0446CC
:104B3000C6F303600A2809D1282003F0B9FB00233B
:104B4000C34ACCA1009703F077FB0446282003F06A
:104B5000AFFBBF4BCDE9003514210291AA465A2381
:104B60009122CEA103F0C6FA0546282003F0A0FB4F
:104B70004FF00F0805232A46C9A1CDF8008003F0A5
:104B80005BFB8146382003F093FB1E210522009534
:104B9000CDE90121C349DFF8B8B2062309780BF14A
:104BA000B80B0BEB8111C0A22C3102F005F8A74F16
:104BB000803F7867282003F07BFB50232A46BBA167
:104BC000CDF8008003F038FB8046382003F070FBFE
:104BD0001E2150220095CDE90121B2490623B2A23F
:104BE00009780BEB81112E3101F0E6FFB86700F078
:104BF00089F92146964802F086F92946944802F040
:104C000082F94946924802F07EF99148796F02F0A4
:104C10007AF941468E4802F076F98D48B96F02F074
:104C200072F98A4C8A48A16902F06DF98848E169F5
:104C300002F069F98648216A02F065F98448A16AA0
:104C400002F061F90021206A02F0D5F88048616A1B
:104C500002F059F9BAEB167F7ED1282003F028FB29
:104C60007B4900917323CDE901A34B2340F2271226
:104C70008FA103F03FFA0546282003F019FB4FF0FF
:104C800014080A232A468EA1CDF8008003F0D4FA36
:104C90000390382003F00CFB4FF05009CDE9005988
:104CA000803FCDF8088039785E460BEB81110623F2
:104CB0007DA2343101F080FF47F6FF720021606071
:104CC00001F04AFF282003F0F3FA4FF0230A0A23E9
:104CD0002A467EA1CDF800A003F0AEFA0490382059
:104CE00003F0E6FA8DE820063978062306EB8111F9
:104CF0006DA2363101F060FFA060282003F0D8FAE1
:104D00004FF0320B0A232A4672A1CDF800B003F00F
:104D100093FA0590382003F0CBFA8DE8200A397811
:104D2000062306EB811160A2383101F045FFE060F7
:104D3000282003F0BDFAB4232A4668A1CDF80080EC
:104D400003F07AFA8346382003F0B2FAE622CDE97E
:104D50000052CDF8088000E069E03978032306EBC3
:104D6000811160A23A3101F027FF206136482221EB
:104D700000680268E06A9047421E0021206901F045
:104D8000EBFE282003F094FA8C232A4656A1CDF896
:104D9000008003F051FA8146282003F089FA8C2321
:104DA0002A4652A1CDF800A003F046FA3978804691
:104DB00006EB811090F83A20E06A00F001FC2169CE
:104DC0004B48486260684B494162A0684A49416269
:104DD000E0684A49416249461D4802F094F841465C
:104DE0001B4802F090F82946194802F08CF8184840
:104DF000039902F088F81648616802F084F81448B4
:104E0000049902F080F81248A16802F07CF810487A
:104E1000059902F078F80E48E16802F074F85946F6
:104E20000B4802F070F80A48216902F06CF8074854
:104E300033498038426F5162806F416207B0044845
:104E4000BDE8F04F02F0F3B8F4FF012004E10120C7
:104E5000C0E6012053656E736F726C6573732074C6
:104E6000756E696E672053544F202620434F52447D
:104E70004943000053656E736F726C6573732074E1
:104E8000756E696E672053544F202620434F52445D
:104E900049432028417578290000000053544F00F1
:104EA0004731000004E0012025366400473200004D
:104EB0005265762075702074756E696E670000000B
:104EC0004475726174696F6E00000000456E642065
:104ED00073706400456E642049710000537461670B
:104EE00065000000253364006D73000072706D0072
:104EF000AD630F0881640F08D9640F0801650F08BE
:104F000001540F083EB5282003F0D2F9A02322490E
:104F1000CDE90013142202925A2391221FA103F01B
:104F2000E9F8204CA061282003F0C2F90F2100917C
:104F300005231DA1A26903F07FF9E061402003F081
:104F4000B7F9A2690521CDE900211E25A4F58072DB
:104F5000029519491278062301EBC20117A2091D17
:104F600002F0D0FA2062302003F0A2F94121009132
:104F7000052313A1A26901F015FC6062282003F04B
:104F800097F900953C2311A1A26903F055F9A0629D
:104F9000616A0F4848623EBDE4E101204D6F6E69D1
:104FA000746F720004E101204D6561737572656470
:104FB000207370656564000068E701202536640091
:104FC00053746172742F53746F70000072706D00AF
:104FD000F9520F0870B531490024096809698847FA
:104FE000010E0E074FF009014FF00A024FF00203C5
:104FF0004FF001050ED0B1EB107F03D1C0F3036673
:105000000A2E17D0B2EB107F15D1C0F30366092E1C
:1050100010D010E0B1EB107F00D10124B2EB107F73
:1050200000D10224B5EB107F02D0B3EB107F33D157
:10503000032431E00624B1EB107F05D1C0F30361F6
:1050400002290BD0012909D0C0F30361092906D137
:10505000B3EB107F02D0B5EB107F00D10424B2EB8C
:10506000107F05D1C0F3036102290BD0012909D0BB
:10507000C0F303610A2906D1B3EB107F02D0B5EB70
:10508000107F00D105240B21B1EB107F04D1C0F3B8
:105090000360092800D10724204670BDF4FF0120D9
:1050A00010B5324801F091FF3048A83001F08DFF73
:1050B0002F4801F08AFF2E48A83001F086FF2D48C6
:1050C00001F083FF2B48A83001F07FFF2A4801F050
:1050D0007CFF2A490020C860086148618861C86176
:1050E000086248628862C862086348638863C8636C
:1050F000086448648864C864086548658865C8654C
:10510000086648668866C866086748678867C8672B
:105110008031086048608860C860086148618861C3
:10512000C861086248628862C8620863486388632D
:10513000C863086448648864C8640865486588650D
:10514000C865086648668866C866086748678867ED
:10515000C8678031086048608860C860086148613D
:105160008861C86108624862886210BDD0E201208F
:1051700020E4012070E50120C0E6012004E00120C8
:1051800010B5074807A102780B48521CFBF7C0F87E
:105190000949BDE8104001F1200002F01CBA0000EE
:1051A00004E001204D6F746F722073656C65637449
:1051B00065643A2025316400A0E1012003480721FD
:1051C0000068C2680248C06A10470000F4FF01206E
:1051D00004E1012010B50C46FFF762FF072C23D233
:1051E000DFE804F004070A171A1D2000FDF7ECFCA5
:1051F00004E0FDF7CFFD01E0FEF7A2F80C4B986844
:1052000001F092F99968BDE810400144094802F0A4
:10521000E2B9FEF719FC07E0FEF7C0FE04E0FFF775
:10522000E5F901E0FFF76AFCBDE81040FFF7A8BF11
:1052300004E00120C0E101202DE9F0478146174834
:105240000E46144FDFF85080002400EB8615395DC0
:10525000662908D0D8F80000026848469047411CEB
:1052600001D025F81400641CE4B2202CEFD3D8F848
:10527000000004210268484690470849103941F867
:10528000360095F83A2031464846BDE8F04700F030
:1052900097B90000E0B80F08F4FF012078E701207B
:1052A00070B5134C134D002120680268E86A9047DE
:1052B000C6B22068002211468368E86A98472068D1
:1052C0000621C268E86A90472068012200218368AD
:1052D000E86A984720680621C268E86A9047206813
:1052E000324600218368E86ABDE870401847000034
:1052F000F4FF012004E101202DE9F05F3A4A3B4F21
:105300003B4E1178A7F1800C01EB4105336817F88B
:10531000258002F580740CEB8110B8F1000F06D0E7
:1053200007EB8501C97859B1012955D10EE0828872
:105330002E485B68903850F83110E06A98474BE08F
:10534000B0F91820B0F914101B6A43E0E346924606
:10535000B0F93E0004F00BF8264A274B04F032F86F
:105360000022264B03F07CFE03F0ECFC0F469AF87B
:10537000001005460BEB8119B9F93C0003F0F7FF6B
:105380002A463B4604F01EF803F0C2FF0FFA80F8ED
:10539000B9F93E0003F0EBFF164A174B04F012F880
:1053A0000022164B03F05CFE03F02EFD0F469AF828
:1053B000001005460BEB8110B0F93C0003F0D7FF5D
:1053C0002A463B4603F0FEFF03F0A2FF01B230681D
:1053D0004246036AE06A984730680621C268E06A7C
:1053E000BDE8F05F1047000004E00120F8E701206D
:1053F000F4FF01201F85EB51B81E09400080664074
:105400000B4B0A4609491B78008D01EB8311401AAA
:10541000C0F347010748415C662905D0064800688B
:1054200083680648C06A18477047000078E7012083
:1054300004E00120E0B80F08F4FF012004E101209E
:105440002DE9F041284E11F0FF052849307800EB96
:10545000400001EB8000057140D00021224C8034D7
:10546000E06D01F0C8FCC5B30021206E01F0C3FC63
:10547000FDB11E4F3078803F07EB8010B0F91C1053
:105480004184C28B8284028CC284E06D01F048FAB0
:10549000307807EB8010B0F92410206E01F040FA4C
:1054A000A06E30B1317807EB8111B1F9261001F00F
:1054B00037FAE06D012680F82060206E80F82060C9
:1054C000A06E002807D06DB15FF0000101F093FCE1
:1054D000A06E80F82060BDE8F08101E00121BDE709
:1054E0000121C2E70121F1E704E00120F8E70120F2
:1054F00070B50D46FFF784FF0D480E4A017801EBA9
:10550000410002EB8000007900280FD0084C803465
:10551000A06E00280AD0803A02EB8111CD84294682
:1055200001F024FAA06E012180F8201070BD000067
:1055300004E00120F8E7012010B50C46FFF760FFFA
:105540000C480D4A007800EB400102EB810109791B
:1055500000290ED0A2F1800101EB80102146848445
:10556000044C8034206E01F001FA206E012180F895
:10557000201010BD04E00120F8E7012010B50C4612
:10558000FFF73EFF0C480D4A007800EB400102EBAC
:105590008101097900290ED0A2F1800101EB801070
:1055A00021464484044C8034E06D01F0DFF9E06D65
:1055B000012180F8201010BD04E00120F8E701204F
:1055C000F8B51546094A02EB8114094904F138027D
:1055D00000920968931E121F8E692946B047E08E1B
:1055E00000EB40004000E086F8BD000078E70120B5
:1055F000F4FF012038B51546094A062302EB811253
:10560000B2F9361091FBF3F10BB2B2F938100091F8
:105610000449928E09684C692946A04738BD0000AC
:1056200078E70120F4FF012070B50D4C0D4D0021ED
:1056300020680268E86A9047C6B2206800221146D6
:105640008368E86A984720680721C268E86A90473B
:105650002068324600218368E86ABDE87040184738
:10566000F4FF012004E1012070B50D4C0D4D002127
:1056700020680268E86A9047C6B2206801220021CB
:105680008368E86A984720680721C268E86A9047FB
:105690002068324600218368E86ABDE870401847F8
:1056A000F4FF012004E101202DE9F041164A0546EE
:1056B00010461649007802F5807400EB400001EBBB
:1056C00080015369124E134FE06A9D420BD193F84B
:1056D00030504D70FFF77EFC56F820000021425DEF
:1056E0003868C3690BE0926992F830508D70FFF70B
:1056F00071FC56F820000121425D3868C369206BB7
:10570000BDE8F0411847000004E00120F8E701205F
:10571000B4B80F08F4FF0120034808210068C268EC
:105720000248C06A10470000F4FF012004E1012094
:105730002DE9F041164C174D002120680268E86AF7
:105740009047C6B22068002211468368E86A9847ED
:10575000114F2068A7F11008BA884368D8F80010E4
:10576000E86A98472068012200218368E86A984720
:105770002068B7F84420D8F808104368E86A9847CA
:105780002068324600218368E86ABDE8F041184786
:10579000F4FF012004E1012078E701202DE9F05F0A
:1057A0005D4C5E4ADFF878B12078A2F1800500EB0D
:1057B000400102EB810304F58076DB7805EB801075
:1057C000002B7DD0012B7CD1B0F93E0003F0CFFD42
:1057D000544A554B03F0F6FD0022544B03F040FCB5
:1057E00003F0B0FA07462078884605EB8019B9F92E
:1057F0003C0003F0BCFD3A46434603F0E3FD03F0F2
:1058000087FD0FFA80FAB9F93E0003F0B0FD454A72
:10581000454B03F0D7FD0022444B03F021FC03F07D
:10582000F3FA07462078884605EB8010B0F93C0073
:1058300003F09DFD3A46434603F0C4FD03F068FDC6
:1058400001B2DBF800005246036AF06A98472078FC
:1058500005EB8010B0F93E0003F089FD314A324B70
:1058600003F0B0FD0022314B03F0FAFB03F0CCFA59
:1058700006462078884605EB8017B7F93C0003F010
:1058800076FD3246434603F09DFD03F041FDB882AC
:10589000B7F93E0003F06BFD224A234B03F092FD63
:1058A0000022224B03F0DCFB03F04CFA0646207882
:1058B0000F4605EB8014B4F93C0003F058FD01E0FD
:1058C00009E006E032463B4603F07CFD03F020FD94
:1058D0002083BDE8F09F12F82110114A136841B1EE
:1058E000B0F91820B0F914101B6AF06ABDE8F05F37
:1058F000184719695F46F06A88478006E9D520781D
:10590000412105EB8010B0F9182038688368F06AEF
:10591000BDE8F05F1847000004E00120F8E701202F
:10592000F4FF01201F85EB51B81E0940008066403E
:105930002DE9F05F534D544ADFF850A12878A2F1C9
:10594000800400EB400102EB810105F5807BC97802
:1059500004EB801000297CD001297BD1B0F93E00F6
:1059600003F005FD4A4A4B4B03F02CFD00224A4B45
:1059700003F076FB03F0E6F9064628780F4604EBC1
:105980008018B8F93C0003F0F2FC32463B4603F0C5
:1059900019FD03F0BDFC0FFA80F9B8F93E0003F0E1
:1059A000E6FC3B4A3B4B03F00DFD00223A4B03F073
:1059B00057FB03F029FA064628780F4604EB8010BF
:1059C000B0F93C0003F0D3FC32463B4603F0FAFC4E
:1059D00003F09EFC01B2DAF800004A46036ADBF8E5
:1059E0002C009847287804EB8010B0F93E0003F0B3
:1059F000BEFC274A274B03F0E5FC0022264B03F0B0
:105A00002FFB03F001FA06462878884604EB80173E
:105A1000B7F93C0003F0ABFC3246434603F0D2FC3E
:105A200003F076FCB882B7F93E0003F0A0FC184AF8
:105A3000184B03F0C7FC0022174B03F011FB03F0D7
:105A400081F9064628780F4604EB8014B4F93C002F
:105A500001E00BE008E003F08AFC32463B4603F02D
:105A6000B1FC03F055FC2083BDE8F09FB0F918208D
:105A7000B0F91410DAF80000036ADBF82C00BDE876
:105A8000F05F184704E00120F8E70120F4FF01204F
:105A90001F85EB51B81E0940008066402DE9F84F84
:105AA0003B4C3C4D002120680268E86A9047C0B238
:105AB00000902068002211468368E86A98473648BB
:105AC000A0F18006017821B1C07858B1012850D1E9
:105AD0000FE03148B2889038016820684368E86A6E
