:020000040800F2
:107E0000601B0020DD7F00085D521A001180000811
:107E10000000000000000000000000000000000062
:107E2000000000000000000000000000E97F0008E2
:107E30000000000000000000EB7F0008ED7F00085C
:107E4000EF7F0008EF7F0008EF7F0008EF7F00085A
:107E5000EF7F0008EF7F0008EF7F0008EF7F00084A
:107E6000EF7F0008EF7F0008EF7F0008EF7F00083A
:107E7000EF7F0008EF7F0008EF7F0008EF7F00082A
:107E8000EF7F0008EF7F000800000000EF7F000890
:107E9000EF7F0008EF7F0008EF7F0008EF7F00080A
:107EA000EF7F0008EF7F0008EF7F0008EF7F0008FA
:107EB000EF7F000800000000EF7F000800000000D6
:107EC00000F002F800F07BF80CA030C80838241845
:107ED0002D18A246671EAB4654465D46AC4201D102
:107EE00000F06DF87E460F3E0FCCB64601263342B9
:107EF00000D0FB1AA246AB4633431847A8740000D3
:107F0000C8740000103A02D378C878C1FAD8520772
:107F100001D330C830C101D504680C60704700003F
:107F20000023002400250026103A01D378C1FBD895
:107F3000520700D330C100D50B60704710B56929D6
:107F400002D100F007F910BD642902D100F002F956
:107F500010BD752902D100F0FDF810BD6F2902D1C6
:107F600000F08CF910BD782902D100F0AFF910BDF6
:107F70000368DB0901D380231943632902D100F090
:107F800079FC10BDE32902D100F08BFC10BD00206C
:107F900010BD1FB50098019900F0F7FC00F0A6FD98
:107FA00004000020002104F0B7FF401C606000F0D6
:107FB0006FFB1FBD10B5002004F01FFF10BD00F0C7
:107FC00075FD1146FFF7E5FF04F0A0FF00F0B0FDDE
:107FD00003B4FFF7EFFF03BC00F062FD07488047E2
:107FE00007480047FEE7FEE7FEE7FEE7FEE7FEE79D
:107FF00004480549054A044B7047000025A30008C2
:10800000C17E000898140020601B00205C1B00202B
:1080100000B5FFB441464A4653465C4665463EB409
:108020000D496A460A600D4908600D4988473EBC03
:10803000884691469A46A346AC46FFBC00BD06481A
:1080400001688D463EBC884691469A46A346AC469A
:10805000FFBC044800BD0000F01F0020F41F0020FA
:10806000C97E0008E0ED00080FB41CB5074B06AA56
:108070007B4469460090059800F0D9FB00206946D2
:1080800000F0E8FB1CBC08BC04B01847E107000086
:1080900070B5044685690068C10601D5302600E048
:1080A0002026C00707D070BD62683046A16890479F
:1080B000206A401C20626D1EF6D570BD70B5044666
:1080C00085690078C00707D170BD6268A16820206B
:1080D0009047206A401C20626D1EF6D570BD09686D
:1080E0004A0501D540B27047C905FCD500B27047BA
:1080F00009684A0501D5C0B27047C905FCD580B2F0
:10810000704770B50C460546012A05D028788006D0
:1081100000D5EA69002302E0012305E05B1C9342DD
:1081200002D2E05C0028F9D1A869E618C01AA8615B
:10813000286AC01828622846FFF7AAFF04E06A6888
:108140002078A968641C9047B442F8D32846FFF70A
:10815000B5FF70BDF7B5002575291068009914A604
:1081600011D0FFF7BCFF002802DA404211A608E058
:10817000009909688A0701D50FA602E0490704D5CE
:108180000EA6012501E0FFF7B3FF009F002424376E
:1081900004E000F0B8FB30313955641C0028F8D1F8
:1081A0002B4632462146009800F0E3FAFEBD00005F
:1081B000000000002D0000002B0000002000000047
:1081C000F7B50446154686B02B487844002703C807
:1081D0003E460090019111E007986A467100415AAD
:1081E00002A800F06AFB411C07D02178890603D55C
:1081F000E269391891420ED83F18761C2078800623
:1082000002D5E069B84206DDAE42E5DB07987100B1
:10821000405A0028E0D1A069C01BA0612046FFF7AA
:1082200037FF154878445A3803C800900020019160
:1082300016E041006A460798415A02A800F03DFB4B
:108240000590401C0AD0002505E0626802A8A168DC
:10825000405D90476D1C05988542F6D30498401CFC
:10826000B0420490E5DB206AC01920622046FFF787
:1082700025FF09B0F0BD0000226C000070B5044677
:1082800021461068FFF734FF00212546243505E01C
:108290004207C008520F30326A54491C0028F7D1F7
:1082A0002068002307A2050708D520252840084399
:1082B00004D0E069012304A2401EE061204600F0E2
:1082C00058FA70BD000000003000000070B5044690
:1082D0000D4621461068FFF70BFF2188090502D5DE
:1082E0000F4A7A4402E00E4A7A440E3223460021B5
:1082F000243305E006070009360F965D5E54491CDD
:108300000028F7D120780023000705D5702D03D071
:10831000002901D002231132204600F02AFA70BD54
:10832000126B0000F3B50446002081B020622046A5
:10833000E1688847002872D0252802D06268A168C9
:10834000ABE0594F00267F442046E168884720284B
:10835000054608DB312D06D2781920380078002830
:1083600001D00643F0E7B00701D504208643002082
:10837000E0610746A0612A2D0AD0284604F0B0FD2E
:10838000002827D0B8000019303D0090856119E021
:108390000298BA00121902C8916102902046E16861
:1083A0008847012F054617D1E06900281FDA2020F1
:1083B00086431CE000980A218069484300994019CF
:1083C000303888612046E1688847054604F088FD1A
:1083D0000028EFD1012F0AD02E2D08D12046E168C8
:1083E00088470546202006437F1C022FC3DBA06977
:1083F000002803DA4042A06101200643F00701D0C3
:10840000102086436C2D0BD0682D09D04C2D3CD00C
:108410006A2D38D0742D38D07A2D36D016E040E051
:10842000E1682F4620468847B842054609D16C2F9F
:1084300029D001208002E16806432046884705468E
:1084400004E06C2F1DD0FF2001300643002D28D002
:1084500028464138192803D80120C0020643203598
:10846000204626602946029A1646FFF767FD002837
:1084700010D001280BD0F61DF008C0000830029083
:1084800055E74020E1E78020D5E70020D3E7361DFF
:1084900002964CE762682846A1689047206A401C13
:1084A00044E7206AFEBD0000D66A000030B5441CD7
:1084B00003E00178401C00290DD08107F9D10B4B56
:1084C000DD0104C8D11A91432940FAD0001B0A06E5
:1084D00003D0C01E30BD001B30BD0A0401D0801E79
:1084E00030BD0902FCD0401E30BD00000101010179
:1084F00001E004C0091F0429FBD28B0701D50280CB
:10850000801CC90700D00270704700290BD0C30738
:1085100002D00270401C491E022904D3830702D5F1
:108520000280801C891EE3E70022EEE70022DFE7DD
:10853000002203098B422CD3030A8B4211D3002360
:108540009C464EE003460B433CD4002243088B423A
:1085500031D303098B421CD3030A8B4201D39446C7
:108560003FE0C3098B4201D3CB01C01A52418309BA
:108570008B4201D38B01C01A524143098B4201D374
:108580004B01C01A524103098B4201D30B01C01A9F
:108590005241C3088B4201D3CB00C01A5241830819
:1085A0008B4201D38B00C01A524143088B4201D346
:1085B0004B00C01A5241411A00D2014652411046A6
:1085C00070475DE0CA0F00D04942031000D340421B
:1085D000534000229C4603098B422DD3030A8B4251
:1085E00012D3FC22890112BA030A8B420CD38901EF
:1085F00092118B4208D3890192118B4204D38901D5
:108600003AD0921100E08909C3098B4201D3CB0112
:10861000C01A524183098B4201D38B01C01A5241C7
:1086200043098B4201D34B01C01A524103098B42CB
:1086300001D30B01C01A5241C3088B4201D3CB00B6
:10864000C01A524183088B4201D38B00C01A524199
:10865000D9D243088B4201D34B00C01A5241411A70
:1086600000D20146634652415B10104601D340429E
:10867000002B00D54942704763465B1000D340424F
:1086800001B50020C046C04602BD70477047704724
:1086900070B5064C7C44064D7D4403E0206800190B
:1086A0008047241DAC42F9D170BD00003C6E000033
:1086B0003C6E0000004870476C1400200048704772
:1086C0007014002070B5064600F042F90568304687
:1086D0000B30C408E400B44201D8002070BD6868C3
:1086E0002A46002818D00168A14211D30B46214622
:1086F00008318B4208D3436801194B6003681B1B88
:108700000B605160046001E041685160001D70BD64
:10871000024640680028E6D12146284600F020F9AC
:108720000028DCD170BD70B50446051F00F010F9BB
:108730000068002C1AD0446801E020466468002CD0
:1087400001D0AC42F9D301680A18AA4204D12A68C0
:1087500005468918016000E0456028684119A1427A
:1087600005D16168696021684018286070BD6C603F
:1087700070BDFFB504460D4681B0243000902168DD
:10878000880604D51022E0699143216000E00120B1
:10879000A84201DD471B00E000270498A1697A196F
:1087A0001018081AA0612078C00602D42046FFF7EE
:1087B0006FFC002608E003986268A168805D90471E
:1087C000206A401C761C206204988642F3DB2078E5
:1087D000C0060AD52046FFF75BFC06E06268A16888
:1087E00030209047206A401C206238467F1E0028B7
:1087F000F4DC07E000986268A168405D9047206A59
:10880000401C206228466D1E0028F3DC2046FFF73E
:1088100055FC2078000602D5022005B0F0BD0120ED
:10882000FBE7000001694A1C02610878704700B547
:108830008FB002910021059105490193794403917C
:10884000114604906846FFF76DFD0FB000BD0000B3
:10885000E5FFFFFF0A681070521C0A60704710B5F0
:108860004369002B02D0C046C04601E0FFF749FC37
:10887000012010BD1278014624310A7000224A708E
:108880000122ECE711680022D243E8E710B5436902
:10889000002B02D0C046C04601E0FFF791FC01204A
:1088A00010BD12880146243182840022C284012234
:1088B000ECE711680022D243E8E770B516460C4693
:1088C000054600F03DF80368FF200230C05C012837
:1088D00007D0FF2C0ED8185D00280BD001202C707B
:1088E00070BDFF333246214608331868C318284646
:1088F000984770BD0020C04370BD10B500F080F8EF
:1089000000F077F810BD01468008081A0209101817
:10891000020A1018020C1018C00882001218520027
:10892000891A01E0401C0A390A29FBD2704710B5A8
:1089300000F07EF810BD0000004870473814002099
:1089400010B500F0D3F8001D10BD00BFCD450000EC
:1089500000487047401400207047704770477047C8
:1089600038B504460A4600206946C046C04600287D
:1089700005D002462046009900F0C0F8012038BD1D
:1089800010B5012000F0FCF810BDF8B5C046C04697
:10899000054600200C461020C0460646A819A042F5
:1089A0000DD9324669460020C046C046070001D1B5
:1089B00000F0E6F80098A04200D00546C419FFF781
:1089C000C7FFF61D07460560F008C0004619284697
:1089D00000F008F8B44204D031463868A21B00F019
:1089E0008DF8F8BD00210160416080607047102063
:1089F000704710B5002801D000F052F810BD0000FB
:108A000010B5002102A000F0A1F8012010BD000067
:108A10005349475056464E3A205075726520766944
:108A2000727475616C20666E2063616C6C656400A5
:108A300010B500F00EF80169002903D00022026190
:108A4000884701E08068804700F078F810B500F0B2
:108A500075F870B500F04EF804680546002C15D185
:108A60002020FFF72FFE040012D0002009492C60BF
:108A700003C4094921602071A060E06007492061BA
:108A8000083C002901D000F081F8E061204670BD6B
:108A900000F054F8000000004D8A000800000000BB
:108AA00001491820ABBEFEE7260002007546FFF71D
:108AB00043FFAE46050069465346C008C0008546E0
:108AC00018B020B5FFF794FA60BC00274908B646F5
:108AD0000026C0C5C0C5C0C5C0C5C0C5C0C5C0C5CD
:108AE000C0C5403D49008D467047000000487047B2
:108AF00058140020004870477414002010B5034635
:108B0000406801E003464068002801D08842F9D35C
:108B10001868C3188B4206D0CB1CD808C000001DB3
:108B2000411A521A0146081D0A60FFF7FCFD10BDEC
:108B30000446C046C0462046FFF74AFA002000F02F
:108B40004DF8FFF737FA0120FFF7AAFF70B5054689
:108B50000C460A2000E06D1C00F039F8002D06D00C
:108B600028780028F7D102E0641C00F030F8002CCF
:108B700002D020780028F7D10A2000F028F870BD34
:108B800010B500F031F8FFF734FF10BD10B58820A4
:108B9000FFF798FD002801D00021017010BD802949
:108BA00004D8002802D00178002901D000207047A5
:108BB0000121017008307047002803D002460832B6
:108BC000914201D00020704700210170704708B524
:108BD000694608700320ABBE08BD704710B500F0B1
:108BE0006FF8FFF706FF10BD10B5012805D0002172
:108BF00003A0FFF7ABFF012010BD09A1F8E70000BB
:108C000053494752544D454D3A204F7574206F6675
:108C10002068656170206D656D6F727900000000DD
:108C20003A2048656170206D656D6F727920636FC1
:108C30007272757074656400024670B50A439207DB
:108C40002AD11E4DEE0104C808C9541B9443344078
:108C500017D0D0B2D9B2401A2106014310D190B238
:108C600099B2401A210401430AD110021902000AE4
:108C7000090A401A2102014302D1100E190E401AAE
:108C800070BD9A42DFD010BA19BA884201D90120CA
:108C900070BD0020C04370BD02780B78401C491C99
:108CA000002A09D09A4207D102780B78401C491C4F
:108CB000002A01D09A42EFD0D01A70BD0101010103
:108CC00010B5002102A0FFF741FF012010BD0000F8
:108CD000534947414252543A2041626E6F726D616E
:108CE0006C207465726D696E6174696F6E0000004E
:108CF00010B5837918490268002B26D00B6893437E
:108D00000B604A6803689A434A60027952181368F4
:108D10000468234313608A6803689A438A60CA68B8
:108D200003689A43CA604279102A05D051180A682C
:108D3000006802430A6010BD8A6803681A438A60AB
:108D4000CA6800680243CA6010BD00794018016813
:108D50009143016010BD000000040140F0B5002205
:108D6000012423460D6893401D409D422AD10D7970
:108D7000012D01D0022D12D1876855000326AE4087
:108D8000B74387604E79AE4085682E4386608588FC
:108D90009D43858085888B7993401D438580066837
:108DA00055000323AB409E4306600E790768AE4032
:108DB0003E430660C6689E43C660CB79AB40C5683B
:108DC0002B43C360521C102ACBD3F0BD4B07DB0EE4
:108DD0009A40C90810B589000818016A0F249C4000
:108DE000A1430162016A1143016210BD0246128A69
:108DF00000200A4200D001207047002A01D0816182
:108E00007047018570470000F7B53C4D00983C4E17
:108E100069672867306814460169009888472146C9
:108E2000384803F0B4F8204602F02AFA0119354810
:108E300003F0F4F83449334803F05DF9324931481E
:108E4000A83103F058F931492E4803F054F90024B1
:108E50002C70306803210268286F90472B49C0B2FC
:108E600020310F460122C83701281ED03A7027480A
:108E700000234B7043747C70BA70686F002824D054
:108E800031680A681C219047C5B230681D2102680C
:108E90001A48406F9047C6B21848006F02F084F835
:108EA00000211B4A800010580CE03C7001204870E3
:108EB000E1E7AA4200D17970425CB24200D1B970B8
:108EC000491CC9B2425CFF2AF3D1FC703C717C7131
:108ED000BC71FC713C727C72BC72FC72009800F038
:108EE0003DF809480B491038C1600021054803F0DE
:108EF00073F80021012001F069F9FEBD0010002087
:108F0000F41F0020E4100020F4110020441300207E
:108F100094CF0008C5B0000810B50E4C204603F0F1
:108F20009CF8E01DFD3003F0B5FE012001F040F992
:108F3000094C6188084305D0002902D06088401E92
:108F4000608010BD0021084602F000F90420608016
:108F5000F4E70000E41000200010002010B500210C
:108F600002F0C4F810BD0000F1B505278A4D8B4E04
:108F700000248948295D6D30415C306802680098A2
:108F800090470146864802789301864A9A182B5DDD
:108F9000641C5B00E4B2D152BC42EAD37E4E012590
:108FA0000024F61E07467C48315D801E415C7B48EC
:108FB00000680268009890473978CA00784978318B
:108FC0005118325D641C9200E4B28850AC42EAD37E
:108FD00072480121006802680098904784B2050C2D
:108FE0002046284307D070480088012803D001217B
:108FF0006E4802F0F1FFF86A012600282CD0002C00
:1090000001D0002D14D06848B83002F00EFEF96A85
:10901000884203D16448B83002F06CFEF86A6449B3
:10902000428B8A4218D04183002102F048FD10E0B3
:1090300000214183012102F042FD5B48B83002F07B
:10904000F4FDF96A884204D057480021B83002F094
:10905000F8FDF86A2030067038780C225043514AE7
:10906000002140328018630602224171002B00DA91
:1090700042716B0600D546718171E30600D582719D
:10908000EB0600D58671C171A30600D5C271AB068F
:1090900000D5C6710172E30700D00272EB0700D061
:1090A0000672230600D502722B0600D506724172A5
:1090B000630700D542726B0700D546728172A30721
:1090C00000D58272AB0700D58672C172210700D528
:1090D000C272290700D5C672F96A002947D04179C2
:1090E0003A694B002C49548B491DCB5A9C4202D003
:1090F00053832032167084797A696400538B0C5B39
:10910000A34202D0548320321670C479BA69640035
:10911000538B0C5BA34202D0548320321670047A26
:10912000FA696400538B0C5BA34202D05483203253
:109130001670447A3A6A6400538B0C5BA34202D0E7
:10914000548320321670847A7A6A6400538B0C5BE5
:10915000A34202D0548320321670C07ABA6A40000B
:10916000538B085A834202D0508320321670B8685D
:10917000002801D020300670F868002801D0203087
:109180000670786E002801D020300670F86C002838
:1091900001D020300670F8BD47CF0008F41F002032
:1091A00000100020EC130020E4110020E410002047
:1091B00018C6000070B506460D48002440684728D0
:1091C00014D0FF214031002000F0BEF900F04AFE2B
:1091D0004B25AD02304600F003FE641CAC42F9D3CF
:1091E00001221021034800F023F870BD0021EAE7B6
:1091F000B8100020001400481CB50121880500F0BB
:1092000001FF102000900121684641710171002189
:109210008171C171054C69462046FFF79FFD01220F
:109220001021204600F004F81CBD00000014004886
:1092300010B5FFF7E2FD10BD203AD3B210B5084AD1
:109240005468472C03D1FF244034611A89B29268D4
:109250001468D2885A435200A21800F003F810BDD7
:10926000B8100020F7B582B000260090039900F0F6
:109270006BF91C4D2FE000F0F5FD00241AE00C21E5
:109280003846FFF755F9C1008020884020410499F5
:109290007200895A084201D10C2F05D90120A04043
:1092A000014203D10C2F01D9688800E0288800F022
:1092B00097FD641CA8688788A742E0D80122102186
:1092C0000948FFF7B5FF00980399401C80B2009051
:1092D00000F03AF9761CA868C088B042CBD805B037
:1092E000F0BD0000B81000200014004870470000D6
:1092F000FFB5194D0646686881B017460024472817
:1093000005D1FF2102984031081A80B20290304600
:10931000029900F019F90498002819D100F0A2FD73
:1093200003E0288800F05CFD641CBC42F9D30122F4
:1093300010210A48FFF77CFF05B0F0BD288800F037
:1093400081FD761CB6B23046029900F0FDF8641C2F
:10935000BC42F3D3F0E70000B8100020001400482E
:10936000024A13880380508808807047B810002094
:109370000148806870470000B8100020034840682A
:10938000472801D00120704700207047B810002006
:1093900070B52A4C002621883825A94321802188D0
:1093A00008221143218000F0A3FD732000F0DCFDB2
:1093B000FF21204600F0C0FE8021204600F07CFE08
:1093C0000028F9D10121204600F076FE0028F9D0CE
:1093D000204600F0A5FE761CF6B2052EE8D3FF214C
:1093E000204600F0A9FE8021204600F065FE0028FE
:1093F000F9D10121204600F05FFE0028F9D0FF21BD
:10940000204600F099FE8021204600F055FE0028FD
:10941000F9D10121204600F04FFE0028F9D0204666
:1094200000F051FE0646012210210548FFF700FF1B
:109430002088A8432080304670BD000000300140E5
:1094400000140048F0B5032087B00121400400F06B
:10945000D9FD01212F4800F0EDFD202000900125CD
:10946000684645710227077100248471C471092080
:109470006946C006FFF772FC1020274E009069462F
:109480003046FFF76BFC8020009009206946C0063B
:10949000FFF764FC092000220F21C006FFF796FCAD
:1094A000002204213046FFF791FC09200022072109
:1094B000C006FFF78BFC194800F0DEFD6846FF216F
:1094C000048105314181072109028181C78105821B
:1094D000690241828482C4820721018302A90F4864
:1094E00000F0F4FD29030D4800F01CFE01210B489B
:1094F00000F0B8FD04276846009745710571857135
:10950000C47169463046FFF729FCB08A3843B082FF
:1095100007B0F0BD01100000000400480030014019
:1095200001B5684600880149488008BDB810002090
:1095300003B56946098803480180694689884180E6
:109540000CBD0000B810002070B505460E480C4652
:109550004068472808D02946202000F08BFC21468F
:10956000212000F087FC70BD210A022000F082FC5F
:10957000E1B2032000F07EFC0021062000F07AFC1E
:1095800029460720EDE70000B81000200149886057
:1095900070470000B810002001B5684600880149F6
:1095A000088008BDB8100020F8B5FFF725FEFFF7CA
:1095B00049FFFE48416847297DD04168FC4AFF27A2
:1095C0004037914278D1052003F092FC0121C90374
:1095D000E52000F04FFC0121002000F04BFCFF21B2
:1095E0000131012000F046FC07210902022000F0B1
:1095F00041FCF049032000F03DFC0021042000F074
:1096000039FCED49082000F035FC0021092000F06C
:1096100031FC00210A2000F02DFC00210C2000F07C
:1096200029FC00210D2000F025FC00210F2000F076
:1096300021FC0021102000F01DFC0021112000F071
:1096400019FC0021122000F015FC0021132000F06D
:1096500011FC142003F04CFCD849102000F00AFC47
:10966000FF213831112000F005FC052003F040FCFB
:10967000B91F122000F0FEFB052003F039FC1D216C
:109680000902132000F0F6FB1321292000F0F2FB61
:10969000052003F02DFC0021202000F0EBFB002131
:1096A000212000F0E7FB0621302000F0E3FBFF2142
:1096B0000231312001E07BE097E100F0DBFB032188
:1096C000322000F0D7FBFF210731352000F0D2FB1C
:1096D000BB49362000F0CEFBBA49372000F0CAFB68
:1096E000B949382000F0C6FB0721392000F0C2FB41
:1096F000032149023C2000F0BDFBAF493D20093168
:1097000000F0B8FB0021502000F0B4FBEF21512005
:1097100000F0B0FB0021522000F0ACFB3946532092
:1097200000F0A8FB27210902602000F0A3FB012123
:10973000612000F09FFB00216A2000F09BFB0021CC
:10974000802000F097FB0021812000F093FB002196
:10975000822000F08FFB0021832000F08BFB002192
:10976000842000F087FB0021852000F083FB10217E
:10977000902000F07FFB0021922000F07BFB032172
:10978000932000F077FBFF211131952000F072FB50
:109790000021972000F06EFB0021982000F06AFB6A
:1097A00084490320183900F065FBFF21743103E37D
:1097B0000021EA2000F05EFB2021EB2000F05AFBA4
:1097C0000C21EC2000F056FBC421ED2000F052FBF0
:1097D0004021E82000F04EFB3821E92000F04AFB50
:1097E0000121F12000F046FB1021F22000F042FBA5
:1097F000A321272000F03EFB0121402000F03AFB8E
:109800000021412000F036FB0021422000F032FB15
:109810001021432000F02EFB0E21442000F02AFBF3
:109820002421452000F026FB0421462000F022FBE5
:109830005021472000F01EFB0221482000F01AFBB7
:109840001321492000F016FB19214A2000F012FBD9
:1098500019214B2000F00EFB16214C2000F00AFBD2
:109860001B21502000F006FB3121512000F002FBAB
:109870002F21522000F0FEFA3F21532000F0FAFA87
:109880003F21542000F0F6FA3E21552000F0F2FA74
:109890002F21562000F0EEFA7B21572000F0EAFA43
:1098A0000921582000F0E6FA0621592000F0E2FADA
:1098B00006215A2000F0DEFA0C215B2000F0DAFAD3
:1098C0001D215C2000F0D6FACC215D2000F0D2FAF8
:1098D0001B21084600F0CEFA01211A2000F0CAFA36
:1098E0002F21242000F0C6FA5721252000F0C2FACB
:1098F0008621232000F0BEFA3621182000F0BAFAA3
:109900000121192000F0B6FA0021012000F0B2FA7E
:1099100088211F2000F0AEFA022003F0E9FA80212E
:109920001F2000F0A7FA022003F0E2FA90211F2086
:1099300000F0A0FA022003F0DBFAD0211F2000F093
:1099400099FA022003F0D4FA0521172000F092FAC8
:109950000021012000F08EFA0021022000F08AFA96
:109960000021032000F086FA0121042000F082FA91
:109970003F21052000F07EFA0021062000F07AFA4F
:109980000021072000F076FA0021082000F072FA8A
:10999000EF21092000F06EFA2821162000F06AFA63
:1099A0000021362000F066FA04210FE0B8100020F4
:1099B000209300003010000002020000B0170000E9
:1099C000020B00000203000007070000362000F031
:1099D00051FA3821282000F04DFA062003F088FAC9
:1099E0003C21282000F046FAF8BD4168F34AFF24E4
:1099F0000634F34DF34E91427ED1F349E32000F05B
:109A000039FA1221E72000F035FAF049EF2000F092
:109A100031FA611F012000F02DFA0721090202200E
:109A200000F028FAE900032000F024FA00210420C5
:109A300000F020FA291F082000F01CFA002109205C
:109A400000F018FA00210A2000F014FA00210C207E
:109A500000F010FA00210D2000F00CFA00210F2078
:109A600000F008FA0021102000F004FA0021112073
:109A700000F000FA0021122000F0FCF90021132070
:109A800000F0F8F9142003F033FA0721112000F058
:109A9000F1F9052003F02CFACC4910207F3100F0B9
:109AA000E9F9052003F024FAFF21BE31122000F06D
:109AB000E1F9052003F01CFA05218902132000F0CA
:109AC000D9F90E21292000F0D5F9052003F010FA6C
:109AD0000021202000F0CEF93946212000F0CAF9FB
:109AE0000721302000F0C6F9B5493120FC3100F0E3
:109AF000C1F92146322000E072E000F0BBF92946AE
:109B0000352000F0B7F93146362000F0B3F9294688
:109B1000372000F0AFF9AE49382000F0ABF907214B
:109B2000392000F0A7F921463C2000F0A3F9314686
:109B30003D2000F09FF90021502000F09BF9EF211B
:109B4000512000F097F90021522000F093F9394696
:109B5000532000F08FF9A7210902602000F08AF954
:109B60000121612000F086F900216A2000F082F9CD
:109B70000021802000F07EF90021812000F07AF998
:109B80000021822000F076F90021832000F072F994
:109B90000021842000F06EF90021852000F06AF990
:109BA0001021902000F066F90021922000F062F967
:109BB0000321932000F05EF9FF211131952000F080
:109BC00059F90021972000F055F90021982000F064
:109BD00051F98049032000F04DF9FF211331EBE0EA
:109BE00040687D49884200D0FEE60121002000F057
:109BF00041F9FF210131012000F03CF90721090260
:109C0000022000F037F97349032000F033F90021F6
:109C1000042000F02FF96A490820091F00F02AF9F2
:109C20000021092000F026F900210A2000F022F985
:109C300000210C2000F01EF900210D2000F01AF97F
:109C400000210F2000F016F90021102000F012F979
:109C50000021112000F00EF90021122000F00AF975
:109C60000021132000F006F9142003F041F95B49AC
:109C7000102000F0FFF8FF213831112000F0FAF831
:109C8000052003F035F9FF213A31122000F0F2F8F7
:109C9000052003F02DF91D210902132000F0EAF838
:109CA0001321292000F0E6F8052003F021F9002116
:109CB000202000F0DFF80021212000F0DBF8072150
:109CC000302000F0D7F83E493120FC3100F0D2F8C6
:109CD0002146322000F0CEF82946352000F0CAF89F
:109CE0003146362000F0C6F82946372000F0C2F889
:109CF0003749382000F0BEF80721392000F0BAF8C3
:109D000021463C2000F0B6F831463D2000F0B2F884
:109D10000021502000F0AEF8EF21512000F0AAF809
:109D20000021522000F0A6F83946532000F0A2F896
:109D3000A7210902602000F09DF80121612000F0B8
:109D400099F800216A2000F095F80021802000F0A9
:109D500091F80021812000F08DF80021822000F090
:109D600089F80021832000F085F80021842000F08C
:109D700081F80021852000F07DF81021902000F06E
:109D800079F80021922000F075F80321932000F06B
:109D900071F8FF211131952000F06CF80021972017
:109DA00000F068F80021982000F064F809490320C9
:109DB00000F060F8FF213431072013E6085400005A
:109DC0000602000008080000083000003112000000
:109DD000040500001810000025930000B0170000D3
:109DE00070B5174D04460221284600F065F9012898
:109DF000F9D1210A284600F09FF90121284600F0F8
:109E00005BF90128F9D1284600F08AF90221284699
:109E100000F052F90128F9D1E1B2284600F08CF99E
:109E20000121284600F048F90128F9D1284600F020
:109E300077F98021284600F03FF90028F9D170BD5C
:109E40000030014010B5044600F00CF82046FFF742
:109E5000C7FF012210210248FFF7EAF910BD0000F8
:109E60000014004810B5222000F042F8722000F0E3
:109E70007BF810BD70B50C4600F03AF8722000F087
:109E800073F8194D0221284600F016F90128F9D17E
:109E9000210A284600F050F90121284600F00CF96B
:109EA0000128F9D1284600F03BF90221284600F0AC
:109EB00003F90128F9D1E1B2284600F03DF901216A
:109EC000284600F0F9F80128F9D1284600F028F9D1
:109ED0008021284600F0F0F80028F9D10122102155
:109EE0000248FFF7A5F970BD00300140001400489A
:109EF00070B50546702000F037F8194C0221204655
:109F000000F0DAF80128F9D10021204600F014F918
:109F10000121204600F0D0F80128F9D1204600F0B8
:109F2000FFF80221204600F0C7F80128F9D12946A0
:109F3000204600F001F90121204600F0BDF801287B
:109F4000F9D1204600F0ECF88021204600F0B4F86A
:109F50000028F9D1012210210248FFF769F970BDEC
:109F6000003001400014004870B505460022102161
:109F70000E48FFF75DF90E4C0221204600F09CF8D8
:109F80000128F9D12946204600F0D6F801212046C3
:109F900000F092F80128F9D1204600F0C1F88021A4
:109FA000204600F089F80028F9D170BD001400485F
:109FB0000030014030B5837801210278002B15D0A4
:109FC00094080E4BA400E41823689207D50EFF22D4
:109FD000AA40934342789207120EAA401A43226085
:109FE0000078C006C00E8140054804E0D006C00ECF
:109FF000814003488030016030BD000000E400E093
:10A0000000E100E0044A0029516901D0014300E069
:10A01000814351617047000000100240044A00294A
:10A02000116901D0014300E08143116170470000D4
:10A0300000100240044A0029916901D0014300E068
:10A04000814391617047000000100240044A0029DA
:10A05000D16801D0014300E08143D1607047000026
:10A060000010024040220029018801D0114300E085
:10A0700091430180704700000D4910B5884209D115
:10A08000841401212046FFF7E1FF00212046FFF75D
:10A09000DDFF10BD07498842FBD104140121204691
:10A0A000FFF7BCFF00212046FFF7B8FF10BD0000FE
:10A0B00000300140003800400246128900200A4268
:10A0C00000D00120704780897047000030B50388B8
:10A0D000C122920113400A88CC890D892243CC8881
:10A0E0002C4322434C8922438C8922431A43028009
:10A0F0008288094B1A408B88134383800A8A028224
:10A100000288042349889A4311430180818B034AC2
:10A110001140818330BD0000FFF00000FFF7000018
:10A12000007B70478288034B1A40828082880A43F2
:10A1300082807047FFEF00000173704738B5002040
:10A140000090FFF731FA0020FFF722F90146009056
:10A1500009480A4C814205D00948814202D0401F7B
:10A16000814203D16060FFF71FFA01E04720606081
:10A1700002480C30A06038BD08540000B810002020
:10A180002593000010B50021062000F01FF80021E3
:10A19000042000F01BF80021052000F017F8002132
:10A1A000022000F013F80021032000F00FF810BD8A
:10A1B00010B5044A4100515A034A80001058FEF776
:10A1C00015FE10BDBCD200089C100020F3B504465B
:10A1D0008600224887B080590121FFF713FF012133
:10A1E0000846FFF727FF002568460572C5721B4821
:10A1F00067001038C05B0190194801A98059FEF72B
:10A20000ADFD0898012826D114483938015DC01FDA
:10A21000005D00F027F811481C30C05B04906846D0
:10A220000575002C03D0012C01D0082000E00C2083
:10A230006946487501256846857504A8FEF758FDEE
:10A2400006483238015D68460176032141768576FD
:10A2500006A8FFF7AFFE09B0F0BD0000CCD20008A1
:10A260009C1000208A07130F10B50F229A408C080B
:10A270000549A40061188C6894438C608A689840F2
:10A2800002438A6010BD0000000001401CB500219F
:10A29000224801910091026801231B041A430260C5
:10A2A0005B000522120304681C400094019C641C9E
:10A2B0000194009C002C02D1019C9442F3D10268CD
:10A2C000920328D501210091154A1121116041689E
:10A2D00041604168416041687F22D20391434160FF
:10A2E00041681122120411434160016801221206E3
:10A2F0001143016001688901FCD541688908890022
:10A300004160416802221143416041680907890F99
:10A310000229FAD11CBD00911CBD000000100240B2
:10A320000020024010B51448016801221143016069
:10A330004168124A114041600168114A11400160B0
:10A340000168012292049143016041683F22120496
:10A3500091434160C16A09090901C162016BFF2291
:10A36000543291430163416B490849004163002124
:10A370008160FFF78BFF10BD001002400CB8FF0892
:10A38000FFFFF6FEF0B585B0282002F0FFFC0321A8
:10A3900000910523324A33A102F0BEFC019028202F
:10A3A00002F0F4FC1E21009105232D4A30A102F099
:10A3B000B3FC0290282002F0E9FC3C210091052327
:10A3C000274A35A102F0A8FC0390282002F0DEFC09
:10A3D0004B2100910523224A38A102F09DFC07463B
:10A3E000282002F0D3FC5A21009105231C4A3CA1ED
:10A3F00002F092FC0646282002F0C8FCB42100912D
:10A400000523174A3FA102F087FC0546282002F0E9
:10A41000BDFC732100910523114A424902F07CFCE6
:10A4200004460F48019901F0D0FB0D48029901F054
:10A43000CCFB0B48039901F0C8FB3946084801F0F2
:10A44000C4FB3146064801F0C0FB2946044801F030
:10A45000BCFB2146024801F0B8FB05B0F0BD00008E
:10A46000F411002048656C702050616765000000A1
:10A4700055736520746865206A6F79737469636BBE
:10A4800020746F20776F726B2077697468204C435B
:10A4900044204755490000002D55502F444F574E3A
:10A4A00020746F206D6F7665206265747765656EC8
:10A4B00020636F6E74726F6C730000002D4C454604
:10A4C000542F524947544820746F206D6F76652091
:10A4D0006265747765656E20706167657300000062
:10A4E0002D53454C20746F20696E746572616374DE
:10A4F00020776974682074686520636F6E74726F6A
:10A500006C000000436F707972696768742053545F
:10A510004D6963726F656C656374726F6E696373A6
:10A520000000000052CF0008F0B5E44887B00021D9
:10A53000212211544174282002F028FC0021DF4A16
:10A540000B460091A832DEA102F0E6FB054628206A
:10A5500002F01CFCD94E35220A21A8360292019144
:10A560003C2300969B22DCA102F02EFB074628200C
:10A5700002F00CFC112100910F233A46DBA102F0FE
:10A58000CBFB0490282002F001FC252100910F2331
:10A590003A46D9A102F0C0FB0590382002F0F6FB44
:10A5A0000F216E22D74C009701920291217803234C
:10A5B0008A01D5495118D5A201F074F9A06038205C
:10A5C00002F0E4FB23226E21009702920191217890
:10A5D00003238A01CC495118CCA2891C01F062F9ED
:10A5E000E060282002F0D2FB1421CD2201920291DA
:10A5F000AA2300966422C6A102F0E6FA039028205E
:10A6000002F0C4FB0F2100910523C3A1039A02F0BD
:10A6100083FB2061282002F0B9FB21210091052352
:10A62000C0A1039A02F078FB6061282002F0AEFB23
:10A63000332100910523BEA1039A02F06DFBA061B6
:10A64000282002F0A3FB452100910523BBA1039A1A
:10A6500002F062FBE061282002F098FB5721009194
:10A660000523B9A1039A02F057FB2062282002F0CB
:10A670008DFB692100910523B6A1039A02F04CFBE2
:10A680006062282002F082FB7B2100910523B4A1A7
:10A69000039A02F041FBA062302002F077FB8D218B
:10A6A00000910A23B1A1039A00F0F6FEB249E062DC
:10A6B0004162B2494183002101F001FA3046E16A6A
:10A6C00001F083FA2946304601F07FFAAC48006871
:10A6D0000169206F8847C00656D5282002F056FB36
:10A6E00073220A21029201913C230096BE22A5A169
:10A6F00002F06AFA0646282002F048FB1121009178
:10A7000005233246A3A102F007FB0290382002F095
:10A710003DFB0546206F00F047FC9F49800009582B
:10A720000F2001910090324621230021284602F09B
:10A730003FF805469948286001990020E962A886FB
:10A74000284602F08FF80021284602F0ACF85B485A
:10A750003146A830656001F038FA58480299A830AF
:10A7600001F033FA55486168A83001F02EFA2078DC
:10A770000C2148436449403140184178606802F038
:10A7800092F86168864848624C483946A83001F022
:10A790001CFA4A480499A83001F017FA474805996D
:10A7A000A83001F012FA4548A168A83001F00DFA6E
:10A7B0004248E168A83001F008FA0021A06801F0E1
:10A7C0007EF90021E06801F07AF96D4800680169BE
:10A7D000206F8847010F022903D00001000F0228D3
:10A7E00013D1302002F0D2FAB221344A00910A2368
:10A7F000A8326CA100F050FE0146A0652F48A83099
:10A8000001F0E3F9A16D6C4848622C480399A83027
:10A8100001F0DBF929482169A83001F0D6F9274871
:10A820006169A83001F0D1F92448A169A83001F08C
:10A83000CCF92248E169A83001F0C7F91F48216A24
:10A84000A83001F0C2F91D48616AA83001F0BDF9D5
:10A850001A48A16AA83001F0B8F921780C204143C8
:10A860002948226940300918487943004A48283865
:10A87000C35A53838B7962695B00C35A5383CB7984
:10A88000A2695B00C35A53830B7AE2695B00C35A27
:10A8900053834B7A226A5B00C35A53838B7A626A72
:10A8A0005B00C35A5383C97AA26A4900405A508355
:10A8B0000248A83001F01EFA07B0F0BDF4110020E4
:10A8C000436F6E66696775726174696F6E20616E41
:10A8D0006420646562756700506F77657220626FEF
:10A8E0006172642073746174757300004443204284
:10A8F000757320766F6C74004865617473696E6B54
:10A9000020542E0000100020EC130020253364009A
:10A910004661756C747300004F7665726375727270
:10A92000656E74005265767570206661696C000012
:10A930005370656564206664626B00005357206540
:10A9400072726F7200000000556E64657220766F3F
:10A950006C7400004F76657220766F6C7400000096
:10A960004F7665722074656D700000004661756CED
:10A97000742061636B000000ADB0000818C60000D1
:10A98000F41F00204441432053657474696E67735B
:10A99000000000004368310074CF0008BCEF0008DD
:10A9A000F5B10008456E636F64657220616C69677C
:10A9B0006E6D656E740000003DB20008F0B58BB09E
:10A9C000282002F0E3F900210B460091FD4AFEA188
:10A9D00002F0A2F90390282002F0D8F9F9491423D3
:10A9E0000A226C460EC45A239122FCA102F0ECF814
:10A9F0000746282002F0CAF91E2100913C233A465E
:10AA0000F9A102F089F90490282002F0BFF9412150
:10AA100000913C233A46F5A102F07EF905902820EA
:10AA200002F0B4F90F21009105233A46F0A102F09B
:10AA300073F90690402002F0A9F90522F04C1E217E
:10AA400001920097029121782246C9007832891834
:10AA50000623ECA201F07AFA05462063EA48402179
:10AA600000680268206F90470646E7483F2100686B
:10AA70000268206F9047AE63E863282002F086F9F1
:10AA80003221009105233A46E0A102F045F90790F2
:10AA9000382002F07BF941210522009701920291B2
:10AAA0002178C84D8901A83549190623D5A2091D69
:10AAB00000F0F8FED94A0021606300F0C5FE3020A6
:10AAC00002F064F9412100915A233A46D4A100F0E2
:10AAD000E3FCD549A063416200F000FA282002F0AF
:10AAE00055F9064673220A21B64802920191009058
:10AAF0004B236822CDA1304602F066F80646282096
:10AB000002F044F9142100910A233246CAA102F04E
:10AB100003F90890282002F039F9232100910A2333
:10AB20003246C6A102F0F8F80990382002F02EF95A
:10AB30008446142028210096019102902078062353
:10AB400080014119AFA26046891D00F0ABFEE063B1
:10AB5000382002F01BF98446232028210096019119
:10AB600002902078062380014119A6A26046083190
:10AB700000F098FE20649348039901F026F891486C
:10AB8000049901F022F88F48059901F01EF8394622
:10AB90008C4801F01AF88B48069901F016F889489C
:10ABA000216B01F012F88748079901F00EF88548EB
:10ABB000616B01F00AF88348A16B01F006F8814847
:10ABC000E16D01F002F87F48216E00F0FEFF7D4844
:10ABD000616E00F0FAFF7B48E16E00F0F6FF0021A5
:10ABE000606E00F06CFF7748A16E00F0EEFF31461A
:10ABF000744800F0EAFF7348089900F0E6FF7148D6
:10AC0000099900F0E2FF6F48E16B00F0DEFF6D484C
:10AC1000216C00F0DAFF7C4800680169206F8847EA
:10AC200080072BD5282002F0B1F8322100910A23A9
:10AC3000324683A102F070F80746382002F0A6F8E9
:10AC4000322128220096019202912178062389015F
:10AC500049196CA20A3100F025FE60643946594852
:10AC600000F0B3FF5748616C00F0AFFF6B4A002162
:10AC7000606C00F0E9FDE16B72484862674E0021AC
:10AC80003246E06B00F0E0FD32460021206C00F01F
:10AC9000DBFD5D4800680169206F8847C0077DD0F3
:10ACA000282002F073F8474973237D226E460EC6B2
:10ACB0004B23B42264A101F087FF0646282002F04E
:10ACC00065F80E270A23324663A1009702F024F8A4
:10ACD0000390282002F05AF8502332465EA10097D4
:10ACE00002F01AF80490382002F050F819270A21CF
:10ACF000029700960191217804238901491958A2ED
:10AD00000C3100F0CFFDA064382002F03FF8502154
:10AD1000029700960191217804238901491950A2D4
:10AD20000E3100F0BFFDE064282002F02FF82C2740
:10AD30000A23324640A1009701F0EEFF059028203B
:10AD400002F024F8502332463CA1009701F0E4FFC2
:10AD50000746382002F01AF837210A22009601929D
:10AD60000291217806238901491926A2103100F0A9
:10AD700099FD2065382002F009F83721502200960D
:10AD80000192029121780623890149191DA21231ED
:10AD900000F088FD606531460A4800E08EE000F072
:10ADA00014FF0848039900F010FF0648049900F0CA
:10ADB0000CFF0448A16C00F008FF0248E16C00F0B1
:10ADC00004FF4FE044130020537065656420636FF7
:10ADD0006E74726F6C6C65720000000053657420B5
:10ADE000706F696E7400000072706D006D7300000A
:10ADF00054617267657420737065656400000000BB
:10AE00000010002025366400F41F002052616D7090
:10AE1000206475726174696F6E000000FF7F00002E
:10AE2000457865630000000055B200085049442091
:10AE30004761696E730000004B5000004B490000F1
:10AE40004B44000085B10008466C757820776C2E65
:10AE50002074756E696E67004255538000000000D3
:10AE6000253464000021E06C00F029FE18480599A3
:10AE700000F0ABFE3946164800F0A7FE1448216DDD
:10AE800000F0A3FE1248616D00F09FFE7D22D2000B
:10AE90000021A06C00F0D8FC0E4D00212A46206D48
:10AEA00000F0D2FC2A460021606D00F0CDFCA16CC0
:10AEB00009484862216D4862616D4862E16B06484D
:10AEC0004862216C4862024800F014FF0BB0F0BDEC
:10AED00044130020FF7F000085B100083EB5282004
:10AEE00001F054FF1422A023214901930292009102
:10AEF0005A2391221FA101F067FE204CE065282013
:10AF000001F044FF0F21009105231DA1E26D01F026
:10AF100003FF2066402001F039FFE26D1E25052168
:10AF200000920295019121782246C9007832891851
:10AF3000062317A2091D01F009F86066302001F010
:10AF400025FF41210091052312A1E26D00F0A4FA32
:10AF5000A066282001F01AFF00953C2310A1E26DA5
:10AF600001F0DAFEE066A16E0E4848623EBD0000C8
:10AF7000081100204D6F6E69746F72000010002080
:10AF80004D6561737572656420737065656400005A
:10AF90002536640053746172742F53746F7000000F
:10AFA00072706D004DB1000810B527490024096882
:10AFB00009698847010E090703D0010F09290DD03F
:10AFC00010E0000F092800D101240A2800D1022432
:10AFD000012801D0022835D1032433E00201120FE9
:10AFE0000A2A05D00A2904D10201120F092A00D128
:10AFF0000624092905D10201120F022A09D0012ACB
:10B0000007D00201120F092A04D1022901D0012917
:10B0100000D104240A2905D10201120F022A09D005
:10B02000012A07D00201120F0A2A04D1022901D0F5
:10B03000012900D105240B2904D10001000F0928A2
:10B0400000D10724204610BDF41F002010B514487D
:10B0500000F01BFE1248A83000F017FE114800F067
:10B0600014FE1148002141608160C16001614161AD
:10B070008161C161016241628162C16201634163B8
:10B080008163C163016441648164C1640165416598
:10B090008165C165016641668166C16610BD0000BB
:10B0A000F411002044130020001000200348072161
:10B0B0000068C2680248006F10470000F41F0020BB
:10B0C0000010002010B50C46FFF7C0FF002C06D082
:10B0D000012C07D0022C01D1FFF770FC10BDFFF747
:10B0E00051F910BDFFF720FA10BD0000F3B50E4670
:10B0F000880113490024114F81B045181148015DA2
:10B10000662907D03868026801989047411C01D031
:10B1100061006852641CE4B2202CEFD3386804212B
:10B12000026801989047084AF1005050688F3146F4
:10B13000C2B2019800F046F8FEBD0000F41F0020E6
:10B14000EC130020B4CF00087810002070B50A4C32
:10B150000A4A20780A4D810189188A88C000214650
:10B160007831095828684368206F98472868062175
:10B17000C268206F904770BD00100020EC130020C3
:10B18000F41F002030B40A46018D0A480A4C0378A7
:10B190009B011B19C91AC9050B0E0849C95C662910
:10B1A00005D0074B006F1B689B6830BC184730BC4C
:10B1B0007047000000100020EC130020B4CF0008FE
:10B1C000F41F0020F8B515468A0108495418224694
:10B1D0003832074900920968931E8E69121F29466A
:10B1E000B047E08E06214843E086F8BDEC1300200E
:10B1F000F41F002070B50D4C6168884214D1088E90
:10B200000C21C5B220784843094940184570206F89
:10B21000FFF7CAFE0749800008580021425D064832
:10B220000068C369606F984770BD0000001000207F
:10B230002C14002094CF0008F41F0020034808219C
:10B240000068C2680248006F10470000F41F002029
:10B25000001000200748084B01788A01D218C90065
:10B26000034678335958054B92881B68006F5B681A
:10B270001847000000100020EC130020F41F0020ED
:10B28000014600200A5C401CC0B2002AFAD1704777
:10B2900010B5002400F0F4F8002800D00124204666
:10B2A00010BD70B50446426A20340D46002A09D00C
:10B2B000217B002906D0002D04D16178002901D01E
:10B2C00000219047257370BD70B5002405460529FF
:10B2D00006D10021FFF7E5FF284601F04FF80124D1
:10B2E000284600F0CDF8002800D00124204670BD8B
:10B2F000F0B50546C06987B0C1888688891D8CB2C3
:10B30000A86AFDF7D3F84643F61DB1B22246284697
:10B3100001F070F8284601F00CF8009068460088AB
:10B3200086B2284601F005F800906846408884B24D
:10B33000284601F08DF8801E87B2284601F061F89A
:10B34000801E80B20390688B0090284601F080F840
:10B350000290284601F055F80190284600F0E9FFD8
:10B360000590284600F0E5FF04906846C08A029BDD
:10B3700081B26846008A019A80B200F051FB2846EB
:10B3800000F07EF8002827D0284600F0D2FF009079
:10B3900068460088801C86B2284600F0CAFF0090EC
:10B3A00068464088801C84B2688B0090284601F073
:10B3B0004FF8401E82B2601E81B20190701E80B2B2
:10B3C000012300F00BFB688B0090284601F019F870
:10B3D000801E82B2019810E0688B0090601C81B2E0
:10B3E00003980123301880B23A4600F0F7FA688BD0
:10B3F00000900398801C82B2E01981B2002330468D
:10B4000000F0ECFA688B00903B4621463046039AE8
:10B4100000F006FB288B0090F81E82B2A01C81B2BF
:10B420000190B01C80B2012300F0D8FA2120405DC9
:10B43000002801D01F2000E0288B00900398BF1E39
:10B44000801E82B2641C701CBBB2A1B280B200F03C
:10B45000E7FA0198F61C81B2AA6AB0B200F01CFBB0
:10B4600007B0F0BD10B504460020052907D1012121
:10B470002046FFF716FF204600F080FF012010BD98
:10B480002030017B002904D04078002801D0012021
:10B49000704700207047000070B51C4616460D46E8
:10B4A00022463146049B00F011FB0849016000214F
:10B4B00006462036416231730446012100F0FFFA4E
:10B4C0000120A5623070204670BD00003CEE0008EF
:10B4D00010B501F056FC10BD70B5C46A0D46002CC5
:10B4E00000D111A43321095C0B0001F063FC0618A4
:10B4F0000404080C101800F05FF802460AE000F09F
:10B500005BF882B206E000F057F802B202E000F009
:10B5100053F8C2B221462846FCF7A6FD70BD00F0E4
:10B520004BF842B2F6E700002564000070B50E4605
:10B530000446002500F04DFC002824D0A06A002815
:10B5400020D020462030012E02D0022E1AD10BE04E
:10B55000228E817C52182286FF2901D0491C8174D9
:10B56000204600F05AF90AE0228E817C5218228689
:10B57000FF2901D0491C8174204600F006F82046BE
:10B5800000F0FCFE0125284670BD10B5044600F011
:10B5900013F83022A25E3423811AE35E2046203065
:10B5A0008B4204DD92102286827C92088274C07CD9
:10B5B000204600F031F810BD00B533210A5C816AE5
:10B5C000130001F0F7FB060D040406080B0D0868D4
:10B5D00000BD088800BD0020085E00BD087800BDE1
:10B5E0000020085600BD70B50C460646002500F048
:10B5F000F0FB002800D00125052C09D13446203469
:10B60000E078002806D00020E070304600F0B6FE5A
:10B61000284670BD0120F7E710B50446806A00286F
:10B620001DD03422A25E8A4219DC3622A25E8A42F2
:10B6300015DB3322125D022A04D0042A04D049B259
:10B64000017002E0016000E00180606A002806D01D
:10B650002046FFF7B1FF0146626A2046904710BDC1
:10B66000F0B58FB00446202105A8FCF75FFF658B7D
:10B67000204600F0EDFE0746204600F0C2FE0646DA
:10B68000204600F056FE0290204600F052FE049044
:10B690000095684640893B4681B26846008A32463A
:10B6A00080B200F0BDF9258B204600F0D1FEC01E0F
:10B6B00086B2204600F03DFE0190204600F039FEA3
:10B6C000039000956846C0880123801C81B26846BB
:10B6D00080893246801C80B200F080F925462035F2
:10B6E000687800281DD0204600F0B2FE801E86B289
:10B6F000204600F086FE801E87B2204600F019FE2C
:10B700000290204600F015FE01901F200090684630
:10B7100040893346401C81B268468088401C80B214
:10B720001DE0268B204600F093FE801E80B2049020
:10B73000204600F066FE801E87B2204600F0F9FD2C
:10B740000290204600F0F5FD019000966846408981
:10B75000049B401C81B268468088401C80B23A46F7
:10B7600000F05EF9204600F034FB002809D068782C
:10B77000002806D01F21C943684601800088FDF7D4
:10B78000CFFEA878002805D11049684601800088BE
:10B79000FDF7C6FEA06A002816D005A92046FFF7CF
:10B7A0009BFE204600F0C5FD0190204600F0C1FD43
:10B7B00000906846C08805AA801C81B2684600884F
:10B7C000C01C80B200F068F90FB0F0BDFF7F000030
:10B7D00070B50E460446002500F0FBFA00281AD08A
:10B7E000A06A002816D02046002101222030012E18
:10B7F00002D0022E0ED105E022868174204600F090
:10B800000CF804E0228681742046FFF7BEFE204635
:10B8100000F0B4FD0125284670BD10B50446FFF7C1
:10B82000CBFE3022A25E36238118E35E2046203014
:10B830008B4204DA92102286827C92088274C07C49
:10B840002046FFF7E9FE10BD8186C28670470000E2
:10B85000F8B51D4617460E4606AC0ECC00F0C4FAED
:10B860000E490160044602212030C174E7620121C3
:10B87000A6622186E069C1888088091D68438AB272
:10B88000401D81B2204600F0B5FD0549A186891E04
:10B89000E186002120466162F8BD000064EE0008E8
:10B8A00001800000F8B51D4617460E4606AC0ECCCA
:10B8B00000F09AFA0E490160044604212030C17458
:10B8C000E7620121A6622186E069C1888088091D9E
:10B8D00068438AB2401D81B2204600F08BFD0549C5
:10B8E000A186891EE186002120466162F8BD000024
:10B8F00064EE00080180000010B501F042FA10BDAE
:10B90000FEB50F4611491C4609881646081A401E06
:10B9100085B2002A18D001A96846FDF721FD0898D4
:10B92000FDF73AFE07E03846791C8FB20023324615
:10B930002946FDF7DDFC2046641EA4B20028F2D1A2
:10B9400068460088FDF728FEFEBD0000CE100020EE
:10B9500010B5FEF7F3FB054C2046FDF72BFC204607
:10B96000FDF7DEFD0020FDF717FE10BDFFFF000014
:10B97000F7B50E4604460546FDF700FD164F0128B3
:10B9800003D13888001B401E85B2FDF7F1FC80888A
:10B990003988001988420ED8FDF7EAFC808806280D
:10B9A00004D1FDF7E5FCC088082805D029463046BB
:10B9B000029AFDF741FCFEBDFDF7DAFC0468FDF7D5
:10B9C000D7FC818802982038414348002218F0B201
:10B9D0002946FDF78BFCFEBDCE100020FFB50E46BC
:10B9E0000E4983B009881446081A401E85B201A981
:10B9F00068460C9FFDF7B4FC3846FDF7CDFD002CE2
:10BA000006D0641EA2B229463046069BFDF770FCA4
:10BA100068460088FDF7C0FD07B0F0BDCE100020DD
:10BA2000FFB51C4983B009880C9F081A401E1C46AC
:10BA3000154686B2002A2BD0002C29D001A96846D1
:10BA4000FDF78EFC3846FDF7A7FD6F1EBAB2002346
:10BA500031460498FDF74CFC0498BAB20019401E18
:10BA600080B200233146FDF743FC601E82B2012301
:10BA700031460498FDF73CFC701B401C81B2012349
:10BA800022460498FDF734FC68460088FDF784FDE3
:10BA900007B0F0BDCE10002070B514460E46054626
:10BAA00009E031462846FFF763FFFDF761FC808817
:10BAB000401985B2641C2278002AF2D170BD203072
:10BAC0008170002900D1417070470000F0B585B049
:10BAD0001F46944600240D46064623463A466146D4
:10BAE00001A8009400F00CFC02462946304600F004
:10BAF000F1FC04490160014620318C704C7005B0A6
:10BB0000F0BD000088EE000810B501F03AF910BD54
:10BB100000224274002904D02122125C002A00D0A5
:10BB20004174704710B500F073FC10BD70B50C4641
:10BB300000F0A6FC05460A482860002C0AD02046E2
:10BB400000F086FCA1892289891A024689B228461A
:10BB500000F050FC012121204155284670BD000015
:10BB6000ACEE0008FFB585B00F461E46114602A890
:10BB70000F9D0E9C00F0B6FB0246009433463946FA
:10BB80000195059800F0D4FC0349012201602121B0
:10BB90000A5409B0F0BD0000ACEE000810B500F08A
:10BBA000EBFC03490122016021210A5410BD000071
:10BBB000ACEE000870B50D46044600F0FBFC2035E5
:10BBC000697821200155204670BD10B500290AD0A2
:10BBD000024680321346D28C202A04D294002018C8
:10BBE000521CDA84416210BD70B50C46054600F067
:10BBF0001CF801684A6921469047002807D1012CAA
:10BC000006D0022C03D1284600F074F8012070BD44
:10BC1000284600F088F8F9E710B50B4600F005F863
:10BC200001688A691946904710BD01468031CA8C67
:10BC3000898C8A4203D989000818406A704700201D
:10BC40007047F8B5064604468036F08C0F46B84279
:10BC50001AD92046FFF7E9FF00252030457020461D
:10BC6000FFF7E3FF00F08AFBB7842046FFF7DDFF14
:10BC70002030457082780121002A00D04170204692
:10BC8000FFF7D3FF00F07AFBF8BD70B5002405463E
:10BC90000646803509E0A0008019406A002802D0DD
:10BCA000016849688847641CE4B2E88CA042F2D875
:10BCB0000020A884E88470BD70B504462030007868
:10BCC000002802D0204600F059FB26468036F08C32
:10BCD00000280ED0002509E0A8000019406A2021A4
:10BCE000095C002901D000F049FB6D1CF08CA842D2
:10BCF000F2DC70BD10B501468031CA8C002A11D02B
:10BD0000898C0B46491C8A4200D800218B4206D000
:10BD10008C002418646A2034A478002CF2D089B2F4
:10BD2000FFF78FFF10BD10B501468031CB8C002B83
:10BD300011D0898C0A46002900D11946491E8A4231
:10BD400006D08C002418646A2034A478002CF2D029
:10BD500089B2FFF776FF10BD70B5044600F058FBBE
:10BD600026468036F08C00280AD0002505E0A80081
:10BD70000019406A00F002FB6D1CF08CA842F6DC52
:10BD800070BD70B50C460546FFF74FFF01680A69A4
:10BD900021469047002807D1012C06D0022C03D160
:10BDA0002846FFF7A7FF012070BD2846FFF7BBFF1D
:10BDB000F9E7000010B5FFF7B9FE04490160002162
:10BDC000024680329184D184417410BDD0EE0008C7
:10BDD00070472030C178002904D04078002801D075
:10BDE000012070470020704710B5FFF76FFE044632
:10BDF0000548206000212320015501212046FFF73E
:10BE00005EFE204610BD0000F4EE000810B500F004
:10BE1000B8FF10BD70B50E4604460025FFF7D9FFE8
:10BE2000002826D0A06A002822D020462030012EEB
:10BE300002D0022E1CD10CE0218E827C8918218632
:10BE4000817CFF2901D0491C8174204600F067F8ED
:10BE50000BE0218E827C89182186817CFF2901D00C
:10BE6000491C8174204600F006F8204600F086FA4E
:10BE70000125284670BD10B50446FFF79DFB01461D
:10BE80003020205EA26B091A8A4206DD801022460D
:10BE900020862032907C80089074204600F001F8C3
:10BEA00010BD10B50446806A002810D0A26B8A42EB
:10BEB0000DDCE26B8A420ADB0160606A002806D072
:10BEC0002046FFF779FB0146626A2046904710BD85
:10BED00070B50E4604460025FFF77BFF00281CD0F6
:10BEE000A06A002818D020462030012E02D0022E51
:10BEF00012D107E00121218600218174204600F043
:10BF00000EF806E001212186002181742046FFF70A
:10BF1000B2FF204600F032FA0125284670BD10B568
:10BF20000446FFF749FB01463020205EE26B09180A
:10BF30008A4206DA8010224620862032907C8008D1
:10BF400090742046FFF7ADFF10BD0000FEB508AFAE
:10BF500070CF6F4670C7FFF77BFC03490160034950
:10BF600081630349C163FEBD18EF00086179FEFFDC
:10BF70003F420F0010B500F004FF10BD10B50C4695
:10BF800000F022F801684A692146904710BD10B5BB
:10BF9000903000F0BBFE10BD70B50C46054600F0B9
:10BFA00013F801688A6921469047002807D1032CBD
:10BFB00006D0042C03D1284600F035F8012070BDCE
:10BFC000284600F07DF8F9E7FF210131095A890080
:10BFD00008188030006E704770B5C41D0546F934EE
:10BFE00060880E46B04218D92846FFF7EDFF0021C1
:10BFF000FFF78EFD26802846FFF7E6FF0121FFF7B9
:10C0000087FD2846FFF7E0FF012120300170E2683C
:10C01000002A02D031462846904770BD10B5B8308E
:10C0200000F074FE10BD10B5C11DF9314A88002A18
:10C0300012D009880B46491C8A4200D800218B4245
:10C0400007D08C0024188034246E20346478002CAF
:10C05000F1D089B2FFF7C0FF10BD70B504460546A8
:10C06000B03000789035002805D0284600F0D0F98F
:10C07000284600F083F9D8202546005DB835002811
:10C0800005D0284600F0C4F9284600F077F92020B2
:10C09000005D002802D0204600F070F9E01DF93064
:10C0A0004188008881420AD9800000198030006EE2
:10C0B000002804D02046FFF787FFFFF7FDFD70BD85
:10C0C00010B5C11DF9314B88002B13D009880A46E1
:10C0D000002901D0491E00E0591E8A4207D08C0079
:10C0E00024188034246E20346478002CF0D089B277
:10C0F000FFF772FF10BD10B500290AD0C31DF93338
:10C100005A88082A05D294002018E024521C5A802C
:10C11000015110BD704710B50C46FFF755FF01687F
:10C120000A692146904710BDFFB59DB004461546EB
:10C1300011461AA8279E00F0D5F8269900910246CC
:10C14000019600212046209BFFF70CFD5D49016010
:10C150002430FFF723FD2430FFF720FD2430FFF7C4
:10C160001DFD243000F0EAFD283000F0E7FD044614
:10C170004C3055490B9001600021B83C4160FFF7FD
:10C18000E7FBE01DF93000210F9041800F984F4FE1
:10C1900001802889A9880022401A83B2F8881146B4
:10C1A000801C80B200901AA800F0AAF81F21024655
:10C1B0000091474B0197214602A8FFF7D3FC0146A7
:10C1C000204648300D90FFF7F5FC0D9800F0D6F8AA
:10C1D0002889A988401A83B26889E988411AF088B9
:10C1E000091A801C891E80B20AB2009000211AA888
:10C1F00000F086F80246269800900196214602A893
:10C20000209BFFF7AFFC014620466C300E90FFF7F5
:10C21000D1FC0E9800F0B2F86889E988471A0E98A8
:10C2200000F016F93F1A0D9800F012F9381A87B28B
:10C230002889A988401A85B20D9800F009F902B240
:10C240002B4600211AA8009700F05AF80246204811
:10C25000009000232146019602A8FFF783FC0146C7
:10C26000204624300546FFF7A5FC284600F086F856
:10C2700001200090034610A80D9A1E9900F04CFD75
:10C2800001462046903000F06BFD00200090012315
:10C2900010A110A80E9A00F03FFD01462046B830CC
:10C2A00000F05EFD20462021E030FCF73FF90B9DB9
:10C2B00000F0A2FC6C600F980021C160204621B004
:10C2C000F0BD00003CEF000808F00008C41000209A
:10C2D000FFFF0000200000000149016070470000DE
:10C2E0003CEF0008054A02608A888280CA88C280C2
:10C2F0000A890281498941817047000060EF000886
:10C3000030B5054D039C05608180C280C91801814C
:10C310001119418130BD000060EF00080349016040
:10C3200000218180C18001814181704760EF000858
:10C3300070471CB50446002000906069002812D0A8
:10C34000FFF7F7FF0090684600882189411868468A
:10C3500001806069FFF7EDFF01906846C088618940
:10C360004118684603E0218968460180618941805F
:10C3700000981CBD0020704700207047F0B50446AF
:10C3800085B0002120300170204600F066F80028BA
:10C3900013D0E069002801D0FDF7F8F8618B6846FA
:10C3A0000180218B818081880088FDF7C1F8206899
:10C3B00081682046884705B0F0BDE0896189268BF9
:10C3C000401A85B2A0892189401A87B22046FFF71A
:10C3D000B0FF01902046FFF7ACFF0490009668463E
:10C3E000C0882B4681B26846008A3A4680B2FFF781
:10C3F00087FAE0E703895918818141898918C18149
:10C40000704781890089081A80B270470020704700
:10C41000F0B585B00746048B00F01AF8064638469A
:10C42000FFF7EFFF05463846FFF783FF01903846D8
:10C43000FFF77FFF049000946846C088334681B2BE
:10C440006846008A2A4680B2FFF75AFA05B0F0BD66
:10C45000C1894089081A80B2704710B50446406906
:10C46000002808D0FFF7F9FF002806D0607C0028DC
:10C4700003D0012010BD607C10BD002010BD000065
:10C480000A4610B5124902C0FFF748FF041F0020FA
:10C4900020816081A081E0810121617421742021CB
:10C4A000085520461A30811E6261FCF759FFFCF7DF
:10C4B0005FFFE0616069002807D0408B608360699E
:10C4C000008B20836069C069E061204610BD0000D8
:10C4D00070EF00080B4610B5144902C0FFF71EFFAD
:10C4E000041F90882081D08860811089A0815089A4
:10C4F000E081012060742074002120200155204635
:10C500001A30811E6361FCF72BFFFCF731FFE061FD
:10C510006069002807D0408B60836069008B2083AE
:10C520006069C069E061204610BD000070EF00083E
:10C53000F8B50F460F49069E079D02C0FFF7EEFEB5
:10C54000041F90882081D08860811089A081508943
:10C55000E081012060742074002120206761015572
:10C5600063832683FCF704FFE061002D00D0E561C2
:10C570002046F8BD70EF000810B50D4902C0FFF766
:10C58000CDFE041F002020816081A081E081012177
:10C590006174217420210855606120461A30811E83
:10C5A000FCF7DEFEFCF7E4FEE061204610BD000073
:10C5B00070EF00088B688360CB68C3600A7C0274EC
:10C5C0004A7C42744A6942610A8B02834A8B4283E5
:10C5D000CA692031C2610A7820210A54704710B517
:10C5E0000024FFF7F6FB002800D00124204610BDF0
:10C5F00070B50C4606460025FFF7EBFB002800D07F
:10C600000125052C09D134462034E078002806D0D5
:10C610000020E0703046FFF7B1FE284670BD0120D3
:10C62000F7E7F0B5816A87B0044600290ED0E069CB
:10C63000C2888688121D95B20846FBF737FF46432D
:10C64000761DB1B22A462046FFF7D4FE658B204600
:10C65000FFF7FEFE07462046FFF7D3FE06462046BC
:10C66000FFF767FE01902046FFF763FE04900095F8
:10C670006846C0883B4681B26846008A324680B22E
:10C68000FFF7CEF9258B2046FFF7E2FEC01E86B2EB
:10C690002046FFF74EFE01902046FFF74AFE03902A
:10C6A00000956846C0880123801C81B26846808955
:10C6B0003246801C80B2FFF791F925462035687814
:10C6C00000281DD02046FFF7C3FE801E86B22046FC
:10C6D000FFF797FE801E87B22046FFF72AFE0290E2
:10C6E0002046FFF726FE01901F20009068464089F3
:10C6F0003346401C81B268468088401C80B21DE0F1
:10C70000268B2046FFF7A4FE801E80B204902046B0
:10C71000FFF777FE801E87B22046FFF70AFE0290E1
:10C720002046FFF706FE0190009668464089049B6C
:10C73000401C81B268468088401C80B23A46FFF7B0
:10C740006FF92046FFF745FB002809D068780028DC
:10C7500006D01F21C943684601800088FCF7E0FE2F
:10C760002046FFF7E6FD02902046FFF7E2FD01902C
:10C7700068464089A26A801C81B268468088C01CD5
:10C7800080B2FFF789F907B0F0BD01232022816252
:10C790001354426A002A00D01047704710B5002495
:10C7A000FFF717FB002800D00124204610BD000031
:10C7B00070B51C4616460D4622463146049BFFF7CF
:10C7C00013FB04460448206000206062294620468E
:10C7D000FFF7DBFF204670BD94EF000810B500F0B6
:10C7E000D0FA10BD10B50024FFF7F3FA002800D0EE
:10C7F0000124204610BD70B50E4604460025FFF703
:10C80000E8FA00281BD0012E02D0022E16D109E032
:10C81000208E002800D1608E401E81B2204600F09C
:10C8200042F80FE0618E208E491E884201D100211E
:10C8300001E0401C81B2204600F035F80125052EAC
:10C8400003D000E00125284670BD20462030C17885
:10C85000002905D00021C1702046FFF78FFDF1E7C8
:10C860000121F8E710B5044600206086E06A002840
:10C8700012D110BDFBF71AFEA18E884206D9618E37
:10C88000E06A89004058FBF711FEA086608E401CCC
:10C8900080B26086FF28ECD8618EE06A890040583B
:10C8A0000028E7D110BD428E8A4208D9002A06D05E
:10C8B0000186C26A890051580268D26910477047E0
:10C8C000F0B50446C06987B0C1888088091D8AB266
:10C8D000A18E491C48430A3081B22046FFF78AFDE9
:10C8E000658B2046FFF7B4FD07462046FFF789FD1C
:10C8F00006462046FFF71DFD01902046FFF719FD73
:10C90000049000956846C0883B4681B26846008A1C
:10C91000324680B2FFF784F8258B2046FFF798FD5A
:10C92000C01E86B22046FFF704FD01902046FFF7A7
:10C9300000FD039000956846C0880123801C81B2E9
:10C94000684680893246801C80B2FFF747F825464A
:10C950002035687800281ED02046FFF779FD801E1C
:10C9600087B22046FFF74DFD801E86B22046FFF7B6
:10C97000E0FC02902046FFF7DCFC01901F200090B5
:10C98000684640893B46401C81B2684680883246F2
:10C99000401C80B21EE0268B2046FFF759FD801E0A
:10C9A00080B204902046FFF72CFD801E87B22046FF
:10C9B000FFF7BFFC02902046FFF7BBFC01900096FA
:10C9C000684640893A46401C81B268468088049B8C
:10C9D000401C80B2FFF724F82046FFF7FAF9002840
:10C9E00009D06878002806D01F21C9436846018015
:10C9F0000088FCF795FD2046A56AFFF79AFC009099
:10CA00002046FFF796FC6B46029058882A46801C09
:10CA100081B21889C01C80B2FFF73EF8658B2046B2
:10CA2000FFF716FDC01E86B22046FFF782FC03907A
:10CA30002046FFF77EFC01902046FFF7E2FC6B46A4
:10CA4000998832464118E06980880095081AD9898A
:10CA5000401F891C80B289B20123FEF7BFFF658B9E
:10CA60002046FFF7F5FCC01E86B22046FFF761FCAA
:10CA700003902046FFF75DFC01902046FFF7C1FCC4
:10CA80006B46998832464118E06980880095081AFB
:10CA9000D989001F891C80B289B20123FEF79EFF4D
:10CAA000668B2046FFF7D4FCC01E85B22046FFF7F8
:10CAB00040FC03902046FFF73CFC01902046FFF726
:10CAC000A0FC6B469988C01E40180096D98980B298
:10CAD000891C89B201232A46FEF780FF208B6B4612
:10CAE0001880608B988099881888FCF721FD204673
:10CAF000FFF71FFC01902046FFF71BFC009020462B
:10CB0000FFF77FFC6B46198806A24118E069808810
:10CB1000081AD988C01E891C80B289B2FEF7BCFFF2
:10CB200007B0F0BD7600000001232022816213547B
:10CB3000426A002A00D01047704710B50024FFF762
:10CB400048F9002800D00124204610BD10B500F09F
:10CB500018F910BDFEB50446458BFFF779FCE16975
:10CB600089884908401A87B22046FFF74AFC01909D
:10CB70002046FFF7DEFB0090E069808841086846A8
:10CB80004088081886B22046FFF7D3FB0290009534
:10CB9000684600893B4680B23146019AFEF740FF65
:10CBA0002046656AFFF7C5FB01902046FFF7C1FBF1
:10CBB00000906846C0882A4681B268460088801D79
:10CBC00080B2FEF769FFFEBDF8B51D46164606AFFA
:10CBD0001CCF009400F0A0F8044604482060AAB2DC
:10CBE000B1B22046FFF706FC2046F8BDE4EF00088E
:10CBF00010B500F0C6F810BD10B5FDF7C3FA10BDB2
:10CC0000F8B50E46054606240B0000F0D3F8050BD8
:10CC10000406080A0B00042404E0052402E00324AF
:10CC200000E002242046FDF7C3FA194F01281AD16B
:10CC30007878A0420CD13878002802D0401E387095
:10CC400006E06868002803D001684A6931469047C9
:10CC50007878FF2807D17C706868002803D00168C5
:10CC60000A69314690472046FDF7A2FA00280DD107
:10CC70007878A0420AD1FF20787005203870686863
:10CC8000002803D001688A6931469047F8BD00004A
:10CC9000CC10002010B504460521FFF7B1FF01219B
:10CCA0002046FFF7ADFF02212046FFF7A9FF032131
:10CCB0002046FFF7A5FF04212046FFF7A1FF10BD86
:10CCC0007CB5416A044600291DD0E069C588868884
:10CCD0000846FBF7EBFB4643B1B22A462046FFF776
:10CCE00089FB2046FFF725FB01902046FFF721FB3B
:10CCF00000906846C088626A81B26846008880B247
:10CD0000FEF7CAFE7CBDFFF783FB7CBD41620121BB
:10CD1000203001707047000070B51D4616460C4665
:10CD20002A463146049BFEF7D1FE034944620122A4
:10CD3000016020210A5470BD18F0000810B5FFF7FB
:10CD40001BFC00210246203291705170014A0260A2
:10CD5000416210BD18F0000810B500F012F810BDC7
:10CD600070B50C460546FFF725FC204620302946C5
:10CD7000427820314A7080788870606A68622846FC
:10CD800070BD10B5FBF7CFFC10BD000010B504005E
:10CD900008D1012406E0FBF78DFC0068002800D1D3
:10CDA000034880472046FBF78DFC0028F3D010BDD8
:10CDB0002F89000830B47446641E2578641CAB4289
:10CDC00000D21D46635D5B00E31830BC1847F7B521
:10CDD00007460E4600251020FBF774FC04000AD01D
:10CDE0006760A6600298E060FBF768FC016821605C
:10CDF00004602846FEBD0125FBE7F8B50646FBF7B3
:10CE00005DFC009015E0002E04D0E068B04201D037
:10CE100025460FE0206828600098A16807686068D0
:10CE200088472046FBF77FFC00980068B84201D095
:10CE3000009805462C68002CE5D1F8BD10B50020FF
:10CE4000FBF75BFD10BD00001CB5F020FF230022A6
:10CE50000090413311461948FFF752FA184A194910
:10CE6000FFF7B5FF1F20154A1749009001911046A2
:10CE7000164B17A10C30FFF757F9114A1549FFF768
:10CE8000A6FF0E49303108460C46EC30FEF792FF03
:10CE90000B4A1149FFF79BFF21461048FEF78AFF16
:10CEA000074A0D49FFF793FF0C482146A830FEF7CB
:10CEB00081FF034A0849FFF78AFF1CBDD8100020F4
:10CEC000007E000831C30008D0100020FFFF0000E2
:10CED00000000000D9C20008D1BD00089C1200204B
:10CEE00030380A2801D20120704700207047000026
:10CEF00001B581B00449019848430090002801D051
:10CF0000401EFAE70CBD0000D084000010B5FBF70E
:10CF100096F8002010BD000010B500290AD008784E
:10CF2000002807D005487844FBF786FE002801D08A
:10CF3000002010BD0248784410BD00009E2400006F
:10CF40009624000001661E0001070B0D18C600F8AC
:10CF50001F004C4344206D616E61676572207665E9
:10CF6000723A20342E320000000000000000000061
:10CF70000000000000000000D8CF0008D8CF000853
:10CF800088D10008E0D10008E0D1000864D0000892
:10CF900000D100080000000034D000084BD0000889
:10CFA000CCD1000844D200085DD20008E0D00008CF
:10CFB0006CD10008191A6605060718211617081FF4
:10CFC0000C20090A0B0D0E0F1011121315146666B2
:10CFD000666666666600000034F0000848F00008E7
:10CFE000FCF00008ACF0000884F000085CF00008D9
:10CFF00038F1000824F1000898F0000870F00008EB
:10D0000010F10008C0F0000874F10008B0F1000849
:10D0100060F100084CF100089CF1000888F100085C
:10D02000C4F10008D8F10008D4F00008E8F00008C6
:10D0300000000000232425262728292A2B2C2D2E0A
:10D0400031323334353642433D3EFF2324252627F3
:10D0500028292A2B2C2D2E3738393A3B3C44453D84
:10D060003EFF000034F0000848F00008FCF0000823
:10D07000ACF0000884F000085CF0000838F100080B
:10D0800024F1000898F0000870F0000810F1000882
:10D09000C0F000083CF2000878F2000800F2000836
:10D0A000ECF1000814F2000828F2000850F2000821
:10D0B00064F20008DCF2000818F30008A0F200088F
:10D0C0008CF20008B4F20008C8F20008F0F2000880
:10D0D00004F30008D4F00008E8F0000800000000A5
:10D0E000232425262728292A2B2C2D2E3132333490
:10D0F000353642433738393A3B3C44453D3EFF00E4
:10D1000034F0000848F00008FCF00008ACF000081B
:10D1100084F000085CF0000838F1000824F10008F1
:10D1200098F0000870F0000810F10008C0F0000846
:10D130002CF3000840F3000868F3000854F30008DB
:10D140003CF2000878F2000800F20008ECF1000858
:10D1500014F2000828F2000850F2000864F20008F7
:10D16000D4F00008E8F00008000000002324252681
:10D170002728292A2B2C2D2E5D5E5F603132333417
:10D18000353642433D3EFF0034F0000848F00008C9
:10D19000FCF00008ACF0000884F000085CF0000827
:10D1A00038F1000824F1000898F0000870F0000839
:10D1B00010F10008C0F000087CF3000890F30008AC
:10D1C000D4F00008E8F00008000000002324252621
:10D1D0002728292A2B2C2D2E2F303D3EFF00000022
:10D1E00034F0000848F00008FCF00008ACF000083B
:10D1F00084F000085CF0000838F1000824F1000811
:10D2000098F0000870F0000810F10008C0F0000865
:10D210007CF3000890F3000874F10008B0F10008F6
:10D2200060F100084CF100089CF1000888F100084A
:10D23000C4F10008D8F10008D4F00008E8F00008B4
:10D2400000000000232425262728292A2B2C2D2EF8
:10D250002F3031323334353642433D3EFF232425CF
:10D26000262728292A2B2C2D2E2F303738393A3BC8
:10D270003C44453D3EFF0000090A01010002000454
:10D280000040000000000200000002000201020253
:10D290000202000D0808090607000707070707072D
:10D2A0000500000400080010040000000000080051
:10D2B000000008000000080000001000002000012D
:10D2C0000001000240008000010000000000080092
:10D2D0000000040000000800000008000000080032
:10D2E0000000080000000200002000010001000210
:10D2F000400080000100000000000000000000006D
:10D30000000000000000000000000000000000001D
:10D31000000000000000000000000000000000000D
:10D3200000000000000000008001800180018001F9
:10D3300080018001800180018001800180018001E5
:10D34000800100000000800180010000000000005A
:10D3500000000000000000000000CC00CC00CC0069
:10D36000CC00CC00CC000000000000000000000059
:10D3700000000000000000000000000000000000AD
:10D38000000000000000000000000000000000009D
:10D390000000600C600C600C30063006FE1FFE1FA3
:10D3A000300638071803FE1FFE1F180318038C01F0
:10D3B0008C018C01000000008000E003F80F9C0E3F
:10D3C0008C1C8C188C009800F801E007800E801CE3
:10D3D0008C188C189C18B80CF00FE00380008000AB
:10D3E0000000000000000000000000000E181B0CF0
:10D3F000110C11061106110311039B018E01C03897
:10D40000C06C60446044304430441844186C0C389C
:10D410000000000000000000E001F00338071806DB
:10D4200018063003F001F000F8009C310E33061EA0
:10D43000061C061C063FFC73F021000000000000E3
:10D44000000000000000000000000C000C000C00B8
:10D450000C000C000C0000000000000000000000A8
:10D4600000000000000000000000000000000000BC
:10D470000000000000000000000200038001C00066
:10D48000C00060006000300030003000300030002C
:10D4900030003000300060006000C000C00080013B
:10D4A000000300020000000020006000C0008001B6
:10D4B00080010003000300060006000600060006C7
:10D4C0000006000600060003000380018001C00082
:10D4D00060002000000000000000000000000000CC
:10D4E0000000C000C000D806F807E001300338078C
:10D4F000000000000000000000000000000000002C
:10D50000000000000000000000000000000000001B
:10D51000000080018001800180018001FC3FFC3F10
:10D520008001800180018001800100000000000076
:10D5300000000000000000000000000000000000EB
:10D5400000000000000000000000000000000000DB
:10D5500000000000000000008001800100010001C7
:10D56000800000000000000000000000000000003B
:10D570000000000000000000000000000000E007C4
:10D58000E0070000000000000000000000000000B4
:10D59000000000000000000000000000000000008B
:10D5A000000000000000000000000000000000007B
:10D5B0000000000000000000C000C00000000000EB
:10D5C0000000000000000000000C000C0006000637
:10D5D0000006000300030003800380018001800136
:10D5E000C000C000C000600060000000000000003B
:10D5F0000000000000000000E003F007380E180CE7
:10D600000C180C180C180C180C180C180C180C18FA
:10D610000C18180C380EF007E003000000000000A2
:10D62000000000000000000000018001C001F001C6
:10D6300098018801800180018001800180018001C2
:10D640008001800180018001800100000000000055
:10D650000000000000000000E003F80F180C0C1898
:10D660000C1800180018000C000600038001C00010
:10D67000600030001800FC1FFC1F000000000000CC
:10D680000000000000000000E001F807180E0C0C7C
:10D690000C0C000C0006C003C007000C001800189A
:10D6A0000C180C18180CF807E0030000000000002C
:10D6B0000000000000000000000C000E000F000F32
:10D6C000800DC00C600C600C300C180C0C0CFC3F76
:10D6D000FC3F000C000C000C000C000000000000DF
:10D6E0000000000000000000F80FF80F18001800FC
:10D6F0000C00EC03FC071C0E001C0018001800189E
:10D700000C181C0C180EF807E003000000000000C5
:10D710000000000000000000C007F00F381C1818BF
:10D7200018000C00CC03EC0F3C0E1C1C0C180C1841
:10D730000C18181C380EF007E00300000000000071
:10D740000000000000000000FC1FFC1F000C000691
:10D750000006000380038001C001C000E0006000FB
:10D760006000700030003000300000000000000059
:10D770000000000000000000E003F007380E180C65
:10D78000180C180C3806F007F007180C0C180C18B9
:10D790000C180C18380CF80FE00300000000000013
:10D7A0000000000000000000E003F007380E1C0C31
:10D7B0000C180C180C181C1C381EF81BE01900184B
:10D7C000000C000C1C0EF807F00100000000000027
:10D7D0000000000000000000000000000000000049
:10D7E0000000800180010000000000000000000037
:10D7F0000000000000008001800100000000000027
:10D800000000000000000000000000000000000018
:10D810000000800180010000000000000000000006
:10D820000000000000008001800100010001800074
:10D8300000000000000000000000000000000000E8
:10D840000000000000000010001C800FE003F87FC3
:10D85000F87FF87FE003800F001C0010000000003C
:10D8600000000000000000000000000000000000B8
:10D87000000000000000F81F000000000000F81F7A
:10D880000000000000000000000000000000000098
:10D890000000000000000000000000000000000088
:10D8A00000000000000008003800F001C007FE1F63
:10D8B000FE1FFE1FC007F001380008000000000036
:10D8C0000000000000000000E003F80F180C0C1826
:10D8D0000C180018000C000600038001C000C000F6
